:020000021000EC
:10F0000000000120F9A9020021AA020023AA02009F
:10F0100025AA020027AA020029AA02000000000077
:10F020000000000000000000000000002BAA020009
:10F030002DAA0200000000002FAA020031AA02003F
:10F040001567020033AA020033AA0200E56202003B
:10F0500033AA0200196C02007156020021680200F6
:10F0600033AA020033AA020033AA020033AA020024
:10F0700033AA02009D6A020033AA020033AA0200EA
:10F0800033AA0200ED6F020033AA020033AA020085
:10F09000A970020033AA0200899D020033AA02006F
:10F0A00033AA020033AA020033AA0200156B020041
:10F0B000B964020071650200000000000000000059
:10F0C00033AA020033AA020033AA020033AA0200C4
:10F0D00033AA020033AA020033AA02000000000093
:10F0E0000000000000000000000000000000000020
:10F0F0000000000000000000000000000000000010
:10F1000000000000000000000000000000000000FF
:10F1100000000000000000000000000000000000EF
:10F1200000000000000000000000000000000000DF
:10F1300000000000000000000000000000000000CF
:10F1400000000000000000000000000000000000BF
:10F1500000000000000000000000000000000000AF
:10F16000000000000000000000000000000000009F
:10F17000000000000000000000000000000000008F
:10F18000000000000000000000000000000000007F
:10F19000000000000000000000000000000000006F
:10F1A000000000000000000000000000000000005F
:10F1B000000000000000000000000000000000004F
:10F1C000000000000000000000000000000000003F
:10F1D000000000000000000000000000000000002F
:10F1E000000000000000000000000000000000001F
:10F1F000000000000000000000000000000000000F
:10F2000010B5054C237833B9044B13B10448AFF360
:10F2100000800123237010BD504300200000000037
:10F220004CE20200084B10B51BB108480849AFF387
:10F2300000800848036803B910BD074B002BFBD0C2
:10F24000BDE81040184700BF000000004CE202007B
:10F25000544300202C43002000000000154B002BDD
:10F2600008BF134B9D46A3F5803A00218B460F46FD
:10F270001348144A121A00F065F80F4B002B00D007
:10F2800098470E4B002B00D0984700200021040027
:10F290000D000D48002802D00C48AFF3008000F0AC
:10F2A0002BF82000290000F0C5F900F011F800BF8C
:10F2B0000000080000000120000000000000000025
:10F2C00050430020945D002000000000000000007A
:10F2D00008B5074B044613B10021AFF30080054B7E
:10F2E0001868836A03B19847204600F033F800BFDE
:10F2F00000000000ACBE020070B50E4B0E4CE41ACC
:10F30000A41000251E46A54204D056F82530984783
:10F310000135F8E70CF0BCFD084C094BE41AA410C9
:10F3200000251E46A54204D056F8253098470135E1
:10F33000F8E770BD24430020244300202843002028
:10F340002443002002440346934202D003F8011BE9
:10F35000FAE77047FEE700BFBFF34F8F0549064B42
:10F36000CA6802F4E0621343CB60BFF34F8F00BF63
:10F37000FDE700BF00ED00E00400FA0574DF704710
:10F380008ADF70478BDF704732DF70473EDF7047A0
:10F3900000283ED01F4B204A1B6800BF00BF00BFA3
:10F3A00000BF00BF00BF00BF00BF93422FD000BF0F
:10F3B00000BF00BF00BF00BF00BF00BF00BF00BF55
:10F3C00000BF00BF00BF00BF00BF00BF00BF00BF45
:10F3D00000BF00BF00BF00BF00BF00BF00BF00BF35
:10F3E00000BF00BF00BF00BF00BF00BF00BF00BF25
:10F3F00000BF00BF00BF00BF00BF00BF00BF00BF15
:10F4000000BF00BF00BF00BF00BF00BF00BF01388A
:10F41000C3D170471C4300200024F40008B50649FE
:10F4200003200AF073FEFFF7A9FFFFF7ABFF0348C5
:10F43000BDE80840FFF7A4BFB8BE0200B0BE02009E
:10F4400010B50378012B6ED067D3022B64D1032053
:10F450005D490AF05BFE03205C490AF057FE01207B
:10F4600001F028FF002840F0AC8001F065FE002884
:10F4700040F0A4804FF0A0434FF40031544AC3F849
:10F4800030171268534941F2883300BF00BF00BFF4
:10F4900000BF00BF00BF00BF00BF8A422FD000BF27
:10F4A00000BF00BF00BF00BF00BF00BF00BF00BF64
:10F4B00000BF00BF00BF00BF00BF00BF00BF00BF54
:10F4C00000BF00BF00BF00BF00BF00BF00BF00BF44
:10F4D00000BF00BF00BF00BF00BF00BF00BF00BF34
:10F4E00000BF00BF00BF00BF00BF00BF00BF00BF24
:10F4F00000BF00BF00BF00BF00BF00BF00BF013B97
:10F50000C3D1FFF741FF3449044603200AF0FEFD52
:10F51000002C4FD1FFF720FF10BD03202F49BDE87D
:10F5200010400AF0F3BD03202D490AF0EFFD284BEF
:10F5300028491A6841F2883300BF00BF00BF00BFEE
:10F5400000BF00BF00BF00BF8A422FD000BF00BF76
:10F5500000BF00BF00BF00BF00BF00BF00BF00BFB3
:10F5600000BF00BF00BF00BF00BF00BF00BF00BFA3
:10F5700000BF00BF00BF00BF00BF00BF00BF00BF93
:10F5800000BF00BF00BF00BF00BF00BF00BF00BF83
:10F5900000BF00BF00BF00BF00BF00BF00BF00BF73
:10F5A00000BF00BF00BF00BF00BF00BF013BC3D111
:10F5B000FFF7D2FE204607F029FCABE707F026FC58
:10F5C00058E707F023FC50E750BF020080BF02005D
:10F5D0001C4300200024F400A8BF0200E8BE020083
:10F5E0001CBF02002DE9F041144684B00746506864
:10F5F0000E460AF089FDA5682488804628460BF04F
:10F60000CDF90AF081FD3A46334609490390CDF819
:10F6100000800120019402950AF0B8FD022001F05B
:10F620004BFE41F28830FFF7B3FEFFF795FE00BFB7
:10F630001CC0020030B5002085B00AF053FD08B1AF
:10F6400007F0E4FB032029490AF060FD0320284964
:10F650000AF05CFD08203C21264A07F0E7FB08B1D0
:10F6600007F0D4FB08F028F808B107F0CFFB2248D8
:10F67000224A012108F0EAF808B107F0C7FB204848
:10F680004FF42021002208F0F3F808B107F0BEFB88
:10F6900004AC1C4B44F80C3D204601F0E5FB08B1DE
:10F6A00007F0B4FB1848FFF773FE184B184A019394
:10F6B000204600230292039300F0E0FB08B107F01C
:10F6C000A5FB144D402407F047FCF1EE103A23F05F
:10F6D0009F03E1EE103AF1EE103AC5F88441FFF7CE
:10F6E00055FE0028EFD007F091FBECE778C0020050
:10F6F000ACC002008C430020E4C002001DF40100F5
:10F700006C430020D0C00200A086010041F401003B
:10F710005C47002000E100E06DDF70477ADF704752
:10F720007CDF70477FDF70478FDF70479EDF704759
:10F73000A9DF7047ADDF704769DF704766DF70474C
:10F7400031DF70473DDF704707F060BB30B51446CE
:10F7500085B0062918D8DFE801F03848538104A3A2
:10F760001900FA2B10D8684D019328681A462146D3
:10F7700029300BF027FF2868019B80F8233100F027
:10F78000D9FF08B107F042FB05B030BDF72BFBD81D
:10F790005D4D019328681A46214600F595700BF0DF
:10F7A00011FF019B2A68DCB282F8214202F042FF7D
:10F7B000002840F086802868534D00F5957021465A
:10F7C00002F0F6FE002869D066E00A2BDCD84E4D28
:10F7D00001931A46214628680BF0F4FE019B2A6823
:10F7E0000021D1542868C372C9E7032BCCD1464D00
:10F7F000286821461A460C300BF0E4FE2868BEE764
:10F80000082BC1D1404D019328681A4621460F307C
:10F810000BF0D8FE019B00211A4602A8FFF792FDCB
:10F820002B68197CDA7B42EA0122ADF80820997C2A
:10F830005A7C42EA0122ADF80A20DA7C197D42EABC
:10F840000122ADF80C205A7D9B7D02A842EA0323D9
:10F85000ADF80E3005F0FCF900B31DE0112B93D884
:10F86000294D019328681A46214617300BF0AAFE4D
:10F87000019B2A68022B82F828301FD9234C244987
:10F88000238117324FF43E7304F10A006260236053
:10F890006161FFF741FF68B307F0B8FA28686EE7C7
:10F8A000032B7FF471AF2278012A0DD019481A4931
:10F8B00005F098FE00283FF467AF63E701F028FAEF
:10F8C000ECE707F0A3FA76E718461449B4F80120EC
:10F8D00001930AF029FC124AB4F801101088FFF7CE
:10F8E00025FF019B0028E1D121461A460A480BF06A
:10F8F00069FE49E7E37A20460233E37201F0B4F986
:10F9000001F0D2F9CAE700BFFC480020644900209A
:10F9100049F70100044900207C490020F4C002009E
:10F920000643002000B585B038B1032802D10D4947
:10F930000AF0ECFB05B05DF804FB03200A490AF06D
:10F94000E5FB04A8022300F80C3D084B1B68984710
:10F95000032005F023F80028ECD007F057FA05B093
:10F960005DF804FB3CC1020074C102009047002016
:10F970000B78012B0ED009D3022B03D103200749AA
:10F980000AF0C4BB022006490AF0C0BB03200549A7
:10F990000AF0BCBB032004490AF0B8BBACC10200AA
:10F9A00068C2020028C20200ECC1020010B5044681
:10F9B00084B008F07FF9204601F020F92046023C8F
:10F9C00005F06CF8012C01D904B010BD04AC002383
:10F9D00044F80C3D204608F061F908B107F016FA2A
:10F9E000019B002BF0D1064B1B78002BECD0054B74
:10F9F000012220461B688DF804209847E4E700BFE9
:10FA00008C470020904700202DE9F04F0446ADB010
:10FA10009F4F05F05FF9204605F0BEF83A6862B1E5
:10FA20009C4E0025336803EBC50301355B6813B1B9
:10FA3000204698473A689542F4D39748214605F006
:10FA4000DBF9964821460AF0A5FE2388552B00F2E3
:10FA5000BB80DFE813F0DD00E200B900B900B900B7
:10FA6000B900B900B900B900B900B900B900B900CE
:10FA7000B900B900B900EA00F900B9001301B900F2
:10FA8000B900B900B900B900B900B9005600B90011
:10FA90006401B900B900B90041014E01B900B900D3
:10FAA000B900B900B900B900B900B900B900B9008E
:10FAB000B900B900B900B900B900B900B900B9007E
:10FAC000B900B900B900B900B9005301B900B900D3
:10FAD000B900B900B900B900B900B900B900B9005E
:10FAE000B900B900B900B900B900B900B900B9004E
:10FAF000B900B900B900B900B9005901B900B9009D
:10FB0000BF00257A022D5FD100213C220EA8FFF70D
:10FB100019FC634B8DF8385000261B6806960622A8
:10FB200001270A960B968DF83A6007960896099673
:10FB30000C960D968DF83B208DF81B709A890A92D1
:10FB40009B7BDFF88CB10B9331463C221DA8FFF75D
:10FB5000F9FBDFF880E1534B009619789BF800C061
:10FB60009EF800208DF809104FF0800A8BF8006095
:10FB700031468DF80AC003AE0DF1080C8DF80B204C
:10FB80000EA8494B8EF800A04FF6FF794FF05408AD
:10FB90004FF0040B06AA1796ADF80C908DF808806C
:10FBA000CDF814C0ADF810B004F036FE06460028BB
:10FBB00040F02481384604F029FE032004F0EEFED4
:10FBC00003203A490AF0A2FA204604F007FF2DB0BC
:10FBD000BDE8F08F03203649E2880AF0A5FAA08834
:10FBE0004FF48A71FFF7A6FD002840F0FA803149F2
:10FBF000E3882948A1F8013005F0F4FC0028E3D09F
:10FC000007F004F9204604F0E9FE2DB0BDE8F08FBE
:10FC1000032029490AF07AFAD6E7284B00211888F0
:10FC2000FFF78CFD0028CFD0EAE7032024490AF033
:10FC30006DFA2CA8002300F83C3D224B1F4AA188F6
:10FC40001B6811809847BFE70320227A1E492CAD1C
:10FC50000AF06AFA002345F83C3D184B4FF6FF7254
:10FC600028461A8008F01AF8002879D11D9B002B2D
:10FC700000F0BA80154B01221A70A5E70F4B002245
:10FC8000188885211346FFF74DFD00289CD0B7E763
:10FC9000944700208847002004490020984700200E
:10FCA000FC4800200843002025F90100F4C50200AB
:10FCB00030C302007C49002064C4020006430020D7
:10FCC000A4C2020090470020E0C202008C4700203E
:10FCD0008D4700200443002003205B490AF016FAF8
:10FCE00000210A46A088FFF71FFD00283FF46CAFF3
:10FCF00086E7032055490AF009FA65E703205449CD
:10FD000062890AF011FA5FE7524B002118880A460F
:10FD10000B46FFF70DFD00283FF456AF70E70320B8
:10FD20004D490AF0F3F90EA800210822FFF70AFB5B
:10FD3000E77DFF0804F118063FF446AF637E227E9C
:10FD4000092B18BF002304D164E05178F25C092923
:10FD500009D001321344BB4206EB0302F5D333E76B
:10FD600007F054F882E70233F518013A2846ADF857
:10FD700038200F950BF0AAFC804638480BF0A6FC03
:10FD80008045FFF421AF2946024634480BF00AFCB7
:10FD9000054600287FF418AFDFF8DC8094F816E001
:10FDA00098F800304FFA8EF25BB29A427FF70CAFB0
:10FDB00029461DA8082288F800E0FFF7C3FA637EF1
:10FDC000217EFF2B18BF2B4604D13AE05278F15C1C
:10FDD000FF2A21D001310B44BB4206EB0302F5D3CD
:10FDE000F2E607F013F802E71D491E4A0B700123E3
:10FDF00012688DF8743028469047E5E61A480AF0F4
:10FE000083F9009602461949284640F22E230AF04B
:10FE1000ABF9D9E60223A7E702331E4498F8003075
:10FE2000F0780F9A00905BB24D1E032010491E9689
:10FE3000ADF874500AF098F91E9A0E4BD2781A70E9
:10FE4000C2E60223E9E700BFCCC302001CC40200E3
:10FE500080C302000643002094C40200ECC00200EC
:10FE60008C470020904700202CC50200A0C502004E
:10FE7000DCC402008D470020044300202DE9F04F30
:10FE8000784C794F794D7A4E7A497B4BAFB0024628
:10FE90002068089092E8110092682A6038604FF458
:10FEA000A67208A8346009F001FF002840F0D7804E
:10FEB0002EAC002344F8783D204609F07DFF002851
:10FEC00040F0CA8000210C221FA8FFF73BFA01274F
:10FED0004FF48A731FA92320109A8DF87C70ADF817
:10FEE0007E30FFF729FC002840F0B38000210C226F
:10FEF0001FA8FFF727FA0627012320201FA9109A21
:10FF00008DF87C308DF87E30ADF88070FFF714FCF2
:10FF1000002840F09B8000210C221FA8FFF712FA56
:10FF20000127102322201FA9109A8DF87C708DF8CC
:10FF30007E30FFF701FC002840F0858000210C2274
:10FF40001FA8FFF7FFF90127022321201FA9109AFC
:10FF50008DF87C708DF87E30FFF7EEFB00286FD1B6
:10FF600000210C221FA8FFF7EDF9022301201FA991
:10FF7000109A8DF87C30FFF7DFFB00285DD100215F
:10FF80000C221FA8FFF7DEF9012340201FA9109AB9
:10FF90008DF87C30FFF7D0FB00284BD100210C22DC
:10FFA0001FA8FFF7CFF940F6E443A1201FA9109A3C
:10FFB0001F93FFF7C1FB002839D100210C221FA895
:10FFC000FFF7C0F99DF87C30109A43F00103A020A0
:10FFD0001FA98DF87C30FFF7AFFB28BB204609F046
:10FFE000F5FEF0B9254809F0BBFE48B104460120F2
:10FFF000234922460AF098F820462FB0BDE8F08F3A
:020000022000DC
:10000000204809F0B7FE0028F0D10120FFF798FB47
:100010000028EBD10120FFF795FB0346A0B304466F
:10002000E5E706F0F3FEDDE706F0F0FED6E706F0C2
:10003000EDFEC2E706F0EAFEB0E706F0E7FE9EE757
:1000400006F0E4FE8CE706F0E1FE77E706F0DEFE60
:1000500061E706F0DBFE49E706F0D8FE32E706F07E
:10006000D5FE25E7E8C00200904700209447002015
:1000700088470020B0470020999B020009FA010040
:1000800068C90200ADF90100B849D1F8882042F4EE
:100090007002C1F88820BFF34F8FBFF36F8F1FA886
:1000A0008DF87C3006F0A2FCDFF80493DFF80483BF
:1000B00006279DF87C20AE49032A4FF0020052D853
:1000C0000AF024F81FA806F091FC41F28833D9F811
:1000D000002000BF00BF00BF00BF00BF00BF00BFC7
:1000E00000BF42452FD000BF00BF00BF00BF00BF10
:1000F00000BF00BF00BF00BF00BF00BF00BF00BF08
:1001000000BF00BF00BF00BF00BF00BF00BF00BFF7
:1001100000BF00BF00BF00BF00BF00BF00BF00BFE7
:1001200000BF00BF00BF00BF00BF00BF00BF00BFD7
:1001300000BF00BF00BF00BF00BF00BF00BF00BFC7
:1001400000BF00BF00BF013BC3D17B1E13F0FF0700
:10015000AFD10D2401208749224609F0E5FF204652
:100160002FB0BDE8F08F0320834909F0DDFF8348FD
:10017000042106F04DFC0746002840F01F810320B3
:100180007F497E4F09F0C2FF07F1040817F8012BE1
:100190007C49132009F0C8FF4745F7D1DFF81882E2
:1001A0007949132009F0B2FF4146784800F066FB18
:1001B000074600287CD1D8F8003093F8249193F8B2
:1001C000262193F825A10392B9F1FF0F7AD1BAF154
:1001D000FF0F40F0C680FF2A00F01D826C4F83F8AD
:1001E00026A14FF0010BFF2213460092032069491C
:1001F00009F0BAFF3B78002B40F09C80D8F80090C3
:10020000DFF8B4A199F82830112B00F29C8099F8FE
:100210002331FA2B69D899F82132013BDBB2F62B56
:1002200074D8BBF1000F7CD19DF8403003F0F0038F
:100230006FF3071348468DF840300BF047FA4946F4
:1002400082B22046FFF76CFA002840F0C6810021F8
:1002500008221FA8FFF776F8D8F80030DFF8589189
:10026000197CDA7B42EA0122ADF87C20997C5A7C29
:1002700042EA0122ADF87E20DA7C197D42EA0122B1
:10028000ADF880205A7D9B7D1FA842EA0323ADF87C
:100290008230FFF743FA072800F09C80002800F026
:1002A000BC8004463C490120224609F03DFFA3E6FC
:1002B00001203A493A4609F037FF3C4620462FB024
:1002C000BDE8F08FFF2283F8242183F8252183F8ED
:1002D00026212F4F2D4801233B7000F02BFA0028D8
:1002E00040F07E814FF0000B7DE709F129000022EC
:1002F0002B490BF067F9D8F8009099F82132013BAF
:10030000DBB20022F62B89F823210AD909F5957072
:10031000244916220BF056F9D8F80090162389F8D4
:100320002132484600F006FA08B106F06FFDD8F811
:10033000009079E7039B00934A46534603201A49ED
:1003400009F012FF5AE709F1170018490E220BF0C5
:1003500039F9DAF800900E2389F828304FF0010BB4
:1003600055E783F8259183F82691B2E700ED00E088
:10037000ACC60200A4C90200FCC6020084470020EB
:1003800034C7020060C60200CCD4020024CA0200B6
:1003900000490020A0C70200E8C9020064C70200AB
:1003A0004DCA02004ECB0200E0C702003BCA020069
:1003B0001C4300200024F400FC4800209D4809F064
:1003C000A3FE009702469C490220A8233C4609F060
:1003D000CBFEBFE6D9F8000000234FF0060C4FF02B
:1003E000180E4021012280F80FC080F811E04175FD
:1003F000827503748374C374037500F09BF900283D
:100400007FF44FAF8D4B1F931FA84FF0A073209325
:10041000FFF784F900287FF444AFD8F80020884B18
:100420008848D6F80090D5F800A01F921FA9209305
:1004300004F0CCFD08B106F0E9FC0026BAF1000F8B
:100440000BD059F8363001362BB13878984705462D
:10045000002840F0C8805645F3D100211FA808228B
:10046000FEF770FF784B1F93784801231FA98DF882
:1004700080308DF881300AF0FBF808B106F0C6FC38
:10048000204600213C22FEF75DFF0025D8F8003011
:10049000089506224FF0020801260C950D958DF85F
:1004A000425009950A950B950E950F958DF8408051
:1004B0008DF843208DF823609A890C929B7B0D93D5
:1004C00029463C221FA8FEF73DFFDFF8B4E1604B50
:1004D0000095604F19788DF8111020464FF0800A72
:1004E0009EF800408DF8124097F800B05A4B8EF8F5
:1004F000005029464FF0540C04AC4FF0040E08AAEB
:100500004FF6FF7905AD87F800A007948DF813B07A
:10051000ADF814908DF810C0ADF818E0199504F0FE
:100520007BF90446002865D1304604F06FF90320BA
:1005300004F034FA044600286FD1484800F028FC43
:10054000044600286FD1454809F0DEFD44490246C3
:10055000132009F0E9FD434B43491A6842F2107336
:1005600000BF00BF00BF00BF00BF00BF00BF00BF93
:100570008A422FD000BF00BF00BF00BF00BF00BF36
:1005800000BF00BF00BF00BF00BF00BF00BF00BF73
:1005900000BF00BF00BF00BF00BF00BF00BF00BF63
:1005A00000BF00BF00BF00BF00BF00BF00BF00BF53
:1005B00000BF00BF00BF00BF00BF00BF00BF00BF43
:1005C00000BF00BF00BF00BF00BF00BF00BF00BF33
:1005D00000BF00BF013BC3D10EE506F017FC36E6B5
:1005E00006F014FC7EE6012020492A4609F09CFD15
:1005F0002C4601E50F4809F087FD009402460E499C
:1006000040464FF4427309F0AFFD30461849224688
:1006100009F08AFDF0E4174F64E630461649224699
:1006200009F082FDE8E430461449224609F07CFDD9
:10063000E2E400BF2CC50200A0C5020006001800BD
:100640004DF701000449002071F90100984700208E
:10065000084300200443002025F9010050490020F0
:1006600054C902001C4300200024F40050C80200BA
:100670009CC8020000490020D8C8020018C9020026
:100680008D47002030B50578012D83B004461CD07D
:1006900014D3052D04D14368002B2CD003B030BDFA
:1006A00003202A461B49636809F04EFD6068002854
:1006B000F4D003B0BDE8304006F0A8BB4368A3B94E
:1006C000154B01221A7003B030BD4368DBB9838932
:1006D000B3F5005FE2D1C189027C009103200F498C
:1006E00009F042FD0E4B1D70D8E701200D4909F0BD
:1006F0000DFD0020DDE703200B4909F007FD0B4B42
:1007000001221A70CAE72846094909F0FFFC0020B7
:10071000CFE700BF28CD02009049002078CC02002E
:100720007F49002048CC0200F4CC02008049002020
:10073000C4CC0200F0B51D49044689B0032009F07D
:10074000E5FC84B31A4D214640F22222281D0AF00E
:1007500039FF42F201044FF0420E03AA01238A2717
:100760004FF400561348ADF8164005A90395C5F897
:1007700000E0ADF81070ADF814600692ADF81C30D2
:1007800008F090FD044608B909B0F0BD0A4809F028
:10079000BBFC0094024609490220982309F0E4FCBE
:1007A000204609B0F0BD0E2009B0F0BD58CD0200C2
:1007B00094490020844900208CCD020004CE020020
:1007C00030B587B008220021054602A8FEF7BAFD21
:1007D0000320244909F09AFC02AB4FF4005042F286
:1007E0000101214A08F08EFE044608BB1E4804A9F8
:1007F00008F0CAFB044670B905991C484FF40A7208
:100800000AF0E0FE184808F0E3FB0446E8B9184B8C
:100810002B6007B030BD174809F076FC0094024603
:1008200015490220AC2309F09FFC204607B030BDDB
:10083000104809F069FC009402460F490220A923E0
:1008400009F092FC204607B030BD0A4809F05CFC74
:100850000094024608490220B12309F085FC204695
:10086000D7E700BF58CE02008449002094490020F9
:10087000984900208CCD020004CE02002DE9F047FB
:10088000064688B00D460320524909F03FFC002E71
:100890003FD0514808F0E2F9044660BB08F0F2F995
:1008A0000446002839D14D4C237823B906F054FB77
:1008B0002378002BFAD008F0E1FD0446002838D157
:1008C000474C237823B906F047FB2378002BFAD056
:1008D0002846FFF775FF0A28044636D0B0B14148D4
:1008E00009F012FC009402463F490220F62309F069
:1008F0003BFC20460AE03B4809F006FC0094024617
:1009000039490220C22309F02FFC204608B0BDE877
:10091000F0870E2008B0BDE8F087324809F0F4FBFC
:100920000094024630490220C52309F01DFC2046F0
:10093000ECE72C4809F0E8FB009402462A49022023
:10094000CD2309F011FC2046E0E7284C2849294F27
:1009500004F10408032009F0D9FB314640F22222B9
:1009600040460AF02FFE4FF0420A4FF08A0C4FF437
:10097000005E03AA01234FF0000942F201061E485F
:10098000039405A9C4F800A087F80090ADF810C042
:10099000ADF814E0ADF816600692ADF81C3008F022
:1009A0003BFB044650B93B78C5F8008023B906F0FC
:1009B000D3FA3B78002BFAD00020A7E7094809F0CA
:1009C000A3FB0094024608490220EB2309F0CCFB6C
:1009D00020469BE788CE0200850602009049002051
:1009E000804900208CCD020004CE020094490020F2
:1009F000B4CE02007F4900208449002045DF7047C3
:100A000046DF704747DF70476F4A2DE9F84F0023F4
:100A1000536013700746002841D0022807D06B4B63
:100A20005B6A0BB1082098476748BDE8F88F6849B2
:100A3000D1F810010128F7D1664CC1F810312378A4
:100A4000022B00F0AB80032B00F0B780012B06D106
:100A50002520C1F80875C1F854050B602378042BD4
:100A600040F0A880594B5C4819794FF48074C0F865
:100A70000845002900F0A5801868996899614FF42D
:100A80007A7101FB00F10126002003F10C0503241B
:100A900059611E731874587455601470C4E74F4C34
:100AA0004D4BDFF828814A4D4D49C3F854554FF45A
:100AB0008072C3F850154FF0160BC3F8042508F1E7
:100AC0001D014226E01C06224FF0060A6770A7703F
:100AD00026704FF002090AF075FD01264FF0AA0EAC
:100AE000FE234FF0EE0C04EB0B00D8F82810B8F8FA
:100AF0002C20277484F80BA003274FF0100A84F8E9
:100B000011B084F815C084F80EE084F812E0E373A5
:100B1000E37484F80990A6722773677384F814A0AD
:100B20000AF050FD98F82C302E492A4ADFF8C08090
:100B3000DFF8C0C0DFF8C0E02B4803F1140B053329
:100B400084F801B0C5F8FC6F40F2031B2374C5F8AC
:100B5000148540F25B63C5F818C54FF096084FF056
:100B60008E0CC5F834B5C5F83835C5F83065C5F80C
:100B70000072C5F81075C5F84485C5F804A3C5F81A
:100B800024C5C5F81CE5C5F83C05C5F80445C1F801
:100B900000902E6116700C48BDE8F88F134A1A2792
:100BA00026264FF4C875C1F80875C1F85465D060A1
:100BB000C2F840550133237036E70C4A50272726E8
:100BC000EFE7022313702FE7BC4B0020EC4B002013
:100BD000001000401C4C002000F00140C44B0020DD
:100BE0004081004000E100E0555555000080004084
:100BF000060102002500030200D6BE8910B5024698
:100C000004461649032009F08FFA042C06D3052C5C
:100C100005D9072C02D1124C6379C3B910BD104C11
:100C20002379002BFAD00023A1680E4A237304F124
:100C30000C00237463746161A261FFF7E3FE002876
:100C4000ECD0636A002BE9D0BDE8104018470023C0
:100C50006371FFF7D5FE0028F3D1DFE7E8CE02008D
:100C6000EC4B002040420F0010B50D490446032014
:100C700009F04CFA0B4B22681A6041F27C51224673
:100C8000996052F80A0FD8619088927983F82220EF
:100C9000188462695A6222899A8562689A6210BDD4
:100CA0001CCF0200EC4B002070B5154C63790BB9DA
:100CB000237903B170BD0320124909F027FA0123FB
:100CC000114823716371FFF799FE10B1636A03B194
:100CD00098470B4DA3680D4A63610121002305F17C
:100CE0000C00237323746174A261FFF78BFE00284C
:100CF000E0D06B6A002BDDD0BDE87040184700BF24
:100D0000EC4B002048CF0200090A020040420F00CD
:100D100008B50320034909F0F9F9034B00221A71C1
:100D200008BD00BF74CF0200EC4B0020F8B51C4694
:100D300007460E46154608F091FC0F4B1B78834280
:100D400006D902460D49012009F0EEF90F20F8BD41
:100D50002346384631462A4605F002F8044600B9D3
:100D6000F8BD074D07492B6801331A4601202B6057
:100D700009F0DAF92046F8BD09430020A0CF0200AF
:100D8000204C0020F8CF020012DF70476DDF704763
:100D900070B58AB006460DF10B00FFF7F5FF04466B
:100DA00028B99DF80B307BB902200AB070BD2A48E3
:100DB00009F0AAF900940246284902203A2309F0D2
:100DC000D3F920460AB070BD03A8FFF7DFFF044641
:100DD00058BB0590069007900890ADF824000524B4
:100DE000062503E0013D601EEDB2C4B2062D05A844
:100DF00027D00AF06BFC05AB194918440AF03AFCFD
:100E000005A80AF063FC05AB18440AAB2B4415494E
:100E100013F81C2C0AF02EFC002CE3D1304605A957
:100E20000AF04CFC20460AB070BD0B4809F06CF982
:100E30000094024609490220432309F095F920460F
:100E4000B3E705A80AF042FC05AB06499DF812205D
:100E500018440AF00FFCC5E7F8D0020070D1020078
:100E6000C4D1020060C602002DE9F047B2B00446CA
:100E7000AC4902A8C02201250AF0A4FBA84602AB97
:100E800000264FF0A04C997893F801A01878DA78F2
:100E900093F804905F79890041EA4A01014341EAED
:100EA00002221E2E06F5E07E42EA09422FD0012FD3
:100EB0004CF82E2030D024D3022F26D09A4809F0A7
:100EC00023F906240246994900948B23022009F055
:100ED0004BF9954809F018F9944900940246C52346
:100EE000022009F041F9904809F00EF900940246F9
:100EF0008E490220E42309F037F9204632B0BDE8DC
:100F0000F08708FA06F2CCF80C25202D09D001351F
:100F1000EDB201360633B6E7B740202DCCF80875A0
:100F2000F5D14FF0A04203234FF080408049C2F832
:100F30007837C2F808050A687E4941F2883300BF55
:100F400000BF00BF00BF00BF00BF00BF00BF8A429C
:100F50002FD000BF00BF00BF00BF00BF00BF00BF59
:100F600000BF00BF00BF00BF00BF00BF00BF00BF89
:100F700000BF00BF00BF00BF00BF00BF00BF00BF79
:100F800000BF00BF00BF00BF00BF00BF00BF00BF69
:100F900000BF00BF00BF00BF00BF00BF00BF00BF59
:100FA00000BF00BF00BF00BF00BF00BF00BF00BF49
:100FB00000BF013BC3D10121204601F0E5FA044600
:100FC000002840F095802146602202A8FEF7BAF979
:100FD0009DF80D509DF813709DF819109DF81F3065
:100FE0009DF83D209DF843609DF84900A5F101055D
:100FF000B5FA85F56D0945F00204012F08BF2546B5
:1010000045F0040401290CBF2146294641F008049B
:10101000012B08BF214641F0E00141F48073012A11
:1010200014BF0A461A4642F40073012E18BF134635
:1010300043F48062012814BF18461046022501239C
:1010400040F460408DF820308DF82B308DF8313031
:101050008DF837308DF84A308DF84C308DF850309F
:101060008DF852308DF85B308DF861308DF8673037
:101070008DF825508DF84F508DF8555001F044FAF9
:101080000446002842D102AD0646EC78287929783A
:101090006A78AB7800940190304601F02BF8013665
:1010A0000446063510B9102EEFD126E71E4809F088
:1010B0002BF81E49009402466923022009F054F8D7
:1010C000194809F021F80094024618490220B22379
:1010D00009F04AF8144809F017F800940246134939
:1010E0000220EE2309F040F8204632B0BDE8F08738
:1010F0000D4809F009F8009402460C490220EB2340
:1011000009F032F8204632B0BDE8F087064808F012
:10111000FBFF0094024605492846AC2309F024F859
:10112000D8E700BF38D00200F8D0020070D102002A
:101130001C4300200024F4002DE9F041B2B002ACC1
:10114000602220460021FEF7FDF8012302222546F9
:101150008DF820308DF82B308DF831308DF8373008
:101160008DF84A308DF84C308DF850308DF8523073
:101170008DF85B308DF861308DF867308DF8252063
:101180008DF84F208DF855200026EF7828792978A2
:101190006A78AB7800970190304600F0ABFF0136DB
:1011A0000746063500285AD1102EEED120463C497C
:1011B000C0220AF007FA4FF0A04620230127013B86
:1011C00003EB430204EB420514F81200A97895F8EA
:1011D0000180EA7895F804C06D79890041EA4801F8
:1011E000DBB2014341EA02221E2B03F5E07E42EA14
:1011F0000C42E4D0012D46F82E204AD028D3022DEF
:101200002AD0284808F080FF062402462649009488
:101210008B23022008F0A8FF224808F075FF22491E
:1012200000940246D823022008F09EFF22460120A7
:101230001E4908F079FF4FF0A04303214FF0804290
:101240000020C3F87817C3F80C2532B0BDE8F08150
:1012500007FA03F2C6F80C25002BB0D1EBE71148D2
:1012600008F052FF1049009702466923022008F057
:101270007BFF0C4808F048FF009702460A4902200D
:10128000B22308F071FF3A460120094908F04CFFEB
:101290008CE79D40C6F80855002B90D1CBE700BFE6
:1012A00038D00200F8D0020070D1020020D2020033
:1012B000C8D1020002F0C0BAF0B58BB080B30128EB
:1012C00005467DD0012000F09BFE0446002857D142
:1012D000684B1B681B78002B6AD00AAD012603906F
:1012E00005F81C6D4FF0230C4FF4FA6E332240F2D8
:1012F0006B330320604905944FF4FA770794CDF8D7
:1013000010C0CDF820E08DF814200693099708F05E
:10131000FDFE3046294600F0ADFE044670B339E0CC
:10132000012000F06DFE0446002840F08280514B01
:101330001B681B78002B3BD00AAD0223039005F8F5
:101340001C3D4FF0230E332240F6AC5303204A4994
:1013500005944FF4FA674FF4FA760794CDF810E04D
:101360008DF8142006930897099608F0CFFE2946B9
:10137000012000F07FFE0446002864D1002414E020
:101380003E4808F0C1FE009402463D4902209A23DF
:1013900008F0EAFE394808F0B7FE009402463849E2
:1013A000022040F2931308F0DFFE20460BB0F0BDA0
:1013B000032034491C4608F0A9FE20460BB0F0BDBE
:1013C00000F01EFE0446002849D12A4B1B681B78FA
:1013D000002BEDD00AAE0423039006F81C3D4FF01D
:1013E000230C4FF4FA6E332240F6AC53032022490B
:1013F00005944FF4FA770794CDF810C0CDF820E0AB
:101400008DF814200693099708F080FE284631468F
:1014100000F030FE04460028B0D0184808F074FEF2
:1014200000940246164902204FF4C77308F09CFE50
:10143000BBE7124808F068FE0094024610490220FB
:101440009A2308F091FE0D4808F05EFE00940246D3
:101450000B49022040F2891308F086FEA5E70748F1
:1014600008F052FE00940246054902209A2308F033
:101470007BFED2E7244C002050D4020080D2020030
:10148000F0D20200C8D3020008B51D4A13783BB958
:10149000431C1FD0C0B2012810701DD0002008BD11
:1014A0001844C0B201281070F8D00028F6D1012BE2
:1014B000F4D1144B186801F0DBFCF0B90020602176
:1014C00002F000F898B902F0A5F90028E6D005F07E
:1014D0009DFCE3E7022008BD0A4B186801F0C8FC38
:1014E00040B94020602101F0EDFF0028EBD005F06D
:1014F0008DFCE8E705F08AFCF3E705F087FCDDE703
:10150000284C00202C4C00202DE9F041754C012383
:10151000834082B0804620680E4617469DB201F097
:10152000A7FC0446002864D1002F45D0012F00F00D
:101530008B80002E59D070783378F478B1786A4A6D
:10154000000240EA0343234343EAC101404602F05C
:1015500073F8044600285BD1284601F093F860B187
:1015600031797379404643EA012141F61F7202F056
:10157000B1F80446002840F0A7802846002101F079
:10158000F1FF0446002878D1294601F031FF0446D6
:10159000002840F08C8002F03DF9044630B35348F7
:1015A00008F0B2FD00940246514902204FF40C733A
:1015B00008F0DAFD204619E0294601F0D3FF044681
:1015C000002834D1294601F013FF04460028E2D058
:1015D000464808F099FD009402464549022040F231
:1015E000022308F0C1FD204600E00E2002B0BDE855
:1015F000F0813E4808F088FD009402463C490220F4
:1016000040F2F91308F0B0FD204602B0BDE8F081C9
:10161000364808F079FD009402463549022040F230
:101620001B2308F0A1FD204602B0BDE8F0812F4841
:1016300008F06AFD009402462D49022040F2FF1393
:1016400008F092FD2046D1E70146284601F0D0FE81
:101650000446F8B9294601F085FF044600289AD0CF
:10166000224808F051FD009402462149022040F230
:101670000B2308F079FD2046B8E71C4808F044FD2C
:10168000009402461A4902204FF40A7308F06CFDD8
:101690002046ABE7154808F037FD00940246144990
:1016A00002204FF4027308F05FFD20469EE70F48CA
:1016B00008F02AFD009402460D4902204FF40B73F6
:1016C00008F052FD204691E7084808F01DFD0094FF
:1016D0000246074902204FF4097308F045FD2046F1
:1016E00084E700BF2C4C0020FFFF1F0000D5020044
:1016F0007CD5020070B51E4E1E493368C4002344D9
:1017000082B05B681B685A7A8A56012A0BD0002A7D
:101710000EDD4FF0FF30FFF7B7FE0546D8B933684E
:101720001C4463681B6803225A72002002B070BD1B
:101730000120FFF7A9FE05460028F0D00E4808F06A
:10174000E3FC009502460D4902204FF4A47308F013
:101750000BFD2846EAE7084808F0D6FC009502464B
:10176000064902204FF4A77308F0FEFC2846DDE787
:10177000344C002020D6020000D502007CD50200A7
:101780002DE9F04F5E4C256815F8304089B0984639
:1017900005EBC000002C6DD0012C03D0012009B056
:1017A000BDE8F08F574B03940DF11009B3F800E03A
:1017B0009F78C378ADF810E016460D4682784178E0
:1017C00089F802700591069207934FF0000B0DF116
:1017D000140A19F80B0032781042294611D01AF871
:1017E0002B0098F80020FFF78FFE0746002879D1DC
:1017F0000BF1010BBBF1030FEBD1002009B0BDE8E9
:10180000F08F414B1AF82B201868039B03FA02F75C
:1018100001F02EFBBFB20446014600284AD13846EB
:1018200001F0E6FD39460446002837D101F09AFE62
:10183000044600284AD101F0EDFF04460028D7D025
:10184000324808F061FC00940246314902204FF40E
:101850000C7308F089FC2D4808F056FC00940246F1
:101860002B49022040F2932308F07EFC204609B069
:10187000BDE8F08F40781A78FFF746FE044600284E
:10188000F4D0224808F040FC00940246204902208F
:1018900040F2812308F068FC204680E71B4808F0EE
:1018A00033FC009402461A4902204FF4027308F0F8
:1018B0005BFCD0E7154808F027FC00940246144969
:1018C000022040F2F91308F04FFCC4E70F4808F07B
:1018D0001BFC009402460E49022040F20B2308F044
:1018E00043FCB8E7094808F00FFC00970246084996
:1018F000022040F28E2308F037FC38464FE700BF45
:10190000344C0020FCD402002C4C002000D50200F6
:101910007CD502002DE9F047DFF858A3DAF8003053
:101920004FEAC00843440E465A680978126811729B
:101930005B68D6F80C9086B00746586805F0F2FF51
:10194000044600285DD1DAF8003013F8370043442C
:1019500090B1012800F0F880C34808F0D5FB0124BD
:10196000024600940220C14940F2B62308F0FCFB75
:10197000204606B0BDE8F0875B780120984080B231
:1019800004AA311D00F090FE0128044600F2E88010
:101990009DF81030002B43D09DF81230002B60D101
:1019A0009DF81350DAF80030B149B24C4344032299
:1019B0005B688DF80F201B685A7A8A56012A0ED070
:1019C000002A40F3D9804FF0FF30FFF75DFD8146DC
:1019D000002840F09282236843445B681B68012220
:1019E0005A7204A9384632460DF10F03FFF7C8FEBC
:1019F0000446002840F0E281002D00F07C810024A4
:101A0000B6E7994808F080FB009402469749022007
:101A100040F2B32308F0A8FB204606B0BDE8F087EB
:101A20009DF81130FF2B00F0C780002B40F014818F
:101A30009DF81230ABB99DF81340002C40F03C816A
:101A40009DF81430002B40F003819DF81530002BD9
:101A500000F0EA819DF81530002B00F0848100250C
:101A6000A0E79DF8135004238DF80F30002D40F0AF
:101A70000581DAF800308DF8125043447C495B68E8
:101A80007C4D1B685A7A8A56012A0ED0002A40F3F0
:101A9000A1814FF0FF30FFF7F7FC0446002840F02B
:101AA00046822B6843445B681B6801225A7204A972
:101AB000384632460DF10F03FFF762FE0446002858
:101AC00040F0EE80DAF800206B4B90444FF4004178
:101AD000D8F804201268C2F80490D8F80440756859
:101AE0007069B2692468284402442260D8F804204E
:101AF00092E811000268A3FB02035B0903EB830376
:101B000002EBC3034FF4FA784FF00009E1FB0389BD
:101B10004FF47A7200234046494609F071FA3A467A
:101B20000146204605F0A4FE044600283FF420AFFD
:101B30004D4808F0E9FA009402464C49022040F270
:101B4000113308F011FB13E799785C78DA7800FA22
:101B500001F100FA04F30B439040184380B20FE701
:101B6000414808F0D1FA00940246404902204FF45F
:101B70002F7308F0F9FAFBE60120FFF785FC814698
:101B800000283FF428AF384808F0BEFACDF800909E
:101B90000246364902204FF4A4734C4608F0E4FA9A
:101BA000314808F0B1FA009402463049022040F270
:101BB000E32308F0D9FADBE69DF81230002B7FF41E
:101BC00050AF9DF81340002C3CD19DF81430002BF1
:101BD0003ED19DF81530002B7FF43CAFDAF80020A1
:101BE0008DF80F304244224953681B685B7ACB5C06
:101BF0004BB11A0662D44FF0FF30FFF745FC0446A4
:101C0000002840F08881DAF8003098440024D8F8A1
:101C100004301B6838465C7204A932460DF10F038C
:101C2000FFF7AEFD044600283FF4A2AE0E4808F0D0
:101C30006BFA009402460D49022040F2CB2308F0D3
:101C400093FA95E62546002D7FF4ACAE9DF814304E
:101C5000002B7FF404AFFDE69DF812309DF8135081
:101C6000002BF0D0FFE600BF00D502007CD50200BB
:101C700020D60200344C00201F85EB513846FFF778
:101C800039FD0446002840F0C380384604A9324696
:101C90000DF10F03FFF774FD044600283FF4AFAECB
:101CA000A94808F031FA00940246A849022040F2FF
:101CB000053308F059FA5BE6254673E60120FFF785
:101CC000E3FB044600289ED09F4808F01DFA0094CC
:101CD00002469E4902204FF4A47308F045FA9A4840
:101CE00008F012FA00940246984902204FF4327329
:101CF00008F03AFA3CE6DAF80020954B90444FF4AD
:101D00000041D8F8042012685560D6F804E0D8F8ED
:101D100004407069B2692468704402442260D8F8B3
:101D2000042092E811000268A3FB02035B0903EBA5
:101D3000830302EBC3034FF4FA784FF00009E1FB91
:101D400003894FF47A7200234046494609F058F956
:101D50003A460146204605F08BFD0446002840F037
:101D6000B4802C4604E6022538468DF80F50FFF764
:101D7000C1FC0446B0B9384604A932460DF10F0340
:101D8000FFF7FEFC044600283FF4F2AD6E4808F071
:101D9000BBF9009402466D49284640F2DD2308F065
:101DA000E3F9E5E5684808F0AFF9009402466749B1
:101DB000284640F2DA2308F0D7F9D9E5624808F05E
:101DC000A3F9009402466149022040F2E62308F09C
:101DD000CBF9CDE50120FFF757FB044600283FF47F
:101DE00060AE594808F090F9009402465749022025
:101DF0004FF4A47308F0B8F9534808F085F900943B
:101E00000246524902204FF43F7308F0ADF9AFE5A6
:101E10004D4808F079F9009402464C49022040F2FE
:101E2000013308F0A1F9A3E5DAF80030494A434448
:101E300001215B688DF80F101C68637AD35C73B165
:101E40001B0625D44FF0FF30FFF71EFB0446002889
:101E500047D1DAF800309844D8F804301C680023E1
:101E60006372384604A932460DF10F03FFF788FC70
:101E7000044600283FF47CAD334808F045F900944F
:101E80000246324902204FF4357308F06DF96FE5D0
:101E90000120FFF7F9FA04460028DAD02A4808F0B2
:101EA00033F900940246294902204FF4A47308F044
:101EB0005BF9254808F028F90094024623490220DE
:101EC00040F2D12308F050F952E51F4808F01CF900
:101ED000009402461D49022040F2F22308F044F922
:101EE00046E5194808F010F9009402461749022007
:101EF0004FF4A77308F038F9DBE7134808F004F94A
:101F0000CDF800900246114902204FF4A7734C46C9
:101F100008F02AF944E60C4808F0F6F80094024666
:101F20000A4902204FF4A77308F01EF9D7E60648C5
:101F300008F0EAF800940246044902204FF4A7731F
:101F400008F012F958E700BF00D502007CD5020066
:101F50001F85EB5120D6020010B4264B2648197875
:101F6000264C01234FF0A04203FA01F1C2F80C15F0
:101F7000006800BF00BF00BF00BF00BF00BF00BFC0
:101F800000BFA0422FD000BF00BF00BF00BF00BFF6
:101F900000BF00BF00BF00BF00BF00BF00BF00BF49
:101FA00000BF00BF00BF00BF00BF00BF00BF00BF39
:101FB00000BF00BF00BF00BF00BF00BF00BF00BF29
:101FC00000BF00BF00BF00BF00BF00BF00BF00BF19
:101FD00000BF00BF00BF00BF00BF00BF00BF00BF09
:101FE00000BF00BF00BF013BC3D1C2F808155DF8B8
:101FF000044B7047304C00201C4300200024F400A8
:1020000010B5184B1B68013B83428AB001D31028DE
:1020100007D901200246144908F086F801200AB0C9
:1020200010BD0AA9072301F81C3D00230493069361
:102030008DF81C30089309938DF81430FFF76AFC73
:1020400004460028EBD0094808F05EF800940246E8
:102050000749022040F25A3308F086F820460AB0B9
:1020600010BD00BF384C0020D0D5020000D50200C2
:102070007CD5020030B51A4B1B68013B834283B00C
:1020800004460DD310280BD80D4689B1FFF764FF25
:10209000144B1B6813F834306BB9032003B030BD08
:1020A00001200246104908F03FF8012003B030BD7E
:1020B0000E2003B030BD20462946FFF72BFC044616
:1020C0000028F3D0094808F01FF800940246084998
:1020D000022040F2B23308F047F82046E6E700BF9E
:1020E000384C0020344C0020D0D5020000D502002E
:1020F0007CD502002DE9F0470F2880469DF820503E
:102100009DF8246007D90246BF49012008F00CF869
:102110000220BDE8F0879946BC4B18680F469246EE
:1021200000F0A6FE0446002837D1B9F1000F10D008
:10213000B9F1010F7AD0B9F1020F39D0012003466D
:10214000B3497F2208F000F801F064FB0120BDE8EC
:10215000F0874FF0010909FA08F81FFA88F841469C
:1021600000F06EFF044600283FD1414600F0D2FF48
:10217000044600284FD1BAF1000F73D0BAF1010F15
:1021800000F08F8001200346A1498F2207F0DCFF79
:1021900001F040FB0120BDE8F0879D496222234603
:1021A000012007F0D1FF01F035FB2046BDE8F087A4
:1021B0004FF0010909FA08F81FFA88F8414600F0C3
:1021C000A9FF0446E0B90146404600F039FF044645
:1021D0000028D0D048468E497A22234607F0B4FF23
:1021E00001F018FB2046BDE8F08748468849672281
:1021F000234607F0A9FF01F00DFB2046BDE8F0875C
:10220000484683497722234607F09EFF01F002FBF0
:102210002046BDE8F08748467D496A22234607F0FC
:1022200093FF01F0F7FA2046BDE8F08709FA08F8B5
:102230001FFA88F8414600F003FF0446002861D1E8
:102240000146404600F066FF0446002893D0484609
:102250006F497222234607F077FF01F0DBFA204630
:10226000BDE8F0875046414600F01AFE044668B9C2
:102270004DB3012D51D00120034665499F2207F03F
:1022800063FF01F0C7FA0120BDE8F08760498522AD
:102290002346012007F058FF01F0BCFA2046BDE8B4
:1022A000F0874046002100F0FBFD04460028DFD007
:1022B000504657498A22234607F046FF01F0AAFA02
:1022C0002046BDE8F0872846414600F08DFF0446D1
:1022D00068B9A6B3012E51D0012003464C49AF2264
:1022E00007F032FF01F096FA0120BDE8F087484977
:1022F00095222346012007F027FF01F08BFA2046A4
:10230000BDE8F087484642496F22234607F01CFF8C
:1023100001F080FA2046BDE8F0874046002100F039
:1023200063FF04460028D4D0284639499A22234620
:1023300007F00AFF01F06EFA2046BDE8F08730464C
:10234000414600F013FE044668B94FB3012F33D065
:10235000012003462E49BF2207F0F6FE01F05AFA8B
:102360000120BDE8F0872A49A5222346012007F075
:10237000EBFE01F04FFA2046BDE8F0874046002111
:1023800000F0F4FD04460028DFD030462049AA22A0
:10239000234607F0D9FE01F03DFA2046BDE8F0875C
:1023A0003846414600F08AFF044610BB01F032FA7D
:1023B000044698B9BDE8F0874046002100F07EFF52
:1023C00004460028F2D038461149BA22234607F0C5
:1023D000BBFE01F01FFA2046BDE8F0870C49C3227E
:1023E0002346012007F0B0FE01F014FA2046BDE8B4
:1023F000F0870749B5222346012007F0A5FE01F02A
:1024000009FA2046BDE8F08724D602003C4C0020A3
:102410006CD6020010B5384B186800F029FD044650
:10242000002855D101F088F90446002846D101F072
:10243000F1F90446002855D1304B31491A6841F270
:10244000883300BF00BF00BF00BF00BF00BF00BF98
:1024500000BF8A422FD000BF00BF00BF00BF00BF37
:1024600000BF00BF00BF00BF00BF00BF00BF00BF74
:1024700000BF00BF00BF00BF00BF00BF00BF00BF64
:1024800000BF00BF00BF00BF00BF00BF00BF00BF54
:1024900000BF00BF00BF00BF00BF00BF00BF00BF44
:1024A00000BF00BF00BF00BF00BF00BF00BF00BF34
:1024B00000BF00BF00BF013BC3D110BD1149D122F5
:1024C0002346012007F040FE01F0A4F9204610BD8C
:1024D0000C49CE222346012007F036FE01F09AF97E
:1024E000204610BD0749D4222346012007F02CFEC8
:1024F00001F090F9204610BD3C4C00201C43002008
:102500000024F4006CD60200B0F5803F38B50546D3
:1025100006D302461949012007F006FE022038BD05
:10252000174B186800F0A4FC044698B9A8B200F054
:102530002FFF044620B901F06DF90446A0B938BD5B
:102540001049E6222346012007F0FEFD01F062F962
:10255000204638BD0B49E3222346012007F0F4FD55
:1025600001F058F9204638BD0649E92223460120EA
:1025700007F0EAFD01F04EF9204638BDA8D602006A
:102580003C4C00206CD6020068B110B5074B0268C5
:102590001A600C4600F066FC0CB9204610BDBDE880
:1025A0001040FFF737BF0E20704700BF3C4C0020A3
:1025B00018B1F72903D9092070470E20704730B5AC
:1025C000184D03460C46296083B01946224616482A
:1025D00008F0F8FF2968144808F02CFA0546A0B95D
:1025E00014B9204603B030BD08F0A6FA044600280E
:1025F000F7D00E4807F088FD009402460C490220EF
:102600006F2307F0B1FD2046ECE7084807F07CFD9A
:102610000095024606490220682307F0A5FD2846DA
:10262000E0E700BF0C430020404C0020C8D7020068
:102630003CD8020010B582B008F094FA044648B9BC
:102640000B4804F063FA0B4A0B4B147020461C70C5
:1026500002B010BD094807F057FD00940246084932
:1026600002204FF4897307F07FFD204602B010BDB1
:10267000104300204D4D00204C4D0020C8D70200D3
:102680003CD80200064B1B7843B140B1054B1B8878
:102690000340C01AB0FA80F040097047012070472B
:1026A000544D00204E4D002008B9022070472DE9FE
:1026B000F04F2DED028BDFF8748398F8003085B071
:1026C0002BB9042005B0BDEC028BBDE8F08F0029CA
:1026D00000F09C810023FF24547013709370D3701A
:1026E000137153710B7953700B7B02339B10072BC3
:1026F00000F35481DBB29D00D370EDB2C44FDFED27
:10270000C57A97ED007A9FEDCB8A039087EE877AA2
:102710000D7316460C46D1ED007AF8EE677AC7EED7
:10272000877AC7EE887A17EE900A08F0F5FB41EC3D
:10273000100B08F039FA51EC100B08F041FC97ED42
:10274000007ADFEDB57A87EE877A0F2828BF0F2051
:102750000546D4ED007AF8EE677AC7EE877AC7EEC1
:10276000887A17EE900A08F0D7FB41EC100B08F0BE
:102770001BFA51EC100B08F023FC1F28834600F2D3
:1027800030810F2800F20D839FEDA48A4FF0100BCB
:10279000A34A97ED007A02FB05F207EE902AF8EEC5
:1027A000E77AC7EE877A17EE900A08F0B5FB41EC9E
:1027B000100B08F0F9F951EC100B08F001FCB8EE21
:1027C000488AD7ED007AC8EE277A824617EE900A3B
:1027D00008F0A2FB41EC100B08F0E6F951EC100BED
:1027E00008F0EEFB81462068CAEB000008F0D6FE38
:1027F00001902068C9EB000008F0D0FE019A8242E7
:1028000000F3E280357094ED007ADFED8C6AC4F855
:1028100000A0B8EE477A07EE90AAF8EE677A67EE66
:10282000266AF4EEE76AF1EE10FA40F1DF804FF02D
:10283000010BDFED787A97ED007A9FED7E8A87EEC7
:10284000877AD4ED027AF8EE677AC7EE877AC7EE18
:10285000887A17EE900A08F05FFB41EC100B08F045
:10286000A3F951EC100B08F0ABFBDFED6B7A97EDA1
:10287000007A87EE877A0F2828BF0F208146D4ED93
:10288000027AF8EE677AC7EE877AC7EE887A17EE93
:10289000900A08F041FB41EC100B08F085F951EC6F
:1028A000100B08F08DFB1F28844600F288800F284B
:1028B00000F27D829FED598A4FF0100C584A97ED37
:1028C000007ACDF808C002FB09F207EE902AF8EE74
:1028D000E77AC7EE877A17EE900A08F01DFB41EC05
:1028E000100B08F061F951EC100B08F069FBB8EE21
:1028F000488AD7ED007AC8EE277A054617EE900A87
:1029000008F00AFB41EC100B08F04EF951EC100BEB
:1029100008F056FB8246A068401B08F03FFE01907D
:10292000A068CAEB000008F039FE019ADDF808C083
:10293000824237DC86F8029094ED027ADFED3F6A3E
:10294000A560B8EE477A07EE905AF8EE677A67EE20
:10295000266AF4EEE76AF1EE10FA55D4DFED366A36
:1029600027EE267AF4EEC77AF1EE10FA4CBF01207A
:10297000002098F8002000EB0B05002A60D0294ABF
:10298000039B12881A4093425AD00023236163614B
:1029900033717371281C18BF012093E60723D3708D
:1029A0001C25ABE686F802C094ED027ADFED236ABF
:1029B000C4F808A0B8EE477A07EE90AAC5E79FEDE5
:1029C0001A8A4FF01F0C79E786F800B094ED007A70
:1029D000DFED1A6AC4F80090B8EE477A07EE909AD5
:1029E0001BE79FED118A4FF01F0BD1E6DFED126A56
:1029F00027EE267AF4EEC77AF1EE10FA4CBF4FF0CC
:102A0000010B4FF0000B14E70120B2E70E2059E64E
:102A1000504D002000007F460000FF470000837CEF
:102A20000006F9004E4D002000D03DF1544D00202D
:102A300000007F4300007A44CDCC4C3F9A99993FE7
:102A4000D7ED007A1FED068A7278F1785FED078A7C
:102A500088EE276AA2EB810307EE903AB8EEE77A98
:102A6000D4ED047AF8EE676A67EE067AC6EEA77AC6
:102A7000C7EEA87A17EE900A08F04EFA41EC100B58
:102A800008F092F851EC100B08F09AFAD7ED007AA2
:102A9000F178727888EE278AA2EB810213010F2861
:102AA00028BF0F20834607EE903AB8EEE77AD4EDC0
:102AB000047AF8EE676A67EE087AC6EEA77AC7EE80
:102AC000A87A17EE900A08F027FA41EC100B08F0EC
:102AD0006BF851EC100B08F073FA1F28814600F2D6
:102AE00032810F2898BF4FF01009F178727897ED76
:102AF000007A1FED308AA2EB8102C2EB02220BFBAF
:102B000002F207EE902AF8EE677AC7EE877A67EE50
:102B1000887A17EE900A08F0FFF941EC100B08F0E4
:102B200043F851EC100B08F04BFAF178727897EDFE
:102B3000007AA2EB8102C2EB0222120109FB02F32E
:102B400007EE903AF8EE677A8046C7EE877A67EE2E
:102B5000887A17EE900A08F0DFF941EC100B08F0C4
:102B600023F851EC100B08F02BFA82462069C8EBD1
:102B7000000008F013FD01902069CAEB000008F086
:102B80000DFD019B834200F3FD8086F804B094EDB7
:102B9000047A5FED566AC4F81080B8EE477A07EE03
:102BA000908AF8EE677A67EE266AF4EEE76AF1EE4D
:102BB00010FA40F1DA8001230193D7ED007A1FED7E
:102BC000648A7278F1785FED658A88EE276AA2EBF5
:102BD000810307EE903AB8EEE77AD4ED057AF8EE85
:102BE000676A67EE067AC6EEA77AC7EEA87A17EE8E
:102BF000900A08F091F941EC100B07F0D5FF51EC69
:102C0000100B08F0DDF9D7ED007AF178727888EED4
:102C1000278AA2EB810213010F2828BF0F208346C9
:102C200007EE903AB8EEE77AD4ED057AF8EE676AE7
:102C300067EE087AC6EEA77AC7EEA87A17EE900A72
:102C400008F06AF941EC100B07F0AEFF51EC100BE5
:102C500008F0B6F91F28824600F284800F2898BF3A
:102C60004FF0100AF178727897ED007A1FED8F8A95
:102C7000A2EB8102C2EB02220BFB02F207EE902ACA
:102C8000F8EE677AC7EE877A67EE887A17EE900AD1
:102C900008F042F941EC100B07F086FF51EC100BE5
:102CA00008F08EF97278F17897ED007AA2EB810343
:102CB000C3EB03231B010AFB03F307EE903AF8EE84
:102CC000677A8046C7EE877A67EE887A17EE900AB1
:102CD00008F022F941EC100B07F066FF51EC100BE5
:102CE00008F06EF907466069C8EB000008F056FC72
:102CF00081466069C01B08F051FC814526DC86F8DE
:102D000005B094ED057A5FEDB36AC4F81480B8EEAF
:102D1000477A07EE908AF8EE677A67EE266AF4EE55
:102D2000E76AF1EE10FA3AD45FEDBD6A27EE267A33
:102D3000F4EEC77AF1EE10FA4CBF01230023019A9A
:102D40001A44154426E64FF01F09CEE686F805A082
:102D500094ED057A5FEDC76A6761B8EE477A07EED2
:102D6000907AD8E74FF01F0A7CE75FEDCD6A27EE37
:102D7000267AF4EEC77AF1EE10FA4CBF0123002355
:102D800001931AE786F8049094ED047A5FEDD56A12
:102D9000C4F810A0B8EE477A07EE90AA01E7012325
:102DA000CDE7064A02FB00F308EE103AF0E4034ACE
:102DB00002FB00F308EE103A80E500BF0030C807C0
:102DC0002DE9F04751EA020306460CBF012000201E
:102DD000114284B00C4615461DD1F8B9DFF8808049
:102DE000D8F80030B3B104AAD3F804A002F8056DF6
:102DF00093F8009001274946504600973B4603F060
:102E0000CFF938B9504649463B460DF10A0203F066
:102E10001BFA38B1002004B0BDE8F087012004B0EF
:102E2000BDE8F0879DF80A301C4324EA0504A3425C
:102E30008DF80A40F2D0D8F80030002BEAD05A685A
:102E4000197800900223104603AA8DF80C608DF8C3
:102E50000D4003F0A5F9B0FA80F04009DBE700BFB0
:102E6000584D0020014B00221A607047584D002039
:102E700070B50A4D2A6812B10124204670BD06467D
:102E800013464068B168FDF751FF04460028F3D1AE
:102E9000706803F059F92E60EFE700BF584D00202D
:102EA0002DE9F04F084285B004460D4603D00220BC
:102EB00005B0BDE8F08F0F0AFBB2060A56EA03021E
:102EC0000CBF012100211E4205D0002942D1012062
:102ED00005B0BDE8F08F00293CD1DFF88C80D8F830
:102EE0000030002BF3D004AAD3F8049002F8051D9B
:102EF00093F800B04FF0010A59464846CDF800A0BB
:102F0000534603F04DF90028E1D14846594653464F
:102F10000DF10A0203F098F986460028D7D19DF8F2
:102F20000A301E4326EA0706B3428DF80A6011D024
:102F3000D8F80030002BCAD019785868CDF800E0D6
:102F400003AA02238DF80CE08DF80D6003F028F938
:102F50000028BCD1E1B2EAB20120FFF731FF80F0D6
:102F60000100C0B2A4E700BF584D00202DE9F04F8A
:102F7000084287B004460D4603D0022007B0BDE8E2
:102F8000F08F0F0AFBB2060A56EA03020CBF0122B9
:102F900000221E4205D0002A47D1012007B0BDE81B
:102FA000F08F002A41D1DFF89490D9F80030002B3F
:102FB000F3D006AA4FF0020802F8058DD3F804B04A
:102FC00093F800C0CDF80CC04FF0010A6146584696
:102FD000CDF800A0534603F0E3F8DDF80CC000285C
:102FE000DBD15846614653460DF1120203F02CF92D
:102FF0000028D2D19DF812301E4326EA0706B342BC
:103000008DF8126011D0D9F80030002BC5D05A6865
:10301000197800904346104605AA8DF814808DF863
:10302000156003F0BDF80028B7D1E1B2EAB2032081
:10303000FFF7C6FE80F00100C0B29FE7584D0020A8
:103040002DE9F04F084287B004460D4603D0022018
:1030500007B0BDE8F08F0F0AFBB2060A56EA03027A
:103060000CBF012200221E4205D0002A47D10120B8
:1030700007B0BDE8F08F002A41D1DFF89490D9F86D
:103080000030002BF3D006AA4FF0060802F8058D99
:10309000D3F804B093F800C0CDF80CC04FF0010A8B
:1030A00061465846CDF800A0534603F079F8DDF8A4
:1030B0000CC00028DBD15846614653460DF1120280
:1030C00003F0C2F80028D2D19DF812301E4326EA40
:1030D0000706B3428DF8126011D0D9F80030002BEA
:1030E000C5D05A68197800900223104605AA8DF8B9
:1030F00014808DF8156003F053F80028B7D1E1B2C1
:10310000EAB20720FFF75CFE80F00100C0B29FE743
:10311000584D00202DE9F04F084287B004460D4677
:1031200003D0022007B0BDE8F08F0F0AFBB2060AF9
:1031300056EA03020CBF012200221E4205D0002ADB
:1031400047D1012007B0BDE8F08F002A41D1DFF858
:103150009490D9F80030002BF3D006AA4FF008085D
:1031600002F8058DD3F804B093F800C0CDF80CC078
:103170004FF0010A61465846CDF800A0534603F0CF
:103180000FF8DDF80CC00028DBD1584661465346E5
:103190000DF1120203F058F80028D2D19DF8123038
:1031A0001E4326EA0706B3428DF8126011D0D9F803
:1031B0000030002BC5D05A681978009002231046C1
:1031C00005AA8DF814808DF8156002F0E9FF00283B
:1031D000B7D1E1B2EAB20920FFF7F2FD80F00100B9
:1031E000C0B29FE7584D00202DE9F04F084287B04C
:1031F00004460D4603D0022007B0BDE8F08F0F0A49
:10320000FBB2060A56EA03020CBF012200221E424C
:1032100005D0002A47D1012007B0BDE8F08F002A71
:1032200041D1DFF89490D9F80030002BF3D006AAF2
:103230004FF00A0802F8058DD3F804B093F800C0E7
:10324000CDF80CC04FF0010A61465846CDF800A0F9
:10325000534602F0A5FFDDF80CC00028DBD158462C
:10326000614653460DF1120202F0EEFF0028D2D162
:103270009DF812301E4326EA0706B3428DF812600D
:1032800011D0D9F80030002BC5D05A6819780090B9
:103290000223104605AA8DF814808DF8156002F0FF
:1032A0007FFF0028B7D1E1B2EAB20B20FFF788FD1B
:1032B00080F00100C0B29FE7584D00202DE9F04F8B
:1032C000084287B004460D4603D0022007B0BDE88F
:1032D000F08F0F0AFBB2060A56EA03020CBF012266
:1032E00000221E4205D0002A47D1012007B0BDE8C8
:1032F000F08F002A41D1DFF89490D9F80030002BEC
:10330000F3D006AA4FF00E0802F8058DD3F804B0EA
:1033100093F800C0CDF80CC04FF0010A6146584642
:10332000CDF800A0534602F03BFFDDF80CC00028AA
:10333000DBD15846614653460DF1120202F084FF7C
:103340000028D2D19DF812301E4326EA0706B34268
:103350008DF8126011D0D9F80030002BC5D05A6812
:10336000197800900223104605AA8DF814808DF874
:10337000156002F015FF0028B7D1E1B2EAB20F20C4
:10338000FFF71EFD80F00100C0B29FE7584D0020FE
:1033900070B5164D2B6884B00446020A6BB15868AC
:1033A00019788DF80D2000230093102603AA02231C
:1033B0008DF80C6002F0F4FE10B1012004B070BD75
:1033C0002B68E4B2002BF8D05D681978009003AA4E
:1033D0002846022311258DF80D408DF80C5002F07F
:1033E000DFFE003018BF012004B070BD584D002032
:1033F0002DE9F04F084287B004460D4603D0022065
:1034000007B0BDE8F08F0F0AFBB2060A56EA0302C6
:103410000CBF012200221E4205D0002A47D1012004
:1034200007B0BDE8F08F002A41D1DFF89490D9F8B9
:103430000030002BF3D006AA4FF0100802F8058DDB
:10344000D3F804B093F800C0CDF80CC04FF0010AD7
:1034500061465846CDF800A0534602F0A1FEDDF8C3
:103460000CC00028DBD15846614653460DF11202CC
:1034700002F0EAFE0028D2D19DF812301E4326EA5F
:103480000706B3428DF8126011D0D9F80030002B36
:10349000C5D05A68197800900223104605AA8DF805
:1034A00014808DF8156002F07BFE0028B7D1E1B2E0
:1034B000EAB21120FFF784FC80F00100C0B29FE760
:1034C000584D00202DE9F047C44364F06F040C40D0
:1034D000E3B2034284B003D0022004B0BDE8F08719
:1034E00001430A06F8D4034334D01D4F3B689BB315
:1034F00004AA4FF01E0902F8059DD3F804A093F822
:10350000008001260546414650460096334602F0AB
:1035100047FE08BB5046414633460DF10A0202F011
:1035200093FEC8B99DF80A301D4325EA0404A3425E
:103530008DF80A400ED03B6873B15A681978009034
:103540000223104603AA8DF80C908DF80D4002F06E
:1035500027FE08B90020C0E7012004B0BDE8F087CD
:10356000584D00202DE9F04F084287B004460D4623
:1035700003D0022007B0BDE8F08F0F0AFBB2060AA5
:1035800056EA03020CBF012200221E4205D0002A87
:1035900047D1012007B0BDE8F08F002A41D1DFF804
:1035A0009490D9F80030002BF3D006AA4FF02008F1
:1035B00002F8058DD3F804B093F800C0CDF80CC024
:1035C0004FF0010A61465846CDF800A0534602F07C
:1035D000E7FDDDF80CC00028DBD1584661465346B4
:1035E0000DF1120202F030FE0028D2D19DF8123007
:1035F0001E4326EA0706B3428DF8126011D0D9F8AF
:103600000030002BC5D05A6819780090022310466C
:1036100005AA8DF814808DF8156002F0C1FD002810
:10362000B7D1E1B2EAB22120FFF7CAFB80F0010076
:10363000C0B29FE7584D0020032870B50D4619D938
:10364000072809D90B282BD90F2811D800EB8000A7
:1036500000F11904E4B204E000EB800000F1210461
:10366000E4B245EA020313F4600F22EA05060DD026
:10367000022070BD00EB400045EA020300F129047E
:1036800013F4600FE4B222EA0506F1D12046C5F337
:103690000741C6F30742FFF793FB38B9012070BD1D
:1036A00000EB400000F13104E4B2DAE7601CC0B284
:1036B000C5F30721C6F30722FFF782FB0028EDD0F0
:1036C000A01CE9B2F2B2C0B2FFF77AFB80F00100B1
:1036D000C0B270BD031F70B5DCB2032C0D461BD900
:1036E0000C38C3B2032B01D9022070BD00EB80005F
:1036F0005830C4B245EA020323F4F85323F01F0301
:1037000022EA0506002BEFD12046290A320AFFF7EC
:1037100057FB38B9012070BD03EB830303F1380078
:10372000C4B2E7E7601CE9B2F2B2C0B2FFF748FBEF
:1037300080F00100C0B270BD10B5324C324A23682F
:10374000106884B0039043B158681978002300933F
:1037500003AA022302F024FD10B1012004B010BD21
:103760002368002BF9D05A6819780090022310467C
:103770000DF10E0202F014FD0028EED1234B244976
:103780001A6840F6B83300BF00BF00BF00BF00BFDB
:1037900000BF00BF00BF8A422FD000BF00BF00BFE4
:1037A00000BF00BF00BF00BF00BF00BF00BF00BF21
:1037B00000BF00BF00BF00BF00BF00BF00BF00BF11
:1037C00000BF00BF00BF00BF00BF00BF00BF00BF01
:1037D00000BF00BF00BF00BF00BF00BF00BF00BFF1
:1037E00000BF00BF00BF00BF00BF00BF00BF00BFE1
:1037F00000BF00BF00BF00BF00BF013BC3D104B08A
:1038000010BD00BF584D002008D902001C43002005
:103810000024F40010B5074C23684BB1586802F03F
:10382000A3FC2368586802F03FFC0020206010BD14
:10383000012010BD584D002000F044B870B584B090
:1038400004AA1D4D3123012602F8013D686829783C
:103850000096334602F0A4FC044610BB3346686869
:1038600029780DF10E0202F0EFFC044610B9204653
:1038700004B070BD114806F047FC009402461049A0
:103880000220A72306F070FC0C4806F03DFC0094D3
:1038900002460B4902208D2306F066FC204604B048
:1038A00070BD064806F030FC009402460449022030
:1038B000A12306F059FCE7E7604D002014D902006F
:1038C00090D902002DE9F043A94B1B788FB023B9A2
:1038D000032420460FB0BDE8F083A64E0022054623
:1038E000B16870681346FDF721FA044690B9706814
:1038F00002F02AFC1DBB337B4FF0A04203F5E073BE
:1039000042F82350706802F02FFC706802F0CCFB84
:103910000024DEE7984806F0F7FB98490094024639
:103920005323022006F020FC934806F0EDFB0094A0
:10393000024692490220E02306F016FCC9E7904BAC
:103940008DF815400EAD4FF0A00E186805F818ED73
:103950001B7906908DF81C3006A92A2305220DF14B
:10396000210004278DF80C308DF8147007F02AFE22
:103970000094706831782A46062302F011FC044650
:10398000002840F09680B22305A902220DF1210003
:103990008DF8203007F016FE0094706831782A46C2
:1039A000032302F0FDFB0446002840F097800EAA96
:1039B0002623012702F8253D7068317800973B46A1
:1039C00002F0EEFB0446002840F09D8070683178DC
:1039D0000DF112023B4602F037FC0446002840F08D
:1039E000A780302303A93A460DF121008DF820303D
:1039F00007F0E8FD0094706831782A46022302F04F
:103A0000CFFB0446002840F09E80DFF87C815D4BB0
:103A1000D8F80020DFF8749100BF00BF00BF00BFDE
:103A200000BF00BF00BF00BF4A452FD000BF00BF8E
:103A300000BF00BF00BF00BF00BF00BF00BF00BF8E
:103A400000BF00BF00BF00BF00BF00BF00BF00BF7E
:103A500000BF00BF00BF00BF00BF00BF00BF00BF6E
:103A600000BF00BF00BF00BF00BF00BF00BF00BF5E
:103A700000BF00BF00BF00BF00BF00BF00BF00BF4E
:103A800000BF00BF00BF00BF00BF00BF013BC3D1EC
:103A9000FFF7D4FE044600287AD0374806F034FBFE
:103AA00000940246354902204FF4807306F05CFB17
:103AB0000FE7314806F028FB304900940246D02336
:103AC000022006F051FB2C4806F01EFB0094024633
:103AD0002A490220F02306F047FBFAE6264806F0C2
:103AE00013FB264900940246D023022006F03CFB3B
:103AF000214806F009FB0094024620490220F323E6
:103B000006F032FBE5E61C4806F0FEFA0094024699
:103B10001A490220A12306F027FB174806F0F4FA01
:103B20000094024615490220F72306F01DFBD0E65B
:103B3000114806F0E9FA0094024610490220A72332
:103B400006F012FBE9E70C4806F0DEFA0B49009498
:103B50000246D023022006F007FB074806F0D4FAFD
:103B60000094024605490220FA2306F0FDFAB0E669
:103B70005C4D0020604D002014D9020090D9020055
:103B80000CD90200B0AD01001C4300200024F40059
:103B900044F62063D8F8002000BF00BF00BF00BF7C
:103BA00000BF00BF00BF00BF4A452FD000BF00BF0D
:103BB00000BF00BF00BF00BF00BF00BF00BF00BF0D
:103BC00000BF00BF00BF00BF00BF00BF00BF00BFFD
:103BD00000BF00BF00BF00BF00BF00BF00BF00BFED
:103BE00000BF00BF00BF00BF00BF00BF00BF00BFDD
:103BF00000BF00BF00BF00BF00BF00BF00BF00BFCD
:103C000000BF00BF00BF00BF00BF00BF013BC3D16A
:103C1000337B4FF0A04103F5E0734FF4003E41F8D1
:103C200023E03A461E2304A90DF1210090278DF8C8
:103C300020308DF8107007F0C5FC00947068317862
:103C40002A46022302F0ACFA044600283FF45AAE9A
:103C50000A4806F059FA0A4900940246D023022085
:103C600006F082FA054806F04FFA0094024604492D
:103C700002204FF4857306F077FA2AE614D9020081
:103C800090D902006DDF704772DF704779DF7047AF
:103C90007DDF704764DF7047F0B50488012C83B086
:103CA00007D0148804F1020E9E4505D90C2003B0FC
:103CB000F0BD072003B0F0BD0578012D04D1457893
:103CC00002352544AB42F1D3023B0F461C1B02A92F
:103CD000A4B2054621F8024D07EB0E001646FFF789
:103CE000D7FF0028E3D12B78022B17D0012B11D05E
:103CF00023460821FE2BD9D83288581CB854328864
:103D0000013292B23280B954328801321344338086
:103D10000020CCE76B789C42EBD2E9E7BDF8063097
:103D20009C42E5D30921E5E72DE9F04F85B08346B4
:103D30000E9D00882C880194BDF83C9000284ED040
:103D400000278A46164698463C4604E0BBF80030F9
:103D50000134A34226DDDBF8043053F8240003903D
:103D60000DF10B0103A80022FFF794FF18BB9DF88B
:103D70000B30B342EAD10FB32A8893194B4519DCB3
:103D8000424403A80DF10B010127FFF783FF90B90F
:103D90002B889DF80B2013442B80BBF80030013496
:103DA000A342D8DCDFB12B88019A013B9B1A9BB25E
:103DB000FF2B12D90C2005B0BDE8F08F2B885A1CC0
:103DC000334402334B4592B2F4DC2A8008F802A057
:103DD0002A88013292B22A80D2E708F80230002005
:103DE00005B0BDE8F08F00BF2DE9F047002317882C
:103DF000138090F82D3086B0144605460E46002BF1
:103E000040F0C880AA78002A40F0F080EA78002AC2
:103E10002CD1696899B1DA1CBA42097822D80222F9
:103E2000F254238801339BB20A222380F254238860
:103E300001339BB22380F1542388013323802B89E3
:103E4000002B40F0F7802B8A002B40F00C812B8B4D
:103E5000002B40F021812B6A002B5CD02288911D21
:103E6000B94218D90C2006B0BDE8F087D91CB94278
:103E7000F8D80221F154238801339BB20121238019
:103E8000F15423880B449BB22380F25423880B44C3
:103E90009BB22380BDE71988052940F2C9806FF4E1
:103EA000486801EB080080B24FF27D3E704540F259
:103EB000BF805888052840F2BB806FF4486C84446A
:103EC0001FFA8CFCF44540F2B3804FF6FF7E71453B
:103ED00004D0704502D0814200F2AA800521B1547D
:103EE0002288013292B212212280B15422880132FA
:103EF00092B222801988B1543244090A5170228842
:103F0000023292B222805B88B35432441B0A53704F
:103F10002388023323806B6A002B2BD0998820885A
:103F20000A1D0244BA429DD88A1CFE2A9AD803313F
:103F300031542288013292B2FF212280B15422886A
:103F4000013292B222801988B1543244090A517068
:103F50002088023080B220809A885AB199680393F1
:103F6000002965D0304407F02DFB039B22889B88F5
:103F70001344238095F82C30002B40F0A68028783D
:103F800000283FF470AF2846314622463B46FFF7F3
:103F900083FE68E7082F7FF665AF04A8FFF772FE7F
:103FA00000287FF460AF23880822F254238801336D
:103FB0009BB21B222380F2542088013080B22080E3
:103FC000062230440DF1110107F0FCFA23889DF818
:103FD000102006339BB212F0FE0218BF012223808C
:103FE000F254238801339BB223800BE70433BB4296
:103FF0003FF638AF04A8FFF749FE00287FF433AF3F
:104000002388BDF810200321F154238801339BB28B
:1040100019212380F154238801339BB2F1182380A6
:10402000100AF2544870238802339BB22380EDE6D5
:10403000072018E705F1080802218DE890004046A6
:104040000A463346FFF770FE00287FF40CAF8DE878
:1040500090004046062110223346FFF765FE0028F7
:104060007FF401AFEFE605F110088DE890004046BF
:10407000032102223346FFF757FE00287FF4F3AEF8
:104080008DE890004046072110223346FFF74CFE92
:1040900000287FF4E8AEDAE605F118088DE8900014
:1040A0004046142102223346FFF73EFE00287FF4EB
:1040B000DAAE8DE890004046152110223346FFF716
:1040C00033FE00287FF4CFAEC5E6D5F82880B8F1DE
:1040D000000FADD0B8F804200232FE2A3FF6C2AE7F
:1040E00023884FF000094FF0160A0132F25423885A
:1040F00001339BB2238006F803A0238801339BB2CF
:104100002380B8F80020F2543344120A5A702388EE
:1041100002339BB22380B8F80410F0180A4661B14C
:10412000D8F808301946002B82D007F04BFAB8F8BF
:104130000430228813449BB2238009F1010995F8C9
:104140002C205FFA89F94A4509EB49087FF617AF39
:10415000AA6A02EB8808B8F804200232FE2AC4D901
:1041600080E600BF2DE9F04794B01F230D46ADF85F
:104170000E30044600285AD0C278530753D590F821
:104180002D300021ADF80C10002B6BD18378002B63
:1041900040F0AB801846032114AE5F1C023330445C
:1041A00016FA87F716FA83F64FF0020E8BB201214A
:1041B00000F840ECADF80C3007F8401C06F8402C35
:1041C0006268B2B1D91C1F29167828D814AF581CC0
:1041D0009A1C17FA80F03B4417FA82F24FF0020E55
:1041E0000A2703F840ECADF80C1000F8407C02F808
:1041F000406C2389002B40F08581238A002B40F0FE
:104200009F81238B002B40F0B981236A002B00F0A3
:10421000D880BDF80C20911D1F2940F28F800C2002
:1042200014B0BDE8F087072014B0BDE8F087ADF802
:104230000C00002D00F00481EB78002BF3D1284610
:104240000CA90DF10E02FFF7CFFD0028ECD19DF86F
:104250000E300CAA20469DF80C10FFF715FD14B087
:10426000BDE8F0870CAF3846FFF70CFD0028DBD126
:10427000BDF80C3014AA03F1010C12FA8CFC03F106
:10428000020E13441FFA8EFE04AE4FF008094FF0E1
:104290001B0803F8409C0DF13101062206EB0E00CD
:1042A0000CF8408CADF80CE007F08CF9BDF80C2050
:1042B0009DF83010931D11F0FE019BB240F07C81FF
:1042C00014A8034403F8401CD31DA2789BB2ADF898
:1042D0000C30002A40F01181E278002A3FF470AFE0
:1042E000D91C1F2918469AD856E70CAF3846FFF755
:1042F000CDFC002898D1BDF80C30BDF83070E278C4
:10430000991C0DF1500E581C89B204AE0EEB030936
:104310001EFA80F0043306EB010E4FF0030A4FF053
:1043200019089BB24FEA172C09F840ACADF80C30D5
:1043300000F8408C77548EF801C0CEE71888052825
:104340007FF671AF6FF4486C00EB0C06B6B24FF21B
:104350007D37BE427FF667AF5E88052E7FF663AF7E
:104360006FF4486EB6441FFA8EFEBE457FF65BAF13
:104370004FF6FF77B84204D0BE4202D0B0423FF6BB
:1043800052AF14A8561C10FA86F600EB020E901CD1
:1043900080B212274FF0050C0EF840CCADF80C009F
:1043A00006F8407C1F88ADF80C1004AE3118375465
:1043B00004323F0A4F7092B25B88B35432441B0AF6
:1043C0005370676A9FB3B888BDF80C30811C9A1C83
:1043D00056181F2E3FF623AFFE293FF620AF14AE2E
:1043E000591C06EB030E16FA81F192B20330FF2638
:1043F0000EF8400CADF80C2001F8406C398804AE82
:10440000B018B154090A41700433BA8898B2ADF8B3
:104410000C0062B1B96800293FF405AF304407F0E1
:10442000D1F8BDF80C30BA881344ADF80C3094F8CC
:104430002C3053B904AE2378002B53D13446F8E620
:104440002B46ADF80E502A4604E7A76A002F3FF42A
:10445000EAAEB9880231FE293FF6E1AE9E46BDF8CC
:104460000C304FF0000804AE4FF0160914AA581C87
:1044700002EB030C12FA80F09A1C92B201310CF894
:10448000401CADF80C2000F8409C3988B1543244EF
:10449000090A51700433B9889BB20A46F018ADF886
:1044A0000C3079B1BB681946002B3FF4BCAE07F065
:1044B00089F8BDF80C30BA8894F82CE013449BB20C
:1044C000ADF80C3008F101085FFA88F8F04508EB08
:1044D0004802B0D2A76A07EB8207B9880231FE29E9
:1044E000C4D99CE62046314603AA1F23FFF7D4FB1C
:1044F00000287FF499AE34469BE604331F2B3FF629
:104500008EAEF3E603AA04F1080704AE4FF01F08CD
:1045100002218DE80401384633460A46FFF704FCC1
:1045200000287FF481AE03AB8DE80801384633469E
:1045300006211022FFF7F8FB00287FF475AE5CE639
:1045400003AA04F1100704AE4FF01F088DE8040120
:104550003846334603210222FFF7E6FB00287FF4AA
:1045600063AE03AB8DE808013846334607211022BD
:10457000FFF7DAFB00287FF457AE42E603AA04F106
:10458000180704AE4FF01F088DE804013846334683
:1045900014210222FFF7C8FB00287FF445AE03ABCD
:1045A0008DE808013846334615211022FFF7BCFB81
:1045B00000287FF439AE28E614A90B44012103F842
:1045C000401C81E673DF7047F0B5854D85B0064627
:1045D000002184480722FAF7B5FE6B78FBB9AB7867
:1045E000814F002B61D17F4C6378002B63D1A3787E
:1045F000002B60D1E378002B5DD12379002B5AD1B9
:104600006379002B57D1A379003318BF0123701EA3
:10461000032800F2E180DFE800F0163B1B43724FF5
:104620003B78012B04D0AA78002ADCD0022BDAD107
:104630006E4B6F4A1B68002B00F0C58001210820DB
:1046400011709847CFE76A7812B3002B40F0BD8015
:10465000EB782BB30322654B3A701B681BB12A78A9
:10466000002A40F0A380634B00221A701022684693
:104670000021FAF767FE3B7800228DF800208DF8C4
:104680000820042B39D8DFE803F085795D3B18005A
:10469000AA78002ADCD0002BDAD002233B70E2E7B4
:1046A0002B79002BFAD00422D5E73B78012BBFD021
:1046B000022B98D1BCE70123A9E72B78A969EA6905
:1046C000ADF80A10ADF80C20002B67D04A4B1978D2
:1046D000002963D1494B1B78002B5FD0484B042441
:1046E00002221846DC708DF80820FFF73BFD0028F9
:1046F0006ED1444A3B7806211170002B35D02EE054
:104700002B7829696A69ADF80A10ADF80C20002BE6
:1047100048D0394B1978002944D1384B1B78002BED
:1047200040D0374B042402221846DC708DF8082054
:10473000FFF718FD00284BD1324A3B780521117054
:104740009BB10CE02F48EA68AB6801940121022478
:1047500004708DF80010ADF80C20ADF80A302A4B2B
:1047600068461978FFF72EFF30B9204B1B6813B14C
:10477000244A10789847002005B0F0BD21490194E3
:10478000012200230A708DF80020ADF80C30ADF83E
:104790000A30E4E71B4B00221A70E6E7194B0422AB
:1047A0001A70DCE7174B03221A70D8E7124A127806
:1047B000002A7FF458AF11480E49027001220720E9
:1047C0000A70984752E713700DE701233B704AE7E0
:1047D0003B78002BC9D0C2E700233B7043E700BF02
:1047E000F04D0020E84D0020394E0020BC4D002047
:1047F0003A4E0020374E0020E34D0020AC4D002003
:10480000704D0020484E0020384E0020014B18709B
:10481000704700BF384E00202DE9F04F83B0DDF81F
:1048200030E0002800F09A80002A00F097801446BB
:1048300005461F4601910FCC4A4EDFF84C91DFF838
:104840004CC1DFF84CA1DFF84C81DFF84CB1CCF85B
:1048500000700FC694E80F00002486E80F00424E57
:10486000424B4348CBF800E0012289F80020214662
:1048700007224FF6FF79A3F800908AF8004088F8E5
:104880000040FAF75FFD21463C223046FAF75AFD18
:1048900005F1100393E80300AA78EB7895F800E09F
:1048A000B270F37006F1100395F801C086F800E0CD
:1048B00083E8030005F1080393E8030006F1080EFE
:1048C00005F118038EE8030093E803006A6A86F88E
:1048D00001C006F1180383E803009AB1254A726209
:1048E000696A254B93608888B1F800E0A2F800E07F
:1048F000908038B1013B8A68125D03F8012F0134C2
:104900008442F8D1AB6AB3B11C4BB362A86A1C4AAB
:104910009A6084889C800188198044B1013A002300
:104920008168C95C02F8011F0133A342F8D195F8F0
:104930002C3086F82C302B6A33B1124B33622A6A42
:104940005188598012881A806B6803B1736001998D
:10495000054803B0BDE8F04FFFF704BC0E2003B0DC
:10496000BDE8F08FF04D0020704D0020104E00206B
:10497000E84D0020B04D0020C44D00203C4E0020EA
:10498000184E0020144E00203B4E0020BC4D00204D
:10499000394E0020384E0020E44D00200C4B1B788F
:1049A0000BB90820704710B50A4B82B0044601A825
:1049B0001C7003F073F9019B2BB1074B01221A7095
:1049C000002002B010BD2046FFF7FEFDF9E700BF52
:1049D0003B4E0020394E0020C04D002010B503880A
:1049E000112B82B01BD01B2B0AD0102B01D002B090
:1049F00010BDC37B8288012BF9D1214B1A80F6E7C9
:104A0000037A002BF3D11F4B1F4A19781378F1B9A1
:104A100008201E4B1B68002BE9D09847E7E7184A8F
:104A2000838812881A4900209A420870DFD1154BFA
:104A30001B78002BECD0144B012401A81C7003F050
:104A40002DF9019BABB1134B01221A70CFE7124C29
:104A5000013384FB0314D917C1EB640404EB840411
:104A60001B1BDCB201A8147003F018F9019B002B8A
:104A7000E9D12046FFF7A8FD0028B8D0C9E700BF5C
:104A8000104E00203B4E0020394E0020E44D002007
:104A9000E34D0020C04D002067666666023801289D
:104AA00015D830B5114C237883B00BB903B030BDA5
:104AB0000F4B104A1B7815780022227043B908204A
:104AC0000D4B1B68002BF1D0984703B030BD7047E9
