:020000021000EC
:10F000000000012075AC02009DAC02009FAC020024
:10F01000A1AC0200A3AC0200A5AC020000000000FD
:10F02000000000000000000000000000A7AC02008B
:10F03000A9AC020000000000ABAC0200ADAC0200C5
:10F040007D6C0200AFAC0200AFAC02004D68020064
:10F05000AFAC020085700200D95B0200896D02002E
:10F06000AFAC0200AFAC0200AFAC0200AFAC02002C
:10F07000AFAC02004D6F0200AFAC0200AFAC0200BB
:10F08000AFAC020059740200AFAC0200AFAC02009A
:10F0900015750200AFAC02000DA10200AFAC02007A
:10F0A000AFAC0200AFAC0200AFAC0200BD6F02001B
:10F0B000216A0200D96A020000000000000000007E
:10F0C000AFAC0200AFAC0200AFAC0200AFAC0200CC
:10F0D000AFAC0200AFAC0200AFAC02000000000019
:10F0E0000000000000000000000000000000000020
:10F0F0000000000000000000000000000000000010
:10F1000000000000000000000000000000000000FF
:10F1100000000000000000000000000000000000EF
:10F1200000000000000000000000000000000000DF
:10F1300000000000000000000000000000000000CF
:10F1400000000000000000000000000000000000BF
:10F1500000000000000000000000000000000000AF
:10F16000000000000000000000000000000000009F
:10F17000000000000000000000000000000000008F
:10F18000000000000000000000000000000000007F
:10F19000000000000000000000000000000000006F
:10F1A000000000000000000000000000000000005F
:10F1B000000000000000000000000000000000004F
:10F1C000000000000000000000000000000000003F
:10F1D000000000000000000000000000000000002F
:10F1E000000000000000000000000000000000001F
:10F1F000000000000000000000000000000000000F
:10F2000010B5054C237833B9044B13B10448AFF360
:10F2100000800123237010BD404300200000000047
:10F22000D8E00200084B10B51BB108480849AFF3FD
:10F2300000800848036803B910BD074B002BFBD0C2
:10F24000BDE81040184700BF00000000D8E00200F1
:10F25000444300201C43002000000000154B002BFD
:10F2600008BF134B9D46A3F5803A00218B460F46FD
:10F270001348144A121A00F065F80F4B002B00D007
:10F2800098470E4B002B00D0984700200021040027
:10F290000D000D48002802D00C48AFF3008000F0AC
:10F2A0002BF82000290000F0F3F900F011F800BF5E
:10F2B0000000080000000120000000000000000025
:10F2C00040430020AC5B0020000000000000000074
:10F2D00008B5074B044613B10021AFF30080054B7E
:10F2E0001868836A03B19847204600F033F800BFDE
:10F2F00000000000B4BF020070B50E4B0E4CE41AC3
:10F30000A41000251E46A54204D056F82530984783
:10F310000135F8E70CF040FE084C094BE41AA41044
:10F3200000251E46A54204D056F8253098470135E1
:10F33000F8E770BD14430020144300201843002058
:10F340001443002002440346934202D003F8011BF9
:10F35000FAE77047FEE700BFBFF34F8F0549064B42
:10F36000CA6802F4E0621343CB60BFF34F8F00BF63
:10F37000FDE700BF00ED00E00400FA0574DF704710
:10F3800076DF70478ADF70478BDF704732DF704768
:10F390003EDF704700283ED01F4B204A1B6800BF4D
:10F3A00000BF00BF00BF00BF00BF00BF00BF93424F
:10F3B0002FD000BF00BF00BF00BF00BF00BF00BF15
:10F3C00000BF00BF00BF00BF00BF00BF00BF00BF45
:10F3D00000BF00BF00BF00BF00BF00BF00BF00BF35
:10F3E00000BF00BF00BF00BF00BF00BF00BF00BF25
:10F3F00000BF00BF00BF00BF00BF00BF00BF00BF15
:10F4000000BF00BF00BF00BF00BF00BF00BF00BF04
:10F4100000BF0138C3D170470C4300200024F40022
:10F4200008B5064903200BF033F8FFF7A7FFFFF7F5
:10F43000ABFF0348BDE80840FFF7A4BFE0BF0200F0
:10F44000D8BF020010B5032036490BF021F8012087
:10F4500001F046FC002862D101F084FB00285BD15A
:10F460003148132180B2FFF78BFFFFF787FF4FF082
:10F47000A0434FF400312D4AC3F8301712682C49CD
:10F4800041F2883300BF00BF00BF00BF00BF00BF14
:10F4900000BF00BF8A422FD000BF00BF00BF00BF27
:10F4A00000BF00BF00BF00BF00BF00BF00BF00BF64
:10F4B00000BF00BF00BF00BF00BF00BF00BF00BF54
:10F4C00000BF00BF00BF00BF00BF00BF00BF00BF44
:10F4D00000BF00BF00BF00BF00BF00BF00BF00BF34
:10F4E00000BF00BF00BF00BF00BF00BF00BF00BF24
:10F4F00000BF00BF00BF00BF013BC3D1FFF746FF05
:10F500000C49044603200AF0C3FF04B910BD20468D
:10F51000BDE8104007F0B0BE07F0AEFEA0E707F070
:10F52000ABFE99E710C002004C4700200C430020BE
:10F530000024F40038C0020008B50378012B11D074
:10F540000AD3022B07D103202A490AF0A1FFFFF7B3
:10F5500079FFFFF701FF08BD03202749BDE80840F8
:10F560000AF096BF032025490AF092FF244B254953
:10F570001A6841F2883300BF00BF00BF00BF00BF60
:10F5800000BF00BF00BF8A422FD000BF00BF00BF36
:10F5900000BF00BF00BF00BF00BF00BF00BF00BF73
:10F5A00000BF00BF00BF00BF00BF00BF00BF00BF63
:10F5B00000BF00BF00BF00BF00BF00BF00BF00BF53
:10F5C00000BF00BF00BF00BF00BF00BF00BF00BF43
:10F5D00000BF00BF00BF00BF00BF00BF00BF00BF33
:10F5E00000BF00BF00BF00BF00BF013BC3D1FFF79A
:10F5F000B3FE00BF14C10200ACC00200E0C00200B4
:10F600000C4300200024F400B0B110B582B0818812
:10F61000438802880091C18801910446074903206C
:10F620000AF076FFE388C82B01D802B010BD02B003
:10F63000BDE81040FFF706BF704700BF44C102009D
:10F640002DE9F041144684B0074650680E460AF092
:10F650001DFFA5682488804628460BF0DDFA0AF0D5
:10F6600015FF3A46334609490390CDF80080012042
:10F67000019402950AF060FF022001F033FB41F291
:10F680008830FFF787FEFFF767FE00BF80C10200EA
:10F6900030B5002089B00AF0E7FE002879D10320B8
:10F6A0003D490AF0F5FE03203C490AF0F1FE08202E
:10F6B0003C213B4A07F0F0FD002867D108F032FA00
:10F6C000002860D13748384A012108F0F5FA0028AF
:10F6D00056D136484FF4B411002208F0FFFA002842
:10F6E0004BD108AC324B44F8103D204601F0D2F823
:10F6F00000283FD12F48FFF74DFE2F4B2F4A019393
:10F7000001A800230292039300F006FB78BB2C496A
:10F710002C4B2D4D0591382220468DF8182007934B
:10F72000049504F057F904F067FA20462749059537
:10F7300019220C2306918DF810208DF81C3004F04E
:10F740005FFD234D402407F03DFEF1EE103A23F01B
:10F750009F03E1EE103AF1EE103AC5F88441FFF74D
:10F7600017FE08B107F088FD04F0F2F9EBE707F0A7
:10F7700083FDCCE707F080FDBCE707F07DFDB0E737
:10F7800007F07AFDA5E707F077FD9BE707F074FD2A
:10F7900094E707F071FD82E7DCC1020010C20200AD
:10F7A0007C43002048C2020021F401005C43002099
:10F7B00034C20200A086010039F501004C47002048
:10F7C000B8BF020009F6010040C20200C8BF020033
:10F7D00000E100E07ADF70477CDF70477FDF704731
:10F7E0008FDF7047A9DF7047ADDF704769DF704773
:10F7F00066DF704731DF70473DDF704700B585B089
:10F8000038B1032802D10D490AF042FE05B05DF877
:10F8100004FB03200A490AF03BFE04A8022300F877
:10F820000C3D084B1B689847032005F0E7FC0028B7
:10F83000ECD007F021FD05B05DF804FB58C20200D2
:10F8400090C202005847002010B5044684B008F06A
:10F8500067FC204600F04AFF2046023C05F04EFDC2
:10F86000012C01D904B010BD04AC002344F80C3DB8
:10F87000204608F049FC08B107F0FEFC019B002B74
:10F88000F0D1064B1B78002BECD0054B0122204613
:10F890001B688DF804209847E4E700BF5447002018
:10F8A000584700202DE9F04F0446ADB09F4F05F0BA
:10F8B00003FE204605F09CFD3A6862B19C4E00258F
:10F8C000336803EBC50301355B6813B120469847E5
:10F8D0003A689542F4D39748214605F079FE964858
:10F8E00021460BF095F82388552B00F2BB80DFE80A
:10F8F00013F0DD00E200B900B900B900B900B900A9
:10F90000B900B900B900B900B900B900B900B9002F
:10F91000B900EA00F900B9001301B900B900B90053
:10F92000B900B900B900B9005600B9006401B900C6
:10F93000B900B90041014E01B900B900B900B900E0
:10F94000B900B900B900B900B900B900B900B900EF
:10F95000B900B900B900B900B900B900B900B900DF
:10F96000B900B900B9005301B900B900B900B90034
:10F97000B900B900B900B900B900B900B900B900BF
:10F98000B900B900B900B900B900B900B900B900AF
:10F99000B900B900B9005901B900B900BF00257A12
:10F9A000022D5FD100213C220EA8FFF7CBFC634B58
:10F9B0008DF8385000261B680696062201270A9605
:10F9C0000B968DF83A600796089609960C960D9658
:10F9D0008DF83B208DF81B709A890A929B7BDFF88B
:10F9E0008CB10B9331463C221DA8FFF7ABFCDFF82E
:10F9F00080E1534B009619789BF800C09EF80020D8
:10FA00008DF809104FF0800A8BF8006031468DF8B0
:10FA10000AC003AE0DF1080C8DF80B200EA8494B5F
:10FA20008EF800A04FF6FF794FF054084FF0040B0A
:10FA300006AA1796ADF80C908DF80880CDF814C082
:10FA4000ADF810B005F018FB0646002840F0248100
:10FA5000384605F00BFB032005F0D0FB03203A49A4
:10FA60000AF016FD204605F0E9FB2DB0BDE8F08F49
:10FA700003203649E2880AF019FDA0884FF48A7104
:10FA8000FFF7B2FE002840F0FA803149E3882948A8
:10FA9000A1F8013005F086FE0028E3D007F0ECFB6A
:10FAA000204605F0CBFB2DB0BDE8F08F032029499F
:10FAB0000AF0EEFCD6E7284B00211888FFF798FEE5
:10FAC0000028CFD0EAE7032024490AF0E1FC2CA863
:10FAD000002300F83C3D224B1F4AA1881B6811807F
:10FAE0009847BFE70320227A1E492CAD0AF0DEFCBE
:10FAF000002345F83C3D184B4FF6FF7228461A800C
:10FB000008F002FB002879D11D9B002B00F0BA8081
:10FB1000154B01221A70A5E70F4B0022188885218A
:10FB20001346FFF75BFE00289CD0B7E75C47002038
:10FB300050470020C848002060470020C4480020EB
:10FB400008430020FDF7010018C6020054C302005C
:10FB50002849002088C4020006430020C8C20200D1
:10FB60005847002004C30200544700205547002096
:10FB70000443002003205B490AF08AFC00210A4666
:10FB8000A088FFF72DFE00283FF46CAF86E7032026
:10FB900055490AF07DFC65E70320544962890AF063
:10FBA00085FC5FE7524B002118880A460B46FFF799
:10FBB00019FE00283FF456AF70E703204D490AF0C4
:10FBC00067FC0EA800210822FFF7BCFBE77DFF08B9
:10FBD00004F118063FF446AF637E227E092B18BF5E
:10FBE000002304D164E05178F25C092909D0013284
:10FBF0001344BB4206EB0302F5D333E707F03CFBAB
:10FC000082E70233F518013A2846ADF838200F95FF
:10FC10000BF0E0FD804638480BF0DCFD8045FFF43A
:10FC200021AF2946024634480BF040FD0546002826
:10FC30007FF418AFDFF8DC8094F816E098F8003015
:10FC40004FFA8EF25BB29A427FF70CAF29461DA89D
:10FC5000082288F800E0FFF775FB637E217EFF2B0A
:10FC600018BF2B4604D13AE05278F15CFF2A21D02C
:10FC700001310B44BB4206EB0302F5D3F2E607F079
:10FC8000FBFA02E71D491E4A0B70012312688DF82A
:10FC9000743028469047E5E61A480AF0F7FB0096CC
:10FCA00002461949284640F22B230AF01FFCD9E6E8
:10FCB0000223A7E702331E4498F80030F0780F9A29
:10FCC00000905BB24D1E032010491E96ADF8745093
:10FCD0000AF00CFC1E9A0E4BD2781A70C2E6022370
:10FCE000E9E700BFF0C3020040C40200A4C3020061
:10FCF00006430020B8C4020050C20200544700204E
:10FD00005847002050C50200C4C5020000C50200CB
:10FD100055470020044300202DE9F04FCA4DDFF87D
:10FD200060E3CA4ECA4CCB49CB4BADB00246286803
:10FD3000069092E881009568CEF800004FF4A67214
:10FD400006A8376025600AF073F9002840F070813A
:10FD50002CAD002345F8783D28460AF0EFF900283D
:10FD600040F0638100210C221DA8FFF7EBFA01246B
:10FD70004FF48A731DA923200E9A8DF87440ADF8B4
:10FD80007630FFF733FD002840F04C8100210C2233
:10FD90001DA8FFF7D7FA0624012320201DA90E9ADB
:10FDA0008DF874308DF87630ADF87840FFF71EFD91
:10FDB000002840F0348100210C221DA8FFF7C2FA70
:10FDC0000124102322201DA90E9A8DF874408DF86D
:10FDD0007630FFF70BFD002840F01E8100210C2239
:10FDE0001DA8FFF7AFFA0124022321201DA90E9AB6
:10FDF0008DF874408DF87630FFF7F8FC002840F05D
:10FE0000088100210C221DA8FFF79CFA0223012083
:10FE10001DA90E9A8DF87430FFF7E8FC002840F019
:10FE2000F58000210C221DA8FFF78CFA0123402049
:10FE30001DA90E9A8DF87430FFF7D8FC002840F009
:10FE4000E28000210C221DA8FFF77CFA40F6E44373
:10FE5000A1201DA90E9A1D93FFF7C8FC002840F0B1
:10FE6000CF8000210C221DA8FFF76CFA9DF874309A
:10FE70000E9A43F00103A0201DA98DF87430FFF7FE
:10FE8000B5FC002840F0B98028460AF061F9002846
:10FE900040F0B08071480AF025F948B10446704935
:10FEA000012022460AF002FB20462DB0BDE8F08F6B
:10FEB0006C480AF021F90028F0D10120FFF79AFCE4
:10FEC0000028EBD10120FFF797FC0028E6D1664A15
:10FED000D2F8883043F47003C2F88830BFF34F8FF4
:10FEE000BFF36F8F614E6248314600F03BFB044622
:10FEF000002840F0A080336893F8244193F82581CE
:10FF000093F82691FF2C40F0BF80B8F1FF0F40F02E
:10FF10000E81B9F1FF0F00F0F681DFF868A183F8D8
:10FF200026810127FF2213460092032051490AF03F
:10FF3000DDFA9AF80030002B40F0DC803468DFF8FE
:10FF40002C8194F82830112B00F2E48094F82331AE
:10FF5000FA2B00F2AD8094F82132013BDBB2F62B94
:10FF600000F2B680002F40F0BD809DF8383003F0DD
:10FF7000F0036FF3071320468DF838300BF02AFC9E
:10FF8000214682B22846FFF727FC002840F09E81D8
:10FF9000002108221DA8FFF7D5F93368334C197CDE
:10FFA000DA7B42EA0122ADF87420997C5A7C42EA5D
:10FFB0000122ADF87620DA7C197D42EA0122ADF803
:10FFC00078205A7D9B7D1DA842EA0323ADF87A3044
:10FFD000FFF700FC072800F0AF80002800F0CA807F
:10FFE00004462549012022460AF060FA20462DB039
:10FFF000BDE8F08F07F040F94CE707F03DF943E723
:020000022000DC
:1000000007F03AF92DE707F037F91AE707F034F966
:1000100007E707F031F9F4E607F02EF9DEE607F01E
:100020002BF9C8E607F028F9B0E607F025F999E6BC
:1000300007F022F98CE60120104922460AF036FA30
:1000400020462DB0BDE8F08F4CC202005047002082
:100050005C470020784700201D9F0200A5F80100A2
:1000600088C8020049F8010000ED00E0C448002003
:1000700000C902000CC70200C4C80200D0C60200BA
:10008000584700204C470020FF2283F8242183F8A2
:10009000252183F82621DFF8C8A29F4801238AF88A
:1000A000003000F0BBF9002840F01381002739E749
:1000B00004F12900002299490BF008FB346894F8F8
:1000C0002132013BDBB20022F62B84F8232109D92F
:1000D00004F59570924916220BF0F8FA346816234D
:1000E00084F82132204600F099F908B107F0C4F8ED
:1000F00034683AE743462246CDF800900320894908
:10010000DFF860820AF0F2F9346894F82830112B95
:100110007FF61CAF04F1170083490E220BF0D6FACC
:10012000D8F800400E2384F8283001270EE783F822
:10013000254183F82641AEE72068002306271824CE
:1001400040210122C773447441758275037483741E
:10015000C374037500F062F900287FF441AF734B5C
:100160001D931DA84FF0A0731E93FFF733FB0028CB
:100170007FF436AF284600213C22FFF7E3F8002445
:100180003368069406224FF0020801260A940B9465
:100190008DF83A400794089409940C940D948DF8C6
:1001A00038808DF83B208DF81B609A890A929B7BE2
:1001B0000B9321463C221DA8FFF7C4F8DFF8A8E105
:1001C0005B4B00945B4F19788DF8091028464FF06F
:1001D000800A9EF800508DF80A5097F800B0564BF0
:1001E0008EF8004021464FF0540C4FF0040E03AC43
:1001F00006AA4FF6FF7902AD87F800A017948DF894
:100200000BB0ADF80C908DF808C00595ADF810E076
:1002100004F032FF044600285ED1304604F026FF89
:10022000032004F0EBFF0446002866D1434800F0A9
:10023000C5FA0446002869D140480AF027F9404928
:10024000024613200AF032F93E4B3F491A6842F247
:10025000107300BF00BF00BF00BF00BF00BF00BFE2
:1002600000BF8A422FD000BF00BF00BF00BF00BF49
:1002700000BF00BF00BF00BF00BF00BF00BF00BF86
:1002800000BF00BF00BF00BF00BF00BF00BF00BF76
:1002900000BF00BF00BF00BF00BF00BF00BF00BF66
:1002A00000BF00BF00BF00BF00BF00BF00BF00BF56
:1002B00000BF00BF00BF00BF00BF00BF00BF00BF46
:1002C00000BF00BF00BF013BC3D1EDE506F0D4FF86
:1002D0005EE606F0D1FFE9E61C480AF0D7F8009484
:1002E00002461B49404640F205330AF0FFF830460B
:1002F000184922460AF0DAF8D6E530461649224671
:100300000AF0D4F8D0E5DFF858A0CFE6304613491C
:1003100022460AF0CBF8C7E500C9020029C902004D
:100320002ACA02004CC7020017C9020006001800C2
:100330000843002004430020FDF701001449002079
:1003400074C802000C4300200024F40050C50200D1
:10035000C4C50200BCC70200F8C7020038C80200CA
:100360004C470020C44800205547002030B5057890
:10037000012D83B004461CD014D3052D04D143684D
:10038000002B2CD003B030BD03202A461B496368E4
:100390000AF09CF860680028F4D003B0BDE8304053
:1003A00006F06ABF4368A3B9154B01221A7003B067
:1003B00030BD4368DBB98389B3F5005FE2D1C18901
:1003C000027C009103200F490AF090F80E4B1D703B
:1003D000D8E701200D490AF05BF80020DDE7032093
:1003E0000B490AF055F80B4B01221A70CAE7284650
:1003F00009490AF04DF80020CFE700BF04CC020005
:100400003C49002054CB02002B49002024CB0200A1
:10041000D0CB02002C490020A0CB0200F0B51D4932
:10042000044689B003200AF033F884B31A4D2146FC
:1004300040F22222281D0BF049F942F201044FF04C
:10044000420E03AA01238A274FF400561348ADF841
:10045000164005A90395C5F800E0ADF81070ADF899
:1004600014600692ADF81C3009F052F9044608B940
:1004700009B0F0BD0A480AF009F80094024609499B
:10048000022098230AF032F8204609B0F0BD0E2071
:1004900009B0F0BD34CC02004049002030490020B2
:1004A00068CC0200E0CC020030B587B00822002101
:1004B000054602A8FEF746FF0320244909F0E8FF9D
:1004C00002AB4FF4005042F20101214A09F050FA08
:1004D000044608BB1E4804A908F08CFF044670B906
:1004E00005991C484FF40A720BF0F0F8184808F010
:1004F000A5FF0446E8B9184B2B6007B030BD17487C
:1005000009F0C4FF0094024615490220AC2309F00B
:10051000EDFF204607B030BD104809F0B7FF00944A
:1005200002460F490220A92309F0E0FF204607B048
:1005300030BD0A4809F0AAFF00940246084902208B
:10054000B12309F0D3FF2046D7E700BF34CD020026
:1005500030490020404900204449002068CC020076
:10056000E0CC02002DE9F047064688B00D46032096
:10057000524909F08DFF002E3FD0514808F0A4FDEC
:10058000044660BB08F0B4FD0446002839D14D4C48
:10059000237823B906F016FF2378002BFAD009F050
:1005A000A3F90446002838D1474C237823B906F034
:1005B00009FF2378002BFAD02846FFF775FF0A2899
:1005C000044636D0B0B1414809F060FF00940246BD
:1005D0003F490220F62309F089FF20460AE03B4804
:1005E00009F054FF0094024639490220C22309F061
:1005F0007DFF204608B0BDE8F0870E2008B0BDE8BA
:10060000F087324809F042FF009402463049022048
:10061000C52309F06BFF2046ECE72C4809F036FFB4
:10062000009402462A490220CD2309F05FFF2046AC
:10063000E0E7284C2849294F04F10408032009F079
:1006400027FF314640F2222240460BF03FF84FF0A0
:10065000420A4FF08A0C4FF4005E03AA01234FF0C8
:10066000000942F201061E48039405A9C4F800A03F
:1006700087F80090ADF810C0ADF814E0ADF8166042
:100680000692ADF81C3008F0FDFE044650B93B78E8
:10069000C5F8008023B906F095FE3B78002BFAD010
:1006A0000020A7E7094809F0F1FE00940246084936
:1006B0000220EB2309F01AFF20469BE764CD0200DD
:1006C0006D0302003C4900202C49002068CC020048
:1006D000E0CC02004049002090CD02002B490020D0
:1006E0003049002046DF704747DF704710B50246AB
:1006F00004461649032009F0D9FE042C06D3052C24
:1007000005D9072C02D1124C6379C3B910BD104C26
:100710002379002BFAD00023A1680E4A237304F139
:100720000C00237463746161A261FFF7DDFF002890
:10073000ECD0636A002BE9D0BDE8104018470023D5
:100740006371FFF7CFFF0028F3D1DFE7C4CD0200CC
:10075000684B002040420F00F8B51C4607460E4685
:10076000154609F0B1F90F4B1B78834206D90246B2
:100770000D49012009F09AFE0F20F8BD23463846A6
:1007800031462A4605F0A0FD044600B9F8BD074DE4
:1007900007492B6801331A4601202B6009F086FEB9
:1007A0002046F8BD094300207CCE0200984B002073
:1007B000D4CE020012DF70476DDF704770B58AB08B
:1007C00006460DF10B00FFF7F5FF044628B99DF82A
:1007D0000B307BB902200AB070BD2A4809F056FEE2
:1007E00000940246284902203A2309F07FFE204661
:1007F0000AB070BD03A8FFF7DFFF044658BB0590A1
:10080000069007900890ADF824000524062503E023
:10081000013D601EEDB2C4B2062D05A827D00AF036
:10082000D9FF05AB194918440AF0A8FF05A80AF03A
:10083000D1FF05AB18440AAB2B44154913F81C2C07
:100840000AF09CFF002CE3D1304605A90AF0BAFF5C
:1008500020460AB070BD0B4809F018FE009402460D
:1008600009490220432309F041FE2046B3E705A8C9
:100870000AF0B0FF05AB06499DF8122018440AF0B3
:100880007DFFC5E7D4CF02004CD00200A0D002000B
:1008900084C602002DE9F047B2B00446AC4902A874
:1008A000C02201250AF012FFA84602AB00264FF035
:1008B000A04C997893F801A01878DA7893F804900E
:1008C0005F79890041EA4A01014341EA02221E2E72
:1008D00006F5E07E42EA09422FD0012F4CF82E2087
:1008E00030D024D3022F26D09A4809F0CFFD062419
:1008F0000246994900948B23022009F0F7FD9548A0
:1009000009F0C4FD944900940246C523022009F071
:10091000EDFD904809F0BAFD009402468E49022090
:10092000E42309F0E3FD204632B0BDE8F08708FA81
:1009300006F2CCF80C25202D09D00135EDB2013698
:100940000633B6E7B740202DCCF80875F5D14FF047
:10095000A04203234FF080408049C2F87837C2F8A4
:1009600008050A687E4941F2883300BF00BF00BF16
:1009700000BF00BF00BF00BF00BF8A422FD000BF32
:1009800000BF00BF00BF00BF00BF00BF00BF00BF6F
:1009900000BF00BF00BF00BF00BF00BF00BF00BF5F
:1009A00000BF00BF00BF00BF00BF00BF00BF00BF4F
:1009B00000BF00BF00BF00BF00BF00BF00BF00BF3F
:1009C00000BF00BF00BF00BF00BF00BF00BF00BF2F
:1009D00000BF00BF00BF00BF00BF00BF00BF013BA2
:1009E000C3D10121204601F0E5FA0446002840F079
:1009F00095802146602202A8FEF7A4FC9DF80D50C8
:100A00009DF813709DF819109DF81F309DF83D203A
:100A10009DF843609DF84900A5F10105B5FA85F5FB
:100A20006D0945F00204012F08BF254645F0040476
:100A300001290CBF2146294641F00804012B08BFBB
:100A4000214641F0E00141F48073012A14BF0A46B7
:100A50001A4642F40073012E18BF134643F4806215
:100A6000012814BF184610460225012340F46040B7
:100A70008DF820308DF82B308DF831308DF83730EF
:100A80008DF84A308DF84C308DF850308DF852305A
:100A90008DF85B308DF861308DF867308DF825501A
:100AA0008DF84F508DF8555001F044FA0446002857
:100AB00042D102AD0646EC78287929786A78AB787D
:100AC00000940190304601F02BF8013604460635BB
:100AD00010B9102EEFD126E71E4809F0D7FC1E49A9
:100AE000009402466923022009F000FD194809F02C
:100AF000CDFC0094024618490220B22309F0F6FC0E
:100B0000144809F0C3FC0094024613490220EE2366
:100B100009F0ECFC204632B0BDE8F0870D4809F042
:100B2000B5FC009402460C490220EB2309F0DEFCE0
:100B3000204632B0BDE8F087064809F0A7FC0094D3
:100B4000024605492846AC2309F0D0FCD8E700BF8F
:100B500014CF0200D4CF02004CD002000C4300207E
:100B60000024F4002DE9F041B2B002AC602220462E
:100B70000021FEF7E7FB0123022225468DF82030F5
:100B80008DF82B308DF831308DF837308DF84A30B4
:100B90008DF84C308DF850308DF852308DF85B3038
:100BA0008DF861308DF867308DF825208DF84F2055
:100BB0008DF855200026EF78287929786A78AB7867
:100BC00000970190304600F0ABFF0136074606352E
:100BD00000285AD1102EEED120463C49C0220AF0FE
:100BE00075FD4FF0A04620230127013B03EB430294
:100BF00004EB420514F81200A97895F80180EA7810
:100C000095F804C06D79890041EA4801DBB20143DF
:100C100041EA02221E2B03F5E07E42EA0C42E4D0B8
:100C2000012D46F82E204AD028D3022D2AD028485C
:100C300009F02CFC06240246264900948B2302204E
:100C400009F054FC224809F021FC22490094024694
:100C5000D823022009F04AFC224601201E4909F04F
:100C600025FC4FF0A04303214FF080420020C3F841
:100C70007817C3F80C2532B0BDE8F08107FA03F20B
:100C8000C6F80C25002BB0D1EBE7114809F0FEFBAC
:100C90001049009702466923022009F027FC0C48FE
:100CA00009F0F4FB009702460A490220B22309F03A
:100CB0001DFC3A460120094909F0F8FB8CE79D40EC
:100CC000C6F80855002B90D1CBE700BF14CF020027
:100CD000D4CF02004CD00200FCD00200A4D002000D
:100CE00003F068B8F0B58BB080B3012805467DD01D
:100CF000012000F09BFE0446002857D1684B1B687A
:100D00001B78002B6AD00AAD0126039005F81C6DF4
:100D10004FF0230C4FF4FA6E332240F26B33032072
:100D2000604905944FF4FA770794CDF810C0CDF8D8
:100D300020E08DF814200693099709F0A9FB3046AE
:100D4000294600F0ADFE044670B339E0012000F002
:100D50006DFE0446002840F08280514B1B681B78D2
:100D6000002B3BD00AAD0223039005F81C3D4FF049
:100D7000230E332240F6AC5303204A4905944FF426
:100D8000FA674FF4FA760794CDF810E08DF8142046
:100D900006930897099609F07BFB2946012000F08D
:100DA0007FFE0446002864D1002414E03E4809F088
:100DB0006DFB009402463D4902209A2309F096FB00
:100DC000394809F063FB009402463849022040F29A
:100DD000931309F08BFB20460BB0F0BD0320344980
:100DE0001C4609F055FB20460BB0F0BD00F01EFE7E
:100DF0000446002849D12A4B1B681B78002BEDD0F4
:100E00000AAE0423039006F81C3D4FF0230C4FF468
:100E1000FA6E332240F6AC530320224905944FF476
:100E2000FA770794CDF810C0CDF820E08DF81420A3
:100E30000693099709F02CFB2846314600F030FE56
:100E400004460028B0D0184809F020FB0094024660
:100E5000164902204FF4C77309F048FBBBE712485C
:100E600009F014FB00940246104902209A2309F06D
:100E70003DFB0D4809F00AFB009402460B49022095
:100E800040F2891309F032FBA5E7074809F0FEFAA2
:100E900000940246054902209A2309F027FBD2E775
:100EA0009C4B00202CD302005CD10200CCD102006C
:100EB000A4D2020008B51D4A13783BB9431C1FD0C9
:100EC000C0B2012810701DD0002008BD1844C0B267
:100ED00001281070F8D00028F6D1012BF4D1144B62
:100EE000186801F071FCF0B90020602101F096FF54
:100EF00098B902F03BF90028E6D006F0BDF9E3E727
:100F0000022008BD0A4B186801F05EFC40B9402081
:100F1000602101F083FF0028EBD006F0ADF9E8E78F
:100F200006F0AAF9F3E706F0A7F9DDE7A04B0020E9
:100F3000A44B00202DE9F041754C0123834082B081
:100F4000804620680E4617469DB201F03DFC0446DF
:100F5000002864D1002F45D0012F00F08B80002E97
:100F600059D070783378F478B1786A4A000240EA50
:100F70000343234343EAC101404602F009F8044613
:100F800000285BD1284601F029F860B131797379E6
:100F9000404643EA012141F61F7202F047F8044639
:100FA000002840F0A7802846002101F087FF044672
:100FB000002878D1294601F0C7FE0446002840F0F9
:100FC0008C8002F0D3F8044630B3534809F05EFA3F
:100FD00000940246514902204FF40C7309F086FA3E
:100FE000204619E0294601F069FF0446002834D163
:100FF000294601F0A9FE04460028E2D0464809F03F
:1010000045FA009402464549022040F2022309F0C5
:101010006DFA204600E00E2002B0BDE8F0813E48A7
:1010200009F034FA009402463C49022040F2F913D8
:1010300009F05CFA204602B0BDE8F081364809F0BC
:1010400025FA009402463549022040F21B2309F09C
:101050004DFA204602B0BDE8F0812F4809F016FA9B
:10106000009402462D49022040F2FF1309F03EFA97
:101070002046D1E70146284601F066FE0446F8B94D
:10108000294601F01BFF044600289AD0224809F0A7
:10109000FDF9009402462149022040F20B2309F099
:1010A00025FA2046B8E71C4809F0F0F900940246FA
:1010B0001A4902204FF40A7309F018FA2046ABE7E8
:1010C000154809F0E3F900940246144902204FF450
:1010D000027309F00BFA20469EE70F4809F0D6F993
:1010E000009402460D4902204FF40B7309F0FEF9FB
:1010F000204691E7084809F0C9F9009402460749DB
:1011000002204FF4097309F0F1F9204684E700BF8B
:10111000A44B0020FFFF1F00DCD3020058D40200C4
:1011200070B51E4E1E493368C400234482B05B680C
:101130001B685A7A8A56012A0BD0002A0EDD4FF01E
:10114000FF30FFF7B7FE0546D8B933681C44636823
:101150001B6803225A72002002B070BD0120FFF705
:10116000A9FE05460028F0D00E4809F08FF9009539
:1011700002460D4902204FF4A47309F0B7F928463E
:10118000EAE7084809F082F900950246064902207C
:101190004FF4A77309F0AAF92846DDE7AC4B00200D
:1011A000FCD40200DCD3020058D402002DE9F04F39
:1011B0005E4C256815F8304089B0984605EBC000B4
:1011C000002C6DD0012C03D0012009B0BDE8F08FB8
:1011D000574B03940DF11009B3F800E09F78C378E2
:1011E000ADF810E016460D468278417889F8027015
:1011F0000591069207934FF0000B0DF1140A19F8B0
:101200000B0032781042294611D01AF82B0098F8BA
:101210000020FFF78FFE0746002879D10BF1010B64
:10122000BBF1030FEBD1002009B0BDE8F08F414BBB
:101230001AF82B201868039B03FA02F701F0C4FA8E
:10124000BFB20446014600284AD1384601F07CFD71
:1012500039460446002837D101F030FE0446002804
:101260004AD101F083FF04460028D7D0324809F064
:101270000DF900940246314902204FF40C7309F035
:1012800035F92D4809F002F9009402462B49022055
:1012900040F2932309F02AF9204609B0BDE8F08F07
:1012A00040781A78FFF746FE04460028F4D022481A
:1012B00009F0ECF8009402462049022040F2812314
:1012C00009F014F9204680E71B4809F0DFF8009484
:1012D00002461A4902204FF4027309F007F9D0E7D9
:1012E000154809F0D3F8009402461449022040F250
:1012F000F91309F0FBF8C4E70F4809F0C7F80094A8
:1013000002460E49022040F20B2309F0EFF8B8E73D
:10131000094809F0BBF8009702460849022040F24C
:101320008E2309F0E3F838464FE700BFAC4B0020AE
:10133000D8D30200A44B0020DCD3020058D4020012
:101340002DE9F047DFF858A3DAF800304FEAC0087B
:1013500043440E465A680978126811725B68D6F8E1
:101360000C9086B00746586806F012FD0446002827
:101370005DD1DAF8003013F83700434490B101280A
:1013800000F0F880C34809F081F801240246009477
:101390000220C14940F2B62309F0A8F8204606B061
:1013A000BDE8F0875B780120984080B204AA311D27
:1013B00000F026FE0128044600F2E8809DF8103077
:1013C000002B43D09DF81230002B60D19DF81350B4
:1013D000DAF80030B149B24C434403225B688DF81F
:1013E0000F201B685A7A8A56012A0ED0002A40F331
:1013F000D9804FF0FF30FFF75DFD8146002840F0B7
:101400009282236843445B681B6801225A7204A9D4
:10141000384632460DF10F03FFF7C8FE0446002898
:1014200040F0E281002D00F07C810024B6E799486D
:1014300009F02CF8009402469749022040F2B323A9
:1014400009F054F8204606B0BDE8F0879DF8113049
:10145000FF2B00F0C780002B40F014819DF8123064
:10146000ABB99DF81340002C40F03C819DF814303E
:10147000002B40F003819DF81530002B00F0EA812D
:101480009DF81530002B00F084810025A0E79DF821
:10149000135004238DF80F30002D40F00581DAF849
:1014A00000308DF8125043447C495B687C4D1B68CA
:1014B0005A7A8A56012A0ED0002A40F3A1814FF0B1
:1014C000FF30FFF7F7FC0446002840F046822B6807
:1014D00043445B681B6801225A7204A938463246AD
:1014E0000DF10F03FFF762FE0446002840F0EE8086
:1014F000DAF800206B4B90444FF40041D8F80420F8
:101500001268C2F80490D8F8044075687069B2692E
:101510002468284402442260D8F8042092E811008C
:101520000268A3FB02035B0903EB830302EBC30323
:101530004FF4FA784FF00009E1FB03894FF47A7217
:1015400000234046494609F0DFFD3A460146204661
:1015500006F0C4FB044600283FF420AF4D4808F0D5
:1015600095FF009402464C49022040F2113308F0E6
:10157000BDFF13E799785C78DA7800FA01F100FA98
:1015800004F30B439040184380B20FE7414808F042
:101590007DFF00940246404902204FF42F7308F06B
:1015A000A5FFFBE60120FFF785FC814600283FF4FC
:1015B00028AF384808F06AFFCDF800900246364957
:1015C00002204FF4A4734C4608F090FF314808F015
:1015D0005DFF009402463049022040F2E32308F008
:1015E00085FFDBE69DF81230002B7FF450AF9DF8AD
:1015F0001340002C3CD19DF81430002B3ED19DF8B7
:101600001530002B7FF43CAFDAF800208DF80F3056
:101610004244224953681B685B7ACB5C4BB11A0683
:1016200062D44FF0FF30FFF745FC0446002840F03D
:101630008881DAF8003098440024D8F804301B6818
:1016400038465C7204A932460DF10F03FFF7AEFD78
:10165000044600283FF4A2AE0E4808F017FF00949D
:1016600002460D49022040F2CB2308F03FFF95E6E9
:101670002546002D7FF4ACAE9DF81430002B7FF48E
:1016800004AFFDE69DF812309DF81350002BF0D00A
:10169000FFE600BFDCD3020058D40200FCD40200F5
:1016A000AC4B00201F85EB513846FFF739FD04464F
:1016B000002840F0C380384604A932460DF10F03DC
:1016C000FFF774FD044600283FF4AFAEA94808F0C8
:1016D000DDFE00940246A849022040F2053308F0DE
:1016E00005FF5BE6254673E60120FFF7E3FB0446B2
:1016F00000289ED09F4808F0C9FE009402469E49EB
:1017000002204FF4A47308F0F1FE9A4808F0BEFEE0
:1017100000940246984902204FF4327308F0E6FE26
:101720003CE6DAF80020954B90444FF40041D8F89D
:10173000042012685560D6F804E0D8F804407069B7
:10174000B2692468704402442260D8F8042092E808
:1017500011000268A3FB02035B0903EB830302EBA6
:10176000C3034FF4FA784FF00009E1FB03894FF40B
:101770007A7200234046494609F0C6FC3A460146C3
:10178000204606F0ABFA0446002840F0B4802C4610
:1017900004E6022538468DF80F50FFF7C1FC0446D9
:1017A000B0B9384604A932460DF10F03FFF7FEFC2D
:1017B000044600283FF4F2AD6E4808F067FE00943E
:1017C00002466D49284640F2DD2308F08FFEE5E52C
:1017D000684808F05BFE009402466749284640F2DC
:1017E000DA2308F083FED9E5624808F04FFE009442
:1017F00002466149022040F2E62308F077FECDE57B
:101800000120FFF757FB044600283FF460AE59481B
:1018100008F03CFE00940246574902204FF4A4739E
:1018200008F064FE534808F031FE00940246524925
:1018300002204FF43F7308F059FEAFE54D4808F021
:1018400025FE009402464C49022040F2013308F084
:101850004DFEA3E5DAF80030494A434401215B68B4
:101860008DF80F101C68637AD35C73B11B0625D406
:101870004FF0FF30FFF71EFB0446002847D1DAF88F
:1018800000309844D8F804301C680023637238464E
:1018900004A932460DF10F03FFF788FC0446002827
:1018A0003FF47CAD334808F0F1FD00940246324924
:1018B00002204FF4357308F019FE6FE50120FFF7A1
:1018C000F9FA04460028DAD02A4808F0DFFD00942F
:1018D0000246294902204FF4A47308F007FE254868
:1018E00008F0D4FD009402462349022040F2D1239F
:1018F00008F0FCFD52E51F4808F0C8FD00940246C0
:101900001D49022040F2F22308F0F0FD46E5194897
:1019100008F0BCFD00940246174902204FF4A7735B
:1019200008F0E4FDDBE7134808F0B0FDCDF80090C7
:101930000246114902204FF4A7734C4608F0D6FD29
:1019400044E60C4808F0A2FD009402460A49022031
:101950004FF4A77308F0CAFDD7E6064808F096FDD5
:1019600000940246044902204FF4A77308F0BEFD1C
:1019700058E700BFDCD3020058D402001F85EB51AA
:10198000FCD4020010B4264B26481978264C0123BB
:101990004FF0A04203FA01F1C2F80C15006800BF35
:1019A00000BF00BF00BF00BF00BF00BF00BFA0421C
:1019B0002FD000BF00BF00BF00BF00BF00BF00BFEF
:1019C00000BF00BF00BF00BF00BF00BF00BF00BF1F
:1019D00000BF00BF00BF00BF00BF00BF00BF00BF0F
:1019E00000BF00BF00BF00BF00BF00BF00BF00BFFF
:1019F00000BF00BF00BF00BF00BF00BF00BF00BFEF
:101A000000BF00BF00BF00BF00BF00BF00BF00BFDE
:101A100000BF013BC3D1C2F808155DF8044B704705
:101A2000A84B00200C4300200024F40010B5184BF4
:101A30001B68013B83428AB001D3102807D90120DB
:101A40000246144908F032FD01200AB010BD0AA96F
:101A5000072301F81C3D0023049306938DF81C30E6
:101A6000089309938DF81430FFF76AFC04460028A8
:101A7000EBD0094808F00AFD00940246074902200D
:101A800040F25A3308F032FD20460AB010BD00BFC4
:101A9000B04B0020ACD40200DCD3020058D40200CA
:101AA00030B51A4B1B68013B834283B004460DD30B
:101AB00010280BD80D4689B1FFF764FF144B1B6843
:101AC00013F834306BB9032003B030BD0120024657
:101AD000104908F0EBFC012003B030BD0E2003B02C
:101AE00030BD20462946FFF72BFC04460028F3D0E2
:101AF000094808F0CBFC009402460849022040F255
:101B0000B23308F0F3FC2046E6E700BFB04B0020FC
:101B1000AC4B0020ACD40200DCD3020058D402004D
:101B20002DE9F0470F2880469DF820509DF824604D
:101B300007D90246BF49012008F0B8FC0220BDE8E1
:101B4000F0879946BC4B18680F46924600F03CFE61
:101B50000446002837D1B9F1000F10D0B9F1010FB8
:101B60007AD0B9F1020F39D001200346B3497F2260
:101B700008F0ACFC01F0FAFA0120BDE8F0874FF064
:101B8000010909FA08F81FFA88F8414600F004FF35
:101B9000044600283FD1414600F068FF0446002873
:101BA0004FD1BAF1000F73D0BAF1010F00F08F805E
:101BB00001200346A1498F2208F088FC01F0D6FAE3
:101BC0000120BDE8F0879D4962222346012008F0EC
:101BD0007DFC01F0CBFA2046BDE8F0874FF001090B
:101BE00009FA08F81FFA88F8414600F03FFF04465A
:101BF000E0B90146404600F0CFFE04460028D0D0B0
:101C000048468E497A22234608F060FC01F0AEFA7D
:101C10002046BDE8F087484688496722234608F0F9
:101C200055FC01F0A3FA2046BDE8F08748468349F9
:101C30007722234608F04AFC01F098FA2046BDE8D6
:101C4000F08748467D496A22234608F03FFC01F0B0
:101C50008DFA2046BDE8F08709FA08F81FFA88F8DF
:101C6000414600F099FE0446002861D101464046F5
:101C700000F0FCFE0446002893D048466F497222CB
:101C8000234608F023FC01F071FA2046BDE8F087F6
:101C90005046414600F0B0FD044668B94DB3012DF1
:101CA00051D00120034665499F2208F00FFC01F046
:101CB0005DFA0120BDE8F0876049852223460120B6
:101CC00008F004FC01F052FA2046BDE8F0874046D7
:101CD000002100F091FD04460028DFD0504657490E
:101CE0008A22234608F0F2FB01F040FA2046BDE8C4
:101CF000F0872846414600F023FF044668B9A6B3A2
:101D0000012E51D0012003464C49AF2208F0DEFBE2
:101D100001F02CFA0120BDE8F087484995222346BE
:101D2000012008F0D3FB01F021FA2046BDE8F0873E
:101D3000484642496F22234608F0C8FB01F016FAD4
:101D40002046BDE8F0874046002100F0F9FE044639
:101D50000028D4D0284639499A22234608F0B6FBF9
:101D600001F004FA2046BDE8F0873046414600F015
:101D7000A9FD044668B94FB3012F33D001200346B3
:101D80002E49BF2208F0A2FB01F0F0F90120BDE8C6
:101D9000F0872A49A5222346012008F097FB01F08D
:101DA000E5F92046BDE8F0874046002100F08AFDB5
:101DB00004460028DFD030462049AA22234608F0F6
:101DC00085FB01F0D3F92046BDE8F087384641464F
:101DD00000F020FF044610BB01F0C8F9044698B992
:101DE000BDE8F0874046002100F014FF04460028BB
:101DF000F2D038461149BA22234608F067FB01F0B9
:101E0000B5F92046BDE8F0870C49C32223460120DE
:101E100008F05CFB01F0AAF92046BDE8F08707490D
:101E2000B5222346012008F051FB01F09FF920461E
:101E3000BDE8F08700D50200B44B002048D5020071
:101E400010B5384B186800F0BFFC0446002855D187
:101E500001F01EF90446002846D101F087F9044636
:101E6000002855D1304B31491A6841F2883300BF00
:101E700000BF00BF00BF00BF00BF00BF00BF8A425D
:101E80002FD000BF00BF00BF00BF00BF00BF00BF1A
:101E900000BF00BF00BF00BF00BF00BF00BF00BF4A
:101EA00000BF00BF00BF00BF00BF00BF00BF00BF3A
:101EB00000BF00BF00BF00BF00BF00BF00BF00BF2A
:101EC00000BF00BF00BF00BF00BF00BF00BF00BF1A
:101ED00000BF00BF00BF00BF00BF00BF00BF00BF0A
:101EE00000BF013BC3D110BD1149D12223460120BF
:101EF00008F0ECFA01F03AF9204610BD0C49CE2268
:101F00002346012008F0E2FA01F030F9204610BD26
:101F10000749D4222346012008F0D8FA01F026F917
:101F2000204610BDB44B00200C4300200024F400D8
:101F300048D50200B0F5803F38B5054606D30246C5
:101F40001949012008F0B2FA022038BD174B186871
:101F500000F03AFC044698B9A8B200F0C5FE044669
:101F600020B901F003F90446A0B938BD1049E622B2
:101F70002346012008F0AAFA01F0F8F8204638BDFF
:101F80000B49E3222346012008F0A0FA01F0EEF805
:101F9000204638BD0649E9222346012008F096FA7A
:101FA00001F0E4F8204638BD84D50200B44B00208F
:101FB00048D5020068B110B5074B02681A600C469C
:101FC00000F0FCFB0CB9204610BDBDE81040FFF747
:101FD00037BF0E20704700BFB44B0020064B1B7864
:101FE00043B140B1054B1B880340C01AB0FA80F0E2
:101FF0004009704701207047C04B0020B84B0020BB
:1020000008B9022070472DE9F04F2DED028BDFF863
:10201000748398F8003085B02BB9042005B0BDEC6E
:10202000028BBDE8F08F002900F09C810023FF2483
:10203000547013709370D370137153710B79537084
:102040000B7B02339B10072B00F35481DBB29D0006
:10205000D370EDB2C44FDFEDC57A97ED007A9FEDF6
:10206000CB8A039087EE877A0D7316460C46D1ED26
:10207000007AF8EE677AC7EE877AC7EE887A17EEAD
:10208000900A08F0CDFF41EC100B08F011FE51EC66
:10209000100B09F019F897ED007ADFEDB57A87EEAD
:1020A000877A0F2828BF0F200546D4ED007AF8EE76
:1020B000677AC7EE877AC7EE887A17EE900A08F03B
:1020C000AFFF41EC100B08F0F3FD51EC100B08F0E2
:1020D000FBFF1F28834600F230810F2800F20D839A
:1020E0009FEDA48A4FF0100BA34A97ED007A02FBF4
:1020F00005F207EE902AF8EEE77AC7EE877A17EE38
:10210000900A08F08DFF41EC100B08F0D1FD51EC66
:10211000100B08F0D9FFB8EE488AD7ED007AC8EE68
:10212000277A824617EE900A08F07AFF41EC100BEE
:1021300008F0BEFD51EC100B08F0C6FF8146206888
:10214000CAEB000009F0AEFA01902068C9EB00006C
:1021500009F0A8FA019A824200F3E280357094ED0A
:10216000007ADFED8C6AC4F800A0B8EE477A07EE7B
:1021700090AAF8EE677A67EE266AF4EEE76AF1EE67
:1021800010FA40F1DF804FF0010BDFED787A97ED28
:10219000007A9FED7E8A87EE877AD4ED027AF8EE98
:1021A000677AC7EE877AC7EE887A17EE900A08F04A
:1021B00037FF41EC100B08F07BFD51EC100B08F0E1
:1021C00083FFDFED6B7A97ED007A87EE877A0F2831
:1021D00028BF0F208146D4ED027AF8EE677AC7EE69
:1021E000877AC7EE887A17EE900A08F019FF41EC5B
:1021F000100B08F05DFD51EC100B08F065FF1F2877
:10220000844600F288800F2800F27D829FED598A73
:102210004FF0100C584A97ED007ACDF808C002FB39
:1022200009F207EE902AF8EEE77AC7EE877A17EE02
:10223000900A08F0F5FE41EC100B08F039FD51EC66
:10224000100B08F041FFB8EE488AD7ED007AC8EECF
:10225000277A054617EE900A08F0E2FE41EC100BD3
:1022600008F026FD51EC100B08F02EFF8246A06806
:10227000401B09F017FA0190A068CAEB000009F0B2
:1022800011FA019ADDF808C0824237DC86F8029024
:1022900094ED027ADFED3F6AA560B8EE477A07EE6B
:1022A000905AF8EE677A67EE266AF4EEE76AF1EE86
:1022B00010FA55D4DFED366A27EE267AF4EEC77AA7
:1022C000F1EE10FA4CBF0120002098F8002000EB3E
:1022D0000B05002A60D0294A039B12881A409342BA
:1022E0005AD000232361636133717371281C18BFB6
:1022F000012093E60723D3701C25ABE686F802C0C5
:1023000094ED027ADFED236AC4F808A0B8EE477AAC
:1023100007EE90AAC5E79FED1A8A4FF01F0C79E7E8
:1023200086F800B094ED007ADFED1A6AC4F80090E8
:10233000B8EE477A07EE909A1BE79FED118A4FF0AF
:102340001F0BD1E6DFED126A27EE267AF4EEC77A8C
:10235000F1EE10FA4CBF4FF0010B4FF0000B14E7F9
:102360000120B2E70E2059E6BC4B002000007F465A
:102370000000FF470000837C0006F900B84B0020F6
:1023800000D03DF1C04B002000007F4300007A44A4
:10239000CDCC4C3F9A99993FD7ED007A1FED068A34
:1023A0007278F1785FED078A88EE276AA2EB8103E5
:1023B00007EE903AB8EEE77AD4ED047AF8EE676A61
:1023C00067EE067AC6EEA77AC7EEA87A17EE900AED
:1023D00008F026FE41EC100B08F06AFC51EC100BE3
:1023E00008F072FED7ED007AF178727888EE278ACD
:1023F000A2EB810213010F2828BF0F20834607EEAE
:10240000903AB8EEE77AD4ED047AF8EE676A67EEB0
:10241000087AC6EEA77AC7EEA87A17EE900A08F0F7
:10242000FFFD41EC100B08F043FC51EC100B08F0E1
:102430004BFE1F28814600F232810F2898BF4FF0D3
:102440001009F178727897ED007A1FED308AA2EBCF
:102450008102C2EB02220BFB02F207EE902AF8EE99
:10246000677AC7EE877A67EE887A17EE900A08F0E7
:10247000D7FD41EC100B08F01BFC51EC100B08F0E1
:1024800023FEF178727897ED007AA2EB8102C2EB1D
:102490000222120109FB02F307EE903AF8EE677A86
:1024A0008046C7EE877A67EE887A17EE900A08F0C2
:1024B000B7FD41EC100B08F0FBFB51EC100B08F0E2
:1024C00003FE82462069C8EB000009F0EBF801909A
:1024D0002069CAEB000009F0E5F8019B834200F394
:1024E000FD8086F804B094ED047A5FED566AC4F876
:1024F0001080B8EE477A07EE908AF8EE677A67EEBA
:10250000266AF4EEE76AF1EE10FA40F1DA80012370
:102510000193D7ED007A1FED648A7278F1785FED50
:10252000658A88EE276AA2EB810307EE903AB8EE3F
:10253000E77AD4ED057AF8EE676A67EE067AC6EEBA
:10254000A77AC7EEA87A17EE900A08F069FD41EC69
:10255000100B08F0ADFB51EC100B08F0B5FDD7EDFA
:10256000007AF178727888EE278AA2EB8102130153
:102570000F2828BF0F20834607EE903AB8EEE77A7F
:10258000D4ED057AF8EE676A67EE087AC6EEA77AA8
:10259000C7EEA87A17EE900A08F042FD41EC100B46
:1025A00008F086FB51EC100B08F08EFD1F288246C8
:1025B00000F284800F2898BF4FF0100AF1787278EB
:1025C00097ED007A1FED8F8AA2EB8102C2EB022207
:1025D0000BFB02F207EE902AF8EE677AC7EE877AD5
:1025E00067EE887A17EE900A08F01AFD41EC100B9E
:1025F00008F05EFB51EC100B08F066FD7278F17884
:1026000097ED007AA2EB8103C3EB03231B010AFBC6
:1026100003F307EE903AF8EE677A8046C7EE877AC2
:1026200067EE887A17EE900A08F0FAFC41EC100B7E
:1026300008F03EFB51EC100B08F046FD07466069C0
:10264000C8EB000009F02EF881466069C01B09F054
:1026500029F8814526DC86F805B094ED057A5FED12
:10266000B36AC4F81480B8EE477A07EE908AF8EEA1
:10267000677A67EE266AF4EEE76AF1EE10FA3AD46A
:102680005FEDBD6A27EE267AF4EEC77AF1EE10FA16
:102690004CBF01230023019A1A44154426E64FF04B
:1026A0001F09CEE686F805A094ED057A5FEDC76AAE
:1026B0006761B8EE477A07EE907AD8E74FF01F0AC5
:1026C0007CE75FEDCD6A27EE267AF4EEC77AF1EE6D
:1026D00010FA4CBF0123002301931AE786F80490F7
:1026E00094ED047A5FEDD56AC4F810A0B8EE477A8D
:1026F00007EE90AA01E70123CDE7064A02FB00F3AB
:1027000008EE103AF0E4034A02FB00F308EE103A38
:1027100080E500BF0030C8072DE9F04751EA020309
:1027200006460CBF01200020114284B00C4615461D
:102730001DD1F8B9DFF88080D8F80030B3B104AA11
:10274000D3F804A002F8056D93F8009001274946DC
:10275000504600973B4603F0D7FF38B950464946EC
:102760003B460DF10A0204F023F838B1002004B012
:10277000BDE8F087012004B0BDE8F0879DF80A307D
:102780001C4324EA0504A3428DF80A40F2D0D8F88D
:102790000030002BEAD05A681978009002231046C6
:1027A00003AA8DF80C608DF80D4003F0ADFFB0FA70
:1027B00080F04009DBE700BFC44B0020014B002242
:1027C0001A607047C44B002070B50A4D2A6812B1D8
:1027D0000124204670BD064613464068B168FDF7E7
:1027E000BBFF04460028F3D1706803F061FF2E6040
:1027F000EFE700BFC44B00202DE9F04F084285B041
:1028000004460D4603D0022005B0BDE8F08F0F0A44
:10281000FBB2060A56EA03020CBF012100211E4248
:1028200005D0002942D1012005B0BDE8F08F002974
:102830003CD1DFF88C80D8F80030002BF3D004AA0C
:10284000D3F8049002F8051D93F800B04FF0010A88
:1028500059464846CDF800A0534603F055FF0028DE
:10286000E1D14846594653460DF10A0203F0A0FF54
:1028700086460028D7D19DF80A301E4326EA07066F
:10288000B3428DF80A6011D0D8F80030002BCAD0BE
:1028900019785868CDF800E003AA02238DF80CE0FF
:1028A0008DF80D6003F030FF0028BCD1E1B2EAB230
:1028B0000120FFF731FF80F00100C0B2A4E700BFA4
:1028C000C44B00202DE9F04F084287B004460D4666
:1028D00003D0022007B0BDE8F08F0F0AFBB2060A52
:1028E00056EA03020CBF012200221E4205D0002A34
:1028F00047D1012007B0BDE8F08F002A41D1DFF8B1
:102900009490D9F80030002BF3D006AA4FF00208BB
:1029100002F8058DD3F804B093F800C0CDF80CC0D0
:102920004FF0010A61465846CDF800A0534603F027
:10293000EBFEDDF80CC00028DBD15846614653465B
:102940000DF1120203F034FF0028D2D19DF81230AD
:102950001E4326EA0706B3428DF8126011D0D9F85B
:102960000030002BC5D05A681978009043461046B5
:1029700005AA8DF814808DF8156003F0C5FE0028B7
:10298000B7D1E1B2EAB20320FFF7C6FE80F0010042
:10299000C0B29FE7C44B00202DE9F04F084287B03A
:1029A00004460D4603D0022007B0BDE8F08F0F0AA1
:1029B000FBB2060A56EA03020CBF012200221E42A5
:1029C00005D0002A47D1012007B0BDE8F08F002ACA
:1029D00041D1DFF89490D9F80030002BF3D006AA4B
:1029E0004FF0060802F8058DD3F804B093F800C044
:1029F000CDF80CC04FF0010A61465846CDF800A052
:102A0000534603F081FEDDF80CC00028DBD15846A8
:102A1000614653460DF1120203F0CAFE0028D2D1DE
:102A20009DF812301E4326EA0706B3428DF8126065
:102A300011D0D9F80030002BC5D05A681978009011
:102A40000223104605AA8DF814808DF8156003F056
:102A50005BFE0028B7D1E1B2EAB20720FFF75CFEC7
:102A600080F00100C0B29FE7C44B00202DE9F04F79
:102A7000084287B004460D4603D0022007B0BDE8E7
:102A8000F08F0F0AFBB2060A56EA03020CBF0122BE
:102A900000221E4205D0002A47D1012007B0BDE820
:102AA000F08F002A41D1DFF89490D9F80030002B44
:102AB000F3D006AA4FF0080802F8058DD3F804B049
:102AC00093F800C0CDF80CC04FF0010A614658469B
:102AD000CDF800A0534603F017FEDDF80CC0002827
:102AE000DBD15846614653460DF1120203F060FEF9
:102AF0000028D2D19DF812301E4326EA0706B342C1
:102B00008DF8126011D0D9F80030002BC5D05A686A
:102B1000197800900223104605AA8DF814808DF8CC
:102B2000156003F0F1FD0028B7D1E1B2EAB2092047
:102B3000FFF7F2FD80F00100C0B29FE7C44B002018
:102B40002DE9F04F084287B004460D4603D002201D
:102B500007B0BDE8F08F0F0AFBB2060A56EA03027F
:102B60000CBF012200221E4205D0002A47D10120BD
:102B700007B0BDE8F08F002A41D1DFF89490D9F872
:102B80000030002BF3D006AA4FF00A0802F8058D9A
:102B9000D3F804B093F800C0CDF80CC04FF0010A90
:102BA00061465846CDF800A0534603F0ADFDDDF870
:102BB0000CC00028DBD15846614653460DF1120285
:102BC00003F0F6FD0028D2D19DF812301E4326EA0C
:102BD0000706B3428DF8126011D0D9F80030002BEF
:102BE000C5D05A68197800900223104605AA8DF8BE
:102BF00014808DF8156003F087FD0028B7D1E1B28D
:102C0000EAB20B20FFF788FD80F00100C0B29FE719
:102C1000C44B00202DE9F04F084287B004460D4612
:102C200003D0022007B0BDE8F08F0F0AFBB2060AFE
:102C300056EA03020CBF012200221E4205D0002AE0
:102C400047D1012007B0BDE8F08F002A41D1DFF85D
:102C50009490D9F80030002BF3D006AA4FF00E085C
:102C600002F8058DD3F804B093F800C0CDF80CC07D
:102C70004FF0010A61465846CDF800A0534603F0D4
:102C800043FDDDF80CC00028DBD1584661465346B1
:102C90000DF1120203F08CFD0028D2D19DF8123004
:102CA0001E4326EA0706B3428DF8126011D0D9F808
:102CB0000030002BC5D05A681978009002231046C6
:102CC00005AA8DF814808DF8156003F01DFD00280D
:102CD000B7D1E1B2EAB20F20FFF71EFD80F001008C
:102CE000C0B29FE7C44B002070B5164D2B6884B06E
:102CF0000446020A6BB1586819788DF80D2000233C
:102D00000093102603AA02238DF80C6003F0FCFC4C
:102D100010B1012004B070BD2B68E4B2002BF8D0D4
:102D20005D681978009003AA2846022311258DF8C2
:102D30000D408DF80C5003F0E7FC003018BF012067
:102D400004B070BDC44B00202DE9F04F084287B09D
:102D500004460D4603D0022007B0BDE8F08F0F0AED
:102D6000FBB2060A56EA03020CBF012200221E42F1
:102D700005D0002A47D1012007B0BDE8F08F002A16
:102D800041D1DFF89490D9F80030002BF3D006AA97
:102D90004FF0100802F8058DD3F804B093F800C086
:102DA000CDF80CC04FF0010A61465846CDF800A09E
:102DB000534603F0A9FCDDF80CC00028DBD15846CF
:102DC000614653460DF1120203F0F2FC0028D2D105
:102DD0009DF812301E4326EA0706B3428DF81260B2
:102DE00011D0D9F80030002BC5D05A68197800905E
:102DF0000223104605AA8DF814808DF8156003F0A3
:102E000083FC0028B7D1E1B2EAB21120FFF784FCBD
:102E100080F00100C0B29FE7C44B00202DE9F047CD
:102E2000C44364F06F040C40E3B2034284B003D0A7
:102E3000022004B0BDE8F08701430A06F8D403433A
:102E400034D01D4F3B689BB304AA4FF01E0902F813
:102E5000059DD3F804A093F800800126054641465D
:102E600050460096334603F04FFC08BB504641469F
:102E700033460DF10A0203F09BFCC8B99DF80A30F5
:102E80001D4325EA0404A3428DF80A400ED03B6896
:102E900073B15A68197800900223104603AA8DF87E
:102EA0000C908DF80D4003F02FFC08B90020C0E70E
:102EB000012004B0BDE8F087C44B00202DE9F04F9D
:102EC000084287B004460D4603D0022007B0BDE893
:102ED000F08F0F0AFBB2060A56EA03020CBF01226A
:102EE00000221E4205D0002A47D1012007B0BDE8CC
:102EF000F08F002A41D1DFF89490D9F80030002BF0
:102F0000F3D006AA4FF0200802F8058DD3F804B0DC
:102F100093F800C0CDF80CC04FF0010A6146584646
:102F2000CDF800A0534603F0EFFBDDF80CC00028FD
:102F3000DBD15846614653460DF1120203F038FCCE
:102F40000028D2D19DF812301E4326EA0706B3426C
:102F50008DF8126011D0D9F80030002BC5D05A6816
:102F6000197800900223104605AA8DF814808DF878
:102F7000156003F0C9FB0028B7D1E1B2EAB2212005
:102F8000FFF7CAFB80F00100C0B29FE7C44B0020EE
:102F9000032870B50D4619D9072809D90B282BD954
:102FA0000F2811D800EB800000F11904E4B204E00E
:102FB00000EB800000F12104E4B245EA020313F4BF
:102FC000600F22EA05060DD0022070BD00EB400024
:102FD00045EA020300F1290413F4600FE4B222EA87
:102FE0000506F1D12046C5F30741C6F30742FFF7B6
:102FF00093FB38B9012070BD00EB400000F13104B3
:10300000E4B2DAE7601CC0B2C5F30721C6F30722B9
:10301000FFF782FB0028EDD0A01CE9B2F2B2C0B2EB
:10302000FFF77AFB80F00100C0B270BD031F70B5DE
:10303000DCB2032C0D461BD90C38C3B2032B01D9CB
:10304000022070BD00EB80005830C4B245EA020394
:1030500023F4F85323F01F0322EA0506002BEFD1D7
:103060002046290A320AFFF757FB38B9012070BD04
:1030700003EB830303F13800C4B2E7E7601CE9B255
:10308000F2B2C0B2FFF748FB80F00100C0B270BDE1
:1030900010B5324C324A2368106884B0039043B1B3
:1030A000586819780023009303AA022303F02CFB2D
:1030B00010B1012004B010BD2368002BF9D05A686C
:1030C00019780090022310460DF10E0203F01CFB4C
:1030D0000028EED1234B24491A6840F6B83300BFCC
:1030E00000BF00BF00BF00BF00BF00BF00BF8A42DB
:1030F0002FD000BF00BF00BF00BF00BF00BF00BF98
:1031000000BF00BF00BF00BF00BF00BF00BF00BFC7
:1031100000BF00BF00BF00BF00BF00BF00BF00BFB7
:1031200000BF00BF00BF00BF00BF00BF00BF00BFA7
:1031300000BF00BF00BF00BF00BF00BF00BF00BF97
:1031400000BF00BF00BF00BF00BF00BF00BF00BF87
:1031500000BF013BC3D104B010BD00BFC44B002071
:1031600050D602000C4300200024F40010B5074C98
:1031700023684BB1586803F0ABFA2368586803F032
:1031800047FA0020206010BD012010BDC44B002074
:10319000014B002018607047C84B002030B5034633
:1031A0000F4D99682B60002283B040681346FDF7ED
:1031B000D3FA044630B92B68586803F079FA2046F0
:1031C00003B030BD074807F061F900940246064994
:1031D0000220472307F08AF9204603B030BD00BF24
:1031E000C84B002054D60200CCD6020010B5064CC5
:1031F0002368586803F06CFA2368586803F008FAEB
:103200000020206010BD00BFC84B0020F0B51C4F4F
:103210003B6885B0002B30D004AA922102F8011D32
:10322000012519780646586800952B4603F06CFA7C
:103230000446A8B939683246486809782B4603F035
:10324000B7FA0446B8B10F4807F020F900940246D7
:103250000D490220722307F049F9204605B0F0BD60
:10326000084807F013F900940246074902206C232E
:1032700007F03CF9204605B0F0BD082005B0F0BDD0
:10328000C84B002054D60200CCD60200F0B5254D24
:103290002B6885B0002B36D004AA402102F8011D0E
:1032A00001261978074658680096334603F02CFA31
:1032B000044688B92A683346506811780DF10E0229
:1032C00003F076FA044610BB9DF80E30204603F05A
:1032D0003F033B7005B0F0BD134807F0D7F80094EA
:1032E0000246124902206C2307F000F90E4807F04D
:1032F000CDF8009402460D490220D82307F0F6F8D5
:10330000204605B0F0BD0824204605B0F0BD0648B3
:1033100007F0BCF80094024604490220722307F02B
:10332000E5F8E3E7C84B002054D60200CCD60200F3
:10333000F0B5324D2B6885B0002B4FD004AA402742
:1033400002F8057D0126586819780096334603F087
:10335000DBF9044658BB2A683346506811780DF1F2
:103360000A0203F025FA044600283BD19DF80A30F2
:103370002A688DF80C7043F080038DF80A308DF8C0
:103380000D3011785068009403AA022303F0BCF9B1
:10339000044600B31A4807F079F800940246194928
:1033A00002208A2307F0A2F8204605B0F0BD144899
:1033B00007F06CF800940246124902206C2307F0D3
:1033C00095F80F4807F062F8009402460D49022074
:1033D000E82307F08BF8204605B0F0BD082420460E
:1033E00005B0F0BD064807F051F8009402460549C3
:1033F0000220722307F07AF8E3E700BFC84B0020F1
:1034000054D60200CCD60200144B1B6823B130F016
:10341000070203D0072070470820704710B584B01A
:1034200000F0070041218DF80D008DF80C1019787F
:1034300058680092022303AA03F066F9044648B1D3
:10344000074807F023F800940246064902208A2321
:1034500007F04CF8204604B010BD00BFC84B002058
:1034600054D60200CCD60200F0B54D4D2B6885B085
:10347000002B68D004AA422102F8051D0126197804
:10348000074658680096334603F03EF90446002884
:1034900041D12A683346506811780DF10A0203F0D1
:1034A00087F90446002852D1002F5BD09DF80A30DE
:1034B00043F010032A688DF80D3042218DF80A3050
:1034C0008DF80C10002350681178009303AA022392
:1034D00003F01AF9324D0446002848D12B684422E3
:1034E00002258DF80C208DF80D505868197800943D
:1034F00003AA2B4603F008F9044608B3294806F04E
:10350000C5FF00940246284928468A2306F0EEFFAC
:10351000204605B0F0BD234806F0B8FF00940246EF
:10352000214902206C2306F0E1FF1E4806F0AEFFA1
:10353000009402461C49022040F2191306F0D6FFFF
:10354000204605B0F0BD0824204605B0F0BD154862
:1035500006F09CFF0094024613490220722306F0F5
:10356000C5FFE2E79DF80A3003F0EF03A2E70D483C
:1035700006F08CFF0C49009402468A23022006F0D4
:10358000B5FF084806F082FF009402460649022073
:1035900040F2251306F0AAFF204605B0F0BD00BF9B
:1035A000C84B002054D60200CCD602002DE9F041D1
:1035B000374D2B6884B03BB110F0FC0F09D00724C5
:1035C000204604B0BDE8F0810824204604B0BDE8E0
:1035D000F08104AA4FF0420802F8058D01271978FE
:1035E0000646586800973B4603F08EF804460028CC
:1035F00042D12A683B46506811780DF10A0203F067
:10360000D7F8044610BB9DF80A302A688DF80C8064
:1036100023F0030306F0030018438DF80A008DF829
:103620000D0011785068009403AA022303F06CF88F
:1036300004460028C4D0174806F028FF009402462C
:10364000154902208A2306F051FFB9E7114806F018
:103650001DFF0094024610490220722306F046FF27
:103660000C4806F013FF009402460B4902204FF469
:103670009C7306F03BFFA3E7064806F007FF0094A3
:103680000246054902206C2306F030FFE8E700BF40
:10369000C84B002054D60200CCD60200F0B5344D01
:1036A0002B6887B0002B3BD0002835D006AA5021CC
:1036B00002F8091D0646197858680123009303F0A3
:1036C00023F80446002847D12B6804AA58681978C3
:1036D000082303F06DF8044630BB9DF811C09DF837
:1036E00010009DF813E09DF812109DF815709DF8DC
:1036F00014209DF817509DF8163040EA0C2041EA3E
:103700000E2142EA072243EA0523308020467180D9
:10371000B280F38007B0F0BD0E24204607B0F0BDA4
:103720000824204607B0F0BD124806F0AFFE009412
:10373000024611490220A82306F0D8FE0D4806F0E3
:10374000A5FE009402460C4902204FF4A57306F032
:10375000CDFE204607B0F0BD064806F097FE009467
:10376000024605490220A22306F0C0FEE6E700BF9C
:10377000C84B002054D60200CCD60200F0B51C4F36
:103780003B6885B0002B30D004AA602102F8011DEF
:10379000012519780646586800952B4602F0B4FFBB
:1037A0000446A8B939683246486809782B4602F0C1
:1037B000FFFF0446B8B10F4806F068FE00940246C9
:1037C0000D490220722306F091FE204605B0F0BD9F
:1037D000084806F05BFE00940246074902206C236D
:1037E00006F084FE204605B0F0BD082005B0F0BD0F
:1037F000C84B002054D60200CCD60200134B1B68E5
:1038000023B130F01D0203D0072070470820704715
:1038100010B584B060218DF80D008DF80C1019786A
:1038200058680092022303AA02F06EFF044648B1D2
:10383000074806F02BFE00940246064902208A2320
:1038400006F054FE204604B010BD00BFC84B002057
:1038500054D60200CCD60200F0B51C4F3B6885B0B0
:10386000002B30D004AA612102F8011D012519782E
:103870000646586800952B4602F046FF0446A8B954
:1038800039683246486809782B4602F091FF0446B1
:10389000B8B10F4806F0FAFD009402460D49022027
:1038A000722306F023FE204605B0F0BD084806F05E
:1038B000EDFD00940246074902206C2306F016FE37
:1038C000204605B0F0BD082005B0F0BDC84B002073
:1038D00054D60200CCD60200134B1B6823B130F043
:1038E000030203D0072070470820704710B584B04A
:1038F00061218DF80D008DF80C1019785868009230
:10390000022303AA02F000FF044648B1074806F06C
:10391000BDFD00940246064902208A2306F0E6FD1A
:10392000204604B010BD00BFC84B002054D6020092
:10393000CCD6020000B5184885B0FFF72FFC40BB7D
:103940000DF10700FFF71AFF00BB02A8FFF7A6FE64
:10395000C8B91F2002F010F90020FFF785FD78B9E3
:10396000FFF744FC48B90D4B1B781BB10C4B02A868
:103970001B68984705B05DF804FB03F07DFCF2E797
:1039800003F07AFCECE703F077FCE2E703F074FC69
:10399000DBE703F071FCD3E7CC4B0020D84B0020D1
:1039A000DC4B00201F2800D0704708B54FF0A04323
:1039B000D3F81005C00F00D008BD0146044A03F03B
:1039C00099FC0028F8D0BDE8084003F055BC00BFC2
:1039D0003539020030B585B000284ED0C368002BC1
:1039E0004BD04268002A48D00268002A45D0544D86
:1039F00054496A604268AA60027A2A700B60FFF735
:103A0000C7FB044600283CD12846FFF7C7FB044605
:103A1000002841D1FFF78CFC0446002847D1FFF76E
:103A2000E5FB044600284DD12846FFF7B7FB0446C6
:103A3000002852D10DF10E00FFF7E8FB04460028E4
:103A400056D10DF10F00FFF721FC044600285AD192
:103A5000FFF7CCFB0446002867D19DF80E30E02B21
:103A60005CD00624384806F011FD00940246374920
:103A70000220AB2306F03AFD00E00E24204605B0FC
:103A800030BD314806F002FD009402462F49022065
:103A90009F2306F02BFDF1E72B4806F0F7FC00947E
:103AA00002462A490220A22306F020FDE6E7264826
:103AB00006F0ECFC0094024624490220A52306F0FF
:103AC00015FDDBE7204806F0E1FC009402461F49A3
:103AD0000220A82306F00AFDD0E71B4806F0D6FC1A
:103AE0000094024619490220582306F0FFFCB9E76A
:103AF000154806F0CBFC00940246144902205B23D3
:103B000006F0F4FCAEE7104806F0C0FC0094024654
:103B10000E4902205E2306F0E9FCA3E79DF80F3072
:103B20000B2B9ED1FFF7A0FCA8E7074806F0AEFCE0
:103B30000094024605490220612306F0D7FC91E774
:103B4000CC4B0020DC4B002020D7020098D702008D
:103B500010B51F2084B0012101F0ACFF2348FFF70E
:103B60001DFB044638BB0120FFF77EFC0446A8B9C4
:103B70000DF10F00FFF702FE044648BBFFF736FBCE
:103B80000446B0B11A4806F081FC00940246194977
:103B90000220C42306F0AAFC20460AE0144806F0DE
:103BA00075FC0094024613490220BE2306F09EFCD9
:103BB000204604B010BD0E4806F068FC0094024692
:103BC0000C490220BB2306F091FC204604B010BD36
:103BD000074806F05BFC0094024606490220C12318
:103BE00006F084FC204604B010BD00BFCC4B002082
:103BF00020D7020098D7020010B5694B1A7884B01C
:103C00001AB10024204604B010BD012265481A7084
:103C1000FFF7C4FA0446002868D10DF10B00FFF746
:103C20001BFE0446002856D19DF80B3003F0FC0320
:103C300018468DF80B30FFF74FFE0446002862D17E
:103C40001D20FFF7DBFD0446002872D1FFF7DCFBE7
:103C50000446002862D10220FFF7A8FC0446002891
:103C600072D1FFF701FC0446002878D1FFF7BEFAB5
:103C7000044600287ED101F029FE28B901F0D8FDC4
:103C80000446002840F0818004A90324002301F8A1
:103C9000044D1F20444A8DF80D408DF80E308DF8EC
:103CA0000F3001F01DFE04460028ABD03F4806F05F
:103CB000EDFB009402463E490220842306F016FCE8
:103CC0003A4806F0E3FB0094024639490220F32308
:103CD00006F00CFC96E7354806F0D8FB0094024647
:103CE00033490220DC2306F001FC8BE72F4806F065
:103CF000CDFB009402462E490220D92306F0F6FBA4
:103D0000204604B010BD294806F0C0FB00940246CE
:103D100027490220E12306F0E9FB73E7234806F078
:103D2000B5FB0094024622490220E72306F0DEFBA1
:103D300068E71E4806F0AAFB009402461C490220D0
:103D4000E42306F0D3FB5DE7184806F09FFB0094E0
:103D5000024617490220EA2306F0C8FB52E713483F
:103D600006F094FB0094024611490220ED2306F070
:103D7000BDFB47E70D4806F089FB009402460C495D
:103D80000220F02306F0B2FB3CE7084806F07EFB79
:103D900000940246064902207B2306F0A7FB8FE72A
:103DA000D84B0020CC4B0020A539020020D70200C0
:103DB00098D7020000F044B870B584B004AA1D4D35
:103DC0003123012602F8013D6868297800963346C0
:103DD00002F09AFC044610BB3346686829780DF15E
:103DE0000E0202F0E5FC044610B9204604B070BD96
:103DF000114806F04BFB0094024610490220A7230D
:103E000006F074FB0C4806F041FB009402460B4997
:103E100002208D2306F06AFB204604B070BD0648E0
:103E200006F034FB0094024604490220A12306F068
:103E30005DFBE7E7E44B0020F0D702006CD80200FE
:103E40002DE9F043A94B1B788FB023B903242046FA
:103E50000FB0BDE8F083A64E00220546B168706839
:103E60001346FCF779FC044690B9706802F020FC18
:103E70001DBB337B4FF0A04203F5E07342F82350A3
:103E8000706802F025FC706802F0C2FB0024DEE7D7
:103E9000984806F0FBFA9849009402465323022002
:103EA00006F024FB934806F0F1FA0094024692498A
:103EB0000220E02306F01AFBC9E7904B8DF815406D
:103EC0000EAD4FF0A00E186805F818ED1B7906909E
:103ED0008DF81C3006A92A2305220DF121000427A4
:103EE0008DF80C308DF8147007F0F0FB00947068BA
:103EF00031782A46062302F007FC0446002840F0E9
:103F00009680B22305A902220DF121008DF8203000
:103F100007F0DCFB0094706831782A46032302F036
:103F2000F3FB0446002840F097800EAA26230127C1
:103F300002F8253D7068317800973B4602F0E4FBBB
:103F40000446002840F09D80706831780DF112021F
:103F50003B4602F02DFC0446002840F0A7803023A9
:103F600003A93A460DF121008DF8203007F0AEFB91
:103F70000094706831782A46022302F0C5FB04469B
:103F8000002840F09E80DFF87C815D4BD8F800204F
:103F9000DFF8749100BF00BF00BF00BF00BF00BFCB
:103FA00000BF00BF4A452FD000BF00BF00BF00BF09
:103FB00000BF00BF00BF00BF00BF00BF00BF00BF09
:103FC00000BF00BF00BF00BF00BF00BF00BF00BFF9
:103FD00000BF00BF00BF00BF00BF00BF00BF00BFE9
:103FE00000BF00BF00BF00BF00BF00BF00BF00BFD9
:103FF00000BF00BF00BF00BF00BF00BF00BF00BFC9
:1040000000BF00BF00BF00BF013BC3D1FFF7D4FE1C
:10401000044600287AD0374806F038FA0094024661
:10402000354902204FF4807306F060FA0FE73148FB
:1040300006F02CFA304900940246D023022006F004
:1040400055FA2C4806F022FA009402462A4902202A
:10405000F02306F04BFAFAE6264806F017FA26494E
:1040600000940246D023022006F040FA214806F0D0
:104070000DFA0094024620490220F32306F036FA96
:10408000E5E61C4806F002FA009402461A490220AE
:10409000A12306F02BFA174806F0F8F9009402461F
:1040A00015490220F72306F021FAD0E6114806F060
:1040B000EDF90094024610490220A72306F016FAF3
:1040C000E9E70C4806F0E2F90B4900940246D023D8
:1040D000022006F00BFA074806F0D8F900940246D1
:1040E00005490220FA2306F001FAB0E6E04B002071
:1040F000E44B0020F0D702006CD80200E8D70200A1
:10410000B0AD01000C4300200024F40044F620630D
:10411000D8F8002000BF00BF00BF00BF00BF00BF35
:1041200000BF00BF4A452FD000BF00BF00BF00BF87
:1041300000BF00BF00BF00BF00BF00BF00BF00BF87
:1041400000BF00BF00BF00BF00BF00BF00BF00BF77
:1041500000BF00BF00BF00BF00BF00BF00BF00BF67
:1041600000BF00BF00BF00BF00BF00BF00BF00BF57
:1041700000BF00BF00BF00BF00BF00BF00BF00BF47
:1041800000BF00BF00BF00BF013BC3D1337B4FF076
:10419000A04103F5E0734FF4003E41F823E03A46B6
:1041A0001E2304A90DF1210090278DF820308DF8F1
:1041B000107007F08BFA0094706831782A46022359
:1041C00002F0A2FA044600283FF45AAE0A4806F06C
:1041D0005DF90A4900940246D023022006F086F9D0
:1041E000054806F053F900940246044902204FF4B2
:1041F000857306F07BF92AE6F0D702006CD802003E
:10420000002800F0D780F0B5AF4D01468BB02846AE
:10421000102207F05BFA2B7B002B00F0C4800022F9
:1042200013466868A968FCF797FA0446002840F02E
:10423000C3800AAE6868242702F03AFA06F8187DAF
:1042400080230DF10F0101220DF111008DF80F30C7
:1042500007F03CFA0094686829783246022302F09D
:1042600053FA0446002840F0BF80984B98491A68DA
:1042700042F2107300BF00BF00BF00BF00BF00BF0D
:1042800000BF00BF8A422FD000BF00BF00BF00BFE9
:1042900000BF00BF00BF00BF00BF00BF00BF00BF26
:1042A00000BF00BF00BF00BF00BF00BF00BF00BF16
:1042B00000BF00BF00BF00BF00BF00BF00BF00BF06
:1042C00000BF00BF00BF00BF00BF00BF00BF00BFF6
:1042D00000BF00BF00BF00BF00BF00BF00BF00BFE6
:1042E00000BF00BF00BF00BF013BC3D120230DF1C1
:1042F0000E01012208270DF111008DF810308DF804
:104300000E7007F0E3F900946868297832460223BA
:1043100002F0FAF90446002840F09C8001270F249F
:104320006868297800970DF10F023B468DF80F4021
:1043300002F0EAF90446002877D13B4668682978FC
:10434000324602F035FA0446002840F09A809DF883
:104350001030332B18BF02202AD1FFF72DFD9024F7
:104360001E2303A901220DF111008DF80C408DF8D8
:10437000103007F0ABF900236868297800933246C3
:10438000022302F0C1F9504D0446002840F0848019
:10439000686802F09DF9686802F03AF94D4B012215
:1043A00020461A7004E002204B4906F071F8012003
:1043B0000BB0F0BD0E207047484806F067F848493A
:1043C000009402465323022006F090F8434806F07A
:1043D0005DF800940246424902204FF4947306F0BF
:1043E00085F820460BB0F0BD3C4806F04FF83C493C
:1043F00000940246D023022006F078F8374806F0F1
:1044000045F83749009402466F23022006F06EF803
:10441000324806F03BF800940246314902204FF43E
:10442000967306F063F82046C2E72C4806F02EF893
:10443000009402462A490220A12306F057F8274893
:1044400006F024F800940246254902207F2306F056
:104450004DF882E7214806F019F8214900940246F8
:10446000D023022006F042F81C4806F00FF8009412
:1044700002461B49022040F2311306F037F820466D
:1044800096E7164806F002F8009402461449022006
:10449000A72306F02BF8D2E7104805F0F7FF1049E4
:1044A00000940246D023022006F020F80B4805F0C5
:1044B000EDFF009402460A49022040F23F1306F045
:1044C00015F8204674E700BFE44B00200C430020A1
:1044D0000024F400E04B0020C0D80200F0D7020016
:1044E0006CD802006DDF704772DF704779DF70476C
:1044F0007DDF704764DF7047F0B50488012C83B01E
:1045000007D0148804F1020E9E4505D90C2003B093
:10451000F0BD072003B0F0BD0578012D04D145782A
:1045200002352544AB42F1D3023B0F461C1B02A9C6
:10453000A4B2054621F8024D07EB0E001646FFF720
:10454000D7FF0028E3D12B78022B17D0012B11D0F5
:1045500023460821FE2BD9D83288581CB8543288FB
:10456000013292B23280B95432880132134433801E
:104570000020CCE76B789C42EBD2E9E7BDF806302F
:104580009C42E5D30921E5E72DE9F04F85B083464C
:104590000E9D00882C880194BDF83C9000284ED0D8
:1045A00000278A46164698463C4604E0BBF8003091
:1045B0000134A34226DDDBF8043053F824000390D5
:1045C0000DF10B0103A80022FFF794FF18BB9DF823
:1045D0000B30B342EAD10FB32A8893194B4519DC4B
:1045E000424403A80DF10B010127FFF783FF90B9A7
:1045F0002B889DF80B2013442B80BBF8003001342E
:10460000A342D8DCDFB12B88019A013B9B1A9BB2F5
:10461000FF2B12D90C2005B0BDE8F08F2B885A1C57
:10462000334402334B4592B2F4DC2A8008F802A0EE
:104630002A88013292B22A80D2E708F8023000209C
:1046400005B0BDE8F08F00BF2DE9F04700231788C3
:10465000138090F82D3086B0144605460E46002B88
:1046600040F0C880AA78002A40F0F080EA78002A5A
:104670002CD1696899B1DA1CBA42097822D8022291
:10468000F254238801339BB20A222380F2542388F8
:1046900001339BB22380F1542388013323802B897B
:1046A000002B40F0F7802B8A002B40F00C812B8BE5
:1046B000002B40F021812B6A002B5CD02288911DB9
:1046C000B94218D90C2006B0BDE8F087D91CB94210
:1046D000F8D80221F154238801339BB201212380B1
:1046E000F15423880B449BB22380F25423880B445B
:1046F0009BB22380BDE71988052940F2C9806FF479
:10470000486801EB080080B24FF27D3E704540F2F0
:10471000BF805888052840F2BB806FF4486C844401
:104720001FFA8CFCF44540F2B3804FF6FF7E7145D2
:1047300004D0704502D0814200F2AA800521B15414
:104740002288013292B212212280B1542288013291
:1047500092B222801988B1543244090A51702288D9
:10476000023292B222805B88B35432441B0A5370E7
:104770002388023323806B6A002B2BD099882088F2
:104780000A1D0244BA429DD88A1CFE2A9AD80331D7
:1047900031542288013292B2FF212280B154228802
:1047A000013292B222801988B1543244090A517000
:1047B0002088023080B220809A885AB19968039389
:1047C000002965D0304406F081FF039B22889B8836
:1047D0001344238095F82C30002B40F0A6802878D5
:1047E00000283FF470AF2846314622463B46FFF78B
:1047F00083FE68E7082F7FF665AF04A8FFF772FE17
:1048000000287FF460AF23880822F2542388013304
:104810009BB21B222380F2542088013080B220807A
:10482000062230440DF1110106F050FF23889DF857
:10483000102006339BB212F0FE0218BF0122238023
:10484000F254238801339BB223800BE70433BB422D
:104850003FF638AF04A8FFF749FE00287FF433AFD6
:104860002388BDF810200321F154238801339BB223
:1048700019212380F154238801339BB2F11823803E
:10488000100AF2544870238802339BB22380EDE66D
:10489000072018E705F1080802218DE8900040463E
:1048A0000A463346FFF770FE00287FF40CAF8DE810
:1048B00090004046062110223346FFF765FE00288F
:1048C0007FF401AFEFE605F110088DE89000404657
:1048D000032102223346FFF757FE00287FF4F3AE90
:1048E0008DE890004046072110223346FFF74CFE2A
:1048F00000287FF4E8AEDAE605F118088DE89000AC
:104900004046142102223346FFF73EFE00287FF482
:10491000DAAE8DE890004046152110223346FFF7AD
:1049200033FE00287FF4CFAEC5E6D5F82880B8F175
:10493000000FADD0B8F804200232FE2A3FF6C2AE16
:1049400023884FF000094FF0160A0132F2542388F1
:1049500001339BB2238006F803A0238801339BB266
:104960002380B8F80020F2543344120A5A70238886
:1049700002339BB22380B8F80410F0180A4661B1E4
:10498000D8F808301946002B82D006F09FFEB8F800
:104990000430228813449BB2238009F1010995F861
:1049A0002C205FFA89F94A4509EB49087FF617AFD1
:1049B000AA6A02EB8808B8F804200232FE2AC4D999
:1049C00080E600BF2DE9F04794B01F230D46ADF8F7
:1049D0000E30044600285AD0C278530753D590F8B9
:1049E0002D300021ADF80C10002B6BD18378002BFB
:1049F00040F0AB801846032114AE5F1C02333044F4
:104A000016FA87F716FA83F64FF0020E8BB20121E1
:104A100000F840ECADF80C3007F8401C06F8402CCC
:104A20006268B2B1D91C1F29167828D814AF581C57
:104A30009A1C17FA80F03B4417FA82F24FF0020EEC
:104A40000A2703F840ECADF80C1000F8407C02F89F
:104A5000406C2389002B40F08581238A002B40F095
:104A60009F81238B002B40F0B981236A002B00F03B
:104A7000D880BDF80C20911D1F2940F28F800C209A
:104A800014B0BDE8F087072014B0BDE8F087ADF89A
:104A90000C00002D00F00481EB78002BF3D12846A8
:104AA0000CA90DF10E02FFF7CFFD0028ECD19DF807
:104AB0000E300CAA20469DF80C10FFF715FD14B01F
:104AC000BDE8F0870CAF3846FFF70CFD0028DBD1BE
