:020000021000EC
:10F0000000000120D5BC0200FDBC0200FFBC0200D4
:10F0100001BD020003BD020005BD020000000000AA
:10F0200000000000000000000000000007BD02001A
:10F0300009BD0200000000000BBD02000DBD020072
:10F04000C17002000FBD02000FBD02004D6C020036
:10F050000FBD0200ED7C0200D95F0200CD710200FD
:10F060000FBD02000FBD02000FBD02000FBD020068
:10F070000FBD0200D57702000FBD02000FBD0200D8
:10F080000FBD0200C18002000FBD02000FBD0200D3
:10F090007D8102000FBD02005DAE02000FBD0200C7
:10F0A0000FBD02000FBD02000FBD0200857A0200F5
:10F0B000216E0200D96E0200000000000000000076
:10F0C0000FBD02000FBD02000FBD02000FBD020008
:10F0D0000FBD02000FBD02000FBD020000000000C6
:10F0E0000000000000000000000000000000000020
:10F0F0000000000000000000000000000000000010
:10F1000000000000000000000000000000000000FF
:10F1100000000000000000000000000000000000EF
:10F1200000000000000000000000000000000000DF
:10F1300000000000000000000000000000000000CF
:10F1400000000000000000000000000000000000BF
:10F1500000000000000000000000000000000000AF
:10F16000000000000000000000000000000000009F
:10F17000000000000000000000000000000000008F
:10F18000000000000000000000000000000000007F
:10F19000000000000000000000000000000000006F
:10F1A000000000000000000000000000000000005F
:10F1B000000000000000000000000000000000004F
:10F1C000000000000000000000000000000000003F
:10F1D000000000000000000000000000000000002F
:10F1E000000000000000000000000000000000001F
:10F1F000000000000000000000000000000000000F
:10F2000010B5054C237833B9044B13B10448AFF360
:10F2100000800123237010BD9843002000000000EF
:10F22000D4FB0200084B10B51BB108480849AFF3E6
:10F2300000800848036803B910BD074B002BFBD0C2
:10F24000BDE81040184700BF00000000D4FB0200DA
:10F250009C4300207443002000000000154B002B4D
:10F2600008BF134B9D46A3F5803A00218B460F46FD
:10F270001348144A121A00F065F80F4B002B00D007
:10F2800098470E4B002B00D0984700200021040027
:10F290000D000D48002802D00C48AFF3008000F0AC
:10F2A0002BF82000290000F0FFF900F011F800BF52
:10F2B0000000080000000120000000000000000025
:10F2C000984300206C5E0020000000000000000059
:10F2D00008B5074B044613B10021AFF30080054B7E
:10F2E0001868836A03B19847204600F033F800BFDE
:10F2F00000000000E8ED020070B50E4B0E4CE41A61
:10F30000A41000251E46A54204D056F82530984783
:10F310000135F8E70FF05AFD084C094BE41AA41028
:10F3200000251E46A54204D056F8253098470135E1
:10F33000F8E770BD6C4300206C4300207043002050
:10F340006C43002002440346934202D003F8011BA1
:10F35000FAE77047FEE700BFBFF34F8F0549064B42
:10F36000CA6802F4E0621343CB60BFF34F8F00BF63
:10F37000FDE700BF00ED00E00400FA0532DF704752
:10F380003EDF704700283ED01F4B204A1B6800BF5D
:10F3900000BF00BF00BF00BF00BF00BF00BF93425F
:10F3A0002FD000BF00BF00BF00BF00BF00BF00BF25
:10F3B00000BF00BF00BF00BF00BF00BF00BF00BF55
:10F3C00000BF00BF00BF00BF00BF00BF00BF00BF45
:10F3D00000BF00BF00BF00BF00BF00BF00BF00BF35
:10F3E00000BF00BF00BF00BF00BF00BF00BF00BF25
:10F3F00000BF00BF00BF00BF00BF00BF00BF00BF15
:10F4000000BF0138C3D17047604300200024F400DE
:10F4100010B582B003794288124904460078009002
:10F4200003200BF0C3FE2378012B01D002B010BDE6
:10F4300001F048FC90B94FF0A0434FF40032C3F8FC
:10F440003427022008490BF0A3FEFFF797FF00289E
:10F45000ECD002B0BDE8104008F042BD08F040FD1D
:10F46000E9E700BF0CEE02004CEE020010B50320ED
:10F4700033490BF08DFE012001F0A6FC00285BD182
:10F4800001F020FC002854D14FF0A0434FF400318C
:10F490002C4AC3F8301712682B4941F2883300BF59
:10F4A00000BF00BF00BF00BF00BF00BF00BF8A4257
:10F4B0002FD000BF00BF00BF00BF00BF00BF00BF14
:10F4C00000BF00BF00BF00BF00BF00BF00BF00BF44
:10F4D00000BF00BF00BF00BF00BF00BF00BF00BF34
:10F4E00000BF00BF00BF00BF00BF00BF00BF00BF24
:10F4F00000BF00BF00BF00BF00BF00BF00BF00BF14
:10F5000000BF00BF00BF00BF00BF00BF00BF00BF03
:10F5100000BF013BC3D1FFF731FF0C490446032074
:10F520000BF036FE04B910BD2046BDE8104008F0CF
:10F53000D7BC08F0D5FCA7E708F0D2FCA0E700BFD5
:10F54000A4EE0200604300200024F400CCEE020090
:10F55000B0B110B582B08188438802880091C1881B
:10F5600001910446074903200BF032FEE388C72BC4
:10F5700001D902B010BD02B0BDE81040FFF776BF60
:10F58000704700BF40EF020008B50378012B11D08F
:10F590000AD3022B07D103202A490BF0F9FDFFF70C
:10F5A00065FFFFF7D9FE08BD03202749BDE80840E5
:10F5B0000BF0EEBD032025490BF0EAFD244B254955
:10F5C0001A6841F2883300BF00BF00BF00BF00BF10
:10F5D00000BF00BF00BF8A422FD000BF00BF00BFE6
:10F5E00000BF00BF00BF00BF00BF00BF00BF00BF23
:10F5F00000BF00BF00BF00BF00BF00BF00BF00BF13
:10F6000000BF00BF00BF00BF00BF00BF00BF00BF02
:10F6100000BF00BF00BF00BF00BF00BF00BF00BFF2
:10F6200000BF00BF00BF00BF00BF00BF00BF00BFE2
:10F6300000BF00BF00BF00BF00BF013BC3D1FFF749
:10F640008BFE00BFE4EF02007CEF0200B0EF02008F
:10F65000604300200024F4002DE9F041144684B0FA
:10F66000074650680E460BF091FDA5682488804639
:10F6700028460CF001FB0BF089FD3A463346094958
:10F680000390CDF800800120019402950BF0B4FDA9
:10F69000022001F09BFB41F28830FFF773FEFFF779
:10F6A0005BFE00BF14F002002DE9F04F002091B086
:10F6B0000BF05AFD002840F0AD80032057490BF0B5
:10F6C00067FD032056490BF063FD08203C21554A95
:10F6D00008F016FC002840F09A8009F057F800283E
:10F6E00040F0928010AC504B44F8243D204601F08D
:10F6F000DFF9002840F085804C484D4FFFF742FE6F
:10F7000000261C250520089640F61C430E9621462F
:10F710004FF00D0B4FF0110A4FF001094FF00408A4
:10F7200041F25E0CDFF834E1424C434A8DF822503E
:10F730006F260A258DF8230040488DF824B08DF8F7
:10F7400025A08DF826908DF82780ADF82830ADF8EB
:10F750003630ADF82AC0CDF82CE00C97ADF8346007
:10F760008DF838500F94079201F08EFD002845D196
:10F7700041F2883001F01EFD00283CD1304B314A67
:10F780000093684605230192029300F0F9FA78BBD2
:10F790002D492E4B2E4C0491382203A88DF81420AD
:10F7A0000693039404F0BEF804F0D8F929490494B0
:10F7B00019220C2303A805918DF80C208DF8183020
:10F7C00004F0BEFB244D402408F030FCF1EE103A6A
:10F7D00023F09F03E1EE103AF1EE103AC5F88441B0
:10F7E000FFF7CEFD08B108F07BFB04F063F9EBE70F
:10F7F00008F076FBCCE708F073FBBFE708F070FB7E
:10F80000B6E708F06DFB77E708F06AFB6AE708F0F7
:10F8100067FB62E708F064FB4FE700BF70F002008F
:10F82000A4F00200B4430020B8F00200A08601005A
:10F8300020BF0200C4F0020011F40100A447002020
:10F8400089F5010084470020ECED020051F501002C
:10F8500034F102003CF1020000E100E060E3160038
:10F860006DDF704776DF70477ADF70477CDF704767
:10F870007FDF70478FDF70479EDF7047A9DF7047DB
:10F88000ADDF704769DF704766DF704731DF704773
:10F890003DDF7047704700BF08F022BB08F020BB77
:10F8A000F0B5054685B04F4F05F0DCFC284605F065
:10F8B00035FC3A6862B14C4E0024336803EBC40354
:10F8C00001345B6813B1284698473A689442F4D3F0
:10F8D0004648294605F058FD454829460BF086FF65
:10F8E0002B88132B66D00AD9522B4AD0552B1AD00D
:10F8F000212B3ED0284605F0BBFA05B0F0BD102BF9
:10F9000049D0112B20D0012BF4D13A4B002118887B
:10F91000FFF7BAFF0028EDD008F0E2FA284605F01C
:10F92000A7FA05B0F0BDA8884FF48A71FFF7A8FFC9
:10F93000002849D13049EB882C48A1F8013006F065
:10F9400019F90028D6D0E7E704AC002344F80C3DB1
:10F95000284B4FF6FF7220461A8009F009FA08B1C9
:10F9600008F0BEFA019B002B31D0244B01221A7003
:10F97000C0E700210A46A888FFF77CFF0028B9D01D
:10F98000CAE71C4B002118880A460B46FFF776FF92
:10F990000028AFD0C0E704A8002300F80C3D184BA6
:10F9A000144AA9881B6811809847284605F060FA18
:10F9B00005B0F0BD0F4B0022188885211346FFF7D4
:10F9C00057FF002896D0A7E708F08AFAB2E70B495C
:10F9D0000B4A0B70012312688DF8043020469047C3
:10F9E00088E700BFBC470020B04700204449002002
:10F9F000C047002004430020A4490020B447002051
:10FA0000B847002000B1704700B585B004A80223B4
:10FA100000F80C3D054B1B689847032005F008FAD9
:10FA200008B108F05DFA05B05DF804FBB8470020A6
:10FA300008B5037803B108BD054B3B211888FFF7D3
:10FA400011FF0028F7D0BDE8084008F049BA00BF10
:10FA50000443002010B5044684B009F095F920460F
:10FA600000F038FF2046023C05F062FA012C01D973
:10FA700004B010BD04AC002344F80C3D204609F04E
:10FA800077F908B108F02CFA019B002BF0D1064B56
:10FA90001B78002BECD0054B012220461B688DF80B
:10FAA00004209847E4E700BFB4470020B84700208F
:10FAB00030B585B0062918D8DFE801F03848538101
:10FAC00004A31900FA2B10D8654C00932068114646
:10FAD00029301A460EF006FD2068009B80F823317D
:10FAE00000F03AFD08B108F0FBF905B030BDF72B86
:10FAF000FBD85B4D00932868114600F595701A46B7
:10FB00000EF0F0FC009B2A68DCB282F8214202F081
:10FB100093FB002840F086802868514D00F59570D1
:10FB2000214602F0B7FA002869D066E00A2BDCD83B
:10FB30004B4C0093114620681A460EF0D3FC009BF4
:10FB400022680021D1542068C372C9E7032BCCD1AD
:10FB5000434C206811460C301A460EF0C3FC206856
:10FB6000BEE7082BC1D13E4D0093286811460F30E7
:10FB70001A460EF0B7FC009B00211A4602A8FFF7B8
:10FB8000E1FB2B68197CDA7B42EA0122ADF8082000
:10FB9000997C5A7C42EA0122ADF80A20DA7C197D70
:10FBA00042EA0122ADF80C205A7D9B7D02A842EA70
:10FBB0000323ADF80E3005F00DFB00B31DE0112B53
:10FBC00093D8274D00932868114617301A460EF037
:10FBD00089FC009B2A68022B82F828301FD9214C0F
:10FBE0002149238117324FF43E7304F10A00626009
:10FBF00023606161FFF734FE48B308F071F92868AB
:10FC00006EE7032B7FF471AF117801290DD01748EF
:10FC1000174905F0AFFF00283FF467AF63E700F036
:10FC2000D1FEECE708F05CF976E71248B2F8011073
:10FC3000008801930092FFF71FFE9DE80C0000284A
:10FC4000E5D111460A481A460EF04CFC4DE7E37A1E
:10FC500020460233E37200F06BFE00F085FECEE733
:10FC6000F0470020D84700209DF8010044490020BB
:10FC7000A4490020044300202DE9F043C1B000AFA7
:10FC800002F0EEFA20B107F58277BD46BDE8F083B9
:10FC9000324C33492068162200F595700EF012FCA4
:10FCA00080BB3048202102F081FA6D46044618BB23
:10FCB00088B02D498DF8004068460EF08FFC6846EC
:10FCC0002A492B4E0EF08AFCE84606F1040916F884
:10FCD000012B28493C8107F10800BC720EF05AFC48
:10FCE000404607F108010EF079FC4E45EFD1404641
:10FCF0001B2102F009FA88B1AD4607F58277BD46AF
:10FD0000BDE8F083236803F5957093F8211202F0A3
:10FD1000C1F907F58277BD46BDE8F0830120164999
:10FD2000162202F021FA0028E6D102F05FFA00283C
:10FD3000E2D107F58071F72301F8F93D07F10800DA
:10FD400002F0CAF90028D7D1FB790C4887F8FF30B8
:10FD500007F1080105F02CFFAD46CEE7F047002083
:10FD6000BEF2020050F102009049002070F1020042
:10FD7000AC47002074F102007CF1020044490020ED
:10FD80002DE9F047AA4CAB4FAB4DAC4EAC49AD4B57
:10FD9000AEB002462068089092E8110092682A608E
:10FDA00038604FF4A67208A834600AF0E9FF002812
:10FDB00040F03B812EAC002344F8783D20460BF008
:10FDC00065F8002840F02E8100210C221FA8FFF7C3
:10FDD000B9FA01274FF48A731FA92320109A8DF8CE
:10FDE0007C70ADF87E30FFF74DFD002840F01781A4
:10FDF00000210C221FA8FFF7A5FA062701232020C7
:10FE00001FA9109A8DF87C308DF87E30ADF8807087
:10FE1000FFF738FD002840F0FF8000210C221FA8CA
:10FE2000FFF790FA0127102322201FA9109A8DF8BE
:10FE30007C708DF87E30FFF725FD002840F0E980CA
:10FE400000210C221FA8FFF77DFA012702232120A1
:10FE50001FA9109A8DF87C708DF87E30FFF712FD87
:10FE6000002840F0D38000210C221FA8FFF76AFA77
:10FE7000022301201FA9109A8DF87C30FFF702FDA4
:10FE8000002840F0C08000210C221FA8FFF75AFA7A
:10FE9000012340201FA9109A8DF87C30FFF7F2FC57
:10FEA000002840F0AD8000210C221FA8FFF74AFA7D
:10FEB00040F6E443A1201FA9109A1F93FFF7E2FC2C
:10FEC000002840F09A8000210C221FA8FFF73AFA80
:10FED0009DF87C30109A43F00103A0201FA98DF8F3
:10FEE0007C30FFF7CFFC002840F0848020460AF0E9
:10FEF000D7FF00287BD154480AF09CFF10B12EB0E8
:10FF0000BDE8F08751480AF09FFF0028F7D1012093
:10FF1000FFF7BCFC0028F2D10120FFF7B9FC034633
:10FF20000028ECD14A49D1F8882042F47002C1F887
:10FF30008820BFF34F8FBFF36F8F1FA88DF87C30E1
:10FF400007F0F0FBDFF80CA1DFF80C91062741F277
:10FF500088389DF87C30032B1FA87FD807F0E2FB80
:10FF6000DAF80020434600BF00BF00BF00BF00BF5B
:10FF700000BF00BF00BF4A452FD000BF00BF00BF79
:10FF800000BF00BF00BF00BF00BF00BF00BF00BF79
:10FF900000BF00BF00BF00BF00BF00BF00BF00BF69
:10FFA00000BF00BF00BF00BF00BF00BF00BF00BF59
:10FFB00000BF00BF00BF00BF00BF00BF00BF00BF49
:10FFC00000BF00BF00BF00BF00BF00BF00BF00BF39
:10FFD00000BF00BF00BF00BF00BF013BC3D17B1EFD
:10FFE00013F0FF07B5D10D202EB0BDE8F08707F064
:10FFF00077FF80E707F074FF78E707F071FF62E7AB
:020000022000DC
:1000000007F06EFF4FE707F06BFF3CE707F068FF74
:1000100029E707F065FF13E707F062FFFDE607F049
:100020005FFFE5E607F05CFFCEE607F059FFC1E6AB
:100030004CF10200B8470020BC470020B047002028
:10004000F44700206DAC0200A1F8010055FA010050
:1000500000ED00E0604300200024F400A9480421E2
:1000600007F072FB00287FF44AAFA74FA748394634
:1000700000F09EFA00287FF442AFD7F8008098F88D
:10008000243198F8252198F82611FF2B40F0B281F1
:10009000FF2A40F0F281FF2902D088F826210120B2
:1000A00098F82830112B00F2DB8198F82331FA2BD5
:1000B00000F2B18198F82132013BDBB2F62B00F25D
:1000C000BB81002840F0C3819DF8403003F0F0036D
:1000D0006FF3071340468DF840300EF096FA414614
:1000E00082B22046FFF7C2FB002840F0D1810021F8
:1000F00008221FA8FFF726F93B68DFF80C82197C5D
:10010000DA7B42EA0122ADF87C20997C5A7C42EAF3
:100110000122ADF87E20DA7C197D42EA0122ADF899
:1001200080205A7D9B7D1FA842EA0323ADF88230D0
:10013000FFF79AFB072800F0AE8100287FF4DFAEBE
:100140003A68734B7348D6F800801F921FA92E6837
:10015000209305F003FA08B107F0C2FE76B1DFF88C
:10016000D891002558F8353001352BB199F80000A9
:10017000984700287FF4C3AEB542F3D100211FA8F1
:100180000822FFF7DFF8644B1F93644801231FA97F
:100190008DF880308DF881300BF096FA08B107F0B9
:1001A0009FFE5C4B584E1B788DF80E3000214FF4AB
:1001B00080733C2220460D46ADF80C304FF001080C
:1001C000FFF7C0F83B6808950220062103AA0C95AA
:1001D0000D958DF8425009950A950B950E950F9542
:1001E0008DF840008DF84310ADF848808DF82380DD
:1001F00013929A890C929B7B0D9329463C221FA84F
:10020000FFF7A0F83F4B0095D878997893F801A0B4
:1002100093F800908DF87C504FF0590C0DF1100EB2
:1002200005AD8DF810008DF8111008AA3C4B2895EB
:10023000042720461FA98DF812A08DF81390ADF861
:1002400014C0CDF81CE0ADF8187004F02FFD054681
:1002500000287FF454AE404604F022FD29461C22BB
:100260001FA8FFF76FF8204629460822FFF76AF813
:1002700033682C4F187CDA7B2B4942EA0022ADF818
:100280004020987C5A7C42EA0022ADF84220187D3A
:10029000DA7C42EA0022ADF844205A7D9B7D1F940F
:1002A00042EA03234FF4004E4FF4702203241FA8A8
:1002B000ADF84630ADF88A508DF88C50CDF880E01E
:1002C00021928DF888402497259104F0EDFE0028B6
:1002D0007FF415AE204604F0ABFD00287FF40FAE8E
:1002E000124800F097FB00287FF409AEFFF7C4FC2A
:1002F00000287FF404AE0E4B0E491A6842F21073C8
:100300001CE000BFAC470020F047002094F1020041
:10031000B1FA01004449002095F80100C0470020CF
:1003200005FA010031FA010099F801009049002016
:10033000604300200024F4004049002000BF00BFBB
:1003400000BF00BF00BF00BF00BF00BF8A422FD068
:1003500000BF00BF00BF00BF00BF00BF00BF00BFA5
:1003600000BF00BF00BF00BF00BF00BF00BF00BF95
:1003700000BF00BF00BF00BF00BF00BF00BF00BF85
:1003800000BF00BF00BF00BF00BF00BF00BF00BF75
:1003900000BF00BF00BF00BF00BF00BF00BF00BF65
:1003A00000BF00BF00BF00BF00BF00BF00BF00BF55
:1003B000013BC3D1336893F82820022A40F28F8092
:1003C000484C4949228117334FF43E7204F10A0028
:1003D00084E80C006161FFF743FA00287FF48FADD9
:1003E000E37A20460233E37200F0A2FA00F0BCFA8E
:1003F000002084E5FF2388F8243188F8253188F827
:1004000026313A4B3A4801221A7000F0A5F8C8BBD1
:10041000D7F8008044E608F12900002235490EF0A3
:1004200061F8D7F8008098F82132013BDBB2002256
:10043000F62B88F823210AD908F595702E49162243
:100440000EF050F8D7F80080162388F82132404685
:1004500000F082F808B107F043FDD7F8008033E6DA
:1004600008F1170025490E220EF03CF8D7F800805D
:100470000E2388F82830012017E688F8253188F8FF
:100480002631BEE707F02CFDD7F80080002007E6F4
:1004900007F026FD2BE6D8F8000000234FF0060CED
:1004A0004FF0180E4021012280F80FC080F811E0B3
:1004B0004175827503748374C374037500F04CF83E
:1004C00000287FF41CAD0E4B1F931FA84FF0A073A4
:1004D0002093FFF7C9F900287FF411AD30E600F052
:1004E00071FA85E7D84700209DF8010040490020B7
:1004F00094F10200BDF10200BEF20200ABF1020075
:10050000060018000378012B11D00AD3052B05D162
:1005100043682BB90D4B01221A707047406878B9B7
:100520007047436873B90A4B01221A7070474268DA
:1005300042B98289B2F5005FF2D1064A1370704762
:1005400007F0CEBC002007F0CBBC00BFA8490020BC
:10055000B8490020A749002018B3F0B5124C87B065
:10056000014640F22222201D0DF0BCFF8A274FF0E9
:10057000420E01AA01234FF4005642F2010503A9DD
:100580000A480194C4F800E0ADF80870ADF80C60BA
:10059000ADF80E500492ADF8143009F0EDFE07B03E
:1005A000F0BD0E20704700BFBC490020AC490020C0
:1005B00000286AD02DE9F047044686B03E480D4633
:1005C00009F0B6FB10B106B0BDE8F08709F0C4FB36
:1005D0000028F8D1394E337823B907F027FD337856
:1005E000002BFAD009F0B4FF0028ECD1344E337858
:1005F00023B907F01BFD3378002BFAD00021082225
:1006000001A8FEF79FFE01AB4FF4005042F201013A
:100610002C4A09F0E1FF002839D00A28D3D12A4F0B
:100620002A4E07F10408214640F2222240460DF0EE
:1006300059FF4FF042094FF0000C4FF08A0E4FF473
:10064000005442F201024FF0010A01AB1D4801972C
:1006500003A90493C7F8009086F800C0ADF808E03D
:10066000ADF80C40ADF80E20ADF814A009F03EFD39
:100670000028A8D13378C5F8008023B907F0D6FC4C
:100680003378002BFAD000209DE70E2070470D48EC
:1006900003A909F0E3FC0028BFD10B4804994FF4EB
:1006A0000A720DF01FFF074809F0FCFC0028B4D1C6
:1006B000074B2B6087E700BF05050200B849002003
:1006C000A8490020AC490020BC490020A7490020CF
:1006D000C049002045DF704746DF704747DF70475D
:1006E0006F4A2DE9F84F0023536013700746002826
:1006F00041D0022807D06B4B5B6A0BB108209847AA
:100700006748BDE8F88F6849D1F810010128F7D192
:10071000664CC1F810312378022B00F0AB80032B1C
:1007200000F0B780012B06D12520C1F80875C1F86B
:1007300054050B602378042B40F0A880594B5C488B
:1007400019794FF48074C0F80845002900F0A5809D
:100750001868996899614FF47A7101FB00F10126DC
:10076000002003F10C05032459611E73187458749A
:1007700055601470C4E74F4C4D4BDFF828814A4D4B
:100780004D49C3F854554FF48072C3F850154FF0DB
:10079000160BC3F8042508F11D014226E01C0622B1
:1007A0004FF0060A6770A77026704FF002090DF02F
:1007B00099FE01264FF0AA0EFE234FF0EE0C04EB3B
:1007C0000B00D8F82810B8F82C20277484F80BA058
:1007D00003274FF0100A84F811B084F815C084F88C
:1007E0000EE084F812E0E373E37484F80990A672D3
:1007F0002773677384F814A00DF074FE98F82C30FA
:100800002E492A4ADFF8C080DFF8C0C0DFF8C0E018
:100810002B4803F1140B053384F801B0C5F8FC6FC5
:1008200040F2031B2374C5F8148540F25B63C5F8DE
:1008300018C54FF096084FF08E0CC5F834B5C5F8C2
:100840003835C5F83065C5F80072C5F81075C5F8BB
:100850004485C5F804A3C5F824C5C5F81CE5C5F84A
:100860003C05C5F80445C1F800902E6116700C488F
:10087000BDE8F88F134A1A2726264FF4C875C1F829
:100880000875C1F85465D060C2F840550133237033
:1008900036E70C4A50272726EFE7022313702FE78D
:1008A000E44B0020144C002000100040444C002079
:1008B00000F00140EC4B00204081004000E100E0EE
:1008C0005555550000800040060102002500030236
:1008D00000D6BE89042810B506D3052805D90728F7
:1008E00002D1114C6379C3B910BD0F4C2379002B91
:1008F000FAD00023A1680D4A237304F10C0023747D
:1009000063746161A261FFF7E9FE0028ECD0636ABD
:10091000002BE9D0BDE81040184700236371FFF7B2
:10092000DBFE0028F3D1DFE7144C002040420F002B
:1009300010B40C4B016819600246114641F27C501C
:10094000986051F80A0FD8618C88897983F8221051
:100950001C84516959621189998552689A625DF8BF
:10096000044B7047144C002070B5134C63790BB9DD
:10097000237903B170BD0123104823716371FFF720
:10098000A9FE10B1636A03B198470B4DA3680C4AE6
:1009900063610121002305F10C002373237461744A
:1009A000A261FFF79BFE0028E4D06B6A002BE1D028
:1009B000BDE87040184700BF144C0020E10602005B
:1009C00040420F00014B00221A717047144C002066
:1009D000F8B51C4607460E46154609F0A9FE094B18
:1009E0001B78834201D90F20F8BD384631462A468C
:1009F000234605F069FE0028F6D0034A1368013348
:100A00001360F8BD06430020484C002012DF7047F9
:100A10006DDF704770B588B006460DF10300FFF733
:100A2000F5FF18B99DF8033013B9022008B070BD66
:100A300001A8FFF7EDFF0028F8D10390049005907E
:100A40000690ADF81C000524062503E0013D601E5C
:100A5000EDB2C4B2062D03A81AD00DF0D6FD03AB3B
:100A6000114918440DF096FD03A80DF0CEFD03AB1F
:100A7000184408AB2B440D4913F81C2C0DF08AFDCB
:100A8000002CE3D1304603A90DF0B7FD2046CDE799
:100A900003A80DF0BAFD03AB04499DF80A201844E1
:100AA0000DF078FDD2E700BF78F4020074F1020087
:100AB0002DE9F047B2B004467F4902A8C0220125C3
:100AC0000DF010FDA84602AB00264FF0A04C99781F
:100AD00093F801A01878DA7893F804905F79890088
:100AE00041EA4A01014341EA02221E2E06F5E07E58
:100AF00042EA094210D0012F4CF82E2011D005D324
:100B0000022F07D0062032B0BDE8F08708FA06F2BF
:100B1000CCF80C25202D09D00135EDB20136063375
:100B2000D5E7B740202DCCF80875F5D14FF0A0429D
:100B300003234FF080406149C2F87837C2F80805B6
:100B40000A685F4941F2883300BF00BF00BF00BFA1
:100B500000BF00BF00BF00BF8A422FD000BF00BF50
:100B600000BF00BF00BF00BF00BF00BF00BF00BF8D
:100B700000BF00BF00BF00BF00BF00BF00BF00BF7D
:100B800000BF00BF00BF00BF00BF00BF00BF00BF6D
:100B900000BF00BF00BF00BF00BF00BF00BF00BF5D
:100BA00000BF00BF00BF00BF00BF00BF00BF00BF4D
:100BB00000BF00BF00BF00BF00BF00BF013BC3D1EB
:100BC0000121204601F0FAF900289CD1014660225B
:100BD00002A8FEF7B7FB9DF80D409DF813709DF835
:100BE00019109DF81F309DF83D209DF843609DF839
:100BF0004950A4F10104B4FA84F4640944F00200F9
:100C0000012F08BF044644F0040001290CBF01462F
:100C1000214641F00800012B08BF014641F0E001E8
:100C200041F48073012A14BF0A461A4642F4007345
:100C3000012E18BF134643F48062012D14BF1846DD
:100C4000104640F46040012302228DF820308DF8D8
:100C50002B308DF831308DF837308DF84A308DF8E3
:100C60004C308DF850308DF852308DF85B308DF867
:100C700061308DF867308DF825208DF84F208DF884
:100C8000552001F021F900287FF43DAF02AC054664
:100C90002079E67821786278A3780190009628463A
:100CA00001F066F800287FF42EAF0135102D04F115
:100CB0000604EDD127E700BFB8F30200604300202F
:100CC0000024F4002DE9F041B2B002AC60222046CD
:100CD0000021FEF737FB0123022225468DF8203044
:100CE0008DF82B308DF831308DF837308DF84A3053
:100CF0008DF84C308DF850308DF852308DF85B30D7
:100D00008DF861308DF867308DF825208DF84F20F3
:100D10008DF8552000262879EF7829786A78AB7805
:100D200001900097304601F023F80136063500287F
:100D30003ED020462349C0220DF0D4FB4FF0A04600
:100D400020230127013B03EB430204EB420514F887
:100D50001200A97895F80180EA7895F804C06D79B9
:100D6000890041EA4801DBB2014341EA02221E2B1D
:100D700003F5E07E42EA0C42E4D0012D46F82E2035
:100D800019D00ED3022D10D04FF0A04303214FF005
:100D900080420020C3F87817C3F80C2532B0BDE8B4
:100DA000F08107FA03F2C6F80C25002BCAD1EBE755
:100DB000102EB0D1BDE79D40C6F80855002BC1D11B
:100DC000E2E700BFB8F3020002F0A6BFF0B589B0B9
:100DD00030B3012804463FD0012000F00DFD03464A
:100DE00018BB2A4A12681278BAB108A901200193E7
:100DF00001F81C0D23274FF4FA664FF4FA753324DB
:100E000040F26B32039305930297069607958DF88F
:100E10000C40049200F068FE40B9002009B0F0BD1B
:100E2000012000F0E9FC034610B1184609B0F0BDFE
:100E3000164A12681278002AEFD008A902220190FF
:100E4000232701F81C2D4FF4FA664FF4FA7533246A
:100E500040F6AC520120D5E700F0CEFC0346002856
:100E6000E3D10A4A12681278002AD6D008A90422CF
:100E70000190232701F81C2D20464FF4FA664FF409
:100E8000FA75332440F6AC52BCE700BF4C4C00204E
:100E900000B583B00378084A8DF80030002312684B
:100EA0008DF80530ADF802308DF804306846904773
:100EB00003B05DF804FB00BF544C0020704700BF36
:100EC00030B51C4B1C49186885B00090684606F088
:100ED0005FFA60B1082804D007F002F806F0B2FB10
:100EE00008B905B030BD06F0FBFF05B030BD134AB0
:100EF0008DF80400D5788DF805000522012401A99C
:100F00008DF807008DF809008DF80C008DF80B5056
:100F10008DF80A408DF806208DF8082006F006FBB3
:100F20000028D7D12146064806F02AFB0028D1D157
:100F3000D4E700BF7CF40200D9100200584C002016
:100F4000784C002000B54FF0A041114AD1F810357F
:100F50001079C340D80783B015D5D1F81035527930
:100F6000D340DB074CBF042303238DF807300DF17A
:100F700007000121074A06F0F1FF08B106F0B0FFB3
:100F800003B05DF804FB05238DF80730EFE700BFE1
:100F9000584C0020910E020010B582B00A4601465E
:100FA0000DF102000DF09EFA1F4ABDF802301089C3
:100FB000012198428DF8051007D25189994203D832
:100FC00002218DF8001002E000218DF80010D08A77
:100FD000117E154C1B1A93FBF1F31BB2002B21DB86
:100FE000A18A99420EDD1148D1690278C95C8DF859
:100FF000041052B90E4B19700E4B68461B68984787
:1010000002B010BD4B1E1BB2EDE70B480AF0ECFD21
:1010100030F00802F0D043F201429042ECD006F0EA
:101020005FFFE9E70023DEE7584C0020804C0020FA
:1010300007430020544C0020A44C0020F0B587B09A
:101040000021142201A8FEF77DF99DF811509DF8AA
:1010500012209DF814309DF813601749DFF864E002
:1010600009788DF81010012464F3030564F303027A
:1010700064F3030306F0F00664F3071564F3071244
:1010800064F307136FF3071600270C488DF811500F
:1010900001A98DF808408DF812208DF814308DF8D4
:1010A0001360CDF804E003970AF0CAFC08B9044BBA
:1010B0001C7007B0F0BD00BF07430020A44C002007
:1010C000804C0020BD0E0200014601480AF08ABC97
:1010D000A44C00200000000030B50378022B85B03E
:1010E0004AD01BB106F0A4F905B030BD4368B3F98E
:1010F00000000CF08FFB9FED241B9FED250B044699
:101100000D460BF0FBF829A3D3E9002351EC100B9B
:101110000CF0F6FB02460B46204629460CF01AFD61
:101120000CF0A8FE1C4B9FED1D7AD3ED007A1C4BF2
:101130001C4A06EE900AC6EEA77A04A8022167EEC2
:10114000877AFCEEE77ACDED017ABDF804400534EC
:1011500083FB0453E417C4EBA30303EB83035B009B
:1011600020F8023D06F0FAFE0028BBD006F0B8FEDB
:1011700006F05EF905B030BD0B4B00221A7006F088
:1011800057F905B030BD00BF00000000000024404A
:1011900000000000000000407C4C002000007A4469
:1011A00067666666990F0200504C0020000000A0A0
:1011B000AAAAFA3F312836D930B52C4CA37985B08C
:1011C000054653BB2A4B2B4918680090684606F029
:1011D000DFF850B3082806D006F082FE06F032FA97
:1011E00008B106F07DFE2448244A012107F098FB4F
:1011F000044680B94FF400434FF4FA700021E3FB3A
:1012000005014FF47A7200230CF084FE2246014659
:101210001B4807F097FB05B030BDE07900F090FE69
:101220000028CFD0F7E701207047E2788DF80B2037
:101230000124052201A98DF804008DF805008DF820
:1012400007008DF809008DF80C008DF80A408DF824
:1012500006208DF8082006F069F90028BAD1214649
:10126000084806F08DF90028B4D1B7E7584C0020A3
:101270007CF40200D910020080F40200C10E0200CA
:10128000844C0020784C0020002832D0002930D037
:10129000F0B5514A514B426003600F6883B0002F94
:1012A00000F08F800B6933BB4B69002B40F08680C8
:1012B0004B4B4FF07E521A60CA898B899A427DD37C
:1012C0000C1D0FCC474EDFF830C135460FC594E8F2
:1012D0000F0096F806E0CCF8007085E80F00344661
:1012E000BEF1000F1ED0F07900F00CFEA8B103B0E3
:1012F000F0BD0E2070474A69002A5FD0134407EE04
:10130000903A07EE102AF8EE677AB8EE477A344B37
:10131000C7EE277AC3ED007ACEE7F07900F030FE11
:101320000028E4D162794FF0A04302F5E072002179
:1013300043F82210227902F5E07243F82210A278D5
:1013400002F5E07243F8221004F0C0FC00283BD004
:1013500002AD032305F8043D2079234A00232946E2
:101360008DF806308DF807308DF8053004F0B8FCA4
:1013700008B106F0B5FD2079012104F09BFD6079EC
:10138000012104F097FD194B19491868019028466E
:1013900005F0FEFF0028AAD1164C0123237006F0A9
:1013A00069F90028A3D1237803F0FF00002B9ED019
:1013B000237803F0FF00002BF5D198E7012003B05C
:1013C000F0BD0E2003B0F0BD04F032FC0028BFD009
:1013D00006F086FDBCE700BFC91002003D10020008
:1013E0007C4C0020584C0020450F02007CF4020089
:1013F000D9100200504C0020544C002008B51D4A62
:1014000013783BB9431C1FD0C0B2012810701DD007
:10141000002008BD1844C0B201281070F8D0002880
:10142000F6D1012BF4D1144B186801F027FBF0B969
:101430000020602101F04CFE98B901F0F1FF002876
:10144000E6D006F04DFDE3E7022008BD0A4B186820
:1014500001F014FB40B94020602101F039FE002862
:10146000EBD006F03DFDE8E706F03AFDF3E706F0C5
:1014700037FDDDE7CC4C0020BC4C002070B5144E8D
:10148000144A3368C5002B440C465B6851561B68F0
:10149000587A12568A420DD00FDB01DC022070BD53
:1014A0004FF0FF30FFF7AAFF0028F8D133681D4442
:1014B0006B681B685C72002070BD0120FFF79EFF07
:1014C0000028ECD133681D446B681B68F2E700BF4D
:1014D000C84C002088F4020038B5124D12492B6820
:1014E000C40023445B681A68537ACB56012B0AD098
:1014F000002B0CDD4FF0FF30FFF780FF30B92B6879
:101500001C4463681A6803235372002038BD01200D
:10151000FFF774FF0028F9D12B681C4463681A6830
:10152000F1E700BFC84C002088F402002DE9F04F1D
:10153000834C256815F8304087B00E46984605EB79
:10154000C005002C74D0012C03D0012007B0BDE8E9
:10155000F08F7C4B6978B3F800E09878DFF8ECB155
:10156000EB78ADF808E01746AA7800948DF80A00E9
:1015700003910492059300250DF10C0A02ABDBF8F0
:1015800000005A5D3B785AF825901A422CD098F802
:10159000004001F073FA014610BB009A5FFA89F32C
:1015A00002FA03F91FFA89F9002C00F08580012C5A
:1015B00026D0002E00F087807078327896F803E00D
:1015C000B1780193000240EA024242EA0E0242EA86
:1015D000C10118465C4A01F035FE014600287FD063
:1015E000084607B0BDE8F08F01F048FA0146002830
:1015F000F6D1009B5FFA89F903FA09F91FFA89F914
:10160000484601F0FBFC01460028E9D1494601F0BB
:10161000AFFD01460028E3D101F002FF014600289A
:10162000DED10135032DA9D1002007B0BDE8F08F30
:10163000464B6D78186898F8007001F01FFA014663
:101640000028CDD10123AB409CB2002F3ED0012F0A
:1016500069D0002E42D070783378F778B1783A4A62
:10166000000240EA03433B4343EAC101284601F03C
:10167000E9FD00287FF46AAF204600F009FE58B16A
:1016800031797379284643EA012141F61F7201F04E
:1016900027FE00287FF45AAF0021204601F068FDA4
:1016A000014600289CD1214601F0A8FC00287FF4C7
:1016B0004DAF01F0B5FE49E7494601F059FD01463D
:1016C00040B308468DE70E2108468AE7214601F01F
:1016D0004FFD01460028E6D0084682E70E2035E798
:1016E000484600F0D5FD019B60B17279317918460A
:1016F00042EA012141F61F7201F0F2FD0146002885
:101700007FF46EAF0021484601F032FD014600280B
:101710007FF466AF494601F071FC014600283FF4B2
:101720007BAF08465DE7204601F068FC01460028D3
:101730007FF456AF214601F01BFD0028B9D005E724
:10174000C84C002084F40200FFFF1F00BC4C0020A6
:1017500010B4264B26481978264C01234FF0A0429E
:1017600003FA01F1C2F80C15006800BF00BF00BF0A
:1017700000BF00BF00BF00BF00BFA0422FD000BF0E
:1017800000BF00BF00BF00BF00BF00BF00BF00BF61
:1017900000BF00BF00BF00BF00BF00BF00BF00BF51
:1017A00000BF00BF00BF00BF00BF00BF00BF00BF41
:1017B00000BF00BF00BF00BF00BF00BF00BF00BF31
:1017C00000BF00BF00BF00BF00BF00BF00BF00BF21
:1017D00000BF00BF00BF00BF00BF00BF00BF013B94
:1017E000C3D1C2F808155DF8044B7047C04C002007
:1017F000604300200024F400B04B1B68013B83428F
:1018000001D3102801D9012070472DE9F041AC4ED9
:1018100032688AB0C50000232A4406938DF81C3034
:10182000089309938DF814300493516807238DF8B9
:101830000C3009680B725368069F0446586807F01D
:10184000DBF810B10AB0BDE8F081326812F834302C
:101850002A44002B62D0012B01D00120F2E79078BE
:1018600092F801E0D17803FA00F003FA0EF2104387
:101870008B40184380B201AA04A900F01BFD012887
:10188000E0D89DF80430002B4DD19DF80530FF2B9A
:1018900000F09480002B40F0CB809DF80630002BA8
:1018A00047D19DF807707FB99DF80830002B40F0B4
:1018B00097809DF80930002B00F006819DF80930D3
:1018C000002B00F0DB80002733687E49DFF8F081D1
:1018D0002B4403225B688DF803201B685A7A8A56D2
:1018E000012A0DD0002A40F3C2804FF0FF30FFF7ED
:1018F00085FD0028A6D1D8F800302B445B681B6812
:1019000001225A7201A9204603AA0DF10303FFF731
:101910000DFE002896D137B3002093E753780120BD
:10192000984080B2A7E79DF8063013B99DF807707C
:10193000CAE79DF8073004228DF80320002B7FD1E1
:10194000204601218DF80630FFF798FD00287FF42E
:1019500079AF01A9204603AA0DF10303FFF7E6FDC5
:1019600000287FF46FAF33681D4428266B681B681E
:101970005F6004986B680899099A1B6801440A44DF
:101980001A606D682B681B6864224FF40047B3FB34
:10199000F2F24FF4FA7006FB02330021E7FB030179
:1019A0004FF47A7200230CF0B5FA224601466868BB
:1019B00006F0C8FF00287FF445AFADE79DF806307C
:1019C000002BB6D19DF807702FB99DF8083013B9D8
:1019D0009DF8092042B1002F7FF476AF9DF80830C2
:1019E000002B7FF470AF69E733688DF803202B4438
:1019F000344A5B681B685B7AD35C43B11B0630D406
:101A00004FF0FF30FFF7FAFC00287FF41BAF33687C
:101A100000221D446B681B6820465A7201A903AA64
:101A20000DF10303FFF782FD00287FF40BAF73E78E
:101A30009DF80630002B7FF47CAF9DF80770CAE755
:101A40002046FFF749FD00287FF4FCAE204601A99F
:101A500003AA0DF10303FFF769FD00283FF45CAF13
:101A6000F0E60120FFF7CAFC0028D0D0EAE601200A
:101A7000FFF7C4FC00283FF43EAFE3E63368114AA9
:101A80002B4402215B688DF803101B685B7AD356E8
:101A9000012B08D0002B0ADD4FF0FF30FFF7AEFC22
:101AA00000287FF4CFAE336803221D44B2E7012043
:101AB000FFF7A4FC0028F6D0C4E600BFC44C002009
:101AC000C84C002088F402003368064A2B440121E8
:101AD0005B688DF803101B685B7AD35C002B8DD19B
:101AE00095E700BF88F402009E4B1B68013B8342D0
:101AF00016D3102814D8A9B12DE9F041DFF86C8273
:101B000084B004460D46FFF723FED8F8003013F8E2
:101B10003420E60033443AB9032004B0BDE8F08134
:101B2000012070470E2070475A6829781268117298
:101B30005B68EF68586806F05FFF0028EDD1D8F8C1
:101B4000002012F83430324423B1012B00F08C8095
:101B50000120E2E753780120984080B202AA291DB3
:101B600000F0A8FB0128D8D89DF808308BBB9DF861
:101B70000930FF2B00F08580002B40F094809DF809
:101B80000A3063BB9DF80B7077B99DF80C30002BC1
:101B900040F086809DF80D30002B00F0D5809DF838
:101BA0000D30002B00F09A800323204601218DF890
:101BB0000730FFF763FC0028AFD102A920462A4670
:101BC0000DF10703FFF7B2FC0028A6D1FFB10020FA
:101BD000A3E79DF80A3013B99DF80B70E4E79DF870
:101BE0000B3004228DF80720002B66D120460121FE
:101BF0008DF80A30FFF742FC00288ED102A920465A
:101C00002A460DF10703FFF791FC002885D1D8F88B
:101C100000301E444FF0280E73681B685F606868D0
:101C200069697368AA691B6801440A441A60756887
:101C30002B681B6864224FF40046B3FBF2F24FF4AA
:101C4000FA700EFB02330021E6FB03014FF47A72B7
:101C500000230CF05FF922460146686806F072FE28
:101C600000287FF45AAFB2E7907892F801E0D1787B
:101C700003FA00F003FA0EF210438B40184380B2CF
:101C80006CE79DF80A30002BA9D19DF80B7087B93D
:101C90009DF80C3013B99DF80D204AB39DF80C3017
:101CA000002B81D17BE79DF80A30002B97D19DF85E
:101CB0000B70002F7FF478AFF0E72046FFF70CFCA5
:101CC00000287FF42AAF204602A92A460DF1070317
:101CD000FFF72CFC00283FF47AAF1EE702232046D2
:101CE0008DF80730FFF7F8FB00287FF416AFEAE71E
:101CF000D8F800308DF8072033441B4A5B681B6816
:101D00005B7AD35C43B11B0618D44FF0FF30FFF76A
:101D100075FB00287FF401AFD8F800301E4400277F
:101D200073681B6820465F7202A92A460DF10703FB
:101D3000FFF7FCFB00287FF4F0AE48E70120FFF737
:101D40005DFB0028E8D0E8E6D8F80030064A3344C6
:101D500001215B688DF807101B685B7AD35C002B50
:101D6000D1D1D9E7C44C002088F40200C84C00202F
:101D70002DE9F0470F289DF820809DF8249002D986
:101D80000220BDE8F0871F464E4B82461868154674
:101D90000E4600F073FE044668BB47B1012F67D0C2
:101DA000022F53D001F03CFB0120BDE8F087012752
:101DB00007FA0AF7BFB2394600F048FF0446D0B927
:101DC000394600F0ADFF0446A8B9002D61D0012DC1
:101DD000E8D13846002100F069FE044658B9B8F150
:101DE000000F0DD0B8F1010FDCD13846002101F011
:101DF00001F8044658B101F013FB2046BDE8F08716
:101E00004046394600F0F6FF04460028F3D1B9F108
:101E1000000F46D0B9F1010FC4D13846002100F0BF
:101E2000ABFE04460028E6D1002E42D0012EB9D1E7
:101E30003846002101F048F804460028DBD101F0C3
:101E4000EFFA04460028D6D1BDE8F087012707FA4B
:101E50000AF7BFB2394600F063FF04460028CAD132
:101E60000146384600F0F2FE04460028ADD0C2E735
:101E700007FA0AF39FB2394600F0E8FE044600284C
:101E8000B9D10146384600F04BFF044600289CD0EB
:101E9000B1E72846394600F009FE044600289ED0E6
:101EA000A9E74846394600F067FE04460028BBD043
:101EB000A1E73046394601F007F804460028BED0B5
:101EC00099E700BFD04C0020B0F5803F38B50546FB
:101ED00001D3022038BD0A4B186800F0CFFD04463C
:101EE00048B9A8B201F05AF8044620B901F098FAAE
:101EF000044600B938BD01F093FA204638BD00BF52
:101F0000D04C00200F2801D90220704738B50B4B68
:101F10000546186800F0B2FD044658B90121A940F1
:101F200089B200F0D1FF044620B901F079FA0446E5
:101F300000B938BD01F074FA204638BDD04C0020FD
:101F40000F2801D90220704738B50C4B0546186898
:101F500000F094FD044660B90120A840214680B2FB
:101F600001F04CF8044620B901F05AFA044600B9D1
:101F700038BD01F055FA204638BD00BFD04C0020D6
:101F80000F2801D90220704738B50B4B0546186859
:101F900000F074FD044658B90121A94089B201F04E
:101FA0002DF8044620B901F03BFA044600B938BDCB
:101FB00001F036FA204638BDD04C002000285BD016
:101FC00038B5304D03682B600C4600F051FD0CB95C
:101FD000204638BD286800F051FD044600284DD148
:101FE00001F0B0F90446002848D101F019FA04467E
:101FF000002843D1244B25491A6841F2883300BF99
:1020000000BF00BF00BF00BF00BF00BF00BF8A42CB
:102010002FD000BF00BF00BF00BF00BF00BF00BF88
:1020200000BF00BF00BF00BF00BF00BF00BF00BFB8
:1020300000BF00BF00BF00BF00BF00BF00BF00BFA8
:1020400000BF00BF00BF00BF00BF00BF00BF00BF98
:1020500000BF00BF00BF00BF00BF00BF00BF00BF88
:1020600000BF00BF00BF00BF00BF00BF00BF00BF78
:1020700000BF013BC3D138BD0E20704701F0D0F93D
:10208000204638BDD04C0020604300200024F400DE
:10209000704700BF18B1F72903D9092070470E20F7
:1020A000704738B50A4D03460C4629600948194661
:1020B00022460CF017FA2968064809F0E1FF08B932
:1020C0000CB9204638BDBDE838400AF083B800BFDF
:1020D00008430020E84C002040B139B138B5084D24
:1020E0000B782A68934203D2042038BD0E20704733
:1020F0000C4604490CF0F6F92B682370002038BD1B
:1021000008430020E84C0020012904D9104B1B781B
:102110001BB90820704709207047B0B170B50D4C4D
:102120000D4D656002464B1EE260DBB200260222C6
:102130000A480B4923612670227205F0EDFB18B99D
:10214000084B01221A7070BD70BD0E20704700BF91
:10215000F54D0020D44C00208CF402000C430020EC
:1021600018430020F44D0020012A04D90C480078BF
:1021700018B9082070470920704708B569B1013ABD
:10218000D2B2012005F080FB0146064805F0C4FBF1
:1021900020B9054B01221A7008BD0E2008BD00BFF2
:1021A000F54D00200C430020F44D0020012904D9F6
:1021B0000B4A12781AB9082070470920704708B5F1
:1021C00060B10139C9B205F03DFB0146054805F093
:1021D000A3FB20B9044B01221A7008BD0E2008BDD4
:1021E000F54D00200C430020F44D00200D4B1B78D2
:1021F0000BB9082070470C4B1B78002BF9D010B599
:102200000A4C0B480B49224605F048FB00B110BDB3
:102210002168084809F034FF0028F8D1BDE81040D3
:1022200009F0D8BFF54D0020F44D002008430020F0
:102230000C430020E84C002010B509F0E1FF0446F3
:1022400030B9044805F064FB034A044B14701C7059
:10225000204610BD0C430020F54D0020F44D002019
:1022600008B5074805F054FB0648002109F0CEFEEA
:1022700020B9054A054B01211170187008BD00BF37
:102280000C43002091200200F54D0020F44D002069
:10229000064B1B7843B140B1054B1B880340C01A65
:1022A000B0FA80F04009704701207047FC4D0020D3
:1022B000F64D002008B9022070472DE9F04F2DEDB2
:1022C000028BDFF8748398F8003085B02BB90420B6
:1022D00005B0BDEC028BBDE8F08F002900F09C81B9
:1022E0000023FF24547013709370D37013715371D3
:1022F0000B7953700B7B02339B10072B00F3548137
:10230000DBB29D00D370EDB2C44FDFEDC57A97ED1F
:10231000007A9FEDCB8A039087EE877A0D7316467D
:102320000C46D1ED007AF8EE677AC7EE877AC7EEF1
:10233000887A17EE900A0BF08FFA41EC100B09F037
:1023400089FF51EC100B0BF075FD97ED007ADFED76
:10235000B57A87EE877A0F2828BF0F200546D4ED7F
:10236000007AF8EE677AC7EE877AC7EE887A17EEBA
:10237000900A0BF071FA41EC100B09F06BFF51EC75
:10238000100B0BF057FD1F28834600F230810F28F9
:1023900000F20D839FEDA48A4FF0100BA34A97ED36
:1023A000007A02FB05F207EE902AF8EEE77AC7EE14
:1023B000877A17EE900A0BF04FFA41EC100B09F0F8
:1023C00049FF51EC100B0BF035FDB8EE488AD7ED04
:1023D000007AC8EE277A824617EE900A0BF03CFA94
:1023E00041EC100B09F036FF51EC100B0BF022FD05
:1023F00081462068CAEB00000CF05AF80190206872
:10240000C9EB00000CF054F8019A824200F3E2801C
:10241000357094ED007ADFED8C6AC4F800A0B8EE58
:10242000477A07EE90AAF8EE677A67EE266AF4EE2E
:10243000E76AF1EE10FA40F1DF804FF0010BDFEDBB
:10244000787A97ED007A9FED7E8A87EE877AD4EDD1
:10245000027AF8EE677AC7EE877AC7EE887A17EEC7
:10246000900A0BF0F9F941EC100B09F0F3FE51EC76
:10247000100B0BF0DFFCDFED6B7A97ED007A87EE47
:10248000877A0F2828BF0F208146D4ED027AF8EE14
:10249000677AC7EE877AC7EE887A17EE900A0BF054
:1024A000DBF941EC100B09F0D5FE51EC100B0BF0F1
:1024B000C1FC1F28844600F288800F2800F27D822C
:1024C0009FED598A4FF0100C584A97ED007ACDF8DD
:1024D00008C002FB09F207EE902AF8EEE77AC7EE91
:1024E000877A17EE900A0BF0B7F941EC100B09F060
:1024F000B1FE51EC100B0BF09DFCB8EE488AD7ED05
:10250000007AC8EE277A054617EE900A0BF0A4F978
:1025100041EC100B09F09EFE51EC100B0BF08AFC05
:102520008246A068401B0BF0C3FF0190A068CAEB75
:1025300000000BF0BDFF019ADDF808C0824237DCD5
:1025400086F8029094ED027ADFED3F6AA560B8EE5E
:10255000477A07EE905AF8EE677A67EE266AF4EE4D
:10256000E76AF1EE10FA55D4DFED366A27EE267AE7
:10257000F4EEC77AF1EE10FA4CBF0120002098F873
:10258000002000EB0B05002A60D0294A039B12882B
:102590001A4093425AD000232361636133717371EF
:1025A000281C18BF012093E60723D3701C25ABE637
:1025B00086F802C094ED027ADFED236AC4F808A021
:1025C000B8EE477A07EE90AAC5E79FED1A8A4FF05A
:1025D0001F0C79E786F800B094ED007ADFED1A6AF7
:1025E000C4F80090B8EE477A07EE909A1BE79FED8B
:1025F000118A4FF01F0BD1E6DFED126A27EE267A23
:10260000F4EEC77AF1EE10FA4CBF4FF0010B4FF029
:10261000000B14E70120B2E70E2059E6F84D002028
:1026200000007F460000FF470000837C0006F900A1
:10263000F64D002000D03DF1FC4D002000007F430E
:1026400000007A44CDCC4C3F9A99993FD7ED007A5F
:102650001FED068A7278F1785FED078A88EE276AA7
:10266000A2EB810307EE903AB8EEE77AD4ED047A54
:10267000F8EE676A67EE067AC6EEA77AC7EEA87A22
:1026800017EE900A0BF0E8F841EC100B09F0E2FDB0
:1026900051EC100B0BF0CEFBD7ED007AF17872788D
:1026A00088EE278AA2EB810213010F2828BF0F2092
:1026B000834607EE903AB8EEE77AD4ED047AF8EE66
:1026C000676A67EE087AC6EEA77AC7EEA87A17EEB1
:1026D000900A0BF0C1F841EC100B09F0BBFD51EC76
:1026E000100B0BF0A7FB1F28814600F232810F2848
:1026F00098BF4FF01009F178727897ED007A1FEDCE
:10270000308AA2EB8102C2EB02220BFB02F207EE3F
:10271000902AF8EE677AC7EE877A67EE887A17EE26
:10272000900A0BF099F841EC100B09F093FD51EC75
:10273000100B0BF07FFBF178727897ED007AA2EB2B
:102740008102C2EB0222120109FB02F307EE903A6A
:10275000F8EE677A8046C7EE877A67EE887A17EEDA
:10276000900A0BF079F841EC100B09F073FD51EC75
:10277000100B0BF05FFB82462069C8EB00000BF0EA
:1027800097FE01902069CAEB00000BF091FE019BBF
:10279000834200F3FD8086F804B094ED047A5FED87
:1027A000566AC4F81080B8EE477A07EE908AF8EEC1
:1027B000677A67EE266AF4EEE76AF1EE10FA40F106
:1027C000DA8001230193D7ED007A1FED648A7278D5
:1027D000F1785FED658A88EE276AA2EB810307EE48
:1027E000903AB8EEE77AD4ED057AF8EE676A67EECC
:1027F000067AC6EEA77AC7EEA87A17EE900A0BF013
:102800002BF841EC100B09F025FD51EC100B0BF0EF
:1028100011FBD7ED007AF178727888EE278AA2EB67
:10282000810213010F2828BF0F20834607EE903A3C
:10283000B8EEE77AD4ED057AF8EE676A67EE087AC3
:10284000C6EEA77AC7EEA87A17EE900A0BF004F846
:1028500041EC100B09F0FEFC51EC100B0BF0EAFA06
:102860001F28824600F284800F2898BF4FF0100A7C
:10287000F178727897ED007A1FED8F8AA2EB8102D2
:10288000C2EB02220BFB02F207EE902AF8EE677A07
:10289000C7EE877A67EE887A17EE900A0AF0DCFFB7
:1028A00041EC100B09F0D6FC51EC100B0BF0C2FA06
:1028B0007278F17897ED007AA2EB8103C3EB0323E2
:1028C0001B010AFB03F307EE903AF8EE677A8046A5
:1028D000C7EE877A67EE887A17EE900A0AF0BCFF97
:1028E00041EC100B09F0B6FC51EC100B0BF0A2FA06
:1028F00007466069C8EB00000BF0DAFD81466069AD
:10290000C01B0BF0D5FD814526DC86F805B094EDA3
:10291000057A5FEDB36AC4F81480B8EE477A07EE23
:10292000908AF8EE677A67EE266AF4EEE76AF1EECF
:1029300010FA3AD45FEDBD6A27EE267AF4EEC77A34
:10294000F1EE10FA4CBF01230023019A1A441544FA
:1029500026E64FF01F09CEE686F805A094ED057A2D
:102960005FEDC76A6761B8EE477A07EE907AD8E7FD
:102970004FF01F0A7CE75FEDCD6A27EE267AF4EE72
:10298000C77AF1EE10FA4CBF0123002301931AE736
:1029900086F8049094ED047A5FEDD56AC4F810A02F
:1029A000B8EE477A07EE90AA01E70123CDE7064A81
:1029B00002FB00F308EE103AF0E4034A02FB00F3D6
:1029C00008EE103A80E500BF0030C8072DE9F04757
:1029D00051EA020306460CBF01200020114284B0D8
:1029E0000C4615461DD1F8B9DFF88080D8F80030C4
:1029F000B3B104AAD3F804A002F8056D93F80090CF
:102A000001274946504600973B4604F07DF838B907
:102A1000504649463B460DF10A0204F0C9F838B168
:102A2000002004B0BDE8F087012004B0BDE8F087C5
:102A30009DF80A301C4324EA0504A3428DF80A409D
:102A4000F2D0D8F80030002BEAD05A6819780090FC
:102A50000223104603AA8DF80C608DF80D4004F097
:102A600053F8B0FA80F04009DBE700BF004E0020C9
:102A7000014B00221A607047004E002070B50A4DCD
:102A80002A6812B10124204670BD064613464068EC
:102A9000B168FDF79DFF04460028F3D1706804F08B
:102AA00007F82E60EFE700BF004E00202DE9F04F41
:102AB000084285B004460D4603D0022005B0BDE8AB
:102AC000F08F0F0AFBB2060A56EA03020CBF01217F
:102AD00000211E4205D0002942D1012005B0BDE8E9
:102AE000F08F00293CD1DFF88C80D8F80030002B23
:102AF000F3D004AAD3F8049002F8051D93F800B0AF
:102B00004FF0010A59464846CDF800A0534603F05D
:102B1000FBFF0028E1D14846594653460DF10A0211
:102B200004F046F886460028D7D19DF80A301E43A7
:102B300026EA0706B3428DF80A6011D0D8F80030B3
:102B4000002BCAD019785868CDF800E003AA0223F8
:102B50008DF80CE08DF80D6003F0D6FF0028BCD195
:102B6000E1B2EAB20120FFF731FF80F00100C0B20C
:102B7000A4E700BF004E00202DE9F04F084287B0C7
:102B800004460D4603D0022007B0BDE8F08F0F0ABF
:102B9000FBB2060A56EA03020CBF012200221E42C3
:102BA00005D0002A47D1012007B0BDE8F08F002AE8
:102BB00041D1DFF89490D9F80030002BF3D006AA69
:102BC0004FF0020802F8058DD3F804B093F800C066
:102BD000CDF80CC04FF0010A61465846CDF800A070
:102BE000534603F091FFDDF80CC00028DBD15846B6
:102BF000614653460DF1120203F0DAFF0028D2D1EC
:102C00009DF812301E4326EA0706B3428DF8126083
:102C100011D0D9F80030002BC5D05A68197800902F
:102C20004346104605AA8DF814808DF8156003F010
:102C30006BFF0028B7D1E1B2EAB20320FFF7C6FE6E
:102C400080F00100C0B29FE7004E00202DE9F04F58
:102C5000084287B004460D4603D0022007B0BDE805
:102C6000F08F0F0AFBB2060A56EA03020CBF0122DC
:102C700000221E4205D0002A47D1012007B0BDE83E
:102C8000F08F002A41D1DFF89490D9F80030002B62
:102C9000F3D006AA4FF0060802F8058DD3F804B069
:102CA00093F800C0CDF80CC04FF0010A61465846B9
:102CB000CDF800A0534603F027FFDDF80CC0002834
:102CC000DBD15846614653460DF1120203F070FF06
:102CD0000028D2D19DF812301E4326EA0706B342DF
:102CE0008DF8126011D0D9F80030002BC5D05A6889
:102CF000197800900223104605AA8DF814808DF8EB
:102D0000156003F001FF0028B7D1E1B2EAB2072055
:102D1000FFF75CFE80F00100C0B29FE7004E00208C
:102D20002DE9F04F084287B004460D4603D002203B
:102D300007B0BDE8F08F0F0AFBB2060A56EA03029D
:102D40000CBF012200221E4205D0002A47D10120DB
:102D500007B0BDE8F08F002A41D1DFF89490D9F890
:102D60000030002BF3D006AA4FF0080802F8058DBA
:102D7000D3F804B093F800C0CDF80CC04FF0010AAE
:102D800061465846CDF800A0534603F0BDFEDDF87D
:102D90000CC00028DBD15846614653460DF11202A3
:102DA00003F006FF0028D2D19DF812301E4326EA18
:102DB0000706B3428DF8126011D0D9F80030002B0D
:102DC000C5D05A68197800900223104605AA8DF8DC
:102DD00014808DF8156003F097FE0028B7D1E1B29A
:102DE000EAB20920FFF7F2FD80F00100C0B29FE7D0
:102DF000004E00202DE9F04F084287B004460D46F2
:102E000003D0022007B0BDE8F08F0F0AFBB2060A1C
:102E100056EA03020CBF012200221E4205D0002AFE
:102E200047D1012007B0BDE8F08F002A41D1DFF87B
:102E30009490D9F80030002BF3D006AA4FF00A087E
:102E400002F8058DD3F804B093F800C0CDF80CC09B
:102E50004FF0010A61465846CDF800A0534603F0F2
:102E600053FEDDF80CC00028DBD1584661465346BE
:102E70000DF1120203F09CFE0028D2D19DF8123011
:102E80001E4326EA0706B3428DF8126011D0D9F826
:102E90000030002BC5D05A681978009002231046E4
:102EA00005AA8DF814808DF8156003F02DFE00281A
:102EB000B7D1E1B2EAB20B20FFF788FD80F0010044
:102EC000C0B29FE7004E00202DE9F04F084287B0C6
:102ED00004460D4603D0022007B0BDE8F08F0F0A6C
:102EE000FBB2060A56EA03020CBF012200221E4270
:102EF00005D0002A47D1012007B0BDE8F08F002A95
:102F000041D1DFF89490D9F80030002BF3D006AA15
:102F10004FF00E0802F8058DD3F804B093F800C006
:102F2000CDF80CC04FF0010A61465846CDF800A01C
:102F3000534603F0E9FDDDF80CC00028DBD158460C
:102F4000614653460DF1120203F032FE0028D2D141
:102F50009DF812301E4326EA0706B3428DF8126030
:102F600011D0D9F80030002BC5D05A6819780090DC
:102F70000223104605AA8DF814808DF8156003F021
:102F8000C3FD0028B7D1E1B2EAB20F20FFF71EFD62
:102F900080F00100C0B29FE7004E002070B5164DD2
:102FA0002B6884B00446020A6BB1586819788DF812
:102FB0000D2000230093102603AA02238DF80C6035
:102FC00003F0A2FD10B1012004B070BD2B68E4B283
:102FD000002BF8D05D681978009003AA28460223D8
:102FE00011258DF80D408DF80C5003F08DFD00304B
:102FF00018BF012004B070BD004E00202DE9F04F35
:10300000084287B004460D4603D0022007B0BDE851
:10301000F08F0F0AFBB2060A56EA03020CBF012228
:1030200000221E4205D0002A47D1012007B0BDE88A
:10303000F08F002A41D1DFF89490D9F80030002BAE
:10304000F3D006AA4FF0100802F8058DD3F804B0AB
:1030500093F800C0CDF80CC04FF0010A6146584605
:10306000CDF800A0534603F04FFDDDF80CC000285A
:10307000DBD15846614653460DF1120203F098FD2C
:103080000028D2D19DF812301E4326EA0706B3422B
:103090008DF8126011D0D9F80030002BC5D05A68D5
:1030A000197800900223104605AA8DF814808DF837
:1030B000156003F029FD0028B7D1E1B2EAB2112072
:1030C000FFF784FC80F00100C0B29FE7004E0020B3
:1030D0002DE9F047C44364F06F040C40E3B20342AF
:1030E00084B003D0022004B0BDE8F08701430A0693
:1030F000F8D4034334D01D4F3B689BB304AA4FF070
:103100001E0902F8059DD3F804A093F8008001265B
:103110000546414650460096334603F0F5FC08BB91
:103120005046414633460DF10A0203F041FDC8B94D
:103130009DF80A301D4325EA0404A3428DF80A4095
:103140000ED03B6873B15A6819780090022310467C
:1031500003AA8DF80C908DF80D4003F0D5FC08B94A
:103160000020C0E7012004B0BDE8F087004E002039
:103170002DE9F04F084287B004460D4603D00220E7
:1031800007B0BDE8F08F0F0AFBB2060A56EA030249
:103190000CBF012200221E4205D0002A47D1012087
:1031A00007B0BDE8F08F002A41D1DFF89490D9F83C
:1031B0000030002BF3D006AA4FF0200802F8058D4E
:1031C000D3F804B093F800C0CDF80CC04FF0010A5A
:1031D00061465846CDF800A0534603F095FCDDF853
:1031E0000CC00028DBD15846614653460DF112024F
:1031F00003F0DEFC0028D2D19DF812301E4326EAEF
:103200000706B3428DF8126011D0D9F80030002BB8
:10321000C5D05A68197800900223104605AA8DF887
:1032200014808DF8156003F06FFC0028B7D1E1B26F
:10323000EAB22120FFF7CAFB80F00100C0B29FE78D
:10324000004E0020032870B50D4619D9072809D96A
:103250000B282BD90F2811D800EB800000F119049E
:10326000E4B204E000EB800000F12104E4B245EA9E
:10327000020313F4600F22EA05060DD0022070BD90
:1032800000EB400045EA020300F1290413F4600F4B
:10329000E4B222EA0506F1D12046C5F30741C6F3A0
:1032A0000742FFF793FB38B9012070BD00EB4000E7
:1032B00000F13104E4B2DAE7601CC0B2C5F30721C3
:1032C000C6F30722FFF782FB0028EDD0A01CE9B26D
:1032D000F2B2C0B2FFF77AFB80F00100C0B270BD5D
:1032E000031F70B5DCB2032C0D461BD90C38C3B2DA
:1032F000032B01D9022070BD00EB80005830C4B20E
:1033000045EA020323F4F85323F01F0322EA0506DB
:10331000002BEFD12046290A320AFFF757FB38B9B4
:10332000012070BD03EB830303F13800C4B2E7E76B
:10333000601CE9B2F2B2C0B2FFF748FB80F00100B6
:10334000C0B270BD10B5324C324A2368106884B0E8
:10335000039043B1586819780023009303AA02230D
:1033600003F0D2FB10B1012004B010BD2368002B84
:10337000F9D05A6819780090022310460DF10E0218
:1033800003F0C2FB0028EED1234B24491A6840F613
:10339000B83300BF00BF00BF00BF00BF00BF00BF09
:1033A00000BF8A422FD000BF00BF00BF00BF00BFD8
:1033B00000BF00BF00BF00BF00BF00BF00BF00BF15
:1033C00000BF00BF00BF00BF00BF00BF00BF00BF05
:1033D00000BF00BF00BF00BF00BF00BF00BF00BFF5
:1033E00000BF00BF00BF00BF00BF00BF00BF00BFE5
:1033F00000BF00BF00BF00BF00BF00BF00BF00BFD5
:1034000000BF00BF00BF013BC3D104B010BD00BF6F
:10341000004E002090F40200604300200024F400DD
:1034200010B5074C23684BB1586803F051FB236873
:10343000586803F0EDFA0020206010BD012010BD97
:10344000004E0020014B002018607047044E002001
:1034500038B50346074D99682B6000224068134633
:10346000FDF7B6FA044618B92B68586803F020FB3C
:10347000204638BD044E002010B5064C236858681D
:1034800003F026FB2368586803F0C2FA002020608E
:1034900010BD00BF044E002070B50F4E336884B0DD
:1034A000BBB104AA922102F8011D01241978054636
:1034B00058680094234603F027FB08B104B070BDA0
:1034C00031682A4623464868097803F071FB04B046
:1034D00070BD082004B070BD044E002070B5134CC0
:1034E000236884B0F3B104AA402102F8011D01252C
:1034F00019780646586800952B4603F005FB08B17D
:1035000004B070BD22682B46506811780DF10E0290
:1035100003F04EFB0028F3D19DF80E3003F03F037B
:103520003370EDE7082004B070BD00BF044E0020EA
:1035300070B5194C236884B05BB304AA402602F826
:10354000056D01255868197800952B4603F0DCFAC3
:1035500008B104B070BD22682B46506811780DF197
:103560000A0203F025FB0028F3D19DF80A302268F7
:103570008DF80C6043F080038DF80A308DF80D3023
:1035800053681178009003AA1846022303F0BCFA8E
:10359000DFE7082004B070BD044E00200E4B1B680E
:1035A00023B130F0070203D007207047082070478E
:1035B00000B585B000F0070041218DF80D008DF8B1
:1035C0000C10197858680092022303AA03F09CFAA1
:1035D00005B05DF804FB00BF044E002070B5274C19
:1035E000236884B0002B40D004AA422102F8051DB4
:1035F000012519780646586800952B4603F084FA91
:1036000008B104B070BD22682B46506811780DF1E6
:103610000A0203F0CDFA0028F3D14EBB9DF80A3020
:1036200003F0EF0322688DF80D3042218DF80A3047
:103630008DF80C10002350681178009303AA022320
:103640000E4C03F061FA0028DBD1226802234421EA
:103650008DF80C108DF80D3054681178009003AA85
:10366000204603F051FA04B070BD082004B070BDCC
:103670009DF80A3043F01003D4E700BF044E002049
:10368000F0B51E4C236885B02BB110F0FC0F05D0AF
:10369000072005B0F0BD082005B0F0BD04AA422700
:1036A00002F8057D012619780546586800963346CC
:1036B00003F02AFA0028ECD12268334650681178CA
:1036C0000DF10A0203F074FA0028E2D19DF80A30E5
:1036D00022688DF80C7023F0030305F003051D43E9
:1036E00053688DF80A508DF80D501178009003AA98
:1036F0001846022303F008FACBE700BF044E00206F
:10370000F0B51F4C236887B08BB168B106AA502171
:1037100002F8091D0546197858680123009303F043
:10372000F3F938B107B0F0BD0E2007B0F0BD0820A6
:1037300007B0F0BD236804AA58681978082303F07D
:1037400037FA0028EED19DF811C09DF810409DF881
:1037500013E09DF812109DF815709DF814209DF847
:1037600017609DF8163044EA0C2441EA0E2142EA23
:10377000072243EA06232C806980AA80EB80D1E7E8
:10378000044E002070B50F4E336884B0BBB104AA5C
:10379000602102F8011D012419780546586800943B
:1037A000234603F0B1F908B104B070BD31682A4670
:1037B00023464868097803F0FBF904B070BD08207F
:1037C00004B070BD044E00200D4B1B6823B130F0D7
:1037D0001D0203D0072070470820704700B585B050
:1037E00060218DF80D008DF80C1019785868009242
:1037F000022303AA03F088F905B05DF804FB00BFBB
:10380000044E002070B50F4E336884B0BBB104AADB
:10381000612102F8011D01241978054658680094B9
:10382000234603F071F908B104B070BD31682A462F
:1038300023464868097803F0BBF904B070BD08203E
:1038400004B070BD044E00200D4B1B6823B130F056
:10385000030203D0072070470820704700B585B0E9
:1038600061218DF80D008DF80C10197858680092C0
:10387000022303AA03F048F905B05DF804FB00BF7A
:10388000044E002000B5184885B0FFF7E1FD40BBAD
:103890000DF10700FFF776FF00BB02A8FFF730FF2E
:1038A000C8B91F2002F068FB0020FFF797FE78B927
:1038B000FFF7E2FD48B90D4B1B781BB10C4B02A87A
:1038C0001B68984705B05DF804FB04F009FBF2E7BC
:1038D00004F006FBECE704F003FBE2E704F000FB76
:1038E000DBE704F0FDFAD3E7084E0020144E002079
:1038F000184E00201F2800D0704708B54FF0A04395
:10390000D3F81005C00F00D008BD0146044A04F0EA
:1039100025FB0028F8D0BDE8084004F0E1BA00BF5C
:103920008538020030B585B000284ED0C368002B22
:103930004BD04268002A48D00268002A45D0584D32
:1039400058496A604268AA60027A2A700B60FFF7E1
:1039500079FD044600284DD12846FFF779FD04463D
:1039600000283AD1FFF7E4FD044600284FD1FFF7C5
:1039700083FD0446002860D12846FFF769FD044610
:1039800000284FD10DF10E00FFF786FD04460028F8
:103990005ED10DF10F00FFF7A1FD0446002862D1B2
:1039A000FFF76AFD044600286FD19DF80E30E02B2A
:1039B00064D006243C4807F0E9FB009402463B49EA
:1039C0000220AB2307F0F2FB04E00320384907F0A4
:1039D000DFFB0E24204605B030BD334807F0D6FB90
:1039E0000094024631490220A22307F0DFFB204663
:1039F00005B030BD2C4807F0C9FB009402462B49A6
:103A000002209F2307F0D2FB204605B030BD264898
:103A100007F0BCFB0094024624490220A52307F0CE
:103A2000C5FBD7E7204807F0B1FB009402461F49C9
:103A30000220582307F0BAFBBCE71B4807F0A6FB9F
:103A40000094024619490220A82307F0AFFBC1E702
:103A5000154807F09BFB00940246144902205B23A3
:103A600007F0A4FBA6E7104807F090FB009402467D
:103A70000E4902205E2307F099FB9BE79DF80F306B
:103A80000B2B96D1FFF7AAFDA4E7074807F07EFBB2
:103A90000094024605490220612307F087FB89E76D
:103AA000084E0020184E0020CCF4020044F502001D
:103AB00094F4020010B51F2084B0012102F0FAF93D
:103AC0002348FFF7C5FC044638BB0120FFF786FDFD
:103AD0000446A8B90DF10F00FFF754FE044648BB99
:103AE000FFF7CAFC0446B0B11A4807F04FFB009438
:103AF000024619490220C42307F058FB20460AE079
:103B0000144807F043FB0094024613490220BE23E9
:103B100007F04CFB204604B010BD0E4807F036FB02
:103B2000009402460C490220BB2307F03FFB2046CD
:103B300004B010BD074807F029FB0094024606496F
:103B40000220C12307F032FB204604B010BD00BFA5
:103B5000084E0020CCF4020044F5020010B5694B79
:103B60001A7884B01AB10024204604B010BD012296
:103B700065481A70FFF76CFC0446002868D10DF107
:103B80000B00FFF73FFE0446002856D19DF80B308E
:103B900003F0FC0318468DF80B30FFF755FE044682
:103BA000002862D11D20FFF70FFE0446002872D1C5
:103BB000FFF7F4FC0446002862D10220FFF760FD05
:103BC0000446002872D1FFF709FD0446002878D189
:103BD000FFF752FC044600287ED102F077F828B99E
:103BE00002F026F80446002840F0818004A903244E
:103BF000002301F8044D1F20444A8DF80D408DF834
:103C00000E308DF80F3002F06BF804460028ABD070
:103C10003F4807F0BBFA009402463E490220842345
:103C200007F0C4FA3A4807F0B1FA0094024639495D
:103C30000220F32307F0BAFA96E7354807F0A6FA10
:103C40000094024633490220DC2307F0AFFA8BE7E9
:103C50002F4807F09BFA009402462E490220D923F0
:103C600007F0A4FA204604B010BD294807F08EFAE8
:103C70000094024627490220E12307F097FA73E7F0
:103C8000234807F083FA0094024622490220E723E2
:103C900007F08CFA68E71E4807F078FA00940246AD
:103CA0001C490220E42307F081FA5DE7184807F079
:103CB0006DFA0094024617490220EA2307F076FACB
:103CC00052E7134807F062FA0094024611490220B5
:103CD000ED2307F06BFA47E70D4807F057FA009419
:103CE00002460C490220F02307F060FA3CE708483E
:103CF00007F04CFA00940246064902207B2307F0A5
:103D000055FA8FE7144E0020084E0020F5380200C7
:103D1000CCF4020044F5020000F046B800283ED082
:103D20001F4B204A1B6800BF00BF00BF00BF00BF81
:103D300000BF00BF00BF93422FD000BF00BF00BF35
:103D400000BF00BF00BF00BF00BF00BF00BF00BF7B
:103D500000BF00BF00BF00BF00BF00BF00BF00BF6B
:103D600000BF00BF00BF00BF00BF00BF00BF00BF5B
:103D700000BF00BF00BF00BF00BF00BF00BF00BF4B
:103D800000BF00BF00BF00BF00BF00BF00BF00BF3B
:103D900000BF00BF00BF00BF00BF0138C3D17047E4
:103DA000604300200024F400614B1B780BB9032012
:103DB0007047F0B55F4D00228FB00646A96868686D
:103DC0001346FCF705FE044610B120460FB0F0BDC7
:103DD000686802F06DFE76B92B7B4FF0A04203F5C8
:103DE000E07342F82360686802F072FE686802F0CF
:103DF0000FFE0020EAE7504B8DF815400EAE4FF055
:103E0000A00E186806F818ED1B7906908DF81C3086
:103E100006A92A2305220DF1210004278DF80C3074
:103E20008DF814700AF05EFB0094686829783246B9
:103E3000062302F069FE04460028C6D1B22305A974
:103E400002220DF121008DF820300AF04BFB68684A
:103E5000297800943246032302F056FE0028B5D19B
:103E60000EAA2623012702F8263D686829780097C4
:103E70003B4602F049FE0028A8D1686829780DF178
:103E800011023B4602F094FE044600289DD13023E7
:103E900003A93A460DF121008DF820300AF022FBEB
:103EA0002978009468683246022302F02DFE00282B
:103EB0008CD12248FFF732FF0EAA312302F8253DAC
:103EC0002978009768683B4602F01EFE00287FF4C0
:103ED0007DAF3B4668682978324602F069FE0028CB
:103EE0007FF474AF44F62060FFF718FF2B7B4FF090
:103EF000A04203F5E0734FF4003142F823100DF1B6
:103F000021001E2304A9012290248DF820308DF871
:103F100010400AF0E7FA00230093297868683246D7
:103F2000022302F0F1FD00287FF450AF5BE700BFF1
:103F30001C4E0020204E002094F50200B0AD010080
:103F4000B8B1F0B5704D01468BB0284610220AF08A
:103F5000C9FA2B7B13B901200BB0F0BD0022134628
:103F60006868A968FCF734FD044620B120460BB010
:103F7000F0BD0E2070470AAE6868242702F098FD55
:103F800006F8187D80230DF10F0101220DF11100BB
:103F90008DF80F300AF0A6FA009468682978324646
:103FA000022302F0B1FD04460028DFD1574B5849E7
:103FB0001A6842F2107300BF00BF00BF00BF00BF0D
:103FC00000BF00BF00BF8A422FD000BF00BF00BFAC
:103FD00000BF00BF00BF00BF00BF00BF00BF00BFE9
:103FE00000BF00BF00BF00BF00BF00BF00BF00BFD9
:103FF00000BF00BF00BF00BF00BF00BF00BF00BFC9
:1040000000BF00BF00BF00BF00BF00BF00BF00BFB8
:1040100000BF00BF00BF00BF00BF00BF00BF00BFA8
:1040200000BF00BF00BF00BF00BF013BC3D12023C2
:104030000DF10D01012208270DF111008DF810304E
:104040008DF80D700AF04EFA6868297800943246AF
:10405000022302F059FD00287FF47EAF0AAA0F2345
:10406000012402F81A3D686829780094234602F07A
:104070004BFD002838D001244FF0310E68682978B4
:1040800000940DF10F0223461F4F8DF80FE002F050
:104090003BFD28B9234678683978324602F088FD1E
:1040A0001E23902403A901220DF111008DF80C406C
:1040B0008DF810300AF016FA00236868297800930A
:1040C0003246022302F020FD0F4D044600287FF403
:1040D0004DAF686802F0FCFC686802F099FC0D4B7B
:1040E000012220461A7037E723466868297832464D
:1040F00002F05EFD0028BED19DF81030332B18BFB2
:1041000002207FF429AFB6E7204E00206043002054
:104110000024F4001C4E00206DDF704772DF7047F2
:1041200079DF70477DDF704764DF7047F0B5048842
:10413000012C83B007D0148804F1020E9E4505D9E6
:104140000C2003B0F0BD072003B0F0BD0578012DB1
:1041500004D1457802352544AB42F1D3023B0F46EA
:104160001C1B02A9A4B2054621F8024D07EB0E0064
:104170001646FFF7D7FF0028E3D12B78022B17D084
:10418000012B11D023460821FE2BD9D83288581C88
:10419000B8543288013292B23280B9543288013236
:1041A000134433800020CCE76B789C42EBD2E9E7E4
:1041B000BDF806309C42E5D30921E5E72DE9F04F33
:1041C00085B083460E9D00882C880194BDF83C90F4
:1041D00000284ED000278A46164698463C4604E002
:1041E000BBF800300134A34226DDDBF8043053F87D
:1041F000240003900DF10B0103A80022FFF794FFA8
:1042000018BB9DF80B30B342EAD10FB32A8893193B
:104210004B4519DC424403A80DF10B010127FFF7C0
:1042200083FF90B92B889DF80B2013442B80BBF89B
:1042300000300134A342D8DCDFB12B88019A013B66
:104240009B1A9BB2FF2B12D90C2005B0BDE8F08F52
:104250002B885A1C334402334B4592B2F4DC2A803B
:1042600008F802A02A88013292B22A80D2E708F820
:104270000230002005B0BDE8F08F00BF2DE9F04707
:1042800000231788138090F82D3086B01446054619
:104290000E46002B40F0C880AA78002A40F0F0803B
:1042A000EA78002A2CD1696899B1DA1CBA420978F7
:1042B00022D80222F254238801339BB20A2223809F
:1042C000F254238801339BB22380F15423880133B5
:1042D00023802B89002B40F0F7802B8A002B40F0A5
:1042E0000C812B8B002B40F021812B6A002B5CD0A2
:1042F0002288911DB94218D90C2006B0BDE8F0877C
:10430000D91CB942F8D80221F154238801339BB259
:1043100001212380F15423880B449BB22380F25463
:1043200023880B449BB22380BDE71988052940F2FE
:10433000C9806FF4486801EB080080B24FF27D3EFF
:10434000704540F2BF805888052840F2BB806FF46A
:10435000486C84441FFA8CFCF44540F2B3804FF65D
:10436000FF7E714504D0704502D0814200F2AA80E0
:104370000521B1542288013292B212212280B15417
:104380002288013292B222801988B1543244090A3B
:1043900051702288023292B222805B88B354324438
:1043A0001B0A53702388023323806B6A002B2BD0A7
:1043B000998820880A1D0244BA429DD88A1CFE2A88
:1043C0009AD8033131542288013292B2FF212280DF
:1043D000B1542288013292B222801988B1543244F9
:1043E000090A51702088023080B220809A885AB120
:1043F00099680393002965D030440AF073F8039B51
:1044000022889B881344238095F82C30002B40F0A1
:10441000A680287800283FF470AF2846314622460F
:104420003B46FFF783FE68E7082F7FF665AF04A8D9
:10443000FFF772FE00287FF460AF23880822F25451
:10444000238801339BB21B222380F2542088013041
:1044500080B22080062230440DF111010AF042F8AA
:1044600023889DF8102006339BB212F0FE0218BF7D
:1044700001222380F254238801339BB223800BE76F
:104480000433BB423FF638AF04A8FFF749FE0028CB
:104490007FF433AF2388BDF810200321F154238823
:1044A00001339BB219212380F154238801339BB23D
:1044B000F1182380100AF2544870238802339BB20B
:1044C0002380EDE6072018E705F1080802218DE8B2
:1044D000900040460A463346FFF770FE00287FF4FE
:1044E0000CAF8DE890004046062110223346FFF7BE
:1044F00065FE00287FF401AFEFE605F110088DE8B6
:1045000090004046032102223346FFF757FE002861
:104510007FF4F3AE8DE89000404607211022334629
:10452000FFF74CFE00287FF4E8AEDAE605F1180844
:104530008DE890004046142102223346FFF73EFEEC
:1045400000287FF4DAAE8DE8900040461521102255
:104550003346FFF733FE00287FF4CFAEC5E6D5F82B
:104560002880B8F1000FADD0B8F804200232FE2A3E
:104570003FF6C2AE23884FF000094FF0160A013211
:10458000F254238801339BB2238006F803A02388CA
:1045900001339BB22380B8F80020F2543344120A4E
:1045A0005A70238802339BB22380B8F80410F018A5
:1045B0000A4661B1D8F808301946002B82D009F0BC
:1045C00091FFB8F80430228813449BB2238009F18C
:1045D000010995F82C205FFA89F94A4509EB490849
:1045E0007FF617AFAA6A02EB8808B8F804200232F7
:1045F000FE2AC4D980E600BF2DE9F04794B01F23FE
:104600000D46ADF80E30044600285AD0C278530744
:1046100053D590F82D300021ADF80C10002B6BD144
:104620008378002B40F0AB801846032114AE5F1C4A
:104630000233304416FA87F716FA83F64FF0020E6B
:104640008BB2012100F840ECADF80C3007F8401CAB
:1046500006F8402C6268B2B1D91C1F29167828D8F8
:1046600014AF581C9A1C17FA80F03B4417FA82F2D8
:104670004FF0020E0A2703F840ECADF80C1000F8DA
:10468000407C02F8406C2389002B40F08581238A0E
:10469000002B40F09F81238B002B40F0B981236ACF
:1046A000002B00F0D880BDF80C20911D1F2940F28E
:1046B0008F800C2014B0BDE8F087072014B0BDE84F
:1046C000F087ADF80C00002D00F00481EB78002B92
:1046D000F3D128460CA90DF10E02FFF7CFFD0028FB
:1046E000ECD19DF80E300CAA20469DF80C10FFF777
:1046F00015FD14B0BDE8F0870CAF3846FFF70CFD90
:104700000028DBD1BDF80C3014AA03F1010C12FA19
:104710008CFC03F1020E13441FFA8EFE04AE4FF020
:1047200008094FF01B0803F8409C0DF131010622E7
:1047300006EB0E000CF8408CADF80CE009F0D2FE50
:10474000BDF80C209DF83010931D11F0FE019BB2B6
:1047500040F07C8114A8034403F8401CD31DA278C8
:104760009BB2ADF80C30002A40F01181E278002AAB
:104770003FF470AFD91C1F2918469AD856E70CAFE2
:104780003846FFF7CDFC002898D1BDF80C30BDF8B5
:104790003070E278991C0DF1500E581C89B204AEAD
:1047A0000EEB03091EFA80F0043306EB010E4FF006
:1047B000030A4FF019089BB24FEA172C09F840ACD6
:1047C000ADF80C3000F8408C77548EF801C0CEE77D
:1047D000188805287FF671AF6FF4486C00EB0C0663
:1047E000B6B24FF27D37BE427FF667AF5E88052EC8
:1047F0007FF663AF6FF4486EB6441FFA8EFEBE4577
:104800007FF65BAF4FF6FF77B84204D0BE4202D0CE
:10481000B0423FF652AF14A8561C10FA86F600EBD1
:10482000020E901C80B212274FF0050C0EF840CCFF
:10483000ADF80C0006F8407C1F88ADF80C1004AEF3
:104840003118375404323F0A4F7092B25B88B35428
:1048500032441B0A5370676A9FB3B888BDF80C30A6
:10486000811C9A1C56181F2E3FF623AFFE293FF6D7
:1048700020AF14AE591C06EB030E16FA81F192B26A
:104880000330FF260EF8400CADF80C2001F8406C08
:10489000398804AEB018B154090A41700433BA889B
:1048A00098B2ADF80C0062B1B96800293FF405AFC9
:1048B000304409F017FEBDF80C30BA881344ADF847
:1048C0000C3094F82C3053B904AE2378002B53D11C
:1048D0003446F8E62B46ADF80E502A4604E7A76AA0
:1048E000002F3FF4EAAEB9880231FE293FF6E1AE6F
:1048F0009E46BDF80C304FF0000804AE4FF016098C
:1049000014AA581C02EB030C12FA80F09A1C92B203
:1049100001310CF8401CADF80C2000F8409C39889F
:10492000B1543244090A51700433B9889BB20A4623
:10493000F018ADF80C3079B1BB681946002B3FF484
:10494000BCAE09F0CFFDBDF80C30BA8894F82CE06D
:1049500013449BB2ADF80C3008F101085FFA88F8F7
:10496000F04508EB4802B0D2A76A07EB8207B98886
:104970000231FE29C4D99CE62046314603AA1F23F2
:10498000FFF7D4FB00287FF499AE34469BE604334E
:104990001F2B3FF68EAEF3E603AA04F1080704AE20
:1049A0004FF01F0802218DE80401384633460A46BD
:1049B000FFF704FC00287FF481AE03AB8DE808010B
:1049C0003846334606211022FFF7F8FB00287FF413
:1049D00075AE5CE603AA04F1100704AE4FF01F08A1
:1049E0008DE804013846334603210222FFF7E6FB37
:1049F00000287FF463AE03AB8DE8080138463346E8
:104A000007211022FFF7DAFB00287FF457AE42E6B9
:104A100003AA04F1180704AE4FF01F088DE8040143
:104A20003846334614210222FFF7C8FB00287FF4E2
:104A300045AE03AB8DE808013846334615211022F8
:104A4000FFF7BCFB00287FF439AE28E614A90B441D
:104A5000012103F8401C81E673DF7047F0B5854DF6
:104A600085B00646002184480722FAF76BFC6B7874
:104A7000FBB9AB78814F002B61D17F4C6378002B61
:104A800063D1A378002B60D1E378002B5DD123792B
:104A9000002B5AD16379002B57D1A379003318BF6B
:104AA0000123701E032800F2E180DFE800F0163BCE
:104AB0001B43724F3B78012B04D0AA78002ADCD02C
:104AC000022BDAD16E4B6F4A1B68002B00F0C580B9
