:020000022000DC
:1060000000000120BD620200E5620200E7620200BA
:10601000E9620200EB620200ED6202000000000093
:10602000000000000000000000000000EF6202001D
:10603000F162020000000000F3620200F56202005B
:1060400085910200F762020099960200F762020051
:10605000F7620200F762020055920200F762020046
:10606000F7620200F7620200F7620200F7620200C4
:10607000F7620200F7620200F7620200F7620200B4
:10608000F7620200A97B0200F7620200F7620200D9
:10609000F7620200F762020051CB0200F7620200D1
:1060A000F7620200F7620200F7620200F762020084
:1060B000F7620200F762020000000000000000002A
:1060C000F7620200F7620200F7620200F762020064
:1060D000F7620200F7620200F762020000000000AF
:1060E00000000000000000000000000000000000B0
:1060F00000000000000000000000000000000000A0
:10610000000000000000000000000000000000008F
:10611000000000000000000000000000000000007F
:10612000000000000000000000000000000000006F
:10613000000000000000000000000000000000005F
:10614000000000000000000000000000000000004F
:10615000000000000000000000000000000000003F
:10616000000000000000000000000000000000002F
:10617000000000000000000000000000000000001F
:10618000000000000000000000000000000000000F
:1061900000000000000000000000000000000000FF
:1061A00000000000000000000000000000000000EF
:1061B00000000000000000000000000000000000DF
:1061C00000000000000000000000000000000000CF
:1061D00000000000000000000000000000000000BF
:1061E00000000000000000000000000000000000AF
:1061F000000000000000000000000000000000009F
:1062000010B5054C237833B9044B13B10448AFF3F0
:1062100000800123237010BDD07200200000000018
:1062200080E3020008B5034B1BB103490348AFF3F9
:10623000008008BD00000000D472002080E302004E
:10624000A3F5803A704700BF174B002B08BF134BD4
:106250009D46FFF7F5FF00218B460F461348144A71
:10626000121A06F09DFF0E4B002B00D098470D4BE5
:10627000002B00D098470020002104000D000D489D
:10628000002802D00C48AFF3008006F049FF200040
:10629000290004F0BDF906F02FFF00BF0000080040
:1062A000000000000000000000000120D07200206B
:1062B0004488002000000000000000000649074A52
:1062C000074B9B1A03DD043BC858D050FBDC02F09F
:1062D0003BFCFFF7B9FF000040E5020098430020B7
:1062E000D0720020FEE7FEE7FEE7FEE7FEE7FEE7EE
:1062F000FEE7FEE7FEE7FEE7704700BF00B583B0AC
:10630000044B0093044A402300F036F803B05DF8D4
:1063100004FB00BF1D630200F072002002B32DE9F0
:10632000F843114B114E8846144643F001090327E8
:106330000025224608EB0501002004F073FA03460D
:106340001D444FF47A40E41A23B9337833B1C84777
:10635000013F06D001233370002CEAD1BDE8F88359
:1063600070473770BDE8F88300D20200EC7200205D
:10637000704700BF04F034BBF0B595B000241D4653
:106380000E460846174602F0A5F930462346082275
:10639000099505A91A9D08970D950A948DF82C402A
:1063A0000C9402F0FBF99DF814308DF81140DDE9F2
:1063B000061003F00302012ACDE9020128D0022AC7
:1063C00004D0304602F08AF915B0F0BDBDF8165081
:1063D000C3F3C2038DF81030C5F389150827082DC3
:1063E0002C4628BF08243B4622460EA9304602F020
:1063F000D5F92D1B214608AB02AA0EA8274400F0B0
:10640000E7FE002DEBD1304602F068F915B0F0BD83
:10641000BDF81470059DC7F38312C3F3C2040EA91F
:106420003046920008238DF81040C7F3831702F01E
:10643000B5F9C5F3952508AB3A4628460EA9009351
:1064400002AB00F04DFE304602F048F915B0F0BD49
:1064500008B5FFF78FFF0448042100F0BFFD034B90
:1064600001225A7108BD00BF28E5020098430020B0
:10647000064B074810B500221A7002F0C1F8044616
:1064800010B9044802F0E8FA204610BD007400205C
:10649000D4E402003CD2020099B10E4B0E495B1AC3
:1064A000DB0815D030B400220C4D02E001329342DB
:1064B0000BD035F822408442F8D151F8320030BC7C
:1064C0007047054951F830007047002030BC7047D4
:1064D00018467047D4E402003CE40200CC7200206D
:1064E000094B013903EBC00003290BD8DFE801F0A9
:1064F0000402080604207047022070474079704764
:1065000000797047002070473CE402002DE9F04319
:106510008C4CD4E901239A4285B060D00023C4F8A2
:106520001834BFF34F8FA568EAB2D31C04EB830184
:1065300014F82330580718D566680B7803F0030366
:10654000012B42D0022B03D14B88023505EB93156A
:10655000EAB2D4F81804D31C04EB830128B9AE4284
:1065600039D914F823305B07E7D404EB82026B1CA3
:10657000D2680192DBB204EB830302F00302DB6812
:106580000293022A05F102062DD0012A00F08D8027
:10659000D4F810543DB12B6828469B689847EB68A7
:1065A0001D68002DF7D16848684B6949C01AC008BA
:1065B000000440F0020000F0D1F8D4E90130C01A24
:1065C00018BF012005B0BDE8F0830B880235C3F386
:1065D00083131D44BCE7A66005B0BDE8F08300202E
:1065E00005B0BDE8F083BDF806305A48C3F38918FA
:1065F0004546502D28BF502565F38F1305F108013E
:10660000ADF8063001F0FEFF07460028C0D002F0CA
:1066100061F8002301A90822384602F08BF8F34301
:10662000DBB20133B5EB830F4FEA8309F1B277D9BF
:10663000A5EB0905033104EB810108234A463846DE
:10664000EDB202F077F844492A4609F108033846CA
:1066500002F070F808F1030806EB9806D4F8183435
:10666000002B6AD1D4F8105465B1EB685A792846EA
:106670003946002A5DD02B681B689847EB681D6877
:10668000002DF2D1384602F029F800230DF1030065
:106690008DF8033001F0F4F8D4F8183403B9A6608B
:1066A0009DF8030001F012F987E7BDF8043029488E
:1066B000C3F38312062A28BF0622911C62F38913B2
:1066C0008900ADF8043001F09DFF074600283FF433
:1066D0005FAF01F0FFFF0023082201A9384602F056
:1066E00029F8BDF8043013F4707FB7D06FF00108BB
:1066F000A8EB05080825F1B203312B46042204EB70
:106700008101384602F016F8BDF80420013608EB86
:106710000603C2F383129A4205F10405EBD89DE704
:1067200003312A4604EB81010823384602F002F8BF
:1067300090E71D68002D98D1A4E7384601F0CEFF00
:106740003BE700BF0074002064E402003CE4020068
:1067500024D20200D4E402000C7400202DE9F04F92
:106760005E4C87B0002306460DF10B008DF80B3010
:106770000F4601F085F8D4E9015303F580735B1BE4
:10678000012B7DD804F21C4804F5836A04F21449F5
:106790001AE0BDF80E30C3F389130333090C0BEB79
:1067A000930B4846019101F013FB0199002839D061
:1067B0004046C4F808B001F0DFFAD4E9013202F52E
:1067C0008072D21A012A5CD80121404601F0D4FA25
:1067D000504601F0EDFA484601F0EAFAA368DAB251
:1067E000D11C04EB810014F8211001F0040C4907BE
:1067F00028D404EB8202591CD2680392C9B204EB7C
:10680000810102F00302012AC96803F1020B30D0B2
:10681000022ABED000214846019101F0D9FA01991F
:106820000028C5D14046C6E743880EEB9313DAB281
:10683000D11C04EB810014F8211001F0040CBCF110
:10684000000FD6D0017801F0030101290BD00229F5
:1068500003F1020E02F10301E6D004EB8100BCF16A
:10686000000FEFD1C5E702880233C2F3831213444D
:10687000DDE7BDF80C30C3F38313090C9B4490E7AC
:106880002B46DAB20332023305219DF80B0044F89F
:106890002210636001F01AF80021114801F042FA59
:1068A00080F31000F1006B1C01F03801DBB2EDB297
:1068B00004EB830341F001010004033540EA16466E
:1068C00041EA8727DE6044F8257023781BB1FFF783
:1068D0001DFE0028FBD107B0BDE8F08F007400203A
:1068E0001C7800202DE9F04F634C87B0002306464A
:1068F0000DF10B008DF80B300F46904600F0C0FFF5
:10690000D4E9015303F580735B1B022B7FD804F29B
:106910001C4904F5836B04F2144A1BE0BDF80E20F9
:10692000C2F389120332090C03EB92035046CDE9FE
:10693000003101F04DFA019900283AD0009BA36084
:10694000484601F019FAD4E9013202F58072D21AF0
:10695000022A5DD80121484601F00EFA584601F09E
:1069600027FA504601F024FAA368DAB2D11C04EBEE
:10697000810014F8211001F0040C490729D404EB1C
:106980008202591CD2680392C9B204EB810102F061
:106990000302012AC96803F1020331D0022ABDD0E3
:1069A00000215046CDE9003101F012FA019900288A
:1069B000C4D14846C5E743880EEB9313DAB2D11C25
:1069C00004EB810014F8211001F0040CBCF1000F5D
:1069D000D5D0017801F0030101290BD0022903F180
:1069E000020E02F10301E6D004EB8100BCF1000FBE
:1069F000EFD1C4E702880233C2F383121344DDE708
:106A0000BDF80C20C2F38312090C13448EE72B4609
:106A1000DAB20332033345219DF80B0044F822100B
:106A2000636000F053FFAB1CDBB204EB8303002177
:106A30001248C3F80C8001F075F980F31000F100E2
:106A40006B1C01F03801DBB2EDB204EB830341F0C3
:106A500041010004033540EA164641EA8727DE601B
:106A600044F8257023781BB1FFF750FD0028FBD1B7
:106A700007B0BDE8F08F00BF007400201C78002034
:106A80002DE9F04F684C89B0002506460DF1130042
:106A90001F468DF813508846039200F0F1FED4E9AA
:106AA000015303F580735B1B032B00F2828004F219
:106AB0001C4904F5836B04F2144A1BE0BDF8162050
:106AC000C2F389120332090C03EB92035046CDE95D
:106AD000013101F07DF9029900283BD0019BA360B0
:106AE000484601F049F9D4E9013202F58072D21A20
:106AF000032A5FD80121484601F03EF9584601F0CB
:106B000057F9504601F054F9A368DAB2D11C04EBEE
:106B1000810014F821C01CF0040F0CF0040128D1EE
:106B200004EB8202591CD2680592C9B204EB8101C0
:106B300002F00302012AC96803F1020332D0022ADB
:106B4000BCD000215046CDE9013101F041F9029954
:106B50000028C3D14846C4E743880EEB9313DAB24A
:106B6000D11C04EB810014F8211001F0040100296C
:106B7000D6D090F800C00CF0030CBCF1010F0BD084
:106B8000BCF1020F03F1020E02F1030CE4D004EB9E
:106B90008C000029EDD1C3E702880233C2F38312CF
:106BA0001344DCE7BDF81420C2F38312090C13442C
:106BB0008CE72B46DAB20332043385219DF81300AB
:106BC00044F82210636000F081FEAA1CEB1CDBB2CB
:106BD000D2B204EB830C04EB8202039B1348D36014
:106BE0000021CCF80C7001F09DF880F31000F1004A
:106BF0006B1C01F03801DBB2EDB204EB830341F012
:106C000081010004033540EA164641EA8821DE602E
:106C100044F8251023781BB1FFF778FC0028FBD13E
:106C200009B0BDE8F08F00BF007400201C78002080
:106C30002DE9F04F6B4C89B0002506460DF113008D
:106C40001F468DF813508846039200F019FED4E9D0
:106C5000015303F580735B1B042B00F2828004F266
:106C60001C4904F5836B04F2144A1BE0BDF816209E
:106C7000C2F389120332090C03EB92035046CDE9AB
:106C8000013101F0A5F8029900283BD0019BA360D7
:106C9000484601F071F8D4E9013202F58072D21A47
:106CA000042A5FD80121484601F066F8584601F0F1
:106CB0007FF8504601F07CF8A368DAB2D11C04EBEF
:106CC000810014F821C01CF0040F0CF0040128D13D
:106CD00004EB8202591CD2680592C9B204EB81010F
:106CE00002F00302012AC96803F1020332D0022A2A
:106CF000BCD000215046CDE9013101F069F802997C
:106D00000028C3D14846C4E743880EEB9313DAB298
:106D1000D11C04EB810014F8211001F004010029BA
:106D2000D6D090F800C00CF0030CBCF1010F0BD0D2
:106D3000BCF1020F03F1020E02F1030CE4D004EBEC
:106D40008C000029EDD1C3E702880233C2F383121D
:106D50001344DCE7BDF81420C2F38312090C13447A
:106D60008CE72B46DAB203320533C5219DF81300B8
:106D700044F82210636000F0A9FDA81CEA1C2B1D3A
:106D8000C0B2DBB204EB8000D2B204EB830C04EBA4
:106D90008202039BC3600021129B1348D760CCF88A
:106DA0000C3000F0BFFF80F31000F1006B1C01F00D
:106DB0003801DBB2EDB204EB830341F0C101000402
:106DC000033540EA164641EA8821DE6044F8251082
:106DD00023781BB1FFF79AFB0028FBD109B0BDE86F
:106DE000F08F00BF007400201C7800202DE9F04FC8
:106DF0008FB01E46CDE90926764C189D0B95174697
:106E0000199A0C9200231A9A8DF8173080460DF1CA
:106E1000170003910D9200F033FDD4E9015303F5FF
:106E200080735B1B062B00F2828004F21C4904F580
:106E3000836B04F2144A1BE0BDF81A20C2F38912D6
:106E40000332090C03EB92035046CDE9013100F007
:106E5000BFFF029900283BD0019BA360484600F089
:106E60008BFFD4E9013202F58072D21A062A5FD86C
:106E70000121484600F080FF584600F099FF504637
:106E800000F096FFA368DAB2D11C04EB810014F87D
:106E900021C01CF0040F0CF0040128D104EB820285
:106EA000591CD2680692C9B204EB810102F00302B8
:106EB000012AC96803F1020332D0022ABCD00021A2
:106EC0005046CDE9013100F083FF02990028C3D17B
:106ED0004846C4E743880EEB9313DAB2D11C04EBA7
:106EE000810014F8211001F004010029D6D090F897
:106EF00000C00CF0030CBCF1010F0BD0BCF1020F71
:106F000003F1020E02F1030CE4D004EB8C00002923
:106F1000EDD1C3E702880233C2F383121344DCE7E6
:106F2000BDF81820C2F38312090C13448CE72B46DA
:106F3000DAB20332073340F245119DF8170044F8E6
:106F40002210636000F0C2FCA91CE81C05F1040CCF
:106F5000C9B2C0B26A1D04EB810104EB80005FFA84
:106F60008CFCAB1D04EB8C0CD2B2CF6004EB820224
:106F7000C660DBB2189ECCF80C6004EB8303199E4C
:106F8000D66000211A9A1448DA6000F0CBFE80F334
:106F900010004FEAC8016B1C01F03801039A41F45C
:106FA000A071DBB2EDB204EB830341F001010004F8
:106FB000033540EA184041EA8221D86044F82510A0
:106FC00023781BB1FFF7A2FA0028FBD10FB0BDE870
:106FD000F08F00BF007400201C78002030B4154DE5
:106FE000D5F810140446002071B10B4601E01B686F
:106FF00053B1DB681A798242F9D101300A28F3D102
:107000004FF0FF3030BC7047E3681871D5F810348A
:107010004BB1DA68E36812681A60D5F81034DB689F
:107020001C6030BC7047C5F81044E268136030BC87
:10703000704700BF0074002038B5084BD3F81044E7
:1070400001251D704CB1E3685D71236820465B68C3
:107050009847E3681C68002CF5D138BD0074002007
:1070600030B5C38885B004460D461BBB217A05297F
:107070001ED0627A82B9134AA08852F82120039266
:107080000021FFF709FA039A0F490346284605B085
:10709000BDE8304000F018BFA088FFF721FA0B4B85
:1070A0000B4953F82020284600F00EFF217AE2E732
:1070B00005B030BD074A00920749084A284600F04B
:1070C00003FFD3E714D3020074D20200F0D202000F
:1070D00070D2020068D2020050D2020048D20200F0
:1070E0002DE9F04385B04FF0000C0C9C814694F8DC
:1070F0000C8084F80CC00E461746184621461D46E3
:10710000FFF7AEFF062F09D8DFE807F0042E343B67
:10711000444F1F004946204600F0D6FE2B7A052B2F
:1071200005D06B7A5BB92749204600F0CDFE20469A
:1071300000F0BEFE84F80C8005B0BDE8F083224A62
:107140002249204600F0C0FEEDE7D6E90413F268BC
:107150000393B3680291CDE900324946D6E9002392
:10716000204600F0B1FED9E732684946204600F0DB
:10717000ABFED3E7D6E900234946204600F0A4FE43
:10718000CCE7B3680093D6E900234946204600F0D7
:107190009BFEC3E7D6E9023201920093D6E90023B1
:1071A0004946204600F090FEB8E7D6E90321B368CF
:1071B0000291CDE900324946D6E90023204600F08D
:1071C00083FEABE780D2020068D2020070D20200D8
:1071D000082900D970472DE9F04F9B4683B0002461
:1071E0001B7B8BF80C400D460646594610469046D0
:1071F0000193DFF8D0902C4FFFF732FF05E0325DAE
:10720000013400F061FE082C09D0A54239465846E9
:10721000F5D84946013400F057FE082CF5D1234932
:10722000DFF8A490224C234F584600F04DFE4FF05B
:10723000000A0DE0D15D11F0970F08BF2E22214604
:1072400058460AF1010A00F03FFEBAF1080F10D0CB
:10725000554505D916F80A207E2AEBD92E22EEE7ED
:10726000494658460AF1010A00F02EFEBAF1080F0D
:10727000EED198F80830052B02D098F8093063B9A0
:107280000D49584600F020FE584600F011FE019BC3
:107290008BF80C3003B0BDE8F08F084A0849584617
:1072A00000F012FEECE700BF84D2020090D2020090
:1072B00094D2020079E2020080D2020068D2020079
:1072C00070D202008CD202007CD2020070B5124D46
:1072D0002B7882B053B1114E0024336813F8340078
:1072E00001F086FF2B780134A342F6D800230DF17C
:1072F00007008DF8073000F0C3FA094B9DF807002E
:1073000000240025C3E9004500F0E0FA054800F03C
:1073100095FA02B070BD00BFB8780020E878002070
:10732000E0780020C078002030B482B001248DF8CD
:107330000740144B9DF80750186044F20104A04226
:1073400059609A6013D044F20201884206D1DA6093
:10735000DA6812689A61DA685268DA6172B69DF882
:107360000730002BFBD162B602B030BC70471A6107
:107370001A6992685A611A6912689A611A695268A0
:10738000DA61EBE7EC78002000B583B00290009161
:10739000019244F2010071466A4600F003F803B01E
:1073A00000BD00BFF0B5044687B00E46154672B664
:1073B000FFF742FEFFF7AAF80028FBD144F20103D1
:1073C0009C423ED010D8012C37D041F201039C42A0
:1073D00027D12A482A4B2B49C01AC008000440F084
:1073E0000100FFF7BBF90FE044F202039C4218D101
:1073F0002248234F2449C01BC0080004D5E90032AD
:1074000040F00100FFF73CFB204B1B68DB0700D579
:1074100000BE2A463146204607B0BDE8F040FFF7DF
:1074200083BF174B15481A49C01AC008000440F022
:1074300001003246FFF756FAE6E71048104B1549AF
:10744000CAE7AA680E4B0D4F05921046FF1A01F0CD
:1074500053FB2968059ACDE90116FF083F046968C6
:10746000009147F0010703460B493846FFF7BEFC81
:107470000A493846FFF772F9C6E700BF64E4020024
:107480003CE4020054D3020078D30200F0ED00E0A7
:10749000D0D3020034D3020094D30200BCD3020044
:1074A000D0E90223D1E90201994208BF90422CBFE2
:1074B00001200020704700BF2DE9F04F2DED028B19
:1074C00085B0064600F02EFB40B1B54AD2E9003146
:1074D00013F1807341F10001C2E90031002130460F
:1074E00000F03CFBAF4C60B1236853B1AE4B256854
:1074F0001B7823B11DB12B7F002B40F01C81002392
:1075000023600121304600F029FB002840F0F6807E
:10751000A64803A900F0A8FB78B3A54DDFF8888240
:10752000A24F0BE0002B00F0CD8003A9384600F0FD
:10753000CBFB03A9384600F097FBF0B10378012B91
:1075400012D0022BEED128464FF0000901F0BCFA10
:1075500030B180F81C90284601F0B6FA0028F8D126
:10756000012388F80030E0E741682368994200F081
:10757000BA80284601F0B2FAD7E7DFF834828D4F9F
:10758000DFF81C9208EE106A37E0404601F09CFAE2
:1075900005463846AB68EA680193009200F0EEFABF
:1075A000854E8446D9E90001D6E9002310EB0C0092
:1075B00041F10001994208BF9042DDE9002303D266
:1075C00010F1807041F10001B3EB000A62EB010B96
:1075D000BAF1010F7BF1000329DBBAF5350F6BD24D
:1075E000AA684FF496030021384600F015FA0028E7
:1075F0005AD00D281FD000232360404601F06AFABC
:10760000002873D02368002BBFD02368D0E9020183
:10761000D3E90223994208BF904248D223681B7FD6
:10762000002BB2D02168404601F03AFAADE70021C4
:10763000384600F087FA5C4B1B78002BDBD02B7FA1
:10764000002BD8D0384600F099FA8446D9E90001D9
:10765000D6E9002310EB0C0041F10001994208BF6C
:10766000904203D210F1807041F10001D5E902236C
:10767000994208BF904259D32B6903B92B77D5E9BA
:107680000530984729690029B5D02B7F002BB2D04F
:10769000D5E90223521843F10003C5E90223294624
:1076A000404601F0FDF9A6E72368BBB1256005B0AF
:1076B000BDEC028BBDE8F08F384600F05FFA3F4A20
:1076C00002448EE743681A7F002A7FF42EAF01221E
:1076D0001A774168284601F0E3F926E718EE100A08
:1076E00000F06CF9E2E7002323601EE72368002B1B
:1076F000DDD118EE100A00F065F9D8E72D482E4DBF
:1077000000F03CFA264BD3E90089D5E9002318EBB9
:10771000000849F10009994508BF904503D218F1C6
:10772000807849F10009C5E90089F1E6294640461B
:1077300001F0B6F95FE71F4800F020FA184A1E4B27
:10774000D2E90089D3E9002318EB000849F10009C8
:10775000994508BF904503D218F1807849F1000996
:10776000D5E90223994508BF904529D32B6903B970
:107770002B77D5E905309847296900293FF4BFAE3A
:107780002B7F002B3FF4BBAED5E90223521843F107
:107790000003C5E902230648294601F081F9AEE657
:1077A0001079002090790020187900207479002049
:1077B000F8D30200A043002088790020FFFFB40026
:1077C0000248294601F06CF999E600BFF8D302009F
:1077D00010B5134B13491B68134882B0582201930C
:1077E000082300F0EBF9044610B1204602B010BDAA
:1077F0000E4A0F4801A900F081F804460028F4D190
:107800000B48012100F084F901231946094A084870
:1078100000F0DCF8084B012220461A7002B010BDBF
:10782000F4D302001C79002074790020B97402009E
:10783000A0430020FFFF7F001879002030B500250D
:1078400083B00446057701A90B4800F0CFF978B161
:1078500001224460027001A9074800F0F5F908B957
:1078600003B030BD054800F08DF9284603B030BDA7
:10787000042003B030BD00BF74790020A043002075
:1078800070B4EFF3108472B60D4B9A68AAB90D4923
:107890000D4E01259D60D1F8805035401D60C1F826
:1078A0008060D1F884505D604FF0FF33C1F88430C0
:1078B000027004B962B670BC704701230370F8E728
:1078C000B887002000E100E0FC06FFBD094B9A6884
:1078D0007AB170B910B4EFF3108172B6064A1C6821
:1078E00014605C685460986001B962B65DF8044B3E
:1078F00070477047B887002000E100E070B5274C62
:107900004379274E04EBC30546F823202D79002D3B
:1079100037D103680A88C3F8082590F904308A78BB
:10792000002B26DB03F1604303F561435201D2B221
:1079300083F8002390F90430002B07DB194903F08A
:107940001F0501225B09AA4041F823204279164B0A
:10795000164D44F83200581B04EBC204C008012342
:1079600000041349237140F00300FEF7F7FE0020E6
:1079700070BD104903F00F0352011944D2B20A76C8
:10798000D8E70A4B08480C49C01AC008000440F068
:107990000200FEF7E3FE082070BD00BF94790020CE
:1079A0009C79002000E100E074E402003CE4020065
:1079B00028D40200FCEC00E004D402000368012299
:1079C0001A607047036801225A607047F0B4046877
:1079D0004FF480358D40C4F80853066801F1500417
:1079E000C6F84853A4000668A4B20027375182B0F5
:1079F00036590468019601F5A87122F07F42019E74
:107A000044F821200268C2F8445313B10368C3F854
:107A1000045302B0F0BC70472DE9F04704464FF420
:107A2000803600688E40C0F848632068C0F808635C
:107A3000206800EB81058A46D0F80415D5F840058A
:107A4000C5F840150AF15005AD002768ADB24FF0FA
:107A5000000847F8058082B0401A7F59009720F04F
:107A60007F40012822F07F479946009A41D0226842
:107A7000D2F80455C2F844637A1B22F07F42012AEF
:107A80000AF5A87125D0226842F821702068D0F844
:107A900004557A1BC9F1FF13013A03F57F4322F025
:107AA0007F42934211D342B1C0F84463236800205F
:107AB000C3F8046302B0BDE8F087013740F82170D5
:107AC0002068D0F804359D42EED00D2002B0BDE80C
:107AD000F08720680D4B013740F8217043F0010317
:107AE0004FF4806098472068D0F804359D42DBD081
:107AF000EBE7064A4FF4806042F0010290472268AB
:107B000042F8058052590192019AB0E740D4020030
:107B100002680223C2F8443311B10268C2F8043388
:107B2000704700BF0368D3F8040100B97047002212
:107B300082B0C3F80421D3F804310193019B0120E2
:107B400002B0704702684FF4803303FA01F1C2F8C3
:107B500048130368C3F80813704700BF5031890009
:107B6000036889B2585800B9704700225A5082B051
:107B70005B580193019B012002B070470368D3F862
:107B80000405704790F90430002B09DB5A090548B9
:107B9000403203F01F03012101FA03F340F82230C1
:107BA000704700BF00E100E0024A034B10681B6809
:107BB000184700BF947900209C79002099B110B437
:107BC000B2FBF3F403FB1424A4B244B9C0E90014DB
:107BD00084608281C38120465DF8044B7047092090
:107BE0005DF8044B70470E20704700BF30B482B080
:107BF00050E8013F9DB2C48925448489A54228BF2D
:107C00002D1B0489A54202BFBFF32F8F002207E07E
:107C1000C5EA030540E80154002CE9D14FF0010208
:107C20008DF803200193019B9DF803200B602AB17E
:107C30000B880068184402B030BC704702F0FF03A4
:107C4000184602B030BC70470A884B889A4201D06F
:107C50000020704750E8012FC2EA024240E80123A9
:107C6000002BF7D10120704730B482B050E8023FBA
:107C70001FFAA3F5C488A54202BFBFF32F8F0022CD
:107C80000DE0C48925448489A54228BF2D1BC3EA81
:107C9000054540E80254002CE8D14FF001028DF870
:107CA00003200193019B9DF803200B602AB14B88B0
:107CB0000068184402B030BC704702F0FF03184659
:107CC00002B030BC704700BF0A884B889A4201D08E
:107CD0000020704750E8022FC2EA224240E8022307
:107CE000002BF7D1012070474A09012301F01F0141
:107CF00000EB820003FA01F100F022B801F01F024C
:107D000001234909934000EB8100D94300F026B8D4
:107D10004B0901F01F0150F82300C84000F001009A
:107D2000704700BF10B4034653E8000F0A4643E80B
:107D3000002494F0000FF7D15DF8044B704700BFAA
:107D400010B4034653E8002F42EA010043E8000460
:107D500094F0000FF6D15DF8044B704710B4034661
:107D600053E8002F02EA010043E8000494F0000FFA
:107D7000F6D15DF8044B704710B4034653E8002F6A
:107D800002EB010043E8000494F0000FF6D15DF827
:107D9000044B704710B4034653E8002FA2EB0100D8
:107DA00043E8000494F0000FF6D15DF8044B7047EF
:107DB00010B40346012253E8001F41EA020043E8E1
:107DC000000494F0000FF6D15DF8044B704700BF3B
:107DD00010B40346002253E8000F00EA020143E812
:107DE000001494F0000FF6D15DF8044B704700BF0B
:107DF000B8B130B4D0E90112521A0468D2B2531E9D
:107E00002160DBB242B101680A685C1E551C0D603E
:107E10001370E3B2FF2BF6D103680020187130BC59
:107E200070470E20704700BFF0B583B004460025B0
:107E30000DF107008DF80750FFF722FDD4E900315E
:107E40001A688A4210D9511E19602168A3680F6808
:107E500012F8015C0A79268AE068DB1BDBB29A42E1
:107E600006FB050538BF0B719DF80700FFF72EFDD7
:107E7000284603B0F0BD00BF30B5054683B00023EF
:107E80000DF107000C468DF80730FFF7F9FC2A6862
:107E90001368591C1160E9682A8A641AB4FBF2F469
:107EA0001C709DF80700FFF711FD03B030BD00BF47
:107EB000826842B110B50446436901680069984779
:107EC0000023A36010BD70470EB400B582B00399C3
:107ED00021B104AB01AA019300F0ACF802B05DF847
:107EE00004EB03B0704700BF2DE9F04F164683B096
:107EF000B142DDE90C920F4605469A46C0F09580E6
:107F00000B464FF00108B3FBF6F39E4208F101085F
:107F1000F9D9D04538BFD04612F00103019302D100
:107F2000B9F1000F5ED1AA68012403E00AF1FF3A1B
:107F300006FB04F4BAF1010FF8D8B7FBF4F39E4244
:107F4000F6D9DFF8ECA007E0B442B4FBF6F31AD39D
:107F5000AA681C46B7FBF3F31AF803B0BBF10A0F8B
:107F600004FB137728D02B68511CA96003F802B0DA
:107F7000D5E901329A42E7D32846FFF799FFB4FBCF
:107F8000F6F3B442E4D2019B9BB1B9F1000F10D0DB
:107F90002024C84509F1FF390BD2AB682A68591C67
:107FA000A960D454D5E901329A4214D2B9F1000F34
:107FB000EFD103B0BDE8F08F511C2B68A9604FF0E2
:107FC0000D019954D5E901329A42CCD32846FFF7E6
:107FD0006FFFAA68C7E72846FFF76AFFB9F1000FED
:107FE000D7D1E6E793071AD42024AA68C84502F13E
:107FF000010199D22B68A9609C54D5E901329A42BB
:1080000009F1FF3903D2B9F1000FEFD18CE728460F
:10801000FFF74EFFAA68B9F1000FE7D184E7BAF184
:10802000000F0CBF30242024DFE74FF0010870E779
:1080300048D40200002900F054822DE9F04FDFF807
:10804000B8950C7885B0064690460D464FF00D0A5F
:1080500010E00A2CB36800F0AD803268591CB160A2
:10806000D454D6E901329A4280F0A0802C78002CBA
:1080700000F087800135002C00F08380252CE8D1AA
:10808000294600270D4611F8012B2D2A00F0888083
:10809000302A00F088802B2A7AD02A2A00F0998092
:1080A000A2F13003092B4FF000040BD804EB840439
:1080B00002EB440415F8012FA2F13003092BA4F1BF
:1080C0003004F3D92E2A00F09080002301E015F847
:1080D000012F02F0FB016829F9D0252A00F07781F1
:1080E000583AD1B2202947D8202A45D8DFE812F0E3
:1080F000350144004400440044004400440044006E
:10810000440044004400430113014400440044007F
:10811000440013014400440044004400440044006F
:10812000D20044004400A2004400940044004400F3
:10813000350101209842024638BF1A460292002CAF
:1081400040F05081B80740F16E81002B40F04E8224
:108150001C46BBF1000FC0F20A827A0700F11A82B6
:1081600007F00302022A00F0EA81CDE900475946F0
:108170000A223046FFF7B8FE01352C78002C7FF438
:1081800079AF337B002B40F01C8105B0BDE8F08F48
:108190000D4611F8012B2D2A47F004077FF478AF24
:1081A00047F001076EE747F002076BE73046FFF73D
:1081B0007FFE5BE73268591CB16002F803A0D6E984
:1081C00001239342FFF449AF3046FFF771FEB368D5
:1081D00043E7D8F800301A1DC8F800206A781C68F8
:1081E0002E2A05F101057FF470AF6A78A2F1300301
:1081F000092B05F101054FF000033FF66AAF03EBD1
:10820000830302EB430315F8012FA2F13001092982
:10821000A3F13003F3D95CE7D8F80020111DC8F8AA
:10822000001011683046CDE900470A22FFF75CFED6
:108230000135A2E7D8F800301A1DC8F8002017F061
:108240000107D3F800B040F0F080BBF1000F03D07D
:10825000584604F0BFFF0746BC4240F24381002C61
:1082600000F04081202205E0BC4200F03B81002C60
:1082700000F03881B1683368481CB0605A54D6E9C0
:108280000130984204F1FF34EED33046FFF710FE80
:108290002022E9E7D8F80020131DC8F80030B368A1
:1082A00031681768581C3022B060CA54D6E90123DF
:1082B000934280F0EF803268581C7821B060D1542E
:1082C000D6E901329A4280F0E0800F2F03D93B4675
:1082D0001B090F2BFCD84FF0805406E00F2C4FEAFF
:1082E00014137FF649AFB2681C46B7FBF4F319F8D4
:1082F00003B0BBF10A0F04FB137754D03368511C51
:10830000B16003F802B0D6E901329A42E6D33046B2
:10831000FFF7CEFDE2E7D8F80020111DC8F80010E5
:10832000D2F800B08BEAEB72A2EBEB72092A7FF76E
:1083300000AFDFF8C8C2012011466329ACFB02E29E
:1083400000F101004FEAD202F6DC9842024638BF43
:108350001A460292002C45D1F4E6D8F80020111DEF
:10836000C8F8001011683046CDE900471022FFF729
:10837000BBFD013501E7D8F800301A1DC8F8002010
:108380001C78B3680A2C00F011813268591CB16066
:10839000D454D6E901329A42FFF4EEAE3046FFF7EC
:1083A00087FD0135E9E63368511CB16003F802A08E
:1083B000D6E901329A42A1D33046FFF779FDB2687F
:1083C0009CE7304605B0BDE8F04FFFF771BDB368DC
:1083D0003168581CB060CA54D6E901329A42DDD2E5
:1083E0000135CAE6BBF1000F59DB7A0757D4B8074D
:1083F00002D5002B3FF4ADAEF9073FF5AAAE94B11C
:1084000020220299A142BFF4A4AEB168481CB0601A
:1084100030684254D6E90101814204F1FF3480F012
:10842000D480002CEDD1002493E69BF80030002B83
:1084300000F0E080B0685F46CBF101020A2B02EB4E
:10844000070B3CD0411CB16031680B54D6E90130B8
:10845000984226D217F8013F002BEFD15C457FF6FA
:108460008BAE202702E05C453FF486AEB2683368ED
:10847000511CB1609F54D6E901329A4204F1FF3495
:10848000F1D33046FFF714FDEDE73046FFF710FD5E
:10849000B2681AE73046FFF70BFDB3680BE7013C03
:1084A000A5E730460292FFF703FD17F8013F002BC6
:1084B000D4D0029AB0680A2B02EB070BC2D1411C40
:1084C000B160316801F800A0D6E901108842B9D343
:1084D0003046CDE90232FFF7EBFCDDE90232B0684D
:1084E000B0E770479BF80040002C3FF445AE0A2CE3
:1084F000B0680ED03368421CB2601C54D6E901301B
:10850000984214D21BF8014F002C3FF435AE0A2CD0
:10851000F0D13368421CB26003F800A0D6E9013004
:108520009842E7D33046FFF7C3FCB068E2E7304635
:10853000FFF7BEFC1BF8014F002CD8D11CE6002B26
:108540007FF413AE8CB130220299A142BFF40DAE7C
:10855000B168481CB06030684254D6E901018142DC
:1085600004F1FF343BD2002CEED10024FDE5B168CC
:108570004A1CB26032682D205054D6E90121914244
:10858000CBF1000BFFF4ECAD30460393FFF790FC0A
:10859000039BE5E5B1684A1CB26032682B20505459
:1085A000D6E901219142FFF4DBADEDE73268591CB9
:1085B000B16002F803A0D6E901239342FFF4E5AECF
:1085C0003046FFF775FCB368DFE630460393FFF7EC
:1085D0006FFC039B2022002C7FF413AF23E730466F
:1085E0000393FFF765FC039B3022BCE7F9073FF5D7
:1085F000B0AD18E79B4631E748D40200CDCCCCCCD7
:10860000FFF7F6BB2DE9F041058A0331043D4E1911
:108610008046B6FBF5F6FFF707FCA0B3F6B24FF4C1
:108620008073013E0446C580C0F8008083802BD053
:108630000346002508E06279AE4202F10102627150
:108640003860C0F800801FD040461F46FFF7ECFBA3
:10865000013503460028EED16779791E17D02246EE
:10866000013399421268FBD1D2F800805FB12668CD
:10867000002501E034463668214601354046FFF7C3
:10868000FBFBAF42F6D800242046BDE8F08120680D
:108690002146FFF7F1FBF6E7F8B546790146701E73
:1086A00013D00A460023013398421268FBD11768A1
:1086B00056B10D68002401E029462D680134384682
:1086C000FFF7DAFBA642F7D8F8BDBDE8F840086826
:1086D000FFF7D2BB04300121FFF74EBB2DE9F0417B
:1086E000012104460430FFF755FB10F0FF0301D0D1
:1086F000BDE8F0816779791E16D022460133994290
:108700001268FBD1D2F80080002FF1D02668002536
:1087100001E034463668214601354046FFF7ACFBA0
:10872000AF42F6D8BDE8F08120682146BDE8F041AF
:10873000FFF7A2BB2DE9F8430546C68840791446E9
:1087400006FB00F2043A04EB030C1F1D624538BF20
:10875000D41ABE428846B7FBF6F106FB117002D868
:1087600001392D68FCD1371AA74228BF27469CB192
:108770004FF000090430E41B28443A4608EB090195
:1087800004F000FDA642B9442D6837464FF00000C2
:1087900028BF2746002CEDD1BDE8F8832DE9F8432A
:1087A0000546C6884079144606FB00F2043A04EBFD
:1087B000030C1F1D624538BFD41ABE428846B7FB62
:1087C000F6F106FB117002D801392D68FCD1371A79
:1087D000A74228BF27469CB14FF000090430291852
:1087E000E41B3A4608EB090004F0CCFCA642B9446D
:1087F0002D6837464FF0000028BF2746002CEDD1EA
:10880000BDE8F88341DF7047064A074B10B50024E6
:1088100014701C60BFF35F8F0449054800F02AF90B
:10882000204610BDA8790020AC79002064D4020055
:10883000A079002000B583B000230DF107008DF86A
:108840000730FFF71DF8F1EE103A23F09F03E1EE39
:10885000103ABFF35F8F0B4B4022C3F884219DF881
:108860000700FFF733F804F06DF928B920BF40BFC7
:1088700020BF03B05DF804FBFFF7C4FF03B05DF851
:1088800004FB00BF00E100E0F0B5044683B0002522
:108890000DF107000E468DF80750FEF7F1FF236833
:1088A000A26818685968914238BF4D1CA84212D07E
:1088B000586859688A420BD800225A60E268531EF1
:1088C000072B19D8DFE803F04540183B1818183378
:1088D00001315960F2E7217C002941D158685D6877
:1088E000AA423AD859602268A16813688B4234BF03
:1088F000013300231360E1E76368314600FB023077
:1089000004F040FC2268136851688B4282BFA06863
:1089100001300918CB1A91689DF80700994238BFB9
:108920009360FEF7D3FF0024204603B0F0BD6368D8
:10893000D6E9006703EBC000C0E90067E2E76368BF
:10894000326843F82020DDE76368328823F810207E
:10895000D8E7636832781A54D4E701355D60C2E71E
:108960009DF80700FEF7B2FF0424204603B0F0BDD7
:1089700070B5044682B000230DF107000D468DF856
:1089800007301646FEF77CFF23681868596888424E
:1089900011D019682EB91A68A068824238BF561CD7
:1089A0001E60E268531E072B0DD8DFE803F0411A62
:1089B0000C260C0C0C329DF80700FEF787FF0524EF
:1089C000204602B070BD6368284601FB023104F006
:1089D000D9FB9DF80700FEF779FF0024204602B07E
:1089E00070BD63689DF8070033F811302B80FEF7E7
:1089F0006DFF0024204602B070BD63689DF807003B
:108A000053F821302B60FEF761FF0024204602B0AE
:108A100070BD63689DF8070003EBC101D1E9002335
:108A2000C5E90023FEF752FF0024204602B070BDC6
:108A300063689DF807005B5C2B70FEF747FF00241E
:108A4000204602B070BD00BF036818685B68C01A9A
:108A5000B0FA80F040097047826800239360826812
:108A60001361826853618268D36082685360826850
:108A70001360704701600B6843604A68934204BF0B
:108A800000234360704700BF436843B102689168A8
:108A90000B4443605268934204BF00234360704715
:108AA00070B54468064620680D4618B908E0246889
:108AB000206828B1B368294698470028F7D1206874
:108AC0002860256070BD00BF4368186808B102685F
:108AD0001A60704743681868704700BF4368186899
:108AE00018B908E00346006828B18142FAD10A6843
:108AF0001A60012070477047114910B4A1F59472B3
:108B000005E052F83330984238BF21460CD28C1A17
:108B1000E30F03EBE4035B10914202EBC304F0D8D4
:108B200008485DF8044B704702D904F10802EEE7EB
:108B30006068044B5DF8044B002808BF1846704776
:108B4000A4D9020068D8020030B4A54B1B68591C98
:108B500004BFA44B1B78062B05D1A34BA34A1B686B
:108B6000C3F3042313609F4B1B78062B00F0F8809F
:108B70009B4B1B685A1C04BF9A4B1B78062B05D1D4
:108B80009B4B9C4A1B68C3F342331360954B1B7885
:108B9000062B00F0D280924B1B685D1C04BF914BEA
:108BA0001B78062B08D14FF080430022C3F80C211C
:108BB000C3F81021C3F838258A4B1B78062B00F028
:108BC0009C80874B1A68541C1FD08B4B062A1B684D
:108BD00023D08A4AD2F8883043F47003C2F8883030
:108BE000BFF34F8FBFF36F8F4FF01023D3F80022E6
:108BF000002AC0F22F81D3F80432002BC0F22A8160
:108C00007F4B804A1A6030BC704776497E4B0978AA
:108C10001B680629DDD1C3F30313033B032B40F28A
:108C2000B6804FF08052794BD2F80414C3F8201567
:108C3000D2F80814C3F82415D2F80C14C3F8281578
:108C4000D2F81014C3F82C15D2F81414C3F8301548
:108C5000D2F81814C3F83415D2F81C14C3F8401510
:108C6000D2F82014C3F84415D2F82414C3F84815D8
:108C7000D2F82814C3F84C15D2F82C14C3F85015A8
:108C8000D2F83014C3F85415D2F83414C3F8601570
:108C9000D2F83814C3F86415D2F83C14C3F8681538
:108CA000D2F840144E48C3F86C15D2F84414026848
:108CB000C3F87015501C00F08C80062A89D1544BE3
:108CC000474A1B685349126803F04F030B60511C5D
:108CD00062D0062A7FF47DAF4FF08043D3F8003492
:108CE000DA0765D4444B1B68033B032B49D94A4A36
:108CF000136843F4806313606BE7434B1B68C3F353
:108D00000313033B032B3FF65CAF444AD25C12B122
:108D1000434A03211160434AD35C002B3FF451AF17
:108D2000414A424C4249434B052010600125002036
:108D30003F22256008601A6043E7334B1B68C3F38A
:108D40000313033B032B3FF626AF3B4AD35C002BB8
:108D50003FF421AF394AD36823F08073D3601AE718
:108D6000294B1B68C3F30313033B032B3FF600AFF0
:108D7000334AD35C002B3FF4FBAE324B324A1A60CD
:108D8000F6E6324AD35C002B3FF423AFAFE730491D
:108D9000CB5C002B8ED044E7124B1B78062B7FF464
:108DA00018AF4FF08043D3F80034DB077FF511AFE5
:108DB0000B4B1B684FF080426FF00101062BC2F88D
:108DC00000147FF406AF0C4B1B68033B032B8ED8BB
:108DD000D7E7044B1B78062B3FF471AFF9E600BFD1
:108DE00030010010E00F00F0240300104035014076
:108DF000440200103C0500403401001000ED00E08A
:108E0000A84300200090D003E80F00F000C000400D
:108E100058020010E40E00403C170040ACD902009C
:108E2000A0050040ACD90200105600408856004012
:108E30001856004014560040ACD90200F0ED00E096
:108E4000ACD9020074C007400DF0ADBAA8D9020039
:108E5000A4D90200184A0123C2F80435D2F800341C
:108E6000002BFBD04FF010231521134AC3F800123A
:108E7000D2F80034002BFBD04FF0102315210E4AFE
:108E8000C3F80412D2F80034002BFBD000230A49A7
:108E9000C2F80435D1F80034002BFBD0BFF34F8F5C
:108EA0000649074BCA6802F4E0621343CB60BFF384
:108EB0004F8F00BFFDE700BF00E0014000ED00E084
:108EC0000400FA05044B195C4FF0A04201238B40CB
:108ED000C2F80C35704700BFB0D90200044B195CD2
:108EE0004FF0A04201238B40C2F80835704700BF05
:108EF000B0D9020010B568B90E4CA36801226270A7
:108F00003BB1D3E900230020A2609847A368002B5F
:108F1000F7D110BD0128FCD1064C2369A070002BAD
:108F2000F7D0D3E900230120226198472369002B61
:108F3000F7D110BDB079002070B910B5074CA36807
:108F4000012262703BB1D3E900230020A260984760
:108F5000A368002BF7D110BD704700BFB079002087
:108F600030B5012883B004D0032821D0B0B103B0BC
:108F700030BD294C00230DF107008DF80730FEF7B6
:108F80007FFC23786BB3E3689DF80700013301226F
:108F9000E360A270FEF79AFC03B030BD1F4B0122C4
:108FA000C3F88020BFF34F8FBFF36F8F03B030BD86
:108FB000194C00F0B9F800230DF107008DF80730C7
:108FC000FEF75EFCE368013BE360E3681BB9144B0A
:108FD000D3F80054C5B19DF80700FEF777FC03B045
:108FE00030BD10486360A3602361E36000F090F837
:108FF00003F0A8FD60B10A4A01232370D2F80024CF
:10900000002AC0D0A370BEE700F0A0F8A570E2E788
:1090100000F08AF8EFE700BFB079002000E100E03F
:1090200000000140F58E020030B585B00478456837
:109030008DF80040D0E90240064A074B039053F8F0
:109040002130019552F821108DF808406846984764
:1090500005B030BDC4790020C879002030B585B096
:10906000047845688DF80040D0E90240064A074B75
:10907000039053F82130019552F821108DF80840E3
:109080006846984705B030BDC4790020C8790020F3
:10909000F0B51A4B90F800C0194C1A4D91F81DE02C
:1090A00044F82C200746086945F82C0003F80CE02A
:1090B0000C4616460FCC89B06D460FC594E80F00DC
:1090C00085E80F00CDF810C0BEF1000F0AD0002EC9
:1090D0000D4A694607F1040008BF324600F07EFEE3
:1090E00009B0F0BD002E094A694607F10C0008BF1F
:1090F000324600F0E1FB09B0F0BD00BFC48700209C
:10910000C8790020C4790020299002005D900200F7
:10911000044A137923B901211060918018467047E1
:1091200085207047CC790020074B1A68D20704D4F9
:10913000C02283F8002301221A604FF080430122ED
:10914000C3F81825704700BF00E100E010B40B4BD6
:109150000B494FF0804200200224C2F8084383B03C
:1091600018601B680193012301980B60D2F8183432
:10917000DB03FBD403B05DF8044B704704010040EF
:109180000C00004010B5174B1A6882B062B1002184
:10919000154A19601B68507900934FF080410123F4
:1091A000009CC1F8083398B1104B1A68BAB100227C
:1091B0001A601B6801934FF0804202210A4B01980C
:1091C000C2F808131B68012002B0BDE81040184720
:1091D000116853718847054B1A68002AE7D102B01D
:1091E00010BD00BF00010040CC7900200401004008
:1091F000164B034493F93030072B0DDD800000F14E
:10920000A040D0F8003723F44033C0F80037D0F83E
:109210000037C0F800377047DAB2072A14D810B404
:109220009A0002F1804202F5C042094CD2F81005C2
:10923000012120F0010001FA03F3C2F81005C4F87F
:1092400008335DF8044B7047704700BFD8790020A1
:1092500000600040F0B585B0C84A00230193116852
:10926000012900F0E7811E46C54B1A68012A00F06B
:10927000D381C44B1A68012A00F0C081C24B1A681E
:10928000012A00F0AD81C14B1A68012A00F09A81D1
:10929000BF4B1A68012A00F08781BE4B1A68012A69
:1092A00000F05D81BC4B1A68012A07D0BB4B1A68DD
:1092B000012A00F0CB81FEB905B0F0BDB84AD2F862
:1092C00004231206F2D500221A6019680291196E61
:1092D0000298012903F1600346F080060CD11A6060
:1092E0001B6803934FF0A043039AD3F82025019203
:1092F000C3F8202546F00046AA4F00240125A3000C
:1093000003F180432E4203F5C0434FEA45050BD0DD
:10931000D3F8100557F82420D3F81015C0F3042013
:10932000C1F3014102B190470134082CE7D1002E6E
:10933000C2DA9C4C01254FF0A04694F95000471C1E
:109340003DD0C0F3C20204AB1A4400F0070312F888
:109350000C2C05FA03F31A42C1B200F03F002ED0E4
:10936000830003F1A04305FA00FCD3F80027D3F8EB
:10937000007727F44037C3F80077C2F30142D3F8EF
:109380000077022A0CBF4FF4403E4FF4003E4EEAF5
:10939000070E2718C3F800E7C6F820C597F9303044
:1093A00054F823305BB18909032900F07181022A46
:1093B00000F06B81032A02D1022900F0698194F93F
:1093C0005100411C3DD0C0F3C20204AB1A4400F06E
:1093D000070312F80C2C05FA03F31A42C1B200F08D
:1093E0003F002ED0830003F1A04305FA00FCD3F820
:1093F0000027D3F8007727F44037C3F80077C2F38B
:109400000142D3F80077022A0CBF4FF4403E4FF4DC
:10941000003E4EEA070E2718C3F800E7C6F820C53D
:1094200097F9303054F823305BB18909032900F0F3
:109430002581022A00F01F81032A02D1022900F0AF
:109440001D8194F95200421C3DD0C0F3C20204AB0E
:109450001A4400F0070312F80C2C05FA03F31A4221
:10946000C1B200F03F002ED0830003F1A04305FA03
:1094700000FCD3F80027D3F8007727F44037C3F86F
:109480000077C2F30142D3F80077022A0CBF4FF4F1
:10949000403E4FF4003E4EEA070E2718C3F800E79F
:1094A000C6F820C597F9303054F823305BB18909EC
:1094B000032900F0DE80022A00F0D880032A02D1BE
:1094C000022900F0D68094F95300431C3DD0C0F32C
:1094D000C20204AB1A4400F0070312F80C2C05FA80
:1094E00003F31A42C1B200F03F002ED0830003F113
:1094F000A04305FA00FCD3F80027D3F8007727F43F
:109500004037C3F80077C2F30142D3F80077022A4C
:109510000CBF4FF4403E4FF4003E4EEA070E2718B2
:10952000C3F800E7C6F820C597F9303054F8233067
:109530005BB18909032900F0A680022A00F0A0800F
:10954000032A02D1022900F09E80D6F8203501932B
:10955000C6F82035002B7FF4F0AE05B0F0BD104A00
:10956000D2F8042351067FF59DAE00221A601B68D5
:109570000293029B46F0400694E600BF0061004063
:1095800004610040086100400C610040106100402F
:1095900014610040186100401C6100407C61004083
:1095A00000600040D87900203A4AD2F8042390069F
:1095B0007FF573AE00221A601B680293029B46F08F
:1095C00020066AE6334AD2F80423D4067FF560AE5B
:1095D00000221A601B680293029B46F0100657E6B1
:1095E0002C4AD2F8042315077FF54DAE00221A60ED
:1095F0001B680293029B46F0080644E6254AD2F80F
:10960000042357077FF53AAE00221A601B680293C5
:10961000029B46F0040631E61E4AD2F80423920764
:109620007FF527AE00221A601B680293029B46F06A
:1096300002061EE61749D1F8046316F001063FF44E
:1096400013AE136013680293029B0DE600221A60AA
:109650001B6803934FF0A043039AD3F8202501928F
:10966000C3F82025002E3FF464AE43E601297FF4C1
:109670002AAF984727E701297FF4E3AE9847E0E651
:1096800001297FF462AF98475FE701297FF497AE25
:10969000984794E600600040014B1B68184700BFE4
:1096A000347A0020114B98421DD130B583B000238D
:1096B0000DF107008DF807300D46FEF7E1F80C4B71
:1096C0001C794CB99DF807001D6001221A71FEF744
:1096D000FDF8204603B030BD9DF80700FEF7F6F810
:1096E000112003B030BD0020704700BF00200040B3
:1096F000347A002030B56E4AD2F8043399058BB025
:1097000068D5D2F82431002B64D00023C2F824316C
:10971000D2F8243101934FF40171664B0198C2F8DD
:10972000081393F8291009B90121516060490222F8
:109730008DF81820D1F88024C1F880249869D96860
:10974000099200240025CDE90710C3E90645D3E9B5
:10975000001206A89047564AD2F81C31C3B1554BA7
:109760005869196A88426AD993F8281001F0FF00F5
:10977000002964D1C2F81C01D2F81C11039103998D
:109780009C68186A196A205C01311962C2F81C05CC
:10979000474AD2F84431DBB10021464BC2F84411AC
:1097A000D2F8440193F829100090009809B10121E2
:1097B00011609A6962B1586AD96800229A610122DF
:1097C000CDE907108DF8182006A8D3E900129047BC
:1097D0000BB030BD364AD2F804335B07BBD5D2F8A4
:1097E0000831002BB7D0334B996900293ED00021B6
:1097F000C2F80811D2F8081104910499D868596A7E
:10980000D2F8182542545A6A996901325A625A6A42
:109810008A42A0D1DA69002A31D0DD685C6A186911
:109820009A6101210022D860DA615A628DF818101D
:10983000CDE90754D3E9001206A890478BE71C4AEC
:109840000021C2F81C11D2F81C210292029A5A6916
:10985000002A9DD058699A688DF8181008905961AF
:10986000079206A8D3E90012904791E7C2F80811C1
:10987000D2F8080105900598D2F81825C7E793F8A3
:10988000292012B90A4A01215160094A4FF4017195
:10989000C2F80813596ADA68089100240120079277
:1098A0008DF81800D3E900129C6106A8904752E792
:1098B00000200040407A00202DE9F041624F0679F7
:1098C0002C2303FB067382B093F82A30002B40F060
:1098D0008D8005460C4600685C499046FFF7E2FE25
:1098E00000287FD12368591C0CD001224FF0A041E1
:1098F00002FA03F3C1F80835236803F5E073032285
:1099000041F8232063685A1C06D003F5E0734FF03A
:10991000A042002142F823102B68A269C3F8242535
:10992000217D637D2A680B43C2F86C35D4E90012AF
:109930002B68C3F81425C3F80C15237D012B61D0C7
:109940002C2303FB06F3FA18C2F804802269FA50AC
:109950002A68B8F1000F33D00021237FC2F81C1110
:10996000D2F81C2100922A68DDF800C0C2F8441128
:10997000D2F844112A680191354C0199C2F8044388
:109980002A6842F3073100294FEA123232DB01F133
:10999000604101F561415B01DBB281F800332A6867
:1099A00042F30733002B4FEA123109DB294C012225
:1099B0005B0901F01F0102FA01F144F823102A6843
:1099C0002C2303FB0676012400230421C2F8001592
:1099D000C6E9063386F82A4086F82930736102B05A
:1099E000BDE8F081112002B0BDE8F081082002B08E
:1099F000BDE8F081184902F00F025B011144DBB2AF
:109A00000B76CCE7A368591C06D003F5E0734FF042
:109A1000A042002142F82310E3685A1C0DD0012215
:109A20004FF0A04102FA03F3C1F80835E36803F5EB
:109A3000E073032241F82320E3682A68A168C2F892
:109A40000835C2F810157BE7407A0020F596020031
:109A50008000020000E100E0FCEC00E02DE9F041B4
:109A6000314E05792C2303FB05630446586984B005
:109A700000284CD15A619960186283F82800226846
:109A8000C2F81C01D2F81C11226802910121029F28
:109A900091602268D3F808C0C2F81C01D2F81C11EA
:109AA000019101991F6A196A1CF807700131196246
:109AB000C2F81C755A6812B104B0BDE8F0815F6944
:109AC0001A6A216897421BD9864602E093F828203B
:109AD0000ABBD1F81C21002AF8D0C1F81CE1D1F84A
:109AE0001C210392039AD3F820801A6A1CF808807C
:109AF00001321A62C1F81C851A6A9742E9D82168B6
:109B0000D1F81C31002BFBD00123CB6004E01120E5
:109B100004B0BDE8F0810F202C2303FB0565002372
:109B20006B6104B0BDE8F081407A0020F0B4504F82
:109B300006792C2303FB067386B05D68044625B1C5
:109B400003684FF40170C3F808032C2303FB06736A
:109B5000986990B1D86900287CD11961DA612C2309
:109B600003FB06735A683AB323684FF40172C3F8D3
:109B70000423002006B0F0BC704793F829509A6186
:109B8000D9605862D861002DE9D12368C3F8245107
:109B9000D3F8242123680192019AC3F80851D3F81D
:109BA000082123680292012202991A602C2303FBE8
:109BB00006735A68002AD7D12168C1F84421D1F828
:109BC00044210392039A2268D2F82411D2F8085152
:109BD000D2F8440155B9002833D10029F4D02C2300
:109BE00003FB06760023B3610320C3E70029F6D107
:109BF00048BB9969C2F8080181B1D2F808110491F3
:109C00000499DD68596AD2F818256A545A6A996924
:109C100001325A625A6A9142D5D806E0D2F8081148
:109C200005910599D2F818255B6A2C2303FB06766B
:109C3000002296F82930B261A3B1236801221A608C
:109C400098E70029CBD12C2303FB06760023B361D0
:109C50000F208FE755B123684FF40172C3F8042336
:109C6000112087E7236801225A6083E7112081E7EA
:109C7000407A002030B5574BD3F824218BB0002A0E
:109C800075D00022C3F82421D3F8242104920222A3
:109C90008DF81820049AD3F880144F4AC3F8801422
:109CA0000991D3F83C15D368089100240025079347
:109CB000C2E906451168536806A89847454BD3F892
:109CC000442152B10021444AC3F84411D3F844015D
:109CD000916903900398002938D13E4BD3F8202195
:109CE0005AB10021C3F82011D3F82021029201209B
:109CF000394A029CD8605069D8B9364BD3F85821FC
:109D0000AAB10021C3F85811D3F85801324A019082
:109D10000198506958B1D3F84C05936808908DF8B4
:109D200018105161079306A8D2E9001398470BB0A9
:109D300030BDD3F84C05936808908DF81810516128
:109D4000079306A8D2E900139847D6E7D3F83C3525
:109D5000D168089300240025012307918DF818305D
:109D6000C2E90645D2E9001306A89847B5E7D3F83B
:109D700010110029A2D0C3F81021D3F810111648F1
:109D8000059105998469D3F83C15A14296D1C4691F
:109D9000A4B1D3F80052846125F02005C3F8005225
:109DA000D0E90343C26101220891C360016843689E
:109DB00007948DF8182006A898477FE7C268846149
:109DC0000123CDE907218DF81830D0E9001306A84A
:109DD000984773E700200040707A00202DE9F04397
:109DE0000779704E07EBC70306EB830387B093F840
:109DF0002030002B40F0A78004460D4600686A49D9
:109E00009146FFF74FFC002840F099802B68591CC1
:109E10004FEAC7080CD001224FF0A04102FA03F329
:109E2000C1F808352B6803F5E073032241F82320BD
:109E30006B685A1C06D003F5E0734FF0A042002176
:109E400042F823102368A969C3F82415297D6A7D87
:109E500023680A43C3F86C25D5E900312268C2F8AB
:109E60000C35C2F814152B7D012B78D008EB0702B6
:109E700006EB8203C3F804902B6946F82230B9F14F
:109E8000000F4BD021682B7F484D0022C1F81021D4
:109E9000D1F8101101912168DDF804C0C1F820212A
:109EA000D1F8201102912168DDF808C0C1F8242101
:109EB000D1F8241103912168DDF80CC0C1F84421C8
:109EC000D1F8441104912168DDF810C0C1F858217F
:109ED000D1F85811226805910599C2F804532268F7
:109EE00042F3073100294FEA123230DB01F16041C1
:109EF00001F561415B01DBB281F80033226842F376
:109F00000733002B4FEA123109DB294D01225B098F
:109F100001F01F0102FA01F145F8231022684744BD
:109F200006EB8706002301240821C2F80015C6E9C4
:109F3000063386F82040736107B0BDE8F083112036
:109F400007B0BDE8F083082007B0BDE8F0831949E9
:109F500002F00F025B011144DBB20B76CEE7AB6877
:109F6000591C06D003F5E0734FF0A042002142F8DF
:109F70002310EB685A1C0DD001224FF0A04102FAC9
:109F800003F3C1F80835EB6803F5E073032241F8E9
:109F90002320EB682268A968C2F80835C2F81015BA
:109FA00064E700BF707A0020759C02001003420035
:109FB00000E100E0FCEC00E0F0B401F06044B4F13A
:109FC000005F82B02CD10579274E05EBC50406EB66
:109FD000840403466069EF0000283ED16261A160FD
:109FE0001A68C2F82001D2F820C11A68CDF804C05E
:109FF000DDF804C0C2F85801D2F8582100921A685E
:10A00000DDF800C0D4F814C0C2F84415C2F848C541
:10A010001A6801219160626832B102B0F0BC7047E9
:10A02000102002B0F0BC70471A6800E0C8B9D2F83E
:10A030002011D2F858010029F8D090B90121D1603F
:10A040001B68D3F85821002AFBD07B1906EB830349
:10A0500000225A6102B0F0BC7047112002B0F0BC7F
:10A0600070470F20F1E700BF707A002001F06043D5
:10A07000B3F1005F5ED1F0B40479474D04EBC40640
:10A0800005EB860682B07668E30026B107684FF4D8
:10A09000047CC7F808C3234405EB83039C694CBBCD
:10A0A0009A61DC61D9600368C3F81041D3F810618C
:10A0B00003680196019EC3F84441D3F84441036804
:10A0C0000094009CC3F83415C3F8382503680122B6
:10A0D0001A60047904EBC40305EB8303E6005B68B4
:10A0E00053B303684FF40472C3F80423002002B092
:10A0F000F0BC7047DC69002C37D11961DA61036864
:10A10000C3F81041D3F8106103680196019EC3F8AB
:10A110004441D3F8444103680094009CC3F83415CB
:10A12000C3F838250268D2F8003243F02003C2F8A1
:10A130000032CEE710207047036801E0E9B910BB98
:10A14000D3F81021D3F84411D3F82401002AF5D014
:10A15000344400284FF0000305EB840518BF0320AA
:10A16000994218BF0F20AB61C1E796B103684FF465
:10A170000472C3F804231120B9E7344405EB8405C5
:10A180000F20AA61B3E7344405EB84050320A961DD
:10A19000ADE71120ABE700BF707A0020032806D896
:10A1A000012A06D001291BD0022908D071B107204D
:10A1B0007047012911D002294FF00002F6D10B4B54
:10A1C00000EB4000034400205A707047074B00EB3F
:10A1D0004000034408469A70704700F10E02D2B264
:10A1E00000EB400301490020CA547047947A0020D4
:10A1F00010B50388102B07D0112B04D1254B1868FC
:10A200000138186030B110BD224C216811B3013102
:10A21000216010BD01220221FFF7C0FF40B10728D5
:10A2200006D01D4B1B68002BEDD0BDE81040184731
:10A23000072202210120FFF7B1FF08B10728F0D162
:10A24000002108460A22FFF7A9FF0028DBD00728D3
:10A25000E7D1D8E701220846FFF7A0FF38B1072869
:10A2600005D00D4B1B6803B198472168CFE7072243
:10A2700002210120FFF792FF08B10728F1D1042243
:10A2800002210020FFF78AFF0028EED00728E8D13E
:10A29000EBE700BFA47A0020A07A002075DF7047AA
:10A2A00076DF70478FDF7047014604484B8803EB29
:10A2B000430300EBC30002F077BA00BF44810020E3
:10A2C0000378022B04D0012B07D0032B0AD0704750
:10A2D0004068094A8621FDF757B84068064A8A2136
:10A2E000FDF752B80548064B0649C01AC0080004DD
:10A2F00040F00300FCF732BAE0D9020064E4020047
:10A300003CE40200F0D9020070B50D4684B004466A
:10A3100008220021684602F043FF2D882468002DA2
:10A320003DD0002302E00344AB421FD2E218E15CBF
:10A330005278092A01F10100F5D1023308224E1E9C
:10A34000234400210DEB02000193ADF8006002F000
:10A3500027FF002301E09D4206D9E118E25C49781D
:10A360000132FF291344F6D104B070BD002302E08E
:10A370000344AB420CD2E218E15C5278082A01F1A6
:10A380000100F5D10233234401390193ADF80010E7
:10A39000082200210DEB020002F002FFD9E708229B
:10A3A00029460DEB020002F0FBFEDDE730B5037835
:10A3B0008BB02BB1052B01D1406878B90BB030BD03
:10A3C00045680FCD01AC0FC40FCD0FC408A92B6891
:10A3D000236007A8FFF798FF0BB030BD024AE921C0
:10A3E000FCF7D2FF0BB030BDE0D9020030B50388D6
:10A3F0003B2B8BB004463ED80F2B3AD9103B2B2B6E
:10A4000037D8DFE803F0521636363636363636366B
:10A410003636369036A836B5363636363636363691
:10A4200036363636363636363636363636363636CC
:10A4300036466C486C4D237AA2886C49441BE4086C
:10A44000240444F003042046FCF71AFB00F01EFC31
:10A45000002800F0BA802046654A6649FCF742FAB7
:10A46000654802F03BF8002840F0A9800020FEF784
:10A4700029FD0BB030BD562BFBD180881321FFF78F
:10A480000FFF0028F5D05D4A40F2A511FCF77CFFD4
:10A49000EFE780881321FFF703FF0028E9D0574A30
:10A4A0004FF4CE71FCF770FFE3E74F4B4D4D8288C0
:10A4B0005349ED1AED082D0445F003052846FCF735
:10A4C00011FAA188072972D84E4B01EB410003EB2A
:10A4D000C000002202F096FA002862D1A1884A4BFF
:10A4E0004FF4BA6000FB013000F0B4FE002852D1F6
:10A4F0000120FEF7E7FC00F0C9FB08284FF0000040
:10A5000046D0FEF7DFFC2846394A3A49FCF7EAF91B
:10A51000394801F0E3FF0028ABD0384A40F223115C
:10A52000FCF732FFA5E7304B2E483849C01AC00867
:10A53000000440F003000834FCF710F90FCC01AD23
:10A540000FC50FCC0FC523682B6008A907A8FFF71C
:10A55000DBFE0BB030BD00F108018088FFF79EFEE6
:10A56000002886D0254A40F28711FCF70DFF80E7CE
:10A5700000238088ADF8043001A9FFF793FE00287E
:10A580003FF477AF1D4A40F29311FCF7FDFE70E7F0
:10A59000FEF7A4FC6DE7194A4FF4A771FCF7F4FE2F
:10A5A000A6E7164A4FF4A571FCF7EEFE96E740F2D7
:10A5B0004511124A0020FCF7E7FEA18884E70F4A04
:10A5C00040F22311FCF7E0FE50E7FCF77FFE18B9DC
:10A5D0000120FEF783FC3EE7084A4FF4B571FCF713
:10A5E000D3FEF5E764E402003CE402006CDA02000A
:10A5F00070DB020040DA020004820020E0D9020091
:10A600000CDA020044810020D0430020FCD9020073
:10A6100030B54FF480418BB00020FBF729FF0028B4
:10A6200040F08F80FBF714FFFDF7D2F8002840F0D0
:10A63000D080FEF7E9F8002840F0C58002F0F2F97A
:10A64000002840F0BA80002306A90120069302F0FA
:10A65000CFFA002840F0AB8006A802F087FB002864
:10A6600040F09F805E48002101F06AFA002840F027
:10A6700092800822002106A802F092FD594A5A4B06
:10A68000069206A8079300F0C9FD00287DD100F0CE
:10A69000F5FA0024554802904FF6FF732146102228
:10A6A00006A803940494ADF80C30ADF8144002F001
:10A6B00077FD02A9012306914D4A4E488DF81C40B2
:10A6C00006A98DF8243001F0A7FE002857D14A4A88
:10A6D0004848002101F012FE00284AD145480022D6
:10A6E000012101F083FE00283DD1444B444D454AF1
:10A6F00006934FF480744448079406A90723CDE9D4
:10A70000085402F07DFC414A106030BB404B414888
:10A710004149C01AC008000440F003000190FCF752
:10A720001DF80198344A3D49FCF7DCF8314801F046
:10A73000D5FE60B9FBF7EAFE0028FBD1FEF77AF8F8
:10A74000F8E7374A40F20721FCF71EFE6AE7344A71
:10A7500040F22311FCF718FEECE7314A40F23221B7
:10A76000FCF712FED2E72E4A4FF48C71FCF70CFE78
:10A77000BBE72B4A40F21511FCF706FEAEE7284A6C
:10A780004FF48971FCF700FEA1E7254A40F2E7117A
:10A79000FCF7FAFD7BE7224A40F21B21FCF7F4FDAF
:10A7A00067E71F4A4FF4E171FCF7EEFD5AE71C4AD8
:10A7B0004FF4DF71FCF7E8FD4EE7194A4FF4DC7106
:10A7C000FCF7E2FD3FE7164A40F2F111FCF7DCFD31
:10A7D00034E7134A40F21221FCF7D6FD29E700BF07
:10A7E000F8800020A9A20200AC4300200401A000D0
:10A7F000ADA302000482002070DB0200D0820020A2
:10A80000D0830020C1A20200B8DA0200C88700206D
:10A810003CE4020064E40200A0DA020040DA020034
:10A82000E0D902002DE9F04FDFF8B09100EB4005D0
:10A8300009EBC50583B0EE6A012E07468A469046AD
:10A840004FEA400407D0022E4FD056B300263046C0
:10A8500003B0BDE8F08FAE6AD5F824B05E457DD96F
:10A86000013EA6EB0B062D6A464528BF4646A5EBE2
:10A870000B0296427ED27B1C03EB430309EBC3031E
:10A88000324658685146584402F07CFC274409EB94
:10A89000C70906EB0B023046C9F8242003B0BDE817
:10A8A000F08FAB6AD5F824B05B459CBF2A6A9B1831
:10A8B000013BA3EB0B039845C9D8044409EBC4043E
:10A8C0000137256AA5EB0B0607EB4707B04509EBF7
:10A8D000C7096FD2D9F804004246584402F052FC2E
:10A8E00008EB0B0363624646B1E7013707EB470706
:10A8F0006C6AFF000026AB6AA34203F1FF3222D943
:10A90000131B2A6A434509EB0701A2EB040B28BF7E
:10A9100043469B45486828BF9B46204451465A46BB
:10A9200002F030FC2B6A5C449C425E44A8EB0B08AE
:10A93000DA440DD06C62B8F1000F88D0AB6AA34244
:10A9400003F1FF32DCD82A6A1344013B1B1BD9E711
:10A9500000246C62B8F1000FCDD178E72D6A2E4447
:10A96000013EA6EB0B06464528BF4646A5EB0B026B
:10A97000964280D307F1010808EB480809EBC808A4
:10A980005146D8F804000192584402F0FBFB751BB5
:10A99000019AD8F804005D440AEB02012A4602F04D
:10A9A000F1FB274409EBC7093046C9F8245003B02E
:10A9B000BDE8F08FD9F804005844C3443246ABEBED
:10A9C000050502F0DFFB0AEB0601D9F804002A4670
:10A9D00002F0D8FB4646656239E700BFCC8700200D
:10A9E00038B5114C114B1248E36110254FF4007338
:10A9F000104A11492362E06400232565E01D022509
:10AA0000A3626362E362A3656365E365A261A26416
:10AA1000C4E9045502F0D6FB0849204602F0D2FBF7
:10AA20002023A37138BD00BFCC870020E084002024
:10AA3000D084002078DB020084DB020088DB020087
:10AA400032B3F8B5054608B3012916464FF00003A6
:10AA50000ADDEA185278092A06D0EA5C013213446A
:10AA60009BB25A1C8A42F4DB8B420FD2EA5C6AB179
:10AA7000013A97B257B102339CB2E3198B4205DC1D
:10AA800024B1304602F0A6FBB84203D00020F8BD46
:10AA90000020704702462919304602F065FBB0FAE3
:10AAA00080F04009F8BD00BF42B3F8B5054618B3C1
:10AAB000012916464FF000040ADD2A195278082AA7
:10AAC00006D02A5D01321444A4B2621C8A42F4DB2F
:10AAD0008C4211D22A5D7AB1013A97B267B1023441
:10AAE000A4B2E2198A4207DC34B1BB4204D8304632
:10AAF00002F070FB874203D30020F8BD00207047AE
:10AB00003A462919304602F02FFBB0FA80F040098E
:10AB1000F8BD00BF2DE9F04703888788103B98B047
:10AB200004460A2B1CD8DFE803F030291B1B1B1B33
:10AB30001B1B1B1E0600037A47483F2B4FEA1314CA
:10AB4000394669D8FDF7DAF8032C67D0434839460F
:10AB5000FDF7D4F8022C65D041483946FDF7CEF810
:10AB600018B0BDE8F087037A002BF9D1437A3A4850
:10AB70001B0739466DD5FDF7B7F8F1E73948394677
:10AB8000FDF7BCF818B0BDE8F087374A9368DB439F
:10AB9000009351686846FDF7E1F8009B0193019B23
:10ABA00083B300263546294601A8FDF7B1F828B140
:10ABB00018AB03EB4603013623F8285C0135142D4E
:10ABC000F1D10D960DF1340CBCE80F0002AD0FC5AC
:10ABD000BCE80F000FC59CE8070085E807008EB1B0
:10ABE0000DF10A08DFF890A008EB460638F8029F3E
:10ABF0001E4D284649460435FDF780F8AA45F8D190
:10AC0000B045F3D1132F14D9194AF0210420FCF7D1
:10AC1000BBFB18B0BDE8F087FDF766F80F48394672
:10AC2000FDF762F80E483946FDF75EF818B0BDE84A
:10AC3000F0870C483946FDF757F80C483946FDF7C0
:10AC400053F8E37B022B8BD10A483946FDF74CF8C9
:10AC500086E7FDF753F883E7F8860020F4860020A6
:10AC6000F0860020E8860020E0860020E4860020B0
:10AC700090DB0200EC8600205C87002002487C22EA
:10AC8000002102F08DBA00BFE086002030B50C4BE9
:10AC900083B0DA68009299686846FDF75FF800258E
:10ACA000009B01932C46214601A80134FDF730F8A2
:10ACB00000B10135142CF6D1284603B030BD00BFD9
:10ACC000E08600202DE9F84F684F90F8C6623D6895
:10ACD000C6EB0613C6EB8303044600EB430045B303
:10ACE00088465900624B807893F802C0844500F092
:10ACF000A580012D1DD993F806C0844500F0A680DB
:10AD0000022D16D093F80AC0844500F0A780032DC9
:10AD10000FD093F80EC084450DD0042D09D093F8C0
:10AD200012C084457CD0052D03D093F816C084450D
:10AD30007ED0BDE8F88FB3F80CE034F801C0E645EA
:10AD4000EBD14C4BD3F800B0BBF1000FF1D0D4F8ED
:10AD5000CC92B9F1050FECD804EBC91A7623AAF806
:10AD6000D22203FB06411A460AF5357002F00AFAB0
:10AD7000B8F1000F09F1010314BF00220222AB4217
:10AD8000CAF84CB38AF8D022C4F8CC32D1D1D4F866
:10AD90004C3304F5347098473B68012B3BD9D4F809
:10ADA000CC3304F5547098473B68022B33D9D4F860
:10ADB0004C3404F5747098473B68032B2BD9D4F8B6
:10ADC000CC3404F58A6098473B68042B23D9D4F827
:10ADD0004C3504F59A6098473B68052B1BD9D4F88D
:10ADE000CC3504F5AA6098473B68062B13D9D4F8F4
:10ADF0004C3604F5BA6098473B68072B0BD904F52D
:10AE0000CA650726EB6F284698473B6801369E4285
:10AE100005F18005F6D30023C4F8CC32BDE8F88FE5
:10AE2000B3F810E034F801C0E6457FF47CAF88E762
:10AE3000988A635A984284D0BDE8F88FB3F800E04E
:10AE400034F801C0E6457FF454AF7AE7B3F804E084
:10AE500034F801C0E6457FF453AF72E7B3F808E079
:10AE600034F801C0E6457FF452AF6AE764870020FA
:10AE7000688700205C8700202DE9F043064689B0F2
:10AE80000C46154600212022684602F089F996F802
:10AE9000C68296F8C522C8EB0813C8EB830806EBF8
:10AEA000480E02EBC2039EF804005B0003EB48036C
:10AEB000511C0A338142334448D082423ED24FEA89
:10AEC0004807122111FB027106F11C083144B844F5
:10AED00000F1FF3C62451B891BD04F8C0133BB4204
:10AEE0001ED0013FBFB29BB21B48ADF8103000230B
:10AEF00023702A46194B0068ADF812706946042485
:10AF000003968DF80040029301F07AF809B0BDE88D
:10AF1000F083BEF80870BB4216D001339BB2E3E762
:10AF200002EBC20308EB4303571C5FFA87F948455D
:10AF30003A4686F8C57201F11201CBD801230020F0
:10AF4000237009B0BDE8F0830023EDE71B89BEF84C
:10AF50000870BB42E1D1F1E78087002061AF0200B9
:10AF60002DE9F0430C463F4994F8C6320D68C3EB17
:10AF70000316C3EB860300211646A1B05A0084F8DD
:10AF8000C81204EB4303F5B137499B78074688782C
:10AF9000984254D0012D16D98879984255D0022D67
:10AFA00011D0887A984256D0032D0CD0887B9842D5
:10AFB0001FD0042D07D0887C984235D0052D02D0B3
:10AFC000887D984236D0DFF8A48001AD7C22002134
:10AFD000284602F0E5F8D8F80030ADF80660032204
:10AFE00002948DF804200BB12846984721B0BDE8A3
:10AFF000F083B1F80CC0A05A8445DAD1DFF86C8038
:10B00000D8F8009001ADB9F1000FDFD028467C22BE
:10B01000002102F0C5F80123ADF80660029728462A
:10B020008DF80430C847D1E7B1F810C0A05A844564
:10B03000C4D1E3E7898AA35A9942C4D1DEE7B1F8C3
:10B0400000C0A05A8445A5D1D8E7B1F804C0A05AE1
:10B050008445A4D1D2E7B1F808C0A05A8445A3D151
:10B06000CCE700BF64870020688700205C87002051
:10B070002DE9F0430446A9B020220D4601A8002185
:10B0800002F08EF8604E94F8C73232680133DBB2BA
:10B09000934284F8C73231D294F8C6325B4F04949D
:10B0A0000133DBB2C3EB0312C3EB820257F8230078
:10B0B00084F8C6324FF0000984F8C59204EB4201CF
:10B0C00044F81200762202FB034381F804901A68C8
:10B0D0004F48CDF8162002224E4B8DF804204FF039
:10B0E000010C0068ADF814C001A92A46039300F0D2
:10B0F00087FF8046C0B929B0BDE8F08300217C22DB
:10B1000084F8C81209A802F04BF8434BADF826505A
:10B110001B680A9403228DF82420002BEBD009A889
:10B12000984729B0BDE8F08394F8C632326884F8B5
:10B13000C892C3EB0311C3EB8103590004EB430333
:10B14000E2B19B78B87898424AD0012A16D9B879EA
:10B1500098424AD0022A11D0B87A98424AD0032A9B
:10B160000CD0B87B98424AD0042A07D0B87C9842C9
:10B1700017D0052A02D0BA7D9A422CD0264F09AEAC
:10B180007C220021304602F00BF83B68ADF82650D7
:10B1900003220A948DF82420002BACD03046984727
:10B1A000A9E73E8A605A8642E3D11B4FD7F8009048
:10B1B00009AEB9F1000FE3D030467C22002101F046
:10B1C000EFFF0123ADF82650CDF8288030468DF8EA
:10B1D0002430C847D4E7BA8A635A9A42CED1E4E70A
:10B1E0003E88605A8642B0D1DFE7BE88605A864208
:10B1F000B0D1DAE73E89605A8642B0D1D5E7BE8940
:10B20000605A8642B0D1D0E764870020688700206A
:10B210008087002061AF02005C87002080B1036856
:10B2200073B1426862B130B406480749074D084C13
:10B2300003600A60002001232860237030BC70473F
:10B240000E2070475C8700208087002064870020E4
:10B2500060870020002843D0224B1B78DBB1224BB3
:10B260001B68C3B1F0B590F8C86289B00446A6B9AE
:10B270000D464FF4BA6231461C4F01F091FF314642
:10B280006846202201F08CFF3868294600F098FFBC
:10B2900030B109B0F0BD08207047112009B0F0BDF1
:10B2A000134BA4F8CA521B68C4F8CC0284F8C50238
:10B2B000A4F8C6022A46236002260125CDF81230E2
:10B2C00038680C4B039469468DF80060ADF8105057
:10B2D000029300F095FE0028DBD184F8C852D8E72D
:10B2E0000E20704760870020648700208087002040
:10B2F0006887002061AF0200002800F0E2802DE99D
:10B30000F04F0D46A3B0002900F0AB80744B1B78C2
:10B31000002B00F0A6800388322B044600F0EC805E
:10B3200000F2A280112B00F0CD80302B40F09980EC
:10B330008388B1F8CA229A4240F09380C388002BD8
:10B3400040F0158291F8C6320269762101FB035361
:10B35000C3F8062095F8C432827A1344062B00F312
:10B36000D08285F8C43203AE202200213046A7885F
:10B3700001F016FF0422002102A801F011FF95F848
:10B38000C53295F8C622002B00F0EC81013BDBB200
:10B39000762103EBC30301FB02F101EB43032B44D2
:10B3A0005B8A01339BB2ADF80830762303FB02536E
:10B3B0004C481B89ADF80A3002994B4B0068059345
:10B3C000CDE9065103213A468DF80C10314600F0C4
:10B3D00017FE0746002844D095F8C632434AB4F811
:10B3E00004801168C3EB0312C3EB820300245800EE
:10B3F00005EB430285F8C84219B33D4B92789C781F
:10B40000944200F0DE8201291BD99C79944200F01D
:10B41000DF82022915D09C7A944200F0EC82032945
:10B420000FD09C7B944200F0ED82042909D09C7CD3
:10B43000944200F0F282052903D0997D914200F0F8
:10B44000F3822C4C7C220021304601F0A9FE2368B7
:10B45000ADF80E80032204958DF80C200BB1304618
:10B46000984723B0BDE8F08F332BFAD18288B1F82A
:10B47000CA329A42F5D1C18895F8C67295F8C5626C
:10B48000002940F051814389002B00F04D81762046
:10B4900000FB07F006EBC60300EB430028442246FE
:10B4A000D389A3F52453082B00F22F81DFE813F092
:10B4B0002B01500154012D012D012D012D012D01D4
:10B4C0004A0170478288B1F8CA329A42C9D1002233
:10B4D0004FF6FF7381F8C822A1F8CA32C1E700BF56
:10B4E000608700208087002061AF02006487002011
:10B4F000688700205C8700208288B1F8CA329A42AF
:10B50000AFD1C388002B40F0E48091F8C672827AF4
:10B51000C7EB0713C7EB830301EB43085E0098F802
:10B5200004904A44062A00F3FF81D2B288F804202E
:10B53000384691454B4680F01382A446762202FBA2
:10B5400007F709EBC90107EB41015CF80C9F98F87C
:10B550000420DCF8048005EB010E1031CEF80A90CF
:10B56000CEF80E80BCF808C0AEF812C0294403F132
:10B57000010E4FF0000C9645C1F804C0C1F808C098
:10B580004FEAC30180F09980A0460EEBCE0158F837
:10B5900016AF07EB410105EB0109D8F804B0C9F873
:10B5A0000EB0C9F80AA0B8F80880A9F812801031C6
:10B5B000294403F102084245C1F804C0C1F808C09B
:10B5C0004FEACE0140F2C881A64608EBC8015EF8FA
:10B5D00020AF07EB410105EB0109DEF804B0C9F823
:10B5E0000EB0C9F80AA0BEF808E0A9F812E01031C0
:10B5F000294403F1030E7245C1F804C0C1F808C024
:10B600004FEAC80140F2AA81A0460EEBCE0158F8DD
:10B610002AAF07EB410105EB0109D8F804B0C9F8DE
:10B620000EB0C9F80AA0B8F80880A9F81280103145
:10B63000294403F104084245C1F804C0C1F808C018
:10B640004FEACE0140F28881A14608EBC80159F8C3
:10B6500034EF07EB410105EB010AD9F804B0CAF851
:10B660000EB01031CAF80AE0053305EB010E9A421C
:10B67000B9F80810AAF812104FEAC801CEF804C0B1
:10B68000CEF808C040F26A81214603EBC30E51F8A0
:10B690003E8F07EB4E0705EB070ED1F80490CEF86E
:10B6A0000E901037CEF80A802F440989AEF8121098
:10B6B000D900C7F804C0C7F808C00B4405EB430322
:10B6C0007627334407FB0050598A03899942C0F01A
:10B6D0008680002685F8C562A28802A92846FFF761
:10B6E000CBFB0746002844D19DF80830002B3FF4DF
:10B6F000B8AEA28801212846FFF7E4FAA1882846BF
:10B70000FFF7B6FCADE69389C382838A2BB1C38A67
:10B710001BB1038B0BB1438B33B963890131994260
:10B7200002F10602FFF4BCAE762202FB0752731C44
:10B730001279002693428DF8086010D101238DF80C
:10B740000830D6E7B2F80CC0838AA0F81AC0DDE74B
:10B7500093890383838AD9E793898382D6E785F81F
:10B76000C532B9E7762303FB0253DB881BE60021D1
:10B77000C1E795F8C632C14AB4F80480116885F86B
:10B78000C862C3EB0312C3EB8203580005EB43020C
:10B7900019B3BB4B92789C78944200F0E580012964
:10B7A0001BD99C79944200F0FA80022915D09C7A2A
:10B7B000944200F0FA8003290FD09C7B944200F061
:10B7C000FA80042909D09C7C944200F00881052964
:10B7D00003D0997D914200F0088103AE31E6062A3C
:10B7E0003FF477AF03AE85F8C52200212022304612
:10B7F000B4F8048001F0D4FC0422002102A801F076
:10B80000CFFC95F8C53295F8C622002B00F00181D7
:10B81000013BDBB203EBC30307FB02F707EB430378
:10B820002B445B8A01339BB24FF07609ADF80830A8
:10B8300009FB025393481B89ADF80A300299924BD9
:10B8400000680593CDE9065103218DF80C1042469E
:10B85000314600F0D5FB074600283FF402AE874B87
:10B8600095F8C6221868B4F8048012FB09F2002388
:10B87000A91885F8C83200283FF4E3AD804B8978D9
:10B880009C788C4200F0D68001287FF6DAAD9C7956
:10B890008C4200F0DD8002283FF4D3AD9C7A8C42CC
:10B8A00000F0CF8003283FF4CCAD9C7B8C4200F0AD
:10B8B000D68004283FF4C5AD9C7C8C4200F0D68035
:10B8C00005283FF4BEAD987D88427FF4BAAD998AD1
:10B8D000AB5A99427FF4B5AD6C4CD4F80090B9F1F5
:10B8E000000F3FF4AFAD7C220021304601F058FC40
:10B8F0000123ADF80E8004978DF80C303046C84710
:10B90000A0E5634B63486449C01AC00806230004DD
:10B9100040F0020085F8C4320190FAF71FFF019849
:10B920005E49FAF71BFF1EE5594B5A485C49C01A9D
:10B93000C008062388F804300004AA5B40F0020027
:10B940000190FAF7CFFF01985649FAF707FF98F8E8
:10B95000042095F8C602ECE57346AEE64346ACE635
:10B9600009F1FF33D900A8E61E882C5AA6427FF4BD
:10B9700016AF464CD4F8009003AEB9F1000F3FF477
:10B9800061AD30467C22002101F00AFC0123ADF8B4
:10B990000E80049730468DF80C30C84752E59E88DB
:10B9A0002C5AA6427FF401AFE3E71E892C5AA64227
:10B9B0007FF401AFDDE79E892C5AA6427FF401AFE8
:10B9C000D7E735F800C01C88A4457FF41CAD83E799
:10B9D00035F800C09C88A4457FF41BAD7CE71E8A27
:10B9E0002C5AA6427FF4F3AEC3E79A8A2B5A9A42A6
:10B9F0007FF4F3AEBDE735F800C01C89A4457FF4A1
:10BA00000EAD69E735F800C09C89A4457FF40DAD03
:10BA100062E707FB0257FB8806E735F800C01C8A7F
:10BA2000A4457FF408AD57E79A8A2B5A9A427FF4CF
:10BA300008AD51E7B3F800C0AC5AA4457FF424AF79
:10BA40004AE7B3F808C0AC5AA4457FF42BAF43E7EC
:10BA5000B3F804C0AC5AA4457FF41DAF3CE7B3F87B
:10BA60000CC0AC5AA4457FF424AF35E7B3F810C03E
:10BA7000AC5AA4457FF424AF2EE700BF64870020B2
:10BA8000688700208087002061AF02005C8700206B
:10BA90003CE402007CE40200CCDB0200ECDB0200B0
:10BAA00034DC02007CDC020090DF7047A5DF7047C9
:10BAB000B5DF704770B5002484B061F30F04002334
:10BAC00061F31F446A4602A90294ADF8043003935F
:10BAD00000930646FFF7E8FF044610B9204604B07D
