:020000021000EC
:1090000000600020BD920100119301001393010044
:10901000159301001793010019930100000000004F
:109020000000000000000000000000001B93010091
:109030001D930100000000001F9301002193010017
:10904000C9B1010023930100B1B5010023930100D0
:10905000239301000000000061B40100239301008C
:109060002393010023930100239301002393010024
:109070002393010023930100239301002393010014
:109080002393010051A301002393010023930100C6
:109090002393010023930100ADC801002393010035
:1090A0002393010023930100000000000000000052
:1090B0002393010023930100000000000000000042
:1090C00000000000000000000000000000000000A0
:1090D0000000000000000000000000000000000090
:1090E0000000000000000000000000000000000080
:1090F0000000000000000000000000000000000070
:10910000000000000000000000000000000000005F
:10911000000000000000000000000000000000004F
:10912000000000000000000000000000000000003F
:10913000000000000000000000000000000000002F
:10914000000000000000000000000000000000001F
:10915000000000000000000000000000000000000F
:1091600000000000000000000000000000000000FF
:1091700000000000000000000000000000000000EF
:1091800000000000000000000000000000000000DF
:1091900000000000000000000000000000000000CF
:1091A00000000000000000000000000000000000BF
:1091B00000000000000000000000000000000000AF
:1091C000000000000000000000000000000000009F
:1091D000000000000000000000000000000000008F
:1091E000000000000000000000000000000000007F
:1091F000000000000000000000000000000000006F
:1092000010B5054C237833B9044B13B10448AFF3C0
:1092100000800123237010BDC01100200000000059
:10922000CCD6010008B5034B1BB103490348AFF38B
:10923000008008BD00000000C4110020CCD6010051
:10924000A3F5803A704700BF174B002B08BF134BA4
:109250009D46FFF7F5FF00218B460F461348144A41
:10926000121A03F0B1FC0E4B002B00D098470D4BA7
:10927000002B00D098470020002104000D000D486D
:10928000002802D00C48AFF3008003F06BFC2000F4
:10929000290002F05DFF03F051FC00BF0000080050
:1092A000000000000000000000600020C01100204D
:1092B000DC19002000000000000000000E480068DB
:1092C0000E4909680A280AD1002908D10C48026809
:1092D0006FF070031A404FF040031A4302600949CF
:1092E000094A0A4B9B1A03DD043BC858D050FBDCEB
:1092F00001F0C2FCFFF7A8FF30010010340100109C
:10930000E40E00408CD7010018110020C01100208D
:10931000FEE7FEE7FEE7FEE7FEE7FEE7FEE7FEE725
:10932000FEE7FEE7F0B595B01D46164608460C462A
:1093300001F09AFB1A9B0D93CDE9086500252B4699
:10934000082205A920460A958DF82C500C9501F0AD
:10935000A8FB079B0293069B03939DF814308DF89E
:10936000115003F00302012A1DD1BDF81420059D00
:10937000C3F3C203C2F383168DF81030B200082382
:109380000EA9204601F08DFBC5F3952508AB00938F
:10939000324602AB0EA9284600F0AAFB204601F097
:1093A00067FB15B0F0BD022AF8D1BDF81650C3F323
:1093B000C203C5F389158DF810300827082D2E46F5
:1093C00028BF08263B4632460EA9204601F069FB1D
:1093D000AD1B08AB02AA31460EA8374400F0ECFBE7
:1093E000002DEBD1DAE70000014B01221A70704723
:1093F0001D1200207047000070B5124D06460FCDBB
:1094000088B06C460FC495E80F00002E84E80F006A
:109410004FF0FF334FF00602CDE90023CDE90233D0
:10942000094A0A484FF0EB7308BF002269460693C9
:1094300001F050FE08B100F01DFC054B1E7008B095
:1094400070BD00BF04CC0100E99301001811002099
:10945000DC11002007B5044B0093044A4023FFF7BA
:1094600061FF03B05DF804FB71940100DD11002081
:1094700038B50D4B0D4D002018700D4804782D5D4A
:10948000D2B21C4665B1043002F020FD08B100F0F4
:10949000F1FB084B1A7812B12378002BFBD038BDB2
:1094A0000C3002F0C7FAF1E71D120020D819002095
:1094B00018110020DC11002008B50848084A03787C
:1094C000D35C3BB1043002F071FCBDE808400020E1
:1094D000FFF792BF0C3002F03FFAF6E718110020B8
:1094E000D81900200120FFF787BF000008B5FFF75B
:1094F000F9FF0448042100F063FA034B01225A717A
:1095000008BD00BF74D701002C110020037802466B
:1095100013F0040006D003F00300012803D0022852
:1095200009D0012070470B6812880233C2F38312FE
:1095300013440B6070470B685288023303EB92139D
:109540000B60EEE72DE9F04F87B000230446861C40
:109550000DF107000F4615468DF8073000F07CFD31
:10956000404A51683960936803F580735B1A9246EC
:1095700002F21C4702F5836902F21448B3421AD37F
:109580000020002D69D004F00F039B0143F0050378
:1095900063F30F00DAF80430DAB203321E444AF8FB
:1095A00022009DF80700CAF8046000F079FD012050
:1095B00007B0BDE8F08F0121384600F07EFF484635
:1095C00000F093FF404600F090FFDAF808000290A8
:1095D000C0B203300AEB800002A9FFF797FF029B9D
:1095E00030BBDAB20AEB8202D16803919A1C0133D4
:1095F000DBB20AEB83030292D3F80CB001F0030351
:10960000012B22D0022B15D08346404600F070FF7C
:1096100010B1029BCAF808305946384600F04DFF99
:10962000DAF80830DAF8042003F580739B1AA5E70E
:10963000D8B2CEE7BDF80E30C3F3891303334FEA37
:109640001B4B02EB93030293DFE7BDF80C30C3F32F
:1096500083134FEA1B4B1344F5E7A40544F00600BF
:1096600098E700BFF0120020064B074810B5002213
:109670001A7001F0B2F9044610B9044801F040FA3A
:10968000204610BDF0120020F0D6010058CC010099
:1096900030B50A4C71B10A4A0A49121BD20800239C
:1096A0009A4201D1002030BD31F82350854202D0CA
:1096B0000133F5E7034654F83300F4E704D701001B
:1096C00074D70100C0110020094B013903EBC00021
:1096D000032909D8DFE801F00A02040604207047D4
:1096E000007970474079704700207047022070472A
:1096F00004D70100034BD3E90130C31A5842584143
:10970000704700BFF01200202DE9F04186B0FFF74E
:10971000F1FF0546002840F0E680744CC4F81804B8
:10972000BFF34F8FA3680293DBB2033304EB8300D4
:1097300002A9FFF7EBFE029B18B1D4F81824002A07
:1097400055D0DAB2991C013304EB8202DBB204EB90
:109750008303D268DB68049302F00303022B0392B5
:1097600002914FD1BDF80E306148C3F38917502FD5
:109770003E4628BF502666F38F1306F10801ADF868
:109780000E3001F042F90546002800F0978001F004
:109790006BF9002303A90822284601F078F9029901
:1097A000CB43DBB20133C9B20331B6EB830F4FEACF
:1097B000830804EB810122D908234246A6EB080660
:1097C000284601F064F9F6B24A4908F10803324626
:1097D000284601F05CF9029B033703EB97070297D9
:1097E000D4F81834002B41D1D4F8106451E06268E9
:1097F0009A4299D8A260284606B0BDE8F0810823B5
:109800003246E5E7012B59D1BDF80C303848C3F397
:109810008311062928BF062161F3891302318900CB
:10982000ADF80C3001F0F1F80546002846D001F003
:109830001BF90023082203A9284601F028F9002675
:10984000BDF80C20C2F38312B300964203F1080363
:10985000C6D202994A1CC9B20331029204EB8101BB
:109860000422284601F013F90136E9E7284601F001
:10987000FFF8FFF73FFF80F00105EDB2BBE7F368AB
:109880005B7923B1336829461B6830469847F368F3
:109890001E68002EF3D1284601F0EAF80DF107000A
:1098A0008DF8076000F0D8FBD4F818340BB9029B90
:1098B000A3609DF8070000F0F3FBDAE7D4F810444A
:1098C00054B90D4B0D480E49C01AC008000440F0B1
:1098D000020000F05DF8CCE7236820469B689847BB
:1098E000E3681C68ECE7002585E700BFF012002064
:1098F000F0D60100FC12002004D701002CD7010093
:1099000041CC01002DE9F34704460E46924601A9D9
:10991000012218469946FFF715FE1B4F10B3019D13
:109920004FF00008AA1CC84508EB020123D11748D4
:10993000002100F09FFD80F31000000440EA144075
:10994000E4006B1C04F03804DBB2EDB244F0010417
:1099500007EB8303033544EA881444EA8624D8607D
:1099600047F825403B781BB1FFF7CEFE0028FBD11E
:1099700002B0BDE8F087C9B207EB81015AF8283080
:10998000CB6008F10108CEE7F01200200C17002090
:1099900000231A46FFF7B6BF07B50123019201AABB
:1099A000FFF7B0FF03B05DF804FB07B5CDE9002376
:1099B00002236A46FFF7A6FF03B05DF804FB000030
:1099C00030B5134AD2F8104403460020214649B965
:1099D000DC682071D2F8104454B9C2F81034DB6846
:1099E000196030BDC9680D7985420AD00968EEE773
:1099F000E468D96824680C60D2F81024D268136037
:109A0000EFE701300A28E1D14FF0FF30E9E700BF6E
:109A1000F012002038B5084A0123D2F81044137020
:109A20001D4604B938BDE3685D71236820465B6854
:109A30009847E3681C68F4E7F012002010B5037A39
:109A4000052B0C460FD0437A23B1084A084920461B
:109A500000F0B3FD0749204600F0AFFD2046BDE809
:109A6000104000F09FBD002AF8D0F3E764CC01005D
:109A700069CC010089CC010073B5C38804460D464A
:109A800033B1144A00921449144A284600F095FD57
:109A9000217A05291CD0637A4BB1A088FFF714FE08
:109AA0000F4B104953F82020284600F086FD227AFB
:109AB0000D4BA08853F822600021FFF7E9FD0B4908
:109AC00003463246284602B0BDE8704000F075BD3E
:109AD00002B070BD64CC010074CC01006CCC0100FC
:109AE000F0CC010069CC010014CD01008CCC010048
:109AF0002DE9F04385B01F460C9D002395F80C908E
:109B00002B7306460C46904629463846FFF7B4FFAD
:109B1000B8F1060F09D8DFE808F00412181F28333F
:109B200040003146284600F048FD002229463846CC
:109B3000FFF784FF85F80C9005B0BDE8F08322683C
:109B40003146284600F039FDEFE7D4E900233146DD
:109B5000284600F032FDE8E7A36800933146D4E9D7
:109B60000023284600F029FDDFE7E3680193A3689E
:109B700000933146D4E90023284600F01EFDD4E7C7
:109B800023690293E3680193A36800933146D4E903
:109B90000023284600F011FDC7E76369039323699A
:109BA0000293E3680193A36800933146D4E900234C
:109BB000284600F002FDB8E708292DE9F84F804655
:109BC0000E4617461C463BD8002593F80C901D7393
:109BD00019461046FFF750FFDFF88CA0DFF88CB075
:109BE000AE422FD918F805205946204600F0E5FC72
:109BF0000135082DF4D11949194DDFF874A020461C
:109C000000F0DBFC4FF0000B5E4522D918F80B206A
:109C10007E2A1CD8134BD15C11F0970F08BF2E225F
:109C20005146204600F0C9FC0BF1010BBBF1080FB7
:109C3000EAD1012221463846FFF700FF84F80C9054
:109C4000BDE8F88F5146204600F0B7FCD0E72E2241
:109C5000E6E72946204600F0B0FCE5E7A0CC01008D
:109C60009ECC0100C5D501009CCC010096CC010022
:109C7000A2CC01001FB50021039001AA44F201000B
:109C8000CDE9011100F004F805B05DF804FB000017
:109C900010B572B6FFF7BEFEFFF736FD0028FBD108
:109CA000104B114C1149E41AE408240444F001005B
:109CB000FFF76EFE0E4B1B68DB0700D500BE0D499B
:109CC00044F00200FFF764FEBFF34F8F0A490B4BCD
:109CD000CA6802F4E0621343CB60BFF34F8F00BF4A
:109CE000FDE700BF04D701002CD7010033CD0100F0
:109CF000F0ED00E03FCD010000ED00E00400FA05CA
:109D0000D0E90223D1E90201994208BF90422CBF59
:109D1000012000207047000008B50B4800F001FB4F
:109D20000A4B0B49D3E900231218D1E9000143F192
:109D300000038B4208BF824203D212F1807243F1CA
:109D400000031046194608BD34110020B01700204A
:109D50002818002037B505460C460A4801A900F02E
:109D600014FB60B10570446001A9064800F037FBA0
:109D700018B1054800F0DAFA002003B030BD042025
:109D8000FBE700BF141800203411002038B5184B31
:109D90001B78044613B90025284638BD0028FAD0A0
:109DA000037F03F0FF05002BF5D0FFF7B5FFD4E9E3
:109DB0000223994208BF904214D3236903B9237741
:109DC000D4E90530984721690029E4D0237F03F0C6
:109DD000FF05002BDFD0D4E90223521843F1000322
:109DE000C4E902230348214600F0ADFED4E700BFDA
:109DF000B81700205CCD010013B5114B114918684C
:109E0000019008231048582200F0ACFA044698B993
:109E10000E4A0F4801A900F065F9044660B90C48E4
:109E2000012100F05FFA01230A4A0948194600F0AF
:109E3000BBF9094B01221A70204602B010BD00BFC9
:109E400056CD0100BC17002014180020BD9E010053
:109E500034110020FFFF7F00B81700203AB10368DB
:109E60005A614A1E51425141196100207047072032
:109E7000704738B5037F04460D4683B98261FFF70A
:109E80004BFF2369401941F10001C4E9020103B10C
:109E9000256121460020BDE83840FFF75BBF002068
:109EA00038BD0023014603770120FFF753BF0000B0
:109EB000014800F036BA00BF341100202DE9F04F00
:109EC00085B0804600F017FA40B15B4AD2E9003114
:109ED00013F1807341F10001C2E9003100214046D5
:109EE00000F019FA38B1554E336823B13068FFF7E6
:109EF0004DFF002333600121404600F00CFA20B1F1
:109F0000FFF70AFF4E4BC3E900014E484B4F4E4E40
:109F1000DFF83C9103A900F072FA002845D1DFF880
:109F20002891464EDFF82CA1484600F022FE336807
:109F3000002876D07BB13368D0E90201D3E902234F
:109F4000994208BF90422DD233681B7F1BB1316804
:109F5000484600F0F8FD484600F005FED0E902B39F
:109F600007460193FFF7D8FE019BBBEB000463EBB0
:109F70000105012C75F1000346DBB4F5350F41D323
:109F8000FFF796FF314A02444FF4960300215046F2
:109F900000F02EF900283FD1336813B9404600F095
:109FA000FBF8376005B0BDE8F08F0378012B1ED0B9
:109FB000022B09D14FF0000A304600F0D4FD0028F2
:109FC00035D080F81CA0F7E743B943681A7F2AB957
:109FD00001221A774168304600F0B5FD03A91948FF
:109FE00000F038FA03A9174800F009FA95E741682C
:109FF0003B68994202D100233B60EFE7304600F016
:10A00000BBFDEBE7BA68BFE70021504600F078F9E6
:10A010003846FFF7BBFE01E00D28F9D0002333607E
:10A0200082E7002BBED1404600F0BAF8BAE7012320
:10A0300089F80030D2E700BFB017002030180020A8
:10A0400028180020141800205CCD0100FFFFB40088
:10A05000B81700203411002070B5EFF3108672B6E7
:10A060000C4A946801239CB993600B4B0B4DD3F8B9
:10A07000801029401160C3F88050D3F884105160DB
:10A080004FF0FF32C3F88420047006B962B670BD89
:10A090000370FAE7CC19002000E100E0FC06FFBDE8
:10A0A00010B5084B9A685AB150B9EFF3108172B6E7
:10A0B000054A1C6814605C685460986001B962B617
:10A0C00010BD00BFCC19002000E100E0034640585D
:10A0D00082B028B100225A505B580193019B0120A5
:10A0E00002B0704738B5244C437944F82320234C00
:10A0F000234A121B234C04EBC303D2081B7912041E
:10A1000033B142F002002049FFF742FC082038BD7D
:10A1100003680D88C3F8085590F904308978002B3E
:10A120004FEA4111ADBF03F1604303F00F03174D38
:10A1300003F56143B9BFC9B2E954C9B283F800134A
:10A1400090F90430002B08DB01215D0903F01F03A7
:10A1500001FA03F30E4941F82530437904EBC301BA
:10A16000012544F833000D7142F003000949FFF75F
:10A170000FFC0020CBE700BF3C18002004D70100F3
:10A180003CD701003418002068CD010014ED00E038
:10A1900000E100E08ACD0100036801221A607047E7
:10A1A000036801225A607047F7B504684FF48035A0
:10A1B0008D40C4F808530468C4F8485301F15004B2
:10A1C000A4000668A4B20027375134590194019CB9
:10A1D000046801F5A87122F07F4244F8212002684A
:10A1E000C2F8445313B10368C3F8045303B0F0BD7D
:10A1F0002DE9F34799464FF48038036808FA01F8CF
:10A20000C3F848830368C3F8088322F07F450268D7
:10A210000E46D2F8041502EB860206F15007D2F87A
:10A220004035C2F84015BF000268BFB24FF0000AC7
:10A2300042F807A05B1AD259009223F07F43012B0A
:10A24000009A04460BD1264B4FF4806043F0010383
:10A250009847236843F807A0DB590193019B2368C3
:10A26000D3F80475C3F84483EB1B23F07F43012B21
:10A2700006F5A876236819D1013543F82650184B06
:10A280004FF4806043F0010398472368D3F8043506
:10A290009F4209D12368C3F8448323680020C3F890
:10A2A000048302B0BDE8F0870D20FAE743F826509A
:10A2B0002068D0F804156A1A013AC9F1FF1322F098
:10A2C0007F4203F57F439342EED3002AE2D101356A
:10A2D00040F826502368D3F804359942D9E700BFE7
:10A2E000A0CD010002680223C2F8443311B1026814
:10A2F000C2F80433704700684FF48271FFF7E6BE7E
:10A300004FF4803303FA01F10368C3F8481303687C
:10A31000C3F80813704750318900006889B2FFF70D
:10A32000D5BE0368D3F804057047000090F90430E7
:10A33000002B09DB5A09012103F01F0301FA03F383
:10A340004032024941F82230704700BF00E100E08E
:10A35000024B034A1B681068184700BF3C180020D6
:10A360003418002030B5054659B1B2FBF3F403FBB5
:10A370001424A0B238B9C5E90010A860AA81EB8105
:10A3800030BD0E20FCE70920FAE737B550E8013F61
:10A390009DB2C48925448489A54228BF2D1B048908
:10A3A000A54202BFBFF32F8F002207E0C5EA0305D5
:10A3B00040E80154002CE9D14FF001028DF8032050
:10A3C0000193019B9DF803200B6002F0FF0322B173
:10A3D0000B880068184403B030BD1846FBE70A88B4
:10A3E0004B889A4209D150E8012FC2EA024240E864
:10A3F0000123002BF7D1012070470020704737B5AB
:10A4000050E8023F1FFAA3F5C488A54202BFBFF37C
:10A410002F8F00220DE0C48925448489A54228BFDE
:10A420002D1BC3EA054540E80254002CE8D14FF04B
:10A4300001028DF803200193019B9DF803200B601E
:10A4400002F0FF0322B14B880068184403B030BD0E
:10A450001846FBE70A884B889A4209D150E8022F38
:10A46000C2EA224240E80223002BF7D101207047C4
:10A470000020704710B5034653E8000F0A4643E832
:10A48000002494F0000FF7D110BD10B5034653E837
:10A49000002F42EA010043E8000494F0000FF6D1D7
:10A4A00010BD10B5034653E8000F00EA010243E86F
:10A4B000002494F0000FF6D110BD10B5034653E808
:10A4C000002F02EB010043E8000494F0000FF6D1E6
:10A4D00010BD10B5034653E8002FA2EB010043E87E
:10A4E000000494F0000FF6D110BD0121FFF7CDBF9D
:10A4F0000021FFF7D6BF10B590B1D0E90123016864
:10A500009B1ADBB20A60013BDBB2FF2B026802D16F
:10A510000020107110BD11684C1C14600B70F2E724
:10A520000E20F7E737B5044600250DF107008DF83A
:10A530000750FFF791FD2268616813688B4210D9BC
:10A54000591E116013F8015C228AE36802FB05358D
:10A550002268A36811685B1A1179DBB2994238BF8F
:10A5600013719DF80700FFF79BFD284603B030BD2F
:10A5700037B5054600230DF107000C468DF807306E
:10A58000FFF76AFD2A681368591C1160E968641AAC
:10A59000298AB4FBF1F41C709DF80700FFF780FDD9
:10A5A00003B030BD10B5826804462AB14369016822
:10A5B000006998470023A36010BD0EB403B503994A
:10A5C00021B104AB01AA019300F076F802B05DF866
:10A5D00004EB03B070470A2938B504460D4602D192
:10A5E0000D21FFF7F8FFA3682268591CA160D5541C
:10A5F000D4E901329A4204D32046BDE83840FFF73F
:10A60000D1BF38BD2DE9F84F9846DDE90A4315461C
:10A6100082460F460A464FF00109AA420FD2C145B1
:10A6200038BFC14613F0010B01D16CB900240126DB
:10A63000B8F1010F1BD908F1FF386E43F8E709F1B3
:10A640000109B2FBF5F2E8E79B070ED5B8F1000F60
:10A650000CBF30262026A145E9D2013C31465046A8
:10A66000FFF7B9FF002CF6D1E0E72026F3E7B7FBB0
:10A67000F6F39D42E1D9DFF83C80B7FBF6F3504694
:10A6800018F8031006FB1377FFF7A5FF3346AB421C
:10A69000B6FBF5F6F1D2BBF1000F02D00CB1A1452B
:10A6A00001D3BDE8F88F20215046013CFFF793FF0E
:10A6B000F4E700BFA6CD01002DE9F74F0546174688
:10A6C0008846002900F0428118F8011B49B92B7B0C
:10A6D000002B00F03B81284603B0BDE8F04FFFF7A8
:10A6E00061BF252940F0B780002698F800302D2B57
:10A6F000424608F1010823D0302B24D02B2B25D043
:10A7000000242A2B02F1010123D13B681A1D3A6073
:10A710001B680A461C4413782E2B26D101324FF0B9
:10A72000000A104610F8011BA1F1300CBCF1090F12
:10A730001DD80A2303FB0A13A3F1300A0246F0E7EF
:10A7400046F00106D1E746F00206CEE746F00406E1
:10A75000CBE711F8013CA3F130000928DBD80A222D
:10A7600002FB0434303C0A46CBE74FF0000A12F8F3
:10A77000011B01F0FB0068289046F8D0782909D821
:10A780006F290CD8632962D022D8252963D0582993
:10A7900000F0888098F80030002B95D197E7703949
:10A7A0000829F7D801A353F821F000BF27A9010019
:10A7B00095A7010095A70100B5A8010095A7010084
:10A7C00093A8010095A7010095A70100A5A8010085
:10A7D000642901D06929DDD13A68111D3960D2F8A8
:10A7E000009089EAE972A2EBE9724FF0010B092AA5
:10A7F00035DCD34538BFD3462CB1B9F1000F01DBAE
:10A80000720700D5013CB30702D5BAF1000F03D09F
:10A81000F00701D44CBB0024B9F1000F2DDAC9F1C7
:10A8200000092D212846FFF7D6FE06F00302022A72
:10A8300004D1BAF1000F01D11CBB0024CDE90046C0
:10A8400053460A2249462846FFF7DCFEA2E73B684A
:10A850001A1D3A6019782846FFF7BDFE9AE70A23C9
:10A860000BF1010BB2FBF3F2C1E7A345D4D22021D7
:10A870002846013CFFF7AFFECCE77107D5D52B2169
:10A88000D0E7A345DAD230212846013CFFF7A3FEEA
:10A89000D2E73968CDE900460A1D3A6053460A22DC
:10A8A0000968D0E739680A1D3A60CDE90046534689
:10A8B0001022F5E73B681A1D3A6016F00106D3F83E
:10A8C000009028D1B9F1000F03D0484602F084F976
:10A8D0000646B44200D904BB09F1FF3919F8011F3B
:10A8E00000293FF457AF2846FFF775FEF6E72846E4
:10A8F0000136FFF770FE19F806100029F7D1A642BD
:10A90000BFF448AF002C3FF445AF20212846013C5E
:10A91000FFF761FEF3E70026EDE720212846013C22
:10A92000FFF759FED5E73B681A1D3A6030212846EB
:10A930001C68FFF750FE78212846FFF74CFE0022E6
:10A940000823CDE90032214610227CE703B0BDE8A0
:10A95000F08F00BF2DE9F84FB0F806A04579D2F886
:10A9600000B09DF828900AFB05F5043D88460BEBE6
:10A970000301A94203F1040488BFA5EB030BB4FB58
:10A98000FAF607460AFB1644C2F800B04EB9AAEB25
:10A9900004055D4528BF5D46BBF1000F04D1BDE84D
:10A9A000F88F3F68013EF1E7043408EB06003C44B1
:10A9B0002A46B9F1000F0DD02146ABEB050B02F092
:10A9C000F5F8DA452E443F6855464FF0000428BF9D
:10A9D0005D46E1E701462046EFE7FFF78CBDF8B59D
:10A9E00046790146721E0546002393422D6803D323
:10A9F0000024A64202D8F8BD0133F6E70F682846C6
:10AA0000FFF7B6FD01343946F3E72DE9F843CD1CD5
:10AA1000068A0746FFF786FD043E35440446B5FB2B
:10AA2000F6F5F0B14FF48073EDB28380C680013D3E
:10AA3000076081464FF00008A84512D23846FFF75C
:10AA400071FD064648B163790133637108F101086D
:10AA5000C9F8000007608146EEE72046FFF7BFFF18
:10AA600034462046BDE8F88301210430FFF725BDB8
:10AA700010B5012104460430FFF72BFD10F0FF0F45
:10AA800004D12046BDE81040FFF7A9BF10BD1FB597
:10AA900003920022009203AAFFF75CFF05B05DF865
:10AAA00004FB1FB503920122009203AAFFF752FF95
:10AAB00005B05DF804FB41DF70470000064B10B5A0
:10AAC00000241C70054B1C60BFF35F8F04490548D0
:10AAD00000F024F8204610BD481800204C18002033
:10AAE000C0CD01004018002008B501F0C5FE18B126
:10AAF000BDE80840FFF7DFBF20BF40BF20BF08BD53
:10AB0000826800239360826813618268536182685F
:10AB1000D3608268536082681360704701600B687D
:10AB200043604A68934204BF002343607047436810
:10AB300043B1026891680B4443605268934204BF7A
:10AB400000234360704770B5446806460D46206890
:10AB500018B1B3682946984718B923682B60256057
:10AB600070BD2468F3E74368186808B102681A608A
:10AB700070474368186870474368186800B97047A1
:10AB8000884203D102681A600120704703460068BA
:10AB9000F4E7000010B50D49A1F59472914201D877
:10ABA00000200FE08C1AE30F03EBE4035B1002EBD1
:10ABB000C30452F83330834205D802D204F10802AC
:10ABC000ECE7606810BD2146E8E700BFCCD2010089
:10ABD00008B5FFF7DFFF024B002808BF184608BD85
:10ABE0008FD10100BFF34F8F0549064BCA6802F4AD
:10ABF000E0621343CB60BFF34F8F00BFFDE700BFA0
:10AC000000ED00E00400FA05044B1868421C04BF84
:10AC1000034B1878831F5842584170473001001089
:10AC2000E00F00F0074B1B78062B09D1064B1B6881
:10AC3000C3F30313033B032B02D8044AD05C7047D1
:10AC400000207047E00F00F0E80F00F0D4D20100C0
:10AC5000074B1868421C04BF064B1878062804D01E
:10AC6000A0F10A035842584170470120704700BFC5
:10AC700030010010E00F00F008B5FFF7C5FF28B164
:10AC8000944B954A1B68C3F304231360FFF7CAFF74
:10AC900010B1924B924A1A60FFF7DAFF28B1914B3C
:10ACA000914A1B68C3F342331360FFF7BBFF20B127
:10ACB0008E4AD36823F08073D360FFF7C9FF40B199
:10ACC0004FF080430022C3F80C21C3F81021C3F8D1
:10ACD0003825FFF7A7FF10B1854B03221A60FFF755
:10ACE000A1FF40B1834B05221A6001229A6700221E
:10ACF0009A603F225A60804B1A68501C0BBF7F4BF2
:10AD00007F4B1A781B6802BF08331B68C3F3031319
:10AD1000062A4ED1033B032B03D87A4AD35C002B7F
:10AD200049D04FF08052784BD2F80414C3F8201564
:10AD3000D2F80814C3F82415D2F80C14C3F8281557
:10AD4000D2F81014C3F82C15D2F81414C3F8301527
:10AD5000D2F81814C3F83415D2F81C14C3F84015EF
:10AD6000D2F82014C3F84415D2F82414C3F84815B7
:10AD7000D2F82814C3F84C15D2F82C14C3F8501587
:10AD8000D2F83014C3F85415D2F83414C3F860154F
:10AD9000D2F83814C3F86415D2F83C14C3F8681517
:10ADA000D2F84014C3F86C15D2F84424C3F87025C7
:10ADB00001E00A2AB5D0FFF727FF28B1534B544AC8
:10ADC0001B6803F04F031360FFF742FF48B14FF0D9
:10ADD0008043D3F80024D10744BF6FF00102C3F8C9
:10ADE0000024454B1B68062B0CD1454B1B68033BCD
:10ADF000032B02D8474AD35C83B1474A136843F414
:10AE0000806313603C4B1B680A2B07D13C4B1B68CB
:10AE100023B13F4A136843F00F0313604FF0102330
:10AE2000D3F80022002A03DBD3F80432002B24DA03
:10AE30003A4B0122C3F80425D3F80024002AFBD0A2
:10AE40004FF010221521C2F80012D3F80024002A76
:10AE5000FBD04FF010231522C3F804222F4B1A46C3
:10AE6000D3F800140029FBD00021C3F80415D2F850
:10AE70000034002BFBD0FFF7B5FE294B1B68DA0727
:10AE800003D4284B1B68DB071FD5244B0122C3F8D2
:10AE90000425D3F80024002AFBD0214A00211160A8
:10AEA000D3F80024002AFBD01E4B00221A601B4B53
:10AEB0001A46D3F800140029FBD00021C3F804156A
:10AEC000D2F80034002BFBD0D5E7174B174A1A6095
:10AED00008BD00BF240300104035014074C0074086
:10AEE0000DF0ADBA440200103C050040F0ED00E06A
:10AEF000A00500401056004030010010E00F00F0A7
:10AF000034010010CCD2010000C0004058020010F3
:10AF1000E40E0040D0D201003C17004000E00140A8
:10AF200000120010041200103C1100200090D00309
:10AF300038B5074C051E04F1080318BF1C462368EA
:10AF40002BB11A6822605B6828469847F7E738BD3E
:10AF50005818002020B9054B01225A70FFF7E8BFAE
:10AF6000012802D1014A9070F8E77047501800207C
:10AF700020B9034B01225A70FFF7DABF704700BFB8
:10AF80005018002038B50E4C2378B3B90D486360D3
:10AF9000A3602361E36000F0E5F8054601F06CFC76
:10AFA00008B900F0EBF801232370074BD3F8003405
:10AFB0000BB10123A370284638BD8525F5E700BFF6
:10AFC0005018002055AF01000000014037B50D4C6E
:10AFD00000230DF107008DF80730FFF73DF8E36817
:10AFE000013BE360E36833B9074BD3F8005415B96C
:10AFF00000F0D6F8A5709DF80700FFF751F803B0F0
:10B0000030BD00BF5018002000000140012813B5DA
:10B010000CD0032820D038B9124B0122C3F880206D
:10B02000BFF34F8FBFF36F8F02B010BD0E4C0023E4
:10B030000DF107008DF80730FFF70EF823780BB9F4
:10B04000FFF7A0FFE3689DF807000133E3600123E9
:10B05000A370FFF725F8E7E700F090F8FFF7B6FFD9
:10B06000E2E700BF00E100E0501800201FB50378C0
:10B070008DF800304368019383688DF80830C36809
:10B08000054A0393054B684653F8213052F82110C6
:10B09000984705B05DF804FB64180020681800208C
:10B0A0001FB503788DF800304368019383688DF8ED
:10B0B0000830C368054A0393054B684653F82130AE
:10B0C00052F82110984705B05DF804FB6418002081
:10B0D00068180020F0B5194B90F800C091F81DE0F9
:10B0E00043F82C20164B16460A6943F82C20154BC2
:10B0F00003F80CE00C4607460FCC89B06D460FC52F
:10B1000094E80F0085E80F00CDF810C0BEF1000FE5
:10B1100009D0002E0C4A694608BF3246381D00F09F
:10B1200075FD09B0F0BD002E084A694608BF3246D9
:10B1300007F10C0000F04CFBF3E700BF681800209B
:10B1400064180020D81900206DB00100A1B00100E2
:10B1500000F18040002382B0036003680193019BEB
:10B1600002B07047044B0246187918B91A600122E0
:10B170009A807047852070476C180020074B1A682A
:10B18000D20704D4C02283F8002301221A604FF0B2
:10B1900080430122C3F81825704700BF00E100E09A
:10B1A0004FF0804208B50223C2F808334FF4827092
:10B1B000FFF7CEFF034B01211960D2F81834DB03EF
:10B1C000FBD408BD0C00004010B5124B1B6873B1D6
:10B1D0004FF48070FFF7BCFF4FF080430122C3F8AB
:10B1E00008230D4B587910B95A711B6898470B4BBF
:10B1F0001B6873B14FF48270FFF7AAFF4FF08043D2
:10B200000222C3F80823044BBDE810401B6801204C
:10B21000184710BD000100406C18002004010040D8
:10B2200000F1804000F5C040002382B00360036855
:10B230000193019B02B07047800000F1A040D0F85C
:10B24000002722F44032C0F80027D0F8003743EA44
:10B250000143C0F800377047054B4FF0FF32072815
:10B2600043F8202084BFC01880F84820704700BFF2
:10B270007418002010B51A4C94F858306BBB4FF07E
:10B28000FF3222FA03F1C90748BFE11803F10103B5
:10B2900048BF81F83020202BF3D10021C8B2FFF73E
:10B2A000DBFF01310C29F9D1042200210D4801F006
:10B2B0008BFC0D4BC02283F8062340221A604FF40A
:10B2C000BE70FFF7ADFF094B4FF00042C3F80423F7
:10B2D000012384F85830002010BD0820FCE700BF8F
:10B2E00074180020C818002000E100E00060004051
:10B2F000F0B5374E0546301890F93000002864DA72
:10B300008878C0F3400000280BBF082300230C24DA
:10B310000824A34201D10420F0BD56F82370013760
:10B320003FD1741946F8232084F8303010B9F21850
:10B3300082F848508A78500713D4D40733D5AA002E
:10B3400002F1A042D2F8000720F00200C2F8000784
:10B350002048EA0805F007070124BC40875C3C430D
:10B3600084548A780C7812F0020025D09B0003F1F7
:10B37000804303F5C0432A02D3F8101521F4473166
:10B3800021F44071C3F810152404D3F8101502F409
:10B39000F85204F4403422430A43C3F81025002035
:10B3A000BAE70133B5E7487805F5E0724FF0A044FD
:10B3B000800044F82200CBE7083B334493F8502048
:10B3C00042EA841483F85040A6E70820A4E700BFAF
:10B3D00074180020C818002038B51F4C251895F99E
:10B3E0003020072A16DD224492F848309B09032BAF
:10B3F0000BD14FF0A043D3F81015C14001F001016B
:10B400000231BDE83840FFF717BF012B0CBF022106
:10B410000321F6E7D3B2072B1CD8930003F1804336
:10B4200003F5C043D3F8100540F00100C3F8100540
:10B4300002F14000800080B2FFF7F2FE51B195F9B1
:10B44000303054F823302BB1012303FA02F2034BBE
:10B45000C3F8042338BD00BF74180020006000400A
:10B460002DE9F74F00244E4D01944FF480720121D5
:10B4700002F1804303F5C04390B21B68012B06D153
:10B48000D5F804330B4202D0FFF7CAFE0C43043256
:10B49000B2F5907F4FEA4101EAD1424B1B68012B84
:10B4A0000CD14FF4BE70FFF7BBFE4FF0A04344F049
:10B4B0000044D3F820250192C3F8202514F0FF0F93
:10B4C0001AD0394F00250126344210D0AB0003F1C9
:10B4D000804303F5C043D3F81005D3F8101557F88F
:10B4E000253023B1C1F30141C0F304209847013551
:10B4F000082D4FEA4606E7D1002C48DA2A4D4FF0D6
:10B50000A0482A4E4FF00009012716F9013B5A1CAA
:10B5100031D0C3F3C20202A90A44DCB212F8042CEF
:10B5200003F03F0A03F0070307FA03F31A4222D09D
:10B530000AF5E073504658F82330C3F3014BBBF1D2
:10B54000020F0CBF03210221FFF776FE07FA0AF370
:10B55000C8F8203505EB0A0393F9303055F823304D
:10B560004BB1A109032904D0BBF1020F12D101296B
:10B5700001D15046984709F10109B9F1040FC4D12E
:10B58000D8F820350193C8F82035002BB9D103B085
:10B59000BDE8F08FBBF1030FEDD10229E8E700BF52
:10B5A000006000407C61004074180020C418002036
:10B5B000014B1B68184700BFD01800200E4B984263
:10B5C00037B50C4602D0002003B030BD00230DF18A
:10B5D00007008DF80730FEF73FFD084B1D7915B9C0
:10B5E00001221C601A719DF80700FEF759FD002D1D
:10B5F000E9D01120E8E700BF00200040D01800206B
:10B60000034B984201BF034B00221A601A71704726
:10B6100000200040D01800200023435082B043583F
:10B620000193019B02B070470A4610B54FF48E712A
:10B63000FFF7F2FF136A9168C95C136A0133136262
:10B64000C0F81C1510BD10B58B690A464FF4847103
:10B6500023B9FFF7E1FFD0F8183510BDFFF7DCFF85
:10B66000536AD168D0F81805C854536A013353623D
:10B67000F3E700001FB501238DF80030044BCDE93E
:10B680000110D3E900126846904705B05DF804FB4D
:10B69000D818002030B54C48D0F8043313F4007F9C
:10B6A00085B005464DD0D0F82431002B49D04FF459
:10B6B0009271FFF7B1FF4FF40173C0F80833434BA9
:10B6C00093F829200AB9012242603F4902228DF8ED
:10B6D0000020D1F88024C1F8802403929A69029254
:10B6E000DA6801920022C3E906226846D3E9001213
:10B6F00090473548D0F81C315BB134494A690B6A30
:10B700009A420A464BD991F82830002B47D1FFF7CF
:10B710008BFF2D48D0F844318BB14FF4A271FFF765
:10B720007BFF2A4B93F829200AB1012202609A6913
:10B730002AB10022586AD9689A61FFF79BFF05B0C9
:10B7400030BDD5F804335B07D3D5D5F80831002BCD
:10B75000CFD01E4C1C482146FFF775FF636AA269D3
:10B760009A422346C5D1E26952B12369E168E36098
:10B770000023606AA261E3616362FFF77BFFB8E7C1
:10B7800094F829200AB901226A600F4A4FF4017126
:10B79000C2F808130022586AD9689A61EDE70A488E
:10B7A0004FF48E71FFF738FF5369002BB1D0516908
:10B7B0000291002391688DF8003001915361684631
:10B7C000D2E900139847A4E700200040D8180020D1
:10B7D0002DE9F8435B4B067991462C2202FB063299
:10B7E000054692F82A200C469846002A40F0A5808B
:10B7F00055490068FFF7E2FE0746002840F09F80A9
:10B800002268501C0BD0012393404FF0A04203212B
:10B81000C2F80835236803F5E07342F82310636823
:10B82000591C1FBF03F5E0734FF0A042002142F8FE
:10B8300023102B68A269C3F82425217D637D2A6823
:10B840000B43C2F86C35D4E900122B68C3F81425F9
:10B85000C3F80C15237D012B1FD1A3685A1C1FBFF1
:10B860004FF0A04203F5E073002142F82310E26894
:10B87000531C0BD0012393404FF0A0420321C2F888
:10B880000835E36803F5E07342F82310D4E90212A7
:10B890002B68C3F80825C3F810152C23734308EB55
:10B8A0000302C2F80490226948F80320B9F1000F9E
:10B8B00030D02868247F4FF48E71FFF7ADFE4FF42F
:10B8C000A2712868FFF7A8FE2B68204AC3F804235A
:10B8D0002A68110B42F30732002AAEBF02F1604220
:10B8E0001B4A01F00F014FEA4413DBB2AABF02F575
:10B8F0006142535482F800332A68130B42F3073233
:10B90000002A07DB03F01F0101238B405209114974
:10B9100041F822302B680422C3F800252C2303FBB6
:10B9200006830022C3E9062283F829205A610122F6
:10B9300083F82A203846BDE8F8830827FAE711275C
:10B94000F8E700BFD818002095B60100800002007B
:10B9500014ED00E000E100E0F8B503680479324D31
:10B960000022C3F800252C2303FB04535B68B3B10A
:10B9700003682E4AC3F8082303681A0B43F30733FE
:10B98000002B0CDB02F01F015B0901228A402033EF
:10B99000274941F82320BFF34F8FBFF36F8F036810
:10B9A0004FF0FF3CD3F80C75D3F81465D3F8082595
:10B9B000D3F81015C3F814C5C3F80CC50368674560
:10B9C000C3F808C518BF07F5E077C3F810C51EBF58
:10B9D0004FF0A0434FF0020C43F827C0771C1FBF65
:10B9E0004FF0A04306F5E076022743F826704E1C80
:10B9F0001FBF01F5E0714FF0A043022643F821601C
:10BA0000531C1FBF4FF0A04302F5E072022143F820
:10BA100022100068FFF7F4FD2C2303FB04540023DD
:10BA200084F82A306360F8BDD81800208402020030
:10BA300000E100E02DE9F047214F90F804904FF02D
:10BA40002C0808FB097405466669002E35D1626131
:10BA5000A160266284F8286000684FF48E71FFF7B9
:10BA6000DBFD2B6801229A6028682146FFF7DCFD88
:10BA70006368A0468BB92868D4F814A0236A9A4555
:10BA800011D82A68D2F81C31002BFBD00123D360D7
:10BA90002C2303FB097300225A613046BDE8F0876E
:10BAA00094F828303BB9D0F81C31002BF8D041462F
:10BAB000FFF7BAFDE2E70F26EAE71126EDE700BF40
:10BAC000D81800200023435082B043580193019BB3
:10BAD00002B070471FB501238DF80030044BCDE94B
:10BAE0000110D3E900126846904705B05DF804FBE9
:10BAF000041900207FB5434AD2F82461002E60D09B
:10BB000010464FF49271FFF7DDFF02238DF80030ED
:10BB1000D2F88034C2F880340393D2F83C350293D3
:10BB2000394BDA6801920022C3E906226846D3E95C
:10BB3000001290473348D0F8443173B14FF4A271EA
:10BB4000FFF7C0FF304B9A693AB10022C3E90622E1
:10BB5000D968D0F83C05FFF7BDFF2A48D0F820315E
:10BB6000ABB14FF49071FFF7ADFF0123C360264BDB
:10BB70005A6962B1D0F84C150291002299688DF88B
:10BB8000002001915A616846D3E9001290471D4890
:10BB9000D0F858319BB14FF4AC71FFF793FF1A4BBB
:10BBA0005A6962B1D0F84C150291002299688DF85B
:10BBB000002001915A616846D3E90012904704B011
:10BBC00070BDD2F81031002BB4D04FF488711046FC
:10BBD000FFF778FF0C4BD2F83C0599698842A9D150
:10BBE000DC69D96864B1D2F8005225F02005C2F8AA
:10BBF00000521A699C61DA60DE61FFF76BFF99E71A
:10BC00009C61FAE700200040041900202DE9F84368
:10BC1000614B06799146242202FB0632054692F8D2
:10BC200020200C469846002A40F0B2805B4900680C
:10BC3000FFF7C4FC0746002840F0AC802268501C87
:10BC40000BD0012393404FF0A0420321C2F80835E6
:10BC5000236803F5E07342F823106368591C1FBF83
:10BC600003F5E0734FF0A042002142F823102B6847
:10BC7000A269C3F82425217D637D2A680B43C2F89D
:10BC80006C35D4E900212B68C3F80C25C3F81415D2
:10BC9000237D012B1FD1A3685A1C1FBF4FF0A04268
:10BCA00003F5E073002142F82310E268531C0BD027
:10BCB000012393404FF0A0420321C2F80835E36806
:10BCC00003F5E07342F82310D4E902122B68C3F89D
:10BCD0000825C3F810152423734308EB0302C2F8A8
:10BCE0000490226948F80320B9F1000F3FD028687A
:10BCF000227F4FF48871FFF7E5FE28684FF49071BA
:10BD0000FFF7E0FE28684FF49271FFF7DBFE28682A
:10BD10004FF4A271FFF7D6FE4FF4AC712868FFF71D
:10BD2000D1FE2B681E49C3F804132B68190B43F38B
:10BD30000733002BAEBF03F160431A4B01F00F0134
:10BD40004FEA4212D2B2AABF03F561435A5483F8B4
:10BD500000232A68130B42F30732002A07DB03F0A3
:10BD60001F0101238B4052090F4941F822302B68F3
:10BD70000822C3F80025242303FB06830022C3E91D
:10BD800006225A61012283F820203846BDE8F88354
:10BD90000827FAE71127F8E704190020F5BA01008F
:10BDA0001003420014ED00E000E100E0F8B5444D5E
:10BDB0000479242303FB045302465B680068ABB19B
:10BDC000404BC0F808331368190B43F30733002BBB
:10BDD0000CDB01F01F065B090121B14020333A4E14
:10BDE00046F82310BFF34F8FBFF36F8FD0F80032A8
:10BDF00023F02003C0F80032242303FB04539B6983
:10BE00002BB14FF4A271FFF75DFE012343604FF4A5
:10BE1000AC71FFF757FE0123C360242303FB0453D7
:10BE2000D0F858110029FBD0996919B1D0F8441104
:10BE30000029F5D00023C0F8003513684FF0FF3E0D
:10BE4000D3F80CC5D3F81475D3F80815D3F81065DA
:10BE5000C3F80CE5C3F814E51368F445C3F808E526
:10BE600018BF0CF5E07CC3F810E51EBF4FF0A043EF
:10BE7000022243F82C207B1C1FBF4FF0A04307F584
:10BE8000E077022243F82720721C1FBF06F5E076F8
:10BE90004FF0A043022243F826204B1C1FBF4FF057
:10BEA000A04301F5E071022243F82120FFF7A8FB2F
:10BEB000242303FB0454002384F820306360F8BD7E
:10BEC000041900201003420000E100E001F060438B
:10BED000B3F1005F2DE9F04105463BD11F4B0779D7
:10BEE000242606FB073698467469002C34D172610B
:10BEF000B16000684FF49071FFF7E4FD4FF4AC714E
:10BF00002868FFF7DFFD2B687269B168C3F8441534
:10BF1000C3F848252B6801229A607368BBB92B6867
:10BF2000D3F82021D3F858411AB9002CF8D00F24A7
:10BF300008E0002CFBD10122DA602A68D2F85831DF
:10BF4000002BFBD0242303FB078700237B612046C3
:10BF5000BDE8F0811024FAE71124F8E70419002065
:10BF600072DF704773DF704774DF70477CDF7047A4
:10BF7000014B01221A7070475511002010B594B082
:10BF80004FF6FF730424ADF808301D481D4B049391
:10BF9000ADF80C4000F020FE194982B20DEB040010
:10BFA000FFF7E4FF3C22002105A800F00DFE8DF80C
:10BFB0001740154C02238DF81430182202AB0021D3
:10BFC00020460E9300F000FE0523104A2370002344
:10BFD00063602375A023A36052F8041B642305A8A3
:10BFE000A38100F0F7F908B1FDF744FE064A0749BE
:10BFF0000748FFF7B5FF08B1FDF73CFE14B010BDD0
:10C00000FAD20100511100209019002040110020A7
:10C010005011002008B5054B01211878FFF7A2FF49
:10C0200018B1BDE80840FDF725BE08BD501100203D
:10C0300010B5436804461BB1013B4360FFF7F8FFAE
:10C040004FF0A0420D49D2F81035DB0F0B70D2F83B
:10C0500010350B4ADB0FD3700A4B1878FFF784FFBB
:10C06000FFF78CFFFFF7D6FF2068FDF71AFF18B126
:10C07000BDE81040FDF7FEBD10BD00BF8C190020CB
:10C08000511100205011002010B5164C16481749C8
:10C0900000232360164BC01AC008000440F00300C0
:10C0A000FDF776FC13494FF0A0430A78D3F810054A
:10C0B000B2EBD07F15D0226801322260D3F8102570
:10C0C000D20F0A70D3F810350B4ADB0FD3700B4B2D
:10C0D0001878FFF749FFFFF751FFBDE81040FFF761
:10C0E00099BF10BD881900202CD7010001D3010091
:10C0F00004D701008C19002051110020501100209C
:10C1000008B50F4A1368B3F57A7F17D2013313606D
:10C110004FF0A0420B49D2F81035DB0F0B70D2F86C
:10C120001035094ADB0FD370084B1878FFF71CFF56
:10C13000FFF724FFBDE80840FFF76CBF08BD00BF54
:10C14000881900208C190020511100205011002066
:10C150002DE9F3414FF480410020FDF785FA08B145
:10C16000FDF788FDFDF7C2F9FDF746FE08B1FDF7C2
:10C1700081FD494A49480121FDF770FE08B1FDF7EC
:10C1800079FD474A47480121FDF768FE08B1FDF7F0
:10C1900071FD454A45480121FDF760FE08B1FDF7F4
:10C1A00069FDFFF767F808B1FDF764FD404B6C4689
:10C1B0001A889B78ADF80020A3703E4A00232146E0
:10C1C0001F208DF80130FFF793F808B1FDF752FDFD
:10C1D00001211F20FFF700F9FEF770FC08B1FDF701
:10C1E00049FD00F00BFB08B1FDF744FD002321469B
:10C1F0000120009300F08AFB08B1FDF73BFD2046CB
:10C2000000F032FC08B1FDF735FDFFF7B7FE4FF047
:10C21000804301229A602848284B2949294DC01A99
:10C22000C008000440F00300FDF7B2FB00222649DD
:10C2300026482A70FDF71DFE08B1FDF71BFD2448B6
:10C2400000224FF48041FDF714FE08B1FDF712FD06
:10C25000204E214FDFF884802B78ABB13368B3F5E3
:10C260007A7F0ED297E80300013384E80300224668
:10C270004FF4005140463360FDF7FBFD08B1FDF778
:10C28000F9FC00232B70E7E7FDF73EFA0028E3D125
:10C29000FEF72AFCE0E700BF31C0010030D3010007
:10C2A00089C001002CD3010001C1010034D3010079
:10C2B00020D3010071BF01002CD7010004D7010079
:10C2C00007D3010055110020000028232819002061
:10C2D000681900208819002024D301004819002083
:10C2E0006DDF704779DF70477DDF704764DF70472F
:10C2F0002DE9F04F85B000250E9CBDF83CB0B4F898
:10C3000000A00191074690461E46A9463A884A4534
:10C310000DDC45B12388013BA3EB0A039BB2FF2B45
:10C320003AD806F80A30002005B0BDE8F08F7A68E8
:10C3300052F82900039000220DF10B0103A8FFF72A
:10C34000D5FF0028F0D19DF80B20424521D122884D
:10C35000002D14BF0020022002EB080101445945C2
:10C360001ADC3DB9013292B2019B2280B35422887B
:10C370000132228022880DF10B01324403A8FFF71D
:10C38000B5FF0028D0D121889DF80B200A442280D7
:10C39000012509F10109B9E70C20C5E72DE9F341B1
:10C3A000089FBDF824801546CDE900780222044696
:10C3B0001E46FFF79DFF50B93346102229462046FE
:10C3C000CDE9087802B0BDE8F041FFF791BF02B0B7
:10C3D000BDE8F0812DE9F04F00231788138090F815
:10C3E0002D3085B006460D46144653B3082F01D8AC
:10C3F0000C2027E102A8FFF773FF002840F02281FC
:10C4000023880822EA54238801339BB21B2223800D
:10C41000EA542088013080B2208006220DF1090103
:10C42000284400F0C3FB23889DF8082006339BB204
:10C4300012F0FE0218BF01222380EA542388013340
:10C440002380B378FBB123880433BB42D0D802A841
:10C45000FFF748FF002840F0F58023880322EA54C4
:10C46000238801339BB219222380EA542388BDF824
:10C47000082001339BB2E9182380EA54120A4A705B
:10C48000238802332380F2789AB12388D91CB942D9
:10C49000AED80221E954238801339BB201212380C5
:10C4A000E95423880B449BB22380EA5423880B442D
:10C4B00023807268AAB12388D91CB94298D8022176
:10C4C00092F90020E954238801339BB20A2123808A
:10C4D000E954238801339BB22380EA542388013333
:10C4E00023803389002B40F0A180338A5BB1CDE9F2
:10C4F00000472B460722032106F11000FFF74EFFED
:10C50000002840F09F80338B5BB1CDE900472B467C
:10C510001522142106F11800FFF740FF002840F013
:10C520009180326A002A40F09080D6F82480B8F1D9
:10C53000000F30D0B8F804302188981C8A1C0244BF
:10C54000BA423FF655AFFE283FF652AF03336B5465
:10C55000238801339BB2FF222380EA5423880133CE
:10C560009BB22380B8F80020EA54E918120A4A70F6
:10C570002088023080B22080B8F804205AB1D8F860
:10C58000081000296BD0284400F010FB2388B8F86D
:10C5900004201344238096F82C30002B40F09A801E
:10C5A000307800284ED03388012B58D0228802F1F1
:10C5B000020CBC453FF61CAF012805D1737802334D
:10C5C00013449F42FFF414AF023FBF1ABFB202A947
:10C5D00005EB0C00ADF80870FFF786FE90BB3178D4
:10C5E000BDF80830022900F0BA8072789A4202D36E
:10C5F000BB4240F2B280012940F0B380974293B22F
:10C60000C0F0AF80ADF808300821BDF80830FE2B2F
:10C610003FF6EEAE22880133AB542288013292B24B
:10C620002280A9542288134423800BE0CDE90047DF
:10C630002B460622022106F10800FFF7AFFE002874
:10C640003FF453AF05B0BDE8F08FB4F800C00CF173
:10C650000603BB423FF6CCAE1188052901D807205E
:10C66000F0E76FF4486E01EB0E039BB24FF27D3E94
:10C670007345F4D95388052BF1D96FF44860181825
:10C6800080B27045EBD94FF6FF70814203D08342F0
:10C6900001D09942E3D8052305F80C3023880133F3
:10C6A0009BB212212380E954238801339BB223805B
:10C6B0001188E954E818090A4170238802339BB2B3
:10C6C00023805288EA54E918120A4A7023880233F8
:10C6D00023802AE7B36A002BC1D04FF000094FF046
:10C6E0000C0A4FF0160B96F82C305FFA89F2934241
:10C6F0007FF656AFB16A0AFB02F201EB0208B8F806
:10C700000430981CFE283FF673AE208803332B5468
:10C71000238801339BB2238005F803B023880133BB
:10C720009BB223808A5AEA54E918120A4A70208878
:10C73000023080B22080B8F804205AB1D8F808102E
:10C7400000298CD0284400F031FA2388B8F804205E
:10C750001344238009F10109C5E7092155E7BB42CC
:10C76000FBD9ADF808704FE710DF704713B50446EA
:10C7700009496846FEF7D2F9019808B902B010BD20
:10C78000D0E900312046984718B16846FEF7CFF946
:10C79000F2E71120F2E700BF44D3010013B50446CD
:10C7A00007496846FEF7BAF9019B0BB902B010BD04
:10C7B0002046D3E9002190476846FEF7B8F9F3E731
:10C7C0005CD301000B4991F816335A09EC2313414D
:10C7D000DB0706D5084B9A683AB94FF480030B6023
:10C7E000704742F20200FDF745BA1A6842F480022F
:10C7F0001A60704700E100E0CC190020F7B5194F2E
:10C800003C7864BB184E012520463570FFF7AEFF1B
:10C81000112821D02046FFF7C1FF144B8DF80340AB
:10C82000186801900DF10300FDF716FC104901A8EE
:10C83000FFF79AFF0446B0FA80F0400938709DF87F
:10C840000300FDF72DFC3CB90A4B34701C70FFF758
:10C85000B9FF2846FFF7A2FF204603B0F0BD082429
:10C86000FAE700BFC8190020C719002040D3010013
:10C87000919C0100C9190020014B1878704700BF36
:10C88000C819002007B508496846FEF747F9019B1B
:10C8900013B903B05DF804FBD3E900209047684664
:10C8A000FEF745F9F3E700BF50D30100FFF7EABFF9
:10C8B00060DF704769DF704761DF704730B5114B4B
:10C8C0001B7891B0E3B1104D34240DF1020103A89F
:10C8D000ADF80240FFF7F0FF70B9294601A8FEF756
:10C8E0001DF9029B002BF0D003A8D3E9002190474B
:10C8F00001A8FEF71CF9F4E7052801D0FDF7BAF905
:10C9000011B030BDCA190020A0D5010030B50546D0
:10C9100085B00C46002900F095804B4B0B600C2233
:10C92000002101A800F050F901238DF8063022689B
:10C930008DF80450062301A92020ADF80830FFF738
:10C94000B9FF60B1FEF744F9404B41490246414806
:10C950001B1ADB081B0443F00100FDF71DF80C2235
:10C96000002101A800F030F9002322688DF805307D
:10C9700001A94020FFF79EFF60B1FEF729F9334B74
:10C980003549024633481B1ADB081B0443F00100FB
:10C99000FDF702F80C22002101A800F015F9002390
:10C9A00022688DF8043001A90120FFF783FF60B1F0
:10C9B000FEF70EF9254B2949024626481B1ADB08CB
:10C9C0001B0443F00100FCF7E7FF0C22002101A843
:10C9D00000F0FAF8F8232268019301A9A120FFF7DB
:10C9E00069FF60B1FEF7F4F8184B1D49024619487B
:10C9F0001B1ADB081B0443F00100FCF7CDFF0C22DF
:10CA0000002101A800F0E0F89DF8043022686FF3DF
:10CA1000000301A9A0208DF80430FFF74BFF034667
:10CA200068B1FEF7D5F8094B0E49024609481B1AB2
:10CA3000DB081B0443F00100FCF7AEFF002318469F
:10CA400005B030BD0E23FAE71811002054D70100BD
:10CA500068D3010004D70100AED30100FAD301006E
:10CA600046D4010097D40100F8B506460768FFF7E1
:10CA70001FFF3368BB4205461DD91948194C1A4996
:10CA8000241AE408240444F002042046FCF780FF42
:10CA9000336816493A462046FCF787FF4FF080532B
:10CAA0003268D3F80C3112499B0203F100539A1AF1
:10CAB0002046FCF771FF25B90E4B01221A7028465B
:10CAC000F8BD2846FEF784F8064B0B490246044899
:10CAD0001B1ADB081B0443F00100FCF75DFFEEE7C7
:10CAE00004D7010054D70100EAD4010019D5010090
:10CAF0004AD50100CA19002074D501004BDF7047E8
:10CB00001FB50D4C01A8FFF7F9FF70B9214602A827
:10CB1000FEF704F8039B002BF4D00198D3E9002121
:10CB2000904702A8FEF703F8F4E7052801D0FDF7C7
:10CB3000A1F804B010BD00BFB8D5010008B5074B7F
:10CB4000044613B10021AFF30080054B1868836AD7
:10CB500003B19847204600F047F800BF00000000EE
:10CB6000C8D6010070B50D4D0D4C641BA4100026F5
:10CB7000A64209D10B4D0C4C00F038F8641BA410F0
:10CB80000026A64205D170BD55F8043B98470136F2
:10CB9000EEE755F8043B98470136F2E7B81100205C
:10CBA000B8110020B8110020BC1100200A449142A5
:10CBB00000F1FF3300D1704710B511F8014B03F8B5
:10CBC000014F9142F9D110BD02440346934200D176
:10CBD000704703F8011BF9E7034613F8012B002AFD
:10CBE000FBD1181A01387047FEE700BFF8B500BF47
:10CBF000F8BC08BC9E467047F8B500BFF8BC08BC3E
:10CC00009E467047FFFFFFFFFFFFFFFFFFFFFFFF95
:10CC1000FFFFFFFF00000000000000000000D60141
:10CC20000601000055940100B9940100F59301003C
:10CC3000756172745F6C6F675F6261636B656E6470
:10CC4000004261636B656E647320666C7573686522
:10CC50006400617070000000101700207F00000069
:10CC6000901700201B5B306D002573001B5B313B70
:10CC700033316D0025734C6F67732064726F707071
:10CC80006564202825642925730D0A003C25733E20
:10CC90002025733A20002025303278002020200003
:10CCA0007C002563001B5B313B33306D001B5B3127
:10CCB0003B33326D001B5B313B33336D001B5B310B
:10CCC0003B33346D001B5B313B33356D001B5B31F7
:10CCD0003B33366D001B5B313B33376D0077617240
:10CCE0006E696E6700696E666F00646562756700E5
:10CCF00064CC0100A5CC01006CCC0100ADCC0100DE
:10CD0000B5CC0100BDCC0100C5CC0100CDCC0100EB
:10CD1000D5CC01000000000039CD0100DDCC0100C0
:10CD2000E5CC0100EACC01006170705F627574743B
:10CD30006F6E00466174616C206572726F72005391
:10CD4000797374656D207265736574006170705FCE
:10CD500074696D65720001000600000000000000AB
:10CD6000A8170020019D010052544320696E73747E
:10CD7000616E636520616C726561647920696E69BA
:10CD80007469616C697A65642E005254433A206973
:10CD90006E697469616C697A65642E000000000038
:10CDA0000338FDD8704730313233343536373839AF
:10CDB0004142434445467077725F6D676D74000071
:10CDC000D8D60100D8D6010004000000736F727439
:10CDD0006C697374004E52465F5355434345535339
:10CDE000004E52465F4552524F525F5356435F4882
:10CDF000414E444C45525F4D495353494E47004EB6
:10CE000052465F4552524F525F534F465444455627
:10CE10004943455F4E4F545F454E41424C454400A7
:10CE20004E52465F4552524F525F494E5445524E04
:10CE3000414C004E52465F4552524F525F4E4F5F3B
:10CE40004D454D004E52465F4552524F525F4E4F38
:10CE5000545F464F554E44004E52465F4552524F26
:10CE6000525F4E4F545F535550504F5254454400FB
:10CE70004E52465F4552524F525F494E56414C49C1
:10CE8000445F504152414D004E52465F4552524F11
:10CE9000525F494E56414C49445F535441544500FA
:10CEA0004E52465F4552524F525F494E56414C4991
:10CEB000445F4C454E475448004E52465F455252DF
:10CEC0004F525F494E56414C49445F464C4147538F
:10CED000004E52465F4552524F525F494E56414CAA
:10CEE00049445F44415441004E52465F4552524FBF
:10CEF000525F444154415F53495A45004E52465F88
:10CF00004552524F525F54494D454F5554004E5271
:10CF1000465F4552524F525F4E554C4C004E524662
:10CF20005F4552524F525F464F5242494444454E2C
:10CF3000004E52465F4552524F525F494E56414C49
:10CF400049445F41444452004E52465F4552524F5D
:10CF5000525F42555359004E52465F4552524F520E
:10CF60005F434F4E4E5F434F554E54004E52465F07
:10CF70004552524F525F5245534F5552434553000D
:10CF80004E52465F4552524F525F4D4F44554C45AD
:10CF90005F4E4F545F494E495449414C495A4544AC
:10CFA000004E52465F4552524F525F4D55544558C0
:10CFB0005F494E49545F4641494C4544004E5246F4
:10CFC0005F4552524F525F4D555445585F4C4F4349
:10CFD0004B5F4641494C4544004E52465F455252D4
:10CFE0004F525F4D555445585F554E4C4F434B5F24
:10CFF0004641494C4544004E52465F4552524F52BD
:10D000005F4D555445585F434F4E445F494E495418
:10D010005F4641494C4544004E52465F4552524F8F
:10D02000525F4D4F44554C455F414C524541445928
:10D030005F494E495449414C495A4544004E524675
:10D040005F4552524F525F53544F524147455F46DE
:10D05000554C4C004E52465F4552524F525F415024
:10D06000495F4E4F545F494D504C454D454E5445D8
:10D0700044004E52465F4552524F525F464541541E
:10D080005552455F4E4F545F454E41424C4544001A
:10D090004E52465F4552524F525F494F5F50454E88
:10D0A00044494E47004E52465F4552524F525F44EC
:10D0B00052565F5457495F4552525F4F5645525240
:10D0C000554E004E52465F4552524F525F445256A3
:10D0D0005F5457495F4552525F414E41434B004EAA
:10D0E00052465F4552524F525F4452565F54574921
:10D0F0005F4552525F444E41434B004E52465F459E
:10D1000052524F525F424C455F495053505F525804
:10D110005F504B545F5452554E4341544544004E6A
:10D1200052465F4552524F525F424C455F49505301
:10D13000505F4348414E4E454C5F414C524541443F
:10D14000595F455849535453004E52465F45525219
:10D150004F525F424C455F495053505F4C494E4BD4
:10D160005F444953434F4E4E4543544544004E524D
:10D17000465F4552524F525F424C455F49505350B3
:10D180005F504545525F52454A454354454400551A
:10D190006E6B6E6F776E206572726F7220636F6454
:10D1A0006500000000000000D5CD01000100000076
:10D1B000E1CD010002000000FFCD010003000000EE
:10D1C00020CE01000400000033CE01000500000065
:10D1D00044CE01000600000058CE01000700000008
:10D1E00070CE01000800000088CE01000900000098
:10D1F000A0CE01000A000000B9CE01000B00000023
:10D20000D1CE01000C000000E8CE01000D000000AE
:10D21000FCCE01000E0000000ECF01000F00000048
:10D220001DCF01001000000031CF010011000000EF
:10D2300048CF01001200000057CF0100130000008A
:10D240006CCF01008000000080CF01008100000051
:10D25000A1CF010082000000BDCF010083000000CB
:10D26000D9CF010084000000F7CF01008500000045
:10D2700018D00100860000003DD0010090000000A1
:10D2800054D001009100000072D001009200000013
:10D2900090D0010000820000A5D0010001820000B2
:10D2A000C3D0010002820000DFD001000084000032
:10D2B000FBD00100018400001FD1010002840000A6
:10D2C00049D10100038400006ED10100000001017A
:10D2D0000000000101000000636C6F636B00434CB1
:10D2E0004F434B004750494F54450050525300554F
:10D2F0004152540055415254450057696E646F774E
:10D3000000436C65617200426561636F6E206578F1
:10D31000616D706C6520737461727465642E0000B9
:10D320000300020048190020030000002819002013
:10D3300048190020681900206E72665F73646800E7
:10D3400001000007D8D60100D8D60100080000006F
:10D35000E0D60100F0D6010008000000D8D6010098
:10D36000E0D601000800000073645F626C655F63D3
:10D3700066675F73657428292072657475726E65BF
:10D3800064202573207768656E20617474656D7004
:10D3900074696E6720746F2073657420424C455F1A
:10D3A000434F4E4E5F4346475F4741502E007364E4
:10D3B0005F626C655F6366675F73657428292072BE
:10D3C000657475726E6564202573207768656E20BC
:10D3D000617474656D7074696E6720746F20736515
:10D3E0007420424C455F4741505F4346475F524F70
:10D3F0004C455F434F554E542E0073645F626C651D
:10D400005F6366675F73657428292072657475723F
:10D410006E6564202573207768656E20617474657D
:10D420006D7074696E6720746F2073657420424C50
:10D43000455F434F4D4D4F4E5F4346475F56535FE9
:10D44000555549442E0073645F626C655F6366677F
:10D450005F73657428292072657475726E65642027
:10D460002573207768656E20617474656D707469CA
:10D470006E6720746F2073657420424C455F47418E
:10D480005454535F4346475F415454525F544142A2
:10D490005F53495A452E0073645F626C655F636633
:10D4A000675F73657428292072657475726E656490
:10D4B000202573207768656E20617474656D7074C3
:10D4C000696E6720746F2073657420424C455F4716
:10D4D000415454535F4346475F5345525649434571
:10D4E0005F4348414E4745442E00496E737566665A
:10D4F000696369656E742052414D20616C6C6F6385
:10D500006174656420666F722074686520536F666D
:10D51000744465766963652E004368616E676520B3
:10D520007468652052414D207374617274206C6F71
:10D53000636174696F6E2066726F6D203078257834
:10D5400020746F20307825782E004D6178696D75D4
:10D550006D2052414D2073697A6520666F7220619B
:10D5600070706C69636174696F6E206973203078C4
:10D5700025782E0073645F626C655F656E61626C16
:10D580006528292072657475726E65642025732E76
:10D59000006E72665F7364685F626C650000000015
:10D5A000D8D60100D8D60100080000006E72665F70
:10D5B0007364685F736F6300D0D60100D8D6010032
:10D5C00008000000002020202020202020202828E3
:10D5D0002828282020202020202020202020202033
:10D5E0002020202020881010101010101010101073
:10D5F00010101010100404040404040404040410A3
:10D600001010101010104141414141410101010130
:10D6100001010101010101010101010101010101FA
:10D620001010101010104242424242420202020206
:10D6300002020202020202020202020202020202CA
:10D64000101010102000000000000000000000007A
:10D6500000000000000000000000000000000000CA
:10D6600000000000000000000000000000000000BA
:10D6700000000000000000000000000000000000AA
:10D68000000000000000000000000000000000009A
:10D69000000000000000000000000000000000008A
:10D6A000000000000000000000000000000000007A
:10D6B000000000000000000000000000000000006A
:10D6C00000000000000000005811002000000000D1
:08D6D00071AF01000000000031
:08D6D8000DB00100000000008C
:10D6E000BDC801000000000001CB010000000000E7
:10D6F00020120020E8120020F01200202812002042
:04D70000180000000D
:10D70400DED2010000000000E4D2010000000000AD
:10D71400EBD2010000000000EFD201000000000085
:10D72400F4D201000000000052CC01000000030309
:10D7340028CD0100000000004CCD010000000000D5
:10D74400D8D201000000000038D301000000030318
:10D7540091D5010000000303ACD5010000000303D0
:10D76400B6CD010000000000CCCD01000000000097
:10D7740024CC01000000000030CC01002C1100205A
:08D78400BCBAFF7F01000000A8
:10D78C0000000000002000400000000000200040CD
:10D79C000000000000000000FF000000001001402D
:10D7AC00110004000090D003A81900201F000000F5
:10D7BC000000000000000000FF5701000001000005
:10D7CC00000000000000000000000000000000004D
:10D7DC00000000000000000000000000000000003D
:10D7EC00000000000000000000000000000000002D
:10D7FC00000000000000000000000000000000001D
:10D80C00000000000000000000000000000000000C
:10D81C0000000000000000000000000000000000FC
:08D82C002592010001920100A8
:04000003100092BD9A
:00000001FF
