:020000022000DC
:1070000000000420BD720200E5720200E772020077
:10701000E9720200EB720200ED7202000000000053
:10702000000000000000000000000000EF720200FD
:10703000F172020000000000F3720200F57202001B
:1070400019A30200F772020099AC0200F772020065
:10705000F7720200F772020099A70200F7720200AD
:10706000F7720200F7720200F7720200F772020074
:10707000F7720200F7720200F7720200F772020064
:10708000F77202001D8E0200F7720200F772020012
:10709000F7720200F772020051E00200F77202007C
:1070A000F7720200F7720200F7720200F772020034
:1070B000F7720200F77202000000000000000000FA
:1070C000F7720200F7720200F7720200F772020014
:1070D000F7720200F7720200F7720200F772020004
:1070E000F7720200F7720200F7720200000000005F
:1070F00000000000F772020000000000F7720200BA
:10710000000000000000000000000000000000007F
:10711000000000000000000000000000000000006F
:10712000000000000000000000000000000000005F
:10713000000000000000000000000000000000004F
:10714000000000000000000000000000000000003F
:10715000000000000000000000000000000000002F
:10716000000000000000000000000000000000001F
:10717000000000000000000000000000000000000F
:1071800000000000000000000000000000000000FF
:1071900000000000000000000000000000000000EF
:1071A00000000000000000000000000000000000DF
:1071B00000000000000000000000000000000000CF
:1071C00000000000000000000000000000000000BF
:1071D00000000000000000000000000000000000AF
:1071E000000000000000000000000000000000009F
:1071F000000000000000000000000000000000008F
:1072000010B5054C237833B9044B13B10448AFF3E0
:1072100000800123237010BDE872002000000000F0
:107220007CF4020008B5034B1BB103490348AFF3DC
:10723000008008BD00000000EC7200207CF4020019
:10724000A3F5803A704700BF174B002B08BF134BC4
:107250009D46FFF7F5FF00218B460F461348144A61
:10726000121A07F0C9F80E4B002B00D098470D4BAF
:10727000002B00D098470020002104000D000D488D
:10728000002802D00C48AFF3008007F075F820000A
:10729000290004F0ABFC07F05BF800BF0000080019
:1072A000000000000000000000000420E872002040
:1072B0008083002000000000000000000649074A0B
:1072C000074B9B1A03DD043BC858D050FBDC02F08F
:1072D00075FDFFF7B9FF00003CF60200A84300204F
:1072E000E8720020FEE7FEE7FEE7FEE7FEE7FEE7C6
:1072F000FEE7FEE7FEE7FEE7F0B595B000241D4689
:107300000E460846174602F01FFB30462346082269
:10731000099505A91A9D08970D950A948DF82C409A
:107320000C9402F075FB9DF814308DF81140DDE9E6
:10733000061003F00302012ACDE9020128D0022A37
:1073400004D0304602F004FB15B0F0BDBDF8165075
:10735000C3F3C2038DF81030C5F389150827082D33
:107360002C4628BF08243B4622460EA9304602F090
:107370004FFB2D1B214608AB02AA0EA8274400F0A4
:107380009FFE002DEBD1304602F0E2FA15B0F0BDC1
:10739000BDF81470059DC7F38312C3F3C2040EA990
:1073A0003046920008238DF81040C7F3831702F08F
:1073B0002FFBC5F3952508AB3A4628460EA9009346
:1073C00002AB00F005FE304602F0C2FA15B0F0BD87
:1073D000014B01221A70704748730020704700BFAC
:1073E00000B583B0044B0093044A4023FFF784FFA9
:1073F00003B05DF804FB00BF0174020008730020B5
:1074000038B50E480E4D03780E4CEB5C0025257008
:10741000D2B253B1043004F0C1F958B90A4B1B7809
:1074200013B12378002BFCD038BD0C3003F0CEFE16
:107430000028F3D001F0D2F8F0E700BFA843002005
:107440007C83002048730020047300202DE97043E2
:1074500019481A4A0378D35C88B02BB3043004F07F
:10746000E5F8174D0FCD6C460FC495E80F004FF0AF
:10747000EB7684E80F004FF006084FF0FF394FF02D
:10748000FF344FF0FF350C48069600226946CDE9DF
:107490000089CDE9024502F0C1FE48B9094B00223E
:1074A0001A7008B0BDE870830C3003F009FED8E70D
:1074B00001F094F8F2E700BFA84300207C8300208D
:1074C00048E4020004730020F0B5154D0FCD89B0DB
:1074D0006C460FC495E80F004FF0EB7C84E80F007A
:1074E00006264FF0FF374FF0FF344FF0FF350D4ABF
:1074F0000D48CDF818C06946CDE90067CDE90245D1
:1075000002F08CFE20B9094B01221A7009B0F0BDBF
:1075100001F064F8054B01221A7009B0F0BD00BFFC
:1075200048E40200D1730200A84300200473002045
:1075300008B5FFF7C9FF0448042100F0C7FC034B5E
:1075400001225A7108BD00BF24F60200BC4300208E
:10755000064B074810B500221A7002F08BF904465A
:1075600010B9044802F0B2FB204610BD1C74002084
:10757000D0F50200A0E4020099B10E4B0E495B1A4F
:10758000DB0815D030B400220C4D02E001329342EA
:107590000BD035F822408442F8D151F8320030BC8B
:1075A0007047054951F830007047002030BC7047E3
:1075B00018467047D0F5020038F50200E47200204A
:1075C000094B013903EBC00003290BD8DFE801F0B8
:1075D0000402080604207047022070474079704773
:1075E000007970470020704738F502002DE9F0431C
:1075F0008C4CD4E901239A4285B060D00023C4F8B2
:107600001834BFF34F8FA568EAB2D31C04EB830193
:1076100014F82330580718D566680B7803F0030375
:10762000012B42D0022B03D14B88023505EB931579
:10763000EAB2D4F81804D31C04EB830128B9AE4293
:1076400039D914F823305B07E7D404EB82026B1CB2
:10765000D2680192DBB204EB830302F00302DB6821
:107660000293022A05F102062DD0012A00F08D8036
:10767000D4F810543DB12B6828469B689847EB68B6
:107680001D68002DF7D16848684B6949C01AC008C9
:10769000000440F0020000F0D1F8D4E90130C01A33
:1076A00018BF012005B0BDE8F0830B880235C3F395
:1076B00083131D44BCE7A66005B0BDE8F08300203D
:1076C00005B0BDE8F083BDF806305A48C3F3891809
:1076D0004546502D28BF502565F38F1305F108014D
:1076E000ADF8063002F0C8F807460028C0D002F016
:1076F0002BF9002301A90822384602F055F9F3437B
:10770000DBB20133B5EB830F4FEA8309F1B277D9CE
:10771000A5EB0905033104EB810108234A463846ED
:10772000EDB202F041F944492A4609F1080338460E
:1077300002F03AF908F1030806EB9806D4F8183479
:10774000002B6AD1D4F8105465B1EB685A792846F9
:107750003946002A5DD02B681B689847EB681D6886
:10776000002DF2D1384602F0F3F800230DF10300AA
:107770008DF8033001F0BEF9D4F8183403B9A660CF
:107780009DF8030001F0DCF987E7BDF804302948D3
:10779000C3F38312062A28BF0622911C62F38913C1
:1077A0008900ADF8043002F067F8074600283FF47E
:1077B0005FAF02F0C9F80023082201A9384602F0A1
:1077C000F3F8BDF8043013F4707FB7D06FF0010800
:1077D000A8EB05080825F1B203312B46042204EB7F
:1077E0008101384602F0E0F8BDF80420013608EBCC
:1077F0000603C2F383129A4205F10405EBD89DE714
:1078000003312A4604EB81010823384602F0CCF804
:1078100090E71D68002D98D1A4E7384602F098F84B
:107820003BE700BF1C74002060F5020038F5020041
:1078300088E40200D0F50200287400202DE9F04F02
:107840005E4C87B0002306460DF10B008DF80B301F
:107850000F4601F04FF9D4E9015303F580735B1B28
:10786000012B7DD804F21C4804F5836A04F2144904
:107870001AE0BDF80E30C3F389130333090C0BEB88
:10788000930B4846019101F0DDFB0199002839D0A6
:107890004046C4F808B001F0A9FBD4E9013202F572
:1078A0008072D21A012A5CD80121404601F09EFB69
:1078B000504601F0B7FB484601F0B4FBA368DAB2CA
:1078C000D11C04EB810014F8211001F0040C4907CD
:1078D00028D404EB8202591CD2680392C9B204EB8B
:1078E000810102F00302012AC96803F1020B30D0C2
:1078F000022ABED000214846019101F0A3FB019964
:107900000028C5D14046C6E743880EEB9313DAB290
:10791000D11C04EB810014F8211001F0040CBCF11F
:10792000000FD6D0017801F0030101290BD0022904
:1079300003F1020E02F10301E6D004EB8100BCF179
:10794000000FEFD1C5E702880233C2F3831213445C
:10795000DDE7BDF80C30C3F38313090C9B4490E7BB
:107960002B46DAB20332023305219DF80B0044F8AE
:107970002210636001F0E4F80021114801F00CFBD3
:1079800080F31000F1006B1C01F03801DBB2EDB2A6
:1079900004EB830341F001010004033540EA16467D
:1079A00041EA8727DE6044F8257023781BB1FFF792
:1079B0001DFE0028FBD107B0BDE8F08F1C7400202D
:1079C000387800202DE9F04F634C87B0002306463D
:1079D0000DF10B008DF80B300F46904601F08AF840
:1079E000D4E9015303F580735B1B022B7FD804F2AB
:1079F0001C4904F5836B04F2144A1BE0BDF80E2009
:107A0000C2F389120332090C03EB92035046CDE90D
:107A1000003101F017FB019900283AD0009BA360C8
:107A2000484601F0E3FAD4E9013202F58072D21A35
:107A3000022A5DD80121484601F0D8FA584601F0E3
:107A4000F1FA504601F0EEFAA368DAB2D11C04EB69
:107A5000810014F8211001F0040C490729D404EB2B
:107A60008202591CD2680392C9B204EB810102F070
:107A70000302012AC96803F1020331D0022ABDD0F2
:107A800000215046CDE9003101F0DCFA01990028CF
:107A9000C4D14846C5E743880EEB9313DAB2D11C34
:107AA00004EB810014F8211001F0040CBCF1000F6C
:107AB000D5D0017801F0030101290BD0022903F18F
:107AC000020E02F10301E6D004EB8100BCF1000FCD
:107AD000EFD1C4E702880233C2F383121344DDE717
:107AE000BDF80C20C2F38312090C13448EE72B4619
:107AF000DAB20332033345219DF80B0044F822101B
:107B0000636001F01DF8AB1CDBB204EB83030021C2
:107B10001248C3F80C8001F03FFA80F31000F10026
:107B20006B1C01F03801DBB2EDB204EB830341F0D2
:107B300041010004033540EA164641EA8727DE602A
:107B400044F8257023781BB1FFF750FD0028FBD1C6
:107B500007B0BDE8F08F00BF1C740020387800200B
:107B60002DE9F04F684C89B0002506460DF1130051
:107B70001F468DF813508846039200F0BBFFD4E9EE
:107B8000015303F580735B1B032B00F2828004F228
:107B90001C4904F5836B04F2144A1BE0BDF816205F
:107BA000C2F389120332090C03EB92035046CDE96C
:107BB000013101F047FA029900283BD0019BA360F4
:107BC000484601F013FAD4E9013202F58072D21A64
:107BD000032A5FD80121484601F008FA584601F00F
:107BE00021FA504601F01EFAA368DAB2D11C04EB68
:107BF000810014F821C01CF0040F0CF0040128D1FE
:107C000004EB8202591CD2680592C9B204EB8101CF
:107C100002F00302012AC96803F1020332D0022AEA
:107C2000BCD000215046CDE9013101F00BFA029998
:107C30000028C3D14846C4E743880EEB9313DAB259
:107C4000D11C04EB810014F8211001F0040100297B
:107C5000D6D090F800C00CF0030CBCF1010F0BD093
:107C6000BCF1020F03F1020E02F1030CE4D004EBAD
:107C70008C000029EDD1C3E702880233C2F38312DE
:107C80001344DCE7BDF81420C2F38312090C13443B
:107C90008CE72B46DAB20332043385219DF81300BA
:107CA00044F82210636000F04BFFAA1CEB1CDBB20F
:107CB000D2B204EB830C04EB8202039B1348D36023
:107CC0000021CCF80C7001F067F980F31000F1008E
:107CD0006B1C01F03801DBB2EDB204EB830341F021
:107CE00081010004033540EA164641EA8821DE603E
:107CF00044F8251023781BB1FFF778FC0028FBD14E
:107D000009B0BDE8F08F00BF1C7400203878002057
:107D10002DE9F04F6B4C89B0002506460DF113009C
:107D20001F468DF813508846039200F0E3FED4E915
:107D3000015303F580735B1B042B00F2828004F275
:107D40001C4904F5836B04F2144A1BE0BDF81620AD
:107D5000C2F389120332090C03EB92035046CDE9BA
:107D6000013101F06FF9029900283BD0019BA3601B
:107D7000484601F03BF9D4E9013202F58072D21A8B
:107D8000042A5FD80121484601F030F9584601F035
:107D900049F9504601F046F9A368DAB2D11C04EB68
:107DA000810014F821C01CF0040F0CF0040128D14C
:107DB00004EB8202591CD2680592C9B204EB81011E
:107DC00002F00302012AC96803F1020332D0022A39
:107DD000BCD000215046CDE9013101F033F90299C0
:107DE0000028C3D14846C4E743880EEB9313DAB2A8
:107DF000D11C04EB810014F8211001F004010029CA
:107E0000D6D090F800C00CF0030CBCF1010F0BD0E1
:107E1000BCF1020F03F1020E02F1030CE4D004EBFB
:107E20008C000029EDD1C3E702880233C2F383122C
:107E30001344DCE7BDF81420C2F38312090C134489
:107E40008CE72B46DAB203320533C5219DF81300C7
:107E500044F82210636000F073FEA81CEA1C2B1D7E
:107E6000C0B2DBB204EB8000D2B204EB830C04EBB3
:107E70008202039BC3600021129B1348D760CCF899
:107E80000C3001F089F880F31000F1006B1C01F058
:107E90003801DBB2EDB204EB830341F0C101000411
:107EA000033540EA164641EA8821DE6044F8251091
:107EB00023781BB1FFF79AFB0028FBD109B0BDE87E
:107EC000F08F00BF1C7400203878002030B4154DAE
:107ED000D5F810140446002071B10B4601E01B6870
:107EE00053B1DB681A798242F9D101300A28F3D103
:107EF0004FF0FF3030BC7047E3681871D5F810348C
:107F00004BB1DA68E36812681A60D5F81034DB68A0
:107F10001C6030BC7047C5F81044E268136030BC88
:107F2000704700BF1C74002038B5084BD3F81044CC
:107F300001251D704CB1E3685D71236820465B68C4
:107F40009847E3681C68002CF5D138BD1C740020EC
:107F500030B5C38885B004460D461BBB217A052980
:107F60001ED0627A82B9134AA08852F82120039267
:107F70000021FFF701FB039A0F490346284605B08D
:107F8000BDE8304001F0DAB8A088FFF719FB0B4BD1
:107F90000B4953F82020284601F0D0F8217AE2E777
:107FA00005B030BD074A00920749084A284601F04B
:107FB000C5F8D3E778E50200D8E4020054E50200F2
:107FC000D4E40200CCE40200B4E40200ACE4020019
:107FD0002DE9F04385B04FF0000C0C9C814694F8DD
:107FE0000C8084F80CC00E461746184621461D46E4
:107FF000FFF7AEFF062F09D8DFE807F0042E343B69
:10800000444F1F004946204601F098F82B7A052B73
:1080100005D06B7A5BB92749204601F08FF82046DE
:1080200001F080F884F80C8005B0BDE8F083224AA6
:108030002249204601F082F8EDE7D6E90413F26800
:108040000393B3680291CDE900324946D6E9002393
:10805000204601F073F8D9E732684946204601F01E
:108060006DF8D3E7D6E900234946204601F066F8CB
:10807000CCE7B3680093D6E900234946204601F0D7
:108080005DF8C3E7D6E9023201920093D6E90023F6
:108090004946204601F052F8B8E7D6E90321B36813
:1080A0000291CDE900324946D6E90023204601F08D
:1080B00045F8ABE7E4E40200CCE40200D4E40200BB
:1080C000082900D970472DE9F04F9B4683B0002462
:1080D0001B7B8BF80C400D460646594610469046D1
:1080E0000193DFF8D0902C4FFFF732FF05E0325DAF
:1080F000013401F023F8082C09D0A542394658462E
:10810000F5D84946013401F019F8082CF5D1234976
:10811000DFF8A490224C234F584601F00FF84FF09F
:10812000000A0DE0D15D11F0970F08BF2E22214605
:1081300058460AF1010A01F001F8BAF1080F10D00F
:10814000554505D916F80A207E2AEBD92E22EEE7EE
:10815000494658460AF1010A00F0F0FFBAF1080F4B
:10816000EED198F80830052B02D098F8093063B9A1
:108170000D49584600F0E2FF584600F0D3FF019B3E
:108180008BF80C3003B0BDE8F08F084A0849584618
:1081900000F0D4FFECE700BFE8E40200F4E40200E2
:1081A000F8E4020075F30200E4E40200CCE402000B
:1081B000D4E40200F0E40200E0E4020038B5174B1A
:1081C0001D783DB3164B1968C0B200230C4604E07D
:1081D0000133AB4204F108041CD011F83320904263
:1081E000F6D102F0C9FA6378A3F10103B3FA83F37D
:1081F0005B09834200D038BD0A4BD3E90023134307
:10820000F9D1094B094819680022BDE838404908EE
:1082100000F008BC00231B78FFDE00BFD4780020EC
:108220002879002000790020D8780020E07800200C
:108230002DE9F04FDFF8548298F8003083B0002B1E
:1082400000F01981DFF848928C4F8D4E00254FF0D9
:10825000010A3C6814F8350002F08EFA04EBC503FD
:1082600014F835405B784FEA540C14F0010E16F800
:108270000C10A3F10103B3FA83F314BF0A0901F050
:108280000F025B09042A00F2A080DFE802F0725DB1
:1082900032200300834240F0AB80BEF1000F0CBFE0
:1082A000F0230F2303EA01030CBF032130211943FC
:1082B00006F80C1098F8002001359542C9DBD9E981
:1082C0000023134340F0CD8003B0BDE8F08F83421C
:1082D0007BD0BEF1000F0CBFF0230F2303EA010394
:1082E0000CBF04214021194306F80C1098F8002017
:1082F000E2E783426CD1BEF1000F0CBFF0230F23E5
:1083000003EA010398F800200CBF03213021194330
:1083100006F80C10002AD2D0D7F800C0002361461E
:1083200003E0934201F10801C6D01CF83300A042DB
:1083300003F10103F5D14B68002BBDD0204601218C
:10834000984798F80020B7E7834219BF00200346FA
:1083500002232020BEF1000F0CBFF0220F2201EA01
:10836000020118BF03460B4306F80C3098F80020B2
:10837000A2E7834229D1BEF1000F14BF0F23F023DF
:1083800003EA010314BF1021012119430DF1070075
:108390004FF0000306F80C108DF8073000F0AAFB30
:1083A000D9E90032A4F12001C4F120000AFA01F158
:1083B0002AFA00F001430AFA04F4114323439DF81A
:1083C0000700C9E9003100F0BBFB98F8002073E713
:1083D000BEF1000F0CBFF0230F2303EA01030CBF13
:1083E00001211021194306F80C1098F8002063E7CA
:1083F000BEF1000F14BF0F23F02398F800001940BE
:1084000006F80C1098B1D7F800C00023624603E0CC
:10841000834202F108020AD01CF83310A14203F192
:108420000103F5D1536813B10021204698474FF05E
:1084300000030DF107008DF8073000F05BFBD9E970
:108440000032A4F12001C4F120000AFA01F12AFA55
:1084500000F001430AFA04F422EA010123EA0403CA
:10846000ADE7084B084819680022490800F0DAFA1D
:1084700003B0BDE8F08FDFF8189020E728790020DE
:1084800008790020D8780020E0780020D4780020F7
:1084900000790020092A43D92DE9F04182B0144621
:1084A00006460D4601F0C6FF002832D0214A224977
:1084B000224B16600D7022481C600021202205F01E
:1084C0009BFF204B002000216C1EC3E90001E4B299
:1084D00045B3DFF87C8006EBC404032702E0A64224
:1084E00020D01C469DF80630A57820788DF80470C1
:1084F00023F00703424601A98DF806308DF8055098
:1085000001F0A2FFA4F108030028E8D002B0BDE802
:10851000F08101F037FF0028C8D002B0BDE8F0813B
:1085200007207047084A0948002100F06DFA02B0A0
:10853000BDE8F08128790020D4780020D878002088
:1085400008790020007900203182020098E50200BD
:10855000BD81020070B5084D2B785BB1074E002439
:108560003368012113F8340002F060F82B780134ED
:10857000A342F5D8002070BDD478002028790020CF
:1085800070B5124D2B7882B053B1114E0024336870
:1085900013F8340002F0B6F82B780134A342F6D871
:1085A00000230DF107008DF8073000F0A3FA094B06
:1085B0009DF8070000240025C3E9004500F0C0FA3B
:1085C000054800F075FA02B070BD00BFD4780020F5
:1085D0002879002000790020E078002000B585B0DF
:1085E0000346002101AA44F20100CDE901110393E1
:1085F00000F004F805B05DF804FB00BF10B572B6DA
:10860000FFF792FCFEF7F2FF0028FBD1104B114C54
:108610001149E41AE408240444F00100FFF70EF9BC
:108620000E4B1B68DB0700D500BE0D4944F002006D
:10863000FFF704F9BFF34F8F0A490B4BCA6802F4E6
:10864000E0621343CB60BFF34F8F00BFFDE700BF75
:1086500038F5020060F502009CE50200F0ED00E054
:10866000A8E5020000ED00E00400FA05D0E90223CD
:10867000D1E90201994208BF90422CBF012000209D
:10868000704700BF2DE9F04F2DED028B85B00646F7
:1086900000F082FB40B1B54AD2E9003113F180739A
:1086A00041F10001C2E900310021304600F090FBA9
:1086B000AF4C60B1236853B1AE4B25681B7823B132
:1086C0001DB12B7F002B40F01C8100232360012172
:1086D000304600F07DFB002840F0F680A64803A954
:1086E00000F0FCFB78B3A54DDFF88882A24F0BE0C9
:1086F000002B00F0CD8003A9384600F01FFC03A931
:10870000384600F0EBFBF0B10378012B12D0022BBE
:10871000EED128464FF0000901F010FB30B180F88F
:108720001C90284601F00AFB0028F8D1012388F8A4
:108730000030E0E741682368994200F0BA8028469B
:1087400001F006FBD7E7DFF834828D4FDFF81C928B
:1087500008EE106A37E0404601F0F0FA0546384668
:10876000AB68EA680193009200F042FB854E8446B4
:10877000D9E90001D6E9002310EB0C0041F100011A
:10878000994208BF9042DDE9002303D210F18070C6
:1087900041F10001B3EB000A62EB010BBAF1010FEA
:1087A0007BF1000329DBBAF5350F6BD2AA684FF4D1
:1087B00096030021384600F069FA00285AD00D28A7
:1087C0001FD000232360404601F0BEFA002873D07A
:1087D0002368002BBFD02368D0E90201D3E902232C
:1087E000994208BF904248D223681B7F002BB2D029
:1087F0002168404601F08EFAADE70021384600F0CE
:10880000DBFA5C4B1B78002BDBD02B7F002BD8D006
:10881000384600F0EDFA8446D9E90001D6E9002394
:1088200010EB0C0041F10001994208BF904203D2C5
:1088300010F1807041F10001D5E90223994208BF8F
:10884000904259D32B6903B92B77D5E90530984766
:1088500029690029B5D02B7F002BB2D0D5E902239E
:10886000521843F10003C5E902232946404601F0AE
:1088700051FAA6E72368BBB1256005B0BDEC028BB9
:10888000BDE8F08F384600F0B3FA3F4A02448EE765
:1088900043681A7F002A7FF42EAF01221A774168BD
:1088A000284601F037FA26E718EE100A00F0C0F962
:1088B000E2E7002323601EE72368002BDDD118EEDA
:1088C000100A00F0B9F9D8E72D482E4D00F090FAC3
:1088D000264BD3E90089D5E9002318EB000849F1BC
:1088E0000009994508BF904503D218F1807849F1F5
:1088F0000009C5E90089F1E62946404601F00AFA77
:108900005FE71F4800F074FA184A1E4BD2E900894D
:10891000D3E9002318EB000849F10009994508BF85
:10892000904503D218F1807849F10009D5E9022376
:10893000994508BF904529D32B6903B92B77D5E911
:1089400005309847296900293FF4BFAE2B7F002BE3
:108950003FF4BBAED5E90223521843F10003C5E949
:1089600002230648294601F0D5F9AEE63079002009
:10897000B07900203879002094790020C8E5020001
:10898000C4430020A8790020FFFFB4000248294614
:1089900001F0C0F999E600BFC8E5020010B5134B1D
:1089A00013491B68134882B058220193082300F032
:1089B0003FFA044610B1204602B010BD0E4A0F48DF
:1089C00001A900F0D5F804460028F4D10B48012194
:1089D00000F0D8F901231946094A084800F030F997
:1089E000084B012220461A7002B010BDC4E50200F7
:1089F0003C7900209479002085860200C443002041
:108A0000FFFF7F00387900204AB1A1F1010103681E
:108A1000B1FA81F14909C3E9041200207047072027
:108A2000704700BF037F0BB100207047F0B5826133
:108A300083B004461A480D4600F0DAF9194B1A497A
:108A4000D3E90023D1E90067121843F10003BB42C8
:108A500008BFB24203D212F1807243F100035219EF
:108A6000216943F10003C4E9022301B125610F48E4
:108A700001A900F0F5F948B100254460057001A98D
:108A80000A4800F01BFA20B903B0F0BD042003B07F
:108A9000F0BD034800F0B0F9284603B0F0BD00BFB8
:108AA000C443002030790020A87900209479002068
:108AB00030B5002583B00446057701A90B4800F0C6
:108AC000CFF978B101224460027001A9074800F093
:108AD000F5F908B903B030BD054800F08DF9284616
:108AE00003B030BD042003B030BD00BF9479002036
:108AF000C443002070B4EFF3108472B60D4B9A6833
:108B0000AAB90D490D4E01259D60D1F88050354020
:108B10001D60C1F88060D1F884505D604FF0FF3374
:108B2000C1F88430027004B962B670BC704701238A
:108B30000370F8E77083002000E100E0FC06FFBD51
:108B4000094B9A687AB170B910B4EFF3108172B61C
:108B5000064A1C6814605C685460986001B962B68B
:108B60005DF8044B704770477083002000E100E01F
:108B700070B5274C4379274E04EBC30546F82320F4
:108B80002D79002D37D103680A88C3F8082590F99C
:108B900004308A78002B26DB03F1604303F5614340
:108BA0005201D2B283F8002390F90430002B07DB86
:108BB000194903F01F0501225B09AA4041F823204F
:108BC0004279164B164D44F83200581B04EBC20490
:108BD000C008012300041349237140F00300FEF78D
:108BE0002DFE002070BD104903F00F0352011944FF
:108BF000D2B20A76D8E70A4B08480C49C01AC00816
:108C0000000440F00200FEF719FE082070BD00BF0E
:108C1000B4790020BC79002000E100E070F502008A
:108C200038F50200F8E50200FCEC00E0D4E50200B3
:108C3000036801221A607047036801225A60704776
:108C4000F0B404684FF480358D40C4F808530668CA
:108C500001F15004C6F84853A4000668A4B20027E6
:108C6000375182B036590468019601F5A87122F097
:108C70007F42019E44F821200268C2F8445313B198
:108C80000368C3F8045302B0F0BC70472DE9F04705
:108C900004464FF4803600688E40C0F84863206870
:108CA000C0F80863206800EB81058A46D0F80415F7
:108CB000D5F84005C5F840150AF15005AD00276804
:108CC000ADB24FF0000847F8058082B0401A7F59D6
:108CD000009720F07F40012822F07F479946009AB4
:108CE00041D02268D2F80455C2F844637A1B22F0BE
:108CF0007F42012A0AF5A87125D0226842F8217026
:108D00002068D0F804557A1BC9F1FF13013A03F526
:108D10007F4322F07F42934211D342B1C0F84463B3
:108D200023680020C3F8046302B0BDE8F087013770
:108D300040F821702068D0F804359D42EED00D2017
:108D400002B0BDE8F08720680D4B013740F8217074
:108D500043F001034FF4806098472068D0F8043551
:108D60009D42DBD0EBE7064A4FF4806042F00102FF
:108D70009047226842F8058052590192019AB0E763
:108D800010E6020002680223C2F8443311B10268FF
:108D9000C2F80433704700BF0368D3F8040100B978
:108DA0007047002282B0C3F80421D3F80431019344
:108DB000019B012002B0704702684FF4803303FA30
:108DC00001F1C2F848130368C3F80813704700BFE5
:108DD00050318900036889B2585800B970470022A1
:108DE0005A5082B05B580193019B012002B070473A
:108DF0000368D3F80405704790F90430002B09DBB1
:108E00005A090548403203F01F03012101FA03F318
:108E100040F82230704700BF00E100E0024A034BF7
:108E200010681B68184700BFB4790020BC79002087
:108E300099B110B4B2FBF3F403FB1424A4B244B907
:108E4000C0E9001484608281C38120465DF8044B30
:108E5000704709205DF8044B70470E20704700BF33
:108E600030B482B050E8013F9DB2C4892544848962
:108E7000A54228BF2D1B0489A54202BFBFF32F8F37
:108E8000002207E0C5EA030540E80154002CE9D1BF
:108E90004FF001028DF803200193019B9DF8032000
:108EA0000B602AB10B880068184402B030BC7047D0
:108EB00002F0FF03184602B030BC70470A884B88A6
:108EC0009A4201D00020704750E8012FC2EA0242C6
:108ED00040E80123002BF7D10120704730B482B065
:108EE00050E8023F1FFAA3F5C488A54202BFBFF3B2
:108EF0002F8F00220DE0C48925448489A54228BF14
:108F00002D1BC3EA054540E80254002CE8D14FF080
:108F100001028DF803200193019B9DF803200B6053
:108F20002AB14B880068184402B030BC704702F088
:108F3000FF03184602B030BC704700BF0A884B8858
:108F40009A4201D00020704750E8022FC2EA224224
:108F500040E80223002BF7D1012070474A09012382
:108F600001F01F0100EB820003FA01F100F022B8CA
:108F700001F01F0201234909934000EB8100D9430E
:108F800000F026B84B0901F01F0150F82300C8403B
:108F900000F00100704700BF10B4034653E8000F13
:108FA0000A4643E8002494F0000FF7D15DF8044B23
:108FB000704700BF10B4034653E8002F42EA010097
:108FC00043E8000494F0000FF6D15DF8044B7047BD
:108FD00010B4034653E8002F02EA010043E80004FE
:108FE00094F0000FF6D15DF8044B704710B40346BF
:108FF00053E8002F02EB010043E8000494F0000F57
:10900000F6D15DF8044B704710B4034653E8002FC7
:10901000A2EB010043E8000494F0000FF6D15DF8E4
:10902000044B704710B40346012253E8001F41EA85
:10903000020043E8000494F0000FF6D15DF8044B01
:10904000704700BF10B40346002253E8000F00EA47
:10905000020143E8001494F0000FF6D15DF8044BD0
:10906000704700BFB8B130B4D0E90112521A046899
:10907000D2B2531E2160DBB242B101680A685C1EA5
:10908000551C0D601370E3B2FF2BF6D1036800206E
:10909000187130BC70470E20704700BFF0B583B028
:1090A000044600250DF107008DF80750FFF722FD5B
:1090B000D4E900311A688A4210D9511E196021681A
:1090C000A3680F6812F8015C0A79268AE068DB1B46
:1090D000DBB29A4206FB050538BF0B719DF807000D
:1090E000FFF72EFD284603B0F0BD00BF30B50546A2
:1090F00083B000230DF107000C468DF80730FFF711
:10910000F9FC2A681368591C1160E9682A8A641AF4
:10911000B4FBF2F41C709DF80700FFF711FD03B0DB
:1091200030BD00BF826842B110B504464369016892
:10913000006998470023A36010BD70470EB400B5C6
:1091400082B0039921B104AB01AA019300F0ACF8FD
:1091500002B05DF804EB03B0704700BF2DE9F04F9B
:10916000164683B0B142DDE90C920F4605469A4699
:10917000C0F095800B464FF00108B3FBF6F39E421A
:1091800008F10108F9D9D04538BFD04612F00103E3
:10919000019302D1B9F1000F5ED1AA68012403E066
:1091A0000AF1FF3A06FB04F4BAF1010FF8D8B7FB55
:1091B000F4F39E42F6D9DFF8ECA007E0B442B4FB2A
:1091C000F6F31AD3AA681C46B7FBF3F31AF803B0F8
:1091D000BBF10A0F04FB137728D02B68511CA96040
:1091E00003F802B0D5E901329A42E7D32846FFF7E7
:1091F00099FFB4FBF6F3B442E4D2019B9BB1B9F101
:10920000000F10D02024C84509F1FF390BD2AB68FC
:109210002A68591CA960D454D5E901329A4214D263
:10922000B9F1000FEFD103B0BDE8F08F511C2B68EE
:10923000A9604FF00D019954D5E901329A42CCD37F
:109240002846FFF76FFFAA68C7E72846FFF76AFFBF
:10925000B9F1000FD7D1E6E793071AD42024AA6802
:10926000C84502F1010199D22B68A9609C54D5E947
:1092700001329A4209F1FF3903D2B9F1000FEFD15F
:109280008CE72846FFF74EFFAA68B9F1000FE7D137
:1092900084E7BAF1000F0CBF30242024DFE74FF041
:1092A000010870E718E60200002900F054822DE959
:1092B000F04FDFF8B8950C7885B0064690460D461D
:1092C0004FF00D0A10E00A2CB36800F0AD80326850
:1092D000591CB160D454D6E901329A4280F0A08082
:1092E0002C78002C00F087800135002C00F0838062
:1092F000252CE8D1294600270D4611F8012B2D2AEF
:1093000000F08880302A00F088802B2A7AD02A2A20
:1093100000F09980A2F13003092B4FF000040BD824
:1093200004EB840402EB440415F8012FA2F130038E
:10933000092BA4F13004F3D92E2A00F090800023E9
:1093400001E015F8012F02F0FB016829F9D0252A68
:1093500000F07781583AD1B2202947D8202A45D841
:10936000DFE812F0350144004400440044004400AA
:1093700044004400440044004400430113014400FD
:1093800044004400440013014400440044004400ED
:1093900044004400D20044004400A2004400940071
:1093A00044004400350101209842024638BF1A4665
:1093B0000292002C40F05081B80740F16E81002BE2
:1093C00040F04E821C46BBF1000FC0F20A827A07C1
:1093D00000F11A8207F00302022A00F0EA81CDE9C7
:1093E000004759460A223046FFF7B8FE01352C786F
:1093F000002C7FF479AF337B002B40F01C8105B04B
:10940000BDE8F08F0D4611F8012B2D2A47F0040717
:109410007FF478AF47F001076EE747F002076BE78C
:109420003046FFF77FFE5BE73268591CB16002F8F7
:1094300003A0D6E901239342FFF449AF3046FFF77A
:1094400071FEB36843E7D8F800301A1DC8F8002051
:109450006A781C682E2A05F101057FF470AF6A78DE
:10946000A2F13003092B05F101054FF000033FF68F
:109470006AAF03EB830302EB430315F8012FA2F15C
:1094800030010929A3F13003F3D95CE7D8F80020B3
:10949000111DC8F8001011683046CDE900470A22B6
:1094A000FFF75CFE0135A2E7D8F800301A1DC8F8B6
:1094B000002017F00107D3F800B040F0F080BBF1B6
:1094C000000F03D0584604F0A9FF0746BC4240F203
:1094D0004381002C00F04081202205E0BC4200F0D6
:1094E0003B81002C00F03881B1683368481CB060C3
:1094F0005A54D6E90130984204F1FF34EED3304695
:10950000FFF710FE2022E9E7D8F80020131DC8F865
:109510000030B36831681768581C3022B060CA54F4
:10952000D6E90123934280F0EF803268581C7821FD
:10953000B060D154D6E901329A4280F0E0800F2F1A
:1095400003D93B461B090F2BFCD84FF0805406E093
:109550000F2C4FEA14137FF649AFB2681C46B7FBD5
:10956000F4F319F803B0BBF10A0F04FB137754D0DE
:109570003368511CB16003F802B0D6E901329A4257
:10958000E6D33046FFF7CEFDE2E7D8F80020111D04
:10959000C8F80010D2F800B08BEAEB72A2EBEB72C5
:1095A000092A7FF700AFDFF8C8C2012011466329FE
:1095B000ACFB02E200F101004FEAD202F6DC984275
:1095C000024638BF1A460292002C45D1F4E6D8F87C
:1095D0000020111DC8F8001011683046CDE9004781
:1095E0001022FFF7BBFD013501E7D8F800301A1D46
:1095F000C8F800201C78B3680A2C00F0118132688A
:10960000591CB160D454D6E901329A42FFF4EEAE4F
:109610003046FFF787FD0135E9E63368511CB1603C
:1096200003F802A0D6E901329A42A1D33046FFF7EF
:1096300079FDB2689CE7304605B0BDE8F04FFFF712
:1096400071BDB3683168581CB060CA54D6E90132A4
:109650009A42DDD20135CAE6BBF1000F59DB7A0729
:1096600057D4B80702D5002B3FF4ADAEF9073FF54C
:10967000AAAE94B120220299A142BFF4A4AEB1686F
:10968000481CB06030684254D6E90101814204F1BF
:10969000FF3480F0D480002CEDD1002493E69BF8B9
:1096A0000030002B00F0E080B0685F46CBF1010293
:1096B0000A2B02EB070B3CD0411CB16031680B5404
:1096C000D6E90130984226D217F8013F002BEFD19E
:1096D0005C457FF68BAE202702E05C453FF486AE0A
:1096E000B2683368511CB1609F54D6E901329A4286
:1096F00004F1FF34F1D33046FFF714FDEDE73046B7
:10970000FFF710FDB2681AE73046FFF70BFDB368AC
:109710000BE7013CA5E730460292FFF703FD17F87F
:10972000013F002BD4D0029AB0680A2B02EB070B42
:10973000C2D1411CB160316801F800A0D6E9011026
:109740008842B9D33046CDE90232FFF7EBFCDDE9C0
:109750000232B068B0E770479BF80040002C3FF43D
:1097600045AE0A2CB0680ED03368421CB2601C545F
:10977000D6E90130984214D21BF8014F002C3FF477
:1097800035AE0A2CF0D13368421CB26003F800A059
:10979000D6E901309842E7D33046FFF7C3FCB06802
:1097A000E2E73046FFF7BEFC1BF8014F002CD8D192
:1097B0001CE6002B7FF413AE8CB130220299A1423B
:1097C000BFF40DAEB168481CB06030684254D6E9B1
:1097D0000101814204F1FF343BD2002CEED1002480
:1097E000FDE5B1684A1CB26032682D205054D6E9BC
:1097F00001219142CBF1000BFFF4ECAD3046039315
:10980000FFF790FC039BE5E5B1684A1CB260326843
:109810002B205054D6E901219142FFF4DBADEDE756
:109820003268591CB16002F803A0D6E901239342C3
:10983000FFF4E5AE3046FFF775FCB368DFE630466F
:109840000393FFF76FFC039B2022002C7FF413AFE0
:1098500023E730460393FFF765FC039B3022BCE708
:10986000F9073FF5B0AD18E79B4631E718E602006F
:10987000CDCCCCCCFFF7F6BB2DE9F041058A033106
:10988000043D4E198046B6FBF5F6FFF707FCA0B382
:10989000F6B24FF48073013E0446C580C0F80080E4
:1098A00083802BD00346002508E06279AE4202F1A6
:1098B000010262713860C0F800801FD040461F4628
:1098C000FFF7ECFB013503460028EED16779791EDE
:1098D00017D02246013399421268FBD1D2F800809A
:1098E0005FB12668002501E034463668214601351F
:1098F0004046FFF7FBFBAF42F6D800242046BDE808
:10990000F08120682146FFF7F1FBF6E7F8B54679CC
:109910000146701E13D00A46002301339842126894
:10992000FBD1176856B10D68002401E029462D6867
:1099300001343846FFF7DAFBA642F7D8F8BDBDE898
:10994000F8400868FFF7D2BB04300121FFF74EBB97
:109950002DE9F041012104460430FFF755FB10F0DA
:10996000FF0301D0BDE8F0816779791E16D0224649
:10997000013399421268FBD1D2F80080002FF1D058
:109980002668002501E03446366821460135404608
:10999000FFF7ACFBAF42F6D8BDE8F0812068214666
:1099A000BDE8F041FFF7A2BB2DE9F8430546C688A4
:1099B0004079144606FB00F2043A04EB030C1F1D29
:1099C000624538BFD41ABE428846B7FBF6F106FBA3
:1099D000117002D801392D68FCD1371AA74228BF6F
:1099E00027469CB14FF000090430E41B28443A4656
:1099F00008EB090104F0F2FCA642B9442D68374691
:109A00004FF0000028BF2746002CEDD1BDE8F883B9
:109A10002DE9F8430546C6884079144606FB00F256
:109A2000043A04EB030C1F1D624538BFD41ABE4232
:109A30008846B7FBF6F106FB117002D801392D6894
:109A4000FCD1371AA74228BF27469CB14FF0000926
:109A500004302918E41B3A4608EB090004F0BEFC68
:109A6000A642B9442D6837464FF0000028BF27466C
:109A7000002CEDD1BDE8F88341DF7047064A074B63
:109A800010B5002414701C60BFF35F8F04490548B3
:109A900000F02AF9204610BDC8790020CC790020BA
:109AA00034E60200C079002000B583B000230DF138
:109AB00007008DF80730FFF71DF8F1EE103A23F09C
:109AC0009F03E1EE103ABFF35F8F0B4B4022C3F8C8
:109AD00084219DF80700FFF733F804F0B3FA28B9A2
:109AE00020BF40BF20BF03B05DF804FBFFF7C4FFF9
:109AF00003B05DF804FB00BF00E100E0F0B50446F0
:109B000083B000250DF107000E468DF80750FEF7D3
:109B1000F1FF2368A26818685968914238BF4D1C4C
:109B2000A84212D0586859688A420BD800225A605D
:109B3000E268531E072B19D8DFE803F04540183BB5
:109B40001818183301315960F2E7217C002941D1FE
:109B500058685D68AA423AD859602268A1681368BB
:109B60008B4234BF013300231360E1E76368314661
:109B700000FB023004F032FC2268136851688B420B
:109B800082BFA06801300918CB1A91689DF80700C0
:109B9000994238BF9360FEF7D3FF0024204603B0FC
:109BA000F0BD6368D6E9006703EBC000C0E9006759
:109BB000E2E76368326843F82020DDE763683288B3
:109BC00023F81020D8E7636832781A54D4E70135B7
:109BD0005D60C2E79DF80700FEF7B2FF042420464F
:109BE00003B0F0BD70B5044682B000230DF107004C
:109BF0000D468DF807301646FEF77CFF236818687F
:109C00005968884211D019682EB91A68A068824232
:109C100038BF561C1E60E268531E072B0DD8DFE8C4
:109C200003F0411A0C260C0C0C329DF80700FEF7CD
:109C300087FF0524204602B070BD6368284601FBFB
:109C4000023104F0CBFB9DF80700FEF779FF0024FA
:109C5000204602B070BD63689DF8070033F81130EC
:109C60002B80FEF76DFF0024204602B070BD6368B4
:109C70009DF8070053F821302B60FEF761FF0024A8
:109C8000204602B070BD63689DF8070003EBC10178
:109C9000D1E90023C5E90023FEF752FF0024204646
:109CA00002B070BD63689DF807005B5C2B70FEF727
:109CB00047FF0024204602B070BD00BF036818684B
:109CC0005B68C01AB0FA80F04009704782680023D0
:109CD000936082681361826853618268D36082688E
:109CE000536082681360704701600B6843604A6884
:109CF000934204BF00234360704700BF436843B1F1
:109D0000026891680B4443605268934204BF002389
:109D10004360704770B54468064620680D4618B920
:109D200008E02468206828B1B368294698470028CD
:109D3000F7D120682860256070BD00BF43681868AF
:109D400008B102681A60704743681868704700BF1E
:109D50004368186818B908E00346006828B18142D2
:109D6000FAD10A681A60012070477047114910B48F
:109D7000A1F5947205E052F83330984238BF21467D
:109D80000CD28C1AE30F03EBE4035B10914202EB5D
:109D9000C304F0D808485DF8044B704702D904F1B9
:109DA0000802EEE76068044B5DF8044B002808BF2A
:109DB0001846704774EB020038EA020010B4754B85
:109DC0001B68082B1CD0744AD2F8883043F4700307
:109DD000C2F88830BFF34F8FBFF36F8F4FF010235F
:109DE000D3F80022002AC0F2A380D3F80432002B5B
:109DF000C0F29E80694B6A4A1A605DF8044B704756
:109E00004FF080414FF080520020C1F80C01654BAB
:109E1000C1F81001C1F83805D2F80414C3F82015B0
:109E2000D2F80814C3F82415D2F80C14C3F8281576
:109E3000D2F81014C3F82C15D2F81414C3F8301546
:109E4000D2F81814C3F83415D2F81C14C3F840150E
:109E5000D2F82014C3F84415D2F82414C3F84815D6
:109E6000D2F82814C3F84C15D2F82C14C3F85015A6
:109E7000D2F83014C3F85415D2F83414C3F860156E
:109E8000D2F83814C3F86415D2F83C04C3F8680556
:109E90004549D2F84004C3F86C050968D2F8442457
:109EA000C3F87025032937D8404B5B5C13B1404B96
:109EB000404A1A60404B5B5C63B1364B3F491B68BC
:109EC000394AFB20C1F81805082B11687FF47BAFD5
:109ED000032921D83A4B5B5C93B13A483A4B2D4C5D
:109EE00002681B682468304922F00F0203F00F0358
:109EF0001343082C096803607FF465AF03290BD86E
:109F0000324B5B5C43B1234B314A1B684FF4007109
:109F1000082B11607FF457AF4FF08043D3F8002433
:109F2000D2077FF550AF6FF00102C3F800244AE773
:109F3000284A0123C2F80435D2F80034002BFBD0A4
:109F40004FF010231221234AC3F80012D2F8003434
:109F5000002BFBD04FF0102312211E4AC3F804122D
:109F6000D2F80034002BFBD000231A49C2F8043584
:109F7000D1F80034002BFBD0BFF34F8F0649164BAE
:109F8000CA6802F4E0621343CB60BFF34F8F00BF97
:109F9000FDE700BF3001001000ED00E0CC430020E1
:109FA0000090D00300C000403401001074EB0200A8
:109FB0008C5600404881030074EB020000F0004022
:109FC00074EB0200E40E00405802001074EB020033
:109FD0004096024000E001400400FA05064B1A5C7E
:109FE0001F2A86BF054902F01F024FF0A04101233E
:109FF0009340C1F80C35704778EB02000003005025
:10A00000064B1A5C1F2A86BF054902F01F024FF05B
:10A01000A04101239340C1F80835704778EB020056
:10A0200000030050C20730B40ED483070AD54FF0A6
:10A03000A0430C22C3F82C27C3F83027C3F86027AD
:10A04000C3F8642730BC70474FF0A0430322C3F825
:10A0500034274FF40055C3F838274FF48044C3F831
:10A060003C274FF40041C3F840274FF48032C3F837
:10A070000855C3F80845C3F80815C3F80825D4E700
:10A0800010B568B90E4CA368012262703BB1D3E9E8
:10A0900000230020A2609847A368002BF7D110BDD1
:10A0A0000128FCD1064C2369A070002BF7D0D3E91E
:10A0B00000230120226198472369002BF7D110BDAE
:10A0C000D079002070B910B5074CA36801226270E6
:10A0D0003BB1D3E900230020A2609847A368002B7E
:10A0E000F7D110BD704700BFD079002030B50128EE
:10A0F00083B004D0032821D0B0B103B030BD294CC7
:10A1000000230DF107008DF80730FEF7F3FC2378EC
:10A110006BB3E3689DF8070001330122E360A2708E
:10A12000FEF70EFD03B030BD1F4B0122C3F88020A7
:10A13000BFF34F8FBFF36F8F03B030BD194C00F0EA
:10A14000BDF800230DF107008DF80730FEF7D2FCB3
:10A15000E368013BE360E3681BB9144BD3F8005498
:10A16000C5B19DF80700FEF7EBFC03B030BD104809
:10A170006360A3602361E36000F094F803F062FF82
:10A1800060B10A4A01232370D2F80024002AC0D00B
:10A19000A370BEE700F0A4F8A570E2E700F08EF827
:10A1A000EFE700BFD079002000E100E000000140AF
:10A1B00081A0020030B585B0047845688DF8004074
:10A1C000D0E90240064A074B039053F8213001952D
:10A1D00052F821108DF808406846984705B030BD08
:10A1E000E4790020EC79002030B585B0047845682A
:10A1F0008DF80040D0E90240064A074B039053F81F
:10A200002130019552F821108DF808406846984792
:10A2100005B030BDE4790020EC7900202DE9F0474D
:10A22000DFF8748090F800E04B7F08F80E300D46A0
:10A23000074616460FCD88B06C460FC495E80F0050
:10A240003D78DFF85890DFF858C018F8055049F805
:10A250002E6084E80F004CF82E00CDF810E05DB1C0
:10A26000002E0B4A694607F1040008BF324601F090
:10A27000C9F808B0BDE8F087002E064A694607F124
:10A280000C0008BF324600F023FE08B0BDE8F0879E
:10A29000B5A10200E9A102007C830020EC79002036
:10A2A000E4790020044A137923B9012110609180D8
:10A2B0001846704785207047F4790020074B1A68CC
:10A2C000D20704D4C02283F8002301221A604FF081
:10A2D00080430122C3F81825704700BF00E100E069
:10A2E00010B40B4B0B494FF0804200200224C2F8FF
:10A2F000084383B018601B680193012301980B6029
:10A30000D2F81834DB03FBD403B05DF8044B70477C
:10A31000040100400C00004010B5174B1A6882B0D1
:10A3200062B10021154A19601B68507900934FF003
:10A3300080410123009CC1F8083398B1104B1A6882
:10A34000BAB100221A601B6801934FF080420221CB
:10A350000A4B0198C2F808131B68012002B0BDE83F
:10A3600010401847116853718847054B1A68002A36
:10A37000E7D102B010BD00BF00010040F479002019
:10A3800004010040F0B5264C94F86A3083B0002BED
:10A3900042D14FF6FF70FF255A09012A0CBF024631
:10A3A0004FF0FF3203F01F01CA40D20748BFE21846
:10A3B00003F1010348BF82F83050302BECD14FF04D
:10A3C000FF334FF0FF364FF0FF37062200211548CC
:10A3D0002366C4E90233C4E90433C4E90633C4E99B
:10A3E0000833C4E90A33C4E9006704F005F80E4BEA
:10A3F000C02283F8062340221A600C4B0C4A00202E
:10A4000018601B68019301214FF00043019D84F8FF
:10A410006A10C2F8043300E0082003B0F0BD00BFAA
:10A42000007A0020647A002000E100E07C610040B6
:10A4300000600040034B93F86A00003818BF012009
:10A44000704700BF007A0020F0B4754B1D1895F9D5
:10A450003040002C61DA8C78A707C4F3400C53D449
:10A460001C6A013400F0D5805C6A013400F0CA80B7
:10A470000C260A2453F82450013552D0651CB542ED
:10A480003FD253F82570013700F0B480A51CB542C7
:10A4900037D253F82570013700F0AC80E71CB74283
:10A4A0002FD253F8275001353AD0271DB74228D272
:10A4B00053F82750013533D0671DB74221D253F8E6
:10A4C000275001352CD0A71DB7421AD253F8275078
:10A4D000013525D0E71DB74213D253F82750013577
:10A4E0001ED004F10807B7420BD253F827500135AC
:10A4F00016D00934B44204D2DC6A013408BF0B24FC
:10A500000FD00420F0BC70471C68013474D05C6824
:10A5100001346DD008260224ACE70820F0BC704757
:10A520003C461E1865B243F8242086F83050BCF132
:10A53000000F02D11C4484F858008A7854071AD4BA
:10A54000D60744D41F284C7887BF364E00F01F0230
:10A5500002464FF0A04602F5E072A40046F8224001
:10A56000314EC40800F0070C375D012202FA0CF2EC
:10A570003A4332558A7812F002021CD0AB0003F144
:10A58000804303F5C0430978D3F8104524F44F34D1
:10A5900024F44074C3F8104502020904D3F81005EE
:10A5A00001F4403102F47C520A430243C3F81025FF
:10A5B0000020F0BC7047083D2B44087893F86010E9
:10A5C00041EA801183F860101046F0BC70471F28E4
:10A5D00087BF144A00F01F0404464FF0A04202EB6C
:10A5E0008402D2F8004724F00204C2F80047B7E71B
:10A5F000012496E72C4694E7002485F830401A6041
:10A6000025469AE7092685F830605A623446354671
:10A6100090E7082685F830601A623446354689E7A7
:10A62000007A002000030050647A002070B4324C9D
:10A63000251883B095F93030072B22DD234493F899
:10A6400058309B09032B46D0012B0CBF4FF400322E
:10A650004FF440321F288ABF284B4FF0A04300F030
:10A660001F0003EB8000D0F8003723F44033C0F81C
:10A670000037D0F800371A43C0F8002703B070BC89
:10A680007047DAB2072AF9D8980000F1804000F547
:10A69000C04003F140029200D0F8106592B202F17E
:10A6A000804202F5C04246F00106C0F81065002065
:10A6B000106012680192019A0029DFD095F93020CC
:10A6C00054F82220002AD9D00D49012202FA03F3BE
:10A6D000C1F80433D2E71F288ABF084A4FF0A042CE
:10A6E00000F01F03D2F8102598BF0346DA4002F0AD
:10A6F000010202321204ADE7007A0020000300508C
:10A7000000600040194B034493F93030072B13DDF0
:10A710001F288ABF164B4FF0A04300F01F0003EB29
:10A720008000D0F8003723F44033C0F80037D0F869
:10A730000037C0F800377047DAB2072A14D810B4CF
:10A740009A0002F1804202F5C0420A4CD2F810058C
:10A75000012120F0010001FA03F3C2F81005C4F84A
:10A7600008335DF8044B7047704700BF007A002043
:10A7700000030050006000401F288ABF054B4FF0C7
:10A78000A04300F01F00D3F8103523FA00F000F0CA
:10A7900001007047000300502DE9F047002384B00A
:10A7A000CDE90233D54A1168012900F040821E46E6
:10A7B000D34B1A68012A00F02C82D24B1A68012A66
:10A7C00000F01982D04B1A68012A00F00682CF4BA4
:10A7D0001A68012A00F0F381CD4B1A68012A00F0B3
:10A7E000E081CC4B1A68012A00F0CD81CA4B1A686F
:10A7F000012A00F0A181C94B1A68012A20D0E6B1D4
:10A80000C74F00240125A30003F18043354203F51F
:10A81000C0434FEA45050BD0D3F8100557F8242064
:10A82000D3F81015C0F30520C1F3014102B19047E0
:10A830000134082CE7D1002E17DB04B0BDE8F08707
:10A8400000221A601B6801934FF0A042019BD2F8CE
:10A850002015B44B0291C2F82015D3F8202503929D
:10A86000C3F82025002E40F08B81AD4CAD4E012564
:10A870004FF0A04794F96000431C46D0C0F3C202D9
:10A8800004AB1A4400F0070312F8082C05FA03F38E
:10A890001A42C1B200F03F0037D01F2800F22581D4
:10A8A00002464FF0A04909EB820304EB000ED3F8F7
:10A8B00000C7D3F8008728F44038C3F80087CCF3EA
:10A8C000014C9EF93080D3F800E754F82880BCF1A1
:10A8D000020F0CBF4FF4403A4FF4003A05FA02F26F
:10A8E0004EEA0A0EC3F800E7C9F82025B8F1000FB8
:10A8F0000BD08909032900F0B381BCF1020F00F0ED
:10A90000BE81BCF1030F00F0A88194F96100411CE5
:10A9100046D0C0F3C20204AB1A4400F0070312F899
:10A92000082C05FA03F31A42C1B200F03F0037D0F9
:10A930001F2800F2DE8002464FF0A04909EB820397
:10A9400004EB000ED3F800C7D3F8008728F4403892
:10A95000C3F80087CCF3014C9EF93080D3F800E7B0
:10A9600054F82880BCF1020F0CBF4FF4403A4FF46A
:10A97000003A05FA02F24EEA0A0EC3F800E7C9F8F7
:10A980002025B8F1000F0BD08909032900F06D8153
:10A99000BCF1020F00F06B81BCF1030F00F062818B
:10A9A00094F96200421C46D0C0F3C20204AB1A44C0
:10A9B00000F0070312F8082C05FA03F31A42C1B29B
:10A9C00000F03F0037D01F2800F2AE8002464FF063
:10A9D000A04909EB820304EB000ED3F800C7D3F8BB
:10A9E00000879EF930E028F44038C3F80087CCF3A4
:10A9F000014CD3F800A754F82E80BCF1020F0CBF15
:10AA00004FF4403E4FF4003E05FA02F24EEA0A0EC1
:10AA1000C3F800E7C9F82025B8F1000F0BD0890969
:10AA2000032900F01381BCF1020F00F02481BCF176
:10AA3000030F00F0088194F96300431C45D0C0F374
:10AA4000C20204AB1A4400F0070312F8082C05FAFE
:10AA500003F31A42C1B200F03F0036D01F2867D876
:10AA600002464FF0A04909EB820304EB000ED3F835
:10AA700000C7D3F800879EF930E028F44038C3F8C7
:10AA80000087CCF3014CD3F800A754F82E80BCF11A
:10AA9000020F0CBF4FF4403E4FF4003E05FA02F2A5
:10AAA0004EEA0A0EC3F800E7C9F82025B8F1000FF6
:10AAB0000BD08909032900F0CE80BCF1020F00F011
:10AAC000E280BCF1030F00F0C380D7F8202502928A
:10AAD000C7F82025D6F820350393C6F82035134350
:10AAE0007FF4C8AE04B0BDE8F08701F01F02B146A4
:10AAF000D9E601F01F02B14620E700BF0061004027
:10AB000004610040086100400C6100401061004099
:10AB100014610040186100401C6100407C610040ED
:10AB2000007A00200003005001F01F02B14650E7F8
:10AB300001F01F02B14696E7554AD2F804231206E7
:10AB40007FF559AE00221A6019680091196E0098BD
:10AB5000012903F1600346F080067FF450AE1A60CD
:10AB60001B6801934FF0A042019BD2F82015494B7E
:10AB70000291C2F82015D3F820250392C3F82025AE
:10AB800046F000463CE6424AD2F8042351067FF5DF
:10AB90002DAE00221A601B680093009B46F0400611
:10ABA00024E63B4AD2F8042390067FF51AAE002231
:10ABB0001A601B680093009B46F0200611E6344A99
:10ABC000D2F80423D4067FF507AE00221A601B6872
:10ABD0000093009B46F01006FEE52D4AD2F80423B0
:10ABE00015077FF5F4AD00221A601B680093009BE7
:10ABF00046F00806EBE5264AD2F8042357077FF50E
:10AC0000E1AD00221A601B680093009B46F0040629
:10AC1000D8E51F4AD2F8042392077FF5CEAD002273
:10AC20001A601B680093009B46F00206C5E51849B0
:10AC3000D1F8046316F001063FF4BAAD136013684F
:10AC40000093009BB4E502297FF4F5AEC047F2E61D
:10AC500002297FF43AAFC04737E702297FF455AEA7
:10AC6000C04752E602297FF49BAEC04798E601290F
:10AC70007FF496AEF9E701297FF4DDAEE6E701291E
:10AC80007FF443AEECE701297FF41FAFE3E700BF99
:10AC90000060004000030050014B1B68184700BFD4
:10ACA0006C7A0020114B98421DD130B583B000233F
:10ACB0000DF107008DF807300D46FDF71BFF0C4B1B
:10ACC0001C794CB99DF807001D6001221A71FDF72F
:10ACD00037FF204603B030BD9DF80700FDF730FF79
:10ACE000112003B030BD0020704700BF002000409D
:10ACF0006C7A0020034B984203D1034B00221A6068
:10AD00001A717047002000406C7A002030B56E4AFE
:10AD1000D2F8043399058BB068D5D2F82431002BD2
:10AD200064D00023C2F82431D2F8243101934FF4C7
:10AD30000171664B0198C2F8081393F8291009B9FC
:10AD400001215160604902228DF81820D1F8802439
:10AD5000C1F880249869D968099200240025CDE9BA
:10AD60000710C3E90645D3E9001206A89047564AE2
:10AD7000D2F81C31C3B1554B5869196A88426AD957
:10AD800093F8281001F0FF00002964D1C2F81C01DB
:10AD9000D2F81C11039103999C68186A196A205C07
:10ADA00001311962C2F81C05474AD2F84431DBB1BF
:10ADB0000021464BC2F84411D2F8440193F82910FF
:10ADC0000090009809B1012111609A6962B1586A36
:10ADD000D96800229A610122CDE907108DF8182068
:10ADE00006A8D3E9001290470BB030BD364AD2F81E
:10ADF00004335B07BBD5D2F80831002BB7D0334BF7
:10AE0000996900293ED00021C2F80811D2F8081132
:10AE100004910499D868596AD2F8182542545A6A9C
:10AE2000996901325A625A6A8A42A0D1DA69002AC3
:10AE300031D0DD685C6A18699A6101210022D8600E
:10AE4000DA615A628DF81810CDE90754D3E900127F
:10AE500006A890478BE71C4A0021C2F81C11D2F8C3
:10AE60001C210292029A5A69002A9DD058699A6858
:10AE70008DF8181008905961079206A8D3E90012BE
:10AE8000904791E7C2F80811D2F80801059005989B
:10AE9000D2F81825C7E793F8292012B90A4A0121E8
:10AEA0005160094A4FF40171C2F80813596ADA680F
:10AEB00008910024012007928DF81800D3E90012B0
:10AEC0009C6106A8904752E700200040787A002055
:10AED0002DE9F041DFF8E48106792C2303FB06839A
:10AEE00082B093F82A30002B40F09E8005460C4635
:10AEF00000686D491746FFF7D5FE002840F09080A6
:10AF00002368591C19D01F2B4FF001028ABF6749D3
:10AF10004FF0A04103F01F0302FA03F3C1F8083514
:10AF200023681F2B86BF03F01F03604A4FF0A04227
:10AF300003F5E073032142F8231063685A1C0BD019
:10AF40001F2B86BF03F01F03584A4FF0A04203F5A2
:10AF5000E073002142F823102B68A269C3F824256E
:10AF6000217D637D2A680B43C2F86C35D4E9001259
:10AF70002B68C3F81425C3F80C15237D012B5FD073
:10AF80002C2303FB06F308EB03025760226948F801
:10AF900003202A6897B30021237FC2F81C11D2F83E
:10AFA0001C2100922A68009FC2F84411D2F8441173
:10AFB0002A6801913E4C0199C2F804432A6842F381
:10AFC000073100294FEA123232DB01F1604101F50D
:10AFD00061415B01DBB281F800332A6842F3073339
:10AFE000002B4FEA123109DB324C01225B0901F0E0
:10AFF0001F0102FA01F144F823102A682C2303FBF5
:10B000000686012400230421C2F80015C6E9063390
:10B0100086F82A4086F82930736102B0BDE8F081D5
:10B02000112002B0BDE8F081082002B0BDE8F08137
:10B03000214902F00F025B011144DBB20B76CCE731
:10B04000A368591C0BD01F2B86BF03F01F031749A1
:10B050004FF0A04103F5E073002241F82320E3689C
:10B060005A1C1AD01F2B8ABF10494FF0A04103F081
:10B070001F03012202FA03F3C1F80835E3681F2B0E
:10B0800088BF03F01F0303F5E0738CBF07494FF03F
:10B09000A041032241F82320E3682A68A168C2F88E
:10B0A0000835C2F810156BE70DAD02000003005023
:10B0B0008000020000E100E0FCEC00E0787A002073
:10B0C000F8B53E4F047902682C2303FB047300217A
:10B0D0005B68C2F80015C3B10368394AC3F8082396
:10B0E000036843F30732002A4FEA13310EDB52099B
:10B0F000344D2032012301F01F0103FA01F145F81C
:10B100002210BFF34F8FBFF36F8F0368D3F80C6526
:10B11000D3F81455D3F80825D3F810154FF0FF3C99
:10B12000C3F814C5C3F80CC503686645C3F808C561
:10B13000C3F810C50CD01F2E86BF06F01F06224B89
:10B140004FF0A04306F5E0764FF0020C43F826C01E
:10B150006E1C0BD01F2D86BF05F01F051A4B4FF03C
:10B16000A04305F5E075022643F825604D1C0BD081
:10B170001F2986BF01F01F01134B4FF0A04301F5BB
:10B18000E071022543F82150531C0BD01F2A86BFC3
:10B1900002F01F020C4B4FF0A04302F5E0720221B7
:10B1A00043F822100068FFF7A5FD2C2303FB04746D
:10B1B000002384F82A306360F8BD00BF787A00204D
:10B1C0008402020000E100E0000300502DE9F0419C
:10B1D000314E05792C2303FB05630446586984B07E
:10B1E00000284CD15A619960186283F828002268BF
:10B1F000C2F81C01D2F81C11226802910121029FA1
:10B2000091602268D3F808C0C2F81C01D2F81C1162
:10B21000019101991F6A196A1CF8077001311962BE
:10B22000C2F81C755A6812B104B0BDE8F0815F69BC
:10B230001A6A216897421BD9864602E093F82820B3
:10B240000ABBD1F81C21002AF8D0C1F81CE1D1F8C2
:10B250001C210392039AD3F820801A6A1CF80880F4
:10B2600001321A62C1F81C851A6A9742E9D821682E
:10B27000D1F81C31002BFBD00123CB6004E011205E
:10B2800004B0BDE8F0810F202C2303FB05650023EB
:10B290006B6104B0BDE8F081787A002030B5574B7F
:10B2A000D3F824218BB0002A75D00022C3F82421C2
:10B2B000D3F82421049202228DF81820049AD3F89E
:10B2C00080144F4AC3F880140991D3F83C15D36811
:10B2D0000891002400250793C2E9064511685368C8
:10B2E00006A89847454BD3F8442152B10021444A5F
:10B2F000C3F84411D3F844019169039003980029DD
:10B3000038D13E4BD3F820215AB10021C3F8201187
:10B31000D3F8202102920120394A029CD86050695A
:10B32000D8B9364BD3F85821AAB10021C3F8581127
:10B33000D3F85801324A01900198506958B1D3F8B6
:10B340004C05936808908DF818105161079306A872
:10B35000D2E9001398470BB030BDD3F84C05936881
:10B3600008908DF818105161079306A8D2E90013D0
:10B370009847D6E7D3F83C35D168089300240025D8
:10B38000012307918DF81830C2E90645D2E9001370
:10B3900006A89847B5E7D3F810110029A2D0C3F842
:10B3A0001021D3F810111648059105998469D3F836
:10B3B0003C15A14296D1C469A4B1D3F8005284616E
:10B3C00025F02005C3F80052D0E90343C2610122F1
:10B3D0000891C3600168436807948DF8182006A897
:10B3E00098477FE7C26884610123CDE907218DF882
:10B3F0001830D0E9001306A8984773E700200040F2
:10B40000A87A00202DE9F0430779824E07EBC703A5
:10B4100006EB830387B093F82030002B40F0B9800F
:10B4200004460D4600687C499046FFF73BFC002827
:10B4300040F0AB802B68591C4FEAC70919D01F2B6D
:10B440004FF001028ABF75494FF0A04103F01F037E
:10B4500002FA03F3C1F808352B681F2B86BF03F0EF
:10B460001F036E4A4FF0A04203F5E073032142F838
:10B4700023106B685A1C0BD01F2B86BF03F01F03D1
:10B48000664A4FF0A04203F5E073002142F8231012
:10B490002368AA69C3F82425297D6A7D23680A43A5
:10B4A000C3F86C25D5E900312268C2F80C35C2F822
:10B4B00014152B7D012B78D009EB070206EB8203D4
:10B4C000C3F804802B6946F82230B8F1000F4BD046
:10B4D00021682B7F524D0022C1F81021D1F81011A4
:10B4E00001912168DDF804C0C1F82021D1F82011B4
:10B4F00002912168DDF808C0C1F82421D1F8241197
:10B5000003912168DDF80CC0C1F84421D1F8441141
:10B5100004912168DDF810C0C1F85821D1F8581104
:10B52000226805910599C2F80453226842F3073155
:10B5300000294FEA123230DB01F1604101F561412F
:10B540005B01DBB281F80033226842F30733002B42
:10B550004FEA123109DB334D01225B0901F01F0173
:10B5600002FA01F145F8231022684F4406EB8706E2
:10B57000002301240821C2F80015C6E9063386F825
:10B580002040736107B0BDE8F083112007B0BDE82B
:10B59000F083082007B0BDE8F083234902F00F02D2
:10B5A0005B011144DBB20B76CEE7AB68591C0BD0C4
:10B5B0001F2B86BF03F01F0318494FF0A04103F56E
:10B5C000E073002241F82320EB685A1C1AD01F2B8D
:10B5D0008ABF12494FF0A04103F01F03012202FA73
:10B5E00003F3C1F80835EB681F2B88BF03F01F0376
:10B5F00003F5E0738CBF09494FF0A041032241F8E5
:10B600002320EB682268A968C2F80835C2F8101533
:10B6100052E700BFA87A00209DB20200000300504C
:10B620001003420000E100E0FCEC00E02DE9F041F5
:10B630000579564C05EBC50304EB830301465B68B3
:10B64000006882B0EE00C3B1514BC0F808330B68FC
:10B6500043F30732002A4FEA13330EDB5209DFF8B7
:10B6600038C12032012703F01F0307FA03F34CF817
:10B670002230BFF34F8FBFF36F8F721904EB82023A
:10B68000D0F80032926923F02003C0F8003242B1B2
:10B690000023C0F84431D0F8443100930123009ACC
:10B6A00043600023C0F85831D0F858310193731922
:10B6B000012204EB8303019FC2609A69D0F85831DC
:10B6C000002BFBD01AB1D0F84431002BF6D0002368
:10B6D000C0F800350B684FF0FF38D3F80CE5D3F80D
:10B6E00014C5D3F80825D3F81075C3F80C85C3F832
:10B6F00014850B68C645C3F80885C3F810850CD0BF
:10B70000BEF11F0F86BF0EF01F0E22494FF0A04161
:10B710000EF5E07E022341F82E30BCF1FF3F0CD045
:10B72000BCF11F0F86BF0CF01F0C1A494FF0A0414F
:10B730000CF5E07C022341F82C30791C0BD01F2F34
:10B7400086BF07F01F0713494FF0A04107F5E077C8
:10B75000022341F82730531C0BD01F2A86BF02F06A
:10B760001F020C494FF0A04102F5E072022341F89C
:10B770002230FFF7BFFA354404EB8504002384F838
:10B780002030636002B0BDE8F08100BFA87A0020DD
:10B79000100342000003005000E100E0F0B401F0AB
:10B7A0006044B4F1005F82B02CD10579274E05EBDF
:10B7B000C50406EB840403466069EF0000283ED10F
:10B7C0006261A1601A68C2F82001D2F820C11A682B
:10B7D000CDF804C0DDF804C0C2F85801D2F85821F1
:10B7E00000921A68DDF800C0D4F814C0C2F84415FD
:10B7F000C2F848C51A6801219160626832B102B08E
:10B80000F0BC7047102002B0F0BC70471A6800E02E
:10B81000C8B9D2F82011D2F858010029F8D090B94F
:10B820000121D1601B68D3F85821002AFBD07B1975
:10B8300006EB830300225A6102B0F0BC704711206E
:10B8400002B0F0BC70470F20F1E700BFA87A0020DB
:10B85000032806D8012A06D001291BD0022908D0C6
:10B8600071B107207047012911D002294FF0000261
:10B87000F6D10B4B00EB4000034400205A70704798
:10B88000074B00EB4000034408469A70704700F1F4
:10B890000E02D2B200EB400301490020CA547047A7
:10B8A000CC7A002010B50388102B07D0112B04D1BF
:10B8B000254B18680138186030B110BD224C216842
:10B8C00011B30131216010BD01220221FFF7C0FF39
:10B8D00040B1072806D01D4B1B68002BEDD0BDE8FA
:10B8E00010401847072202210120FFF7B1FF08B1DD
:10B8F0000728F0D1002108460A22FFF7A9FF0028F7
:10B90000DBD00728E7D1D8E701220846FFF7A0FFE0
:10B9100038B1072805D00D4B1B6803B19847216843
:10B92000CFE7072202210120FFF792FF08B1072885
:10B93000F1D1042202210020FFF78AFF0028EED077
:10B940000728E8D1EBE700BFDC7A0020D87A002096
:10B9500075DF704776DF70478FDF7047FCF73EBEBC
:10B96000014604484B8803EB430300EBC30002F09D
:10B9700003B900BF7C8100200378052B00D07047FD
:10B9800040680028FBD0FCF729BE00BF0B2801D07F
:10B99000FCF724BEF8B5104C0D4643F2020704F143
:10B9A000C0062046294602F07FFA30F0080304F171
:10B9B000180402D0B84200D0F8BDA642F1D1074B1E
:10B9C00007480849C01AC00800042A4640F003008E
:10B9D000BDE8F840FBF7F6BF7C81002038F5020097
:10B9E00060F50200A8EB020070B50E78012E0C463F
:10B9F00014D0022E25D11948194D0B794A881949BE
:10BA0000401BC008000440F00300FCF7A9F82379AC
:10BA10003046BBB1BDE87040FEF7E0BA104B4A8833
:10BA2000114905460D48C01AC008000440F0030043
:10BA3000FBF7C8FFFCF78EFD60B9284602F00CFA50
:10BA400020B970BDBDE87040FEF7DABABDE87040BD
:10BA5000FCF7C4BDFCF7C2FDEFE700BF60F50200D4
:10BA600038F50200F4EB0200C0EB020030B50388A9
:10BA7000212B83B004464CD80F2B48D9103B112BF7
:10BA800045D8DFE803F00966444444444444444450
:10BA900044444444445E44544B4B4C4D82884C498E
:10BAA000ED1AED082D0445F003052846FBF78AFF43
:10BAB000A188072973D8474B01EB410003EBC00075
:10BAC000002202F023FA002866D1A188424B4FF4ED
:10BAD000BA6000FB013000F0D5FD002859D10120EB
:10BAE000FEF77CFA00F084FA08284FF000004DD0F1
:10BAF000FEF774FA2846394A3949FBF763FF39489B
:10BB000001F0EEFE002859D10020FEF767FA03B0DD
:10BB100030BD3B2B01D0562BF9D1A0881321FFF764
:10BB200019FF0028F3D0FCF759FD03B030BD002306
:10BB30008088ADF8043001A9FFF70EFF0028E6D099
:10BB4000F1E700F108018088FFF702FF0028DED04E
:10BB5000E9E71E481C4D237AA2882349441BE408C8
:10BB6000240444F003042046FBF7FAFF00F040FAF7
:10BB7000E8B12046194A1A49FBF724FF194801F099
:10BB8000AFFE88B90020FEF729FABDE7FEF738FAC4
:10BB9000BDE7FCF723FDA2E7FCF720FD95E70020B9
:10BBA000FCF71CFDA18886E7FCF718FDEAE7FCF727
:10BBB000E7FC30B90120FEF723FADAE7FCF70EFDC7
:10BBC000A2E7FCF70BFDF5E738F5020060F502008F
:10BBD00024EC02007C810020FC4300206CED02007C
:10BBE00058EC02003C8200207CEC020000B54FF4CF
:10BBF000804187B00020FBF7ABFC002840F0938029
:10BC0000FBF796FCFCF7CAFE002840F0B08001204C
:10BC1000FEF708FA574840F233320121FCF73AFCAC
:10BC2000002840F0A180FDF729FF002840F099800E
:10BC300002F07CF9002840F09180002302A9012045
:10BC4000029302F04FFA002840F0858002A802F02B
:10BC500007FB00287CD14848002101F089F9002821
:10BC600073D1082200210DEB020002F0C5FB434D09
:10BC7000434B029302A8039500F082FC002861D197
:10BC8000404C414A414B0395029204F1C005049394
:10BC900001E0AC420AD0204602A9183402F066F84E
:10BCA0000028F6D0FCF79AFCAC42F4D100F098F9E9
:10BCB0001022002102A802F09FFB0123344A3548DC
:10BCC0008DF80C3002A98DF8143001F0ABFD00287E
:10BCD00035D1314A2F48002101F028FD60BB2D48A5
:10BCE0000022012101F088FD18BB2C4B2C482D4966
:10BCF000C01AC008000440F003000190FBF79EFD4D
:10BD00000198254A2849FBF75DFE224801F0E8FD2D
:10BD100060B90020FEF762F9FBF768FC0028FBD150
:10BD2000FDF7C2FEF8E7FCF759FC69E7FCF756FCA3
:10BD3000EFE7FCF753FCD8E7FCF750FCCFE7FCF744
:10BD40004DFCC6E7FCF74AFC9AE7FCF747FC88E79E
:10BD5000FCF744FC7FE7FCF741FC77E7FCF73EFC8F
:10BD60006BE7FCF73BFC63E7FCF738FC5BE7FCF7B1
:10BD700035FC4CE7D043002030810020D843002020
:10BD800061B902007C810020E9B902005DB90200BE
:10BD900079B902003C8200206CED020038F5020007
:10BDA00060F50200B0EC020058EC020032B3F8B5C6
:10BDB000054608B3012916464FF000030ADDEA18CC
:10BDC0005278092A06D0EA5C013213449BB25A1C0D
:10BDD0008A42F4DB8B420FD2EA5C6AB1013A97B235
:10BDE00057B102339CB2E3198B4205DC24B13046D3
:10BDF00002F014FBB84203D00020F8BD00207047C9
:10BE000002462919304602F0DBFAB0FA80F0400908
:10BE1000F8BD00BF42B3F8B5054618B30129164670
:10BE20004FF000040ADD2A195278082A06D02A5D4C
:10BE300001321444A4B2621C8A42F4DB8C4211D257
:10BE40002A5D7AB1013A97B267B10234A4B2E2191D
:10BE50008A4207DC34B1BB4204D8304602F0DEFA35
:10BE6000874203D30020F8BD002070473A462919C5
:10BE7000304602F0A5FAB0FA80F04009F8BD00BFE4
:10BE80002DE9F04703888788103B98B004460A2BB9
:10BE90001CD8DFE803F030291B1B1B1B1B1B1B1EC0
:10BEA0000600037A46483F2B4FEA1314394667D8F9
:10BEB000FDF75EF8032C65D042483946FDF758F887
:10BEC000022C63D040483946FDF752F818B0BDE85F
:10BED000F087037A002BF9D1437A39481B0739469A
:10BEE0006BD5FDF73BF8F1E738483946FDF740F8E8
:10BEF00018B0BDE8F087364A9368DB430093516879
:10BF00006846FDF765F8009B0193019B83B300260B
:10BF10003546294601A8FDF735F828B118AB03EBE3
:10BF20004603013623F8285C0135142DF1D10D9616
:10BF30000DF1340CBCE80F0002AD0FC5BCE80F00DA
:10BF40000FC59CE8070085E807008EB10DF10A08CF
:10BF5000DFF888A008EB460638F8029F1D4D2846FA
:10BF600049460435FDF704F8AA45F8D1B045F3D1A8
:10BF7000132F12D90420FCF731FB18B0BDE8F0876D
:10BF8000FCF7ECFF0F483946FCF7E8FF0E4839464E
:10BF9000FCF7E4FF18B0BDE8F0870C483946FCF721
:10BFA000DDFF0C483946FCF7D9FFE37B022B8DD12E
:10BFB00009483946FCF7D2FF88E7FCF7D9FF85E747
:10BFC000E0820020DC820020D8820020D082002085
:10BFD000C8820020CC820020D4820020448300202C
:10BFE00002487C22002102F007BA00BFC88200206C
:10BFF00030B50C4B83B0DA68009299686846FCF75C
:10C00000E7FF0025009B01932C46214601A801343F
:10C01000FCF7B8FF00B10135142CF6D1284603B067
:10C0200030BD00BFC88200202DE9F84F684F90F85E
:10C03000C6623D68C6EB0613C6EB8303044600EBFD
:10C04000430045B388465900624B807893F802C09C
:10C05000844500F0A580012D1DD993F806C08445C4
:10C0600000F0A680022D16D093F80AC0844500F097
:10C07000A780032D0FD093F80EC084450DD0042D5A
:10C0800009D093F812C084457CD0052D03D093F8D5
:10C0900016C084457ED0BDE8F88FB3F80CE034F8C4
:10C0A00001C0E645EBD14C4BD3F800B0BBF1000F1B
:10C0B000F1D0D4F8CC92B9F1050FECD804EBC91A41
:10C0C0007623AAF8D22203FB06411A460AF53570F8
:10C0D00002F084F9B8F1000F09F1010314BF002246
:10C0E0000222AB42CAF84CB38AF8D022C4F8CC3250
:10C0F000D1D1D4F84C3304F5347098473B68012B08
:10C100003BD9D4F8CC3304F5547098473B68022BE4
:10C1100033D9D4F84C3404F5747098473B68032B3A
:10C120002BD9D4F8CC3404F58A6098473B68042BAB
:10C1300023D9D4F84C3504F59A6098473B68052B11
:10C140001BD9D4F8CC3504F5AA6098473B68062B78
:10C1500013D9D4F84C3604F5BA6098473B68072BDE
:10C160000BD904F5CA650726EB6F284698473B684C
:10C1700001369E4205F18005F6D30023C4F8CC3287
:10C18000BDE8F88FB3F810E034F801C0E6457FF45D
:10C190007CAF88E7988A635A984284D0BDE8F88FCC
:10C1A000B3F800E034F801C0E6457FF454AF7AE715
:10C1B000B3F804E034F801C0E6457FF453AF72E70A
:10C1C000B3F808E034F801C0E6457FF452AF6AE7FF
:10C1D0004C83002050830020448300202DE9F0434D
:10C1E000064689B00C46154600212022684602F01A
:10C1F00003F996F8C68296F8C522C8EB0813C8EB77
:10C20000830806EB480E02EBC2039EF804005B00B5
:10C2100003EB4803511C0A338142334448D0824225
:10C220003ED24FEA4807122111FB027106F11C08A9
:10C230003144B84400F1FF3C62451B891BD04F8C50
:10C240000133BB421ED0013FBFB29BB21B48ADF8C9
:10C250001030002323702A46194B0068ADF8127085
:10C260006946042403968DF80040029301F0E0F83B
:10C2700009B0BDE8F083BEF80870BB4216D00133A8
:10C280009BB2E3E702EBC20308EB4303571C5FFAE0
:10C2900087F948453A4686F8C57201F11201CBD8B4
:10C2A00001230020237009B0BDE8F0830023EDE7EF
:10C2B0001B89BEF80870BB42E1D1F1E7688300201A
:10C2C000C5C202002DE9F0430C463F4994F8C6323E
:10C2D0000D68C3EB0316C3EB860300211646A1B01D
:10C2E0005A0084F8C81204EB4303F5B137499B7830
:10C2F00007468878984254D0012D16D988799842FB
:10C3000055D0022D11D0887A984256D0032D0CD0EA
:10C31000887B98421FD0042D07D0887C984235D066
:10C32000052D02D0887D984236D0DFF8A48001AD7B
:10C330007C220021284602F05FF8D8F80030ADF8E2
:10C340000660032202948DF804200BB1284698471A
:10C3500021B0BDE8F083B1F80CC0A05A8445DAD111
:10C36000DFF86C80D8F8009001ADB9F1000FDFD094
:10C3700028467C22002102F03FF80123ADF8066038
:10C38000029728468DF80430C847D1E7B1F810C0AD
:10C39000A05A8445C4D1E3E7898AA35A9942C4D1FB
:10C3A000DEE7B1F800C0A05A8445A5D1D8E7B1F8BE
:10C3B00004C0A05A8445A4D1D2E7B1F808C0A05A5D
:10C3C0008445A3D1CCE700BF4C83002050830020DC
:10C3D000448300202DE9F0430446A9B020220D46F5
:10C3E00001A8002102F008F8604E94F8C7323268C4
:10C3F0000133DBB2934284F8C73231D294F8C632AB
:10C400005B4F04940133DBB2C3EB0312C3EB820234
:10C4100057F8230084F8C6324FF0000984F8C5921B
:10C4200004EB420144F81200762202FB034381F838
:10C4300004901A684F48CDF8162002224E4B8DF812
:10C4400004204FF0010C0068ADF814C001A92A4681
:10C45000039300F0EDFF8046C0B929B0BDE8F0833A
:10C4600000217C2284F8C81209A801F0C5FF434BC3
:10C47000ADF826501B680A9403228DF82420002B67
:10C48000EBD009A8984729B0BDE8F08394F8C632EC
:10C49000326884F8C892C3EB0311C3EB81035900DF
:10C4A00004EB4303E2B19B78B87898424AD0012A62
:10C4B00016D9B87998424AD0022A11D0B87A98424F
:10C4C0004AD0032A0CD0B87B98424AD0042A07D01D
:10C4D000B87C984217D0052A02D0BA7D9A422CD057
:10C4E000264F09AE7C220021304601F085FF3B68D3
:10C4F000ADF8265003220A948DF82420002BACD0EE
:10C5000030469847A9E73E8A605A8642E3D11B4FDE
:10C51000D7F8009009AEB9F1000FE3D030467C2285
:10C52000002101F069FF0123ADF82650CDF82880E5
:10C5300030468DF82430C847D4E7BA8A635A9A4205
:10C54000CED1E4E73E88605A8642B0D1DFE7BE88AC
:10C55000605A8642B0D1DAE73E89605A8642B0D14D
:10C56000D5E7BE89605A8642B0D1D0E74C8300201F
:10C570005083002068830020C5C20200448300204D
:10C5800080B1036873B1426862B130B406480749AC
:10C59000074D084C03600A600020012328602370C7
:10C5A00030BC70470E207047448300206883002011
:10C5B0004C83002048830020002857D02D4B1B7847
:10C5C0002BB370B42C4C2D4B2268002A50D08178AC
:10C5D0009D788D421DD0012A34D99D798D4222D07B
:10C5E000022A31D09D7A8D4222D0032A2CD09D7B05
:10C5F0008D4222D0042A27D09D7C8D422CD0052A42
:10C6000022D09D7D8D422CD0042070BC7047082024
:10C61000704706881D88AE42DDD11949096889B185
:10C62000002070BC70479E880588AE42D8D1F4E7E0
:10C630001E890588AE42D8D1EFE79E890588AE42B3
:10C64000D8D1EAE7052ADFD8511C006843F8220058
:10C650002160002070BC70471E8A0588AE42CED192
:10C66000DBE79D8A01888D42CED1D6E70E20704748
:10C670000121EAE7488300204C83002050830020FA
:10C6800044830020002843D0224B1B78DBB1224B8F
:10C690001B68C3B1F0B590F8C86289B00446A6B96A
:10C6A0000D464FF4BA6231461C4F01F0A5FE3146EB
:10C6B0006846202201F0A0FE3868294600F098FF65
:10C6C00030B109B0F0BD08207047112009B0F0BDAD
:10C6D000134BA4F8CA521B68C4F8CC0284F8C502F4
:10C6E000A4F8C6022A46236002260125CDF812309E
:10C6F00038680C4B039469468DF80060ADF8105013
:10C70000029300F095FE0028DBD184F8C852D8E7E8
:10C710000E207047488300204C830020688300204F
:10C7200050830020C5C20200002800F0E2802DE9FD
:10C73000F04F0D46A3B0002900F0AB80744B1B787E
:10C74000002B00F0A6800388322B044600F0EC801A
:10C7500000F2A280112B00F0CD80302B40F09980A8
:10C760008388B1F8CA229A4240F09380C388002B94
:10C7700040F0158291F8C6320269762101FB03531D
:10C78000C3F8062095F8C432827A1344062B00F3CE
:10C79000D08285F8C43203AE202200213046A7881B
:10C7A00001F02AFE0422002102A801F025FE95F8DE
:10C7B000C53295F8C622002B00F0EC81013BDBB2BC
:10C7C000762103EBC30301FB02F101EB43032B448E
:10C7D0005B8A01339BB2ADF80830762303FB02532A
:10C7E0004C481B89ADF80A3002994B4B0068059301
:10C7F000CDE9065103213A468DF80C10314600F080
:10C8000017FE0746002844D095F8C632434AB4F8CC
:10C8100004801168C3EB0312C3EB820300245800A9
:10C8200005EB430285F8C84219B33D4B92789C78DA
:10C83000944200F0DE8201291BD99C79944200F0D9
:10C84000DF82022915D09C7A944200F0EC82032901
:10C850000FD09C7B944200F0ED82042909D09C7C8F
:10C86000944200F0F282052903D0997D914200F0B4
:10C87000F3822C4C7C220021304601F0BDFD236860
:10C88000ADF80E80032204958DF80C200BB13046D4
:10C89000984723B0BDE8F08F332BFAD18288B1F8E6
:10C8A000CA329A42F5D1C18895F8C67295F8C56228
:10C8B000002940F051814389002B00F04D81762002
:10C8C00000FB07F006EBC60300EB430028442246BA
:10C8D000D389A3F52453082B00F22F81DFE813F04E
:10C8E0002B01500154012D012D012D012D012D0190
:10C8F0004A0170478288B1F8CA329A42C9D10022EF
:10C900004FF6FF7381F8C822A1F8CA32C1E700BF11
:10C910004883002068830020C5C202004C830020A9
:10C9200050830020448300208288B1F8CA329A42A2
:10C93000AFD1C388002B40F0E48091F8C672827AB0
:10C94000C7EB0713C7EB830301EB43085E0098F8BE
:10C9500004904A44062A00F3FF81D2B288F80420EA
:10C96000384691454B4680F01382A446762202FB5E
:10C9700007F709EBC90107EB41015CF80C9F98F838
:10C980000420DCF8048005EB010E1031CEF80A908B
:10C99000CEF80E80BCF808C0AEF812C0294403F1EE
:10C9A000010E4FF0000C9645C1F804C0C1F808C054
:10C9B0004FEAC30180F09980A0460EEBCE0158F8F3
:10C9C00016AF07EB410105EB0109D8F804B0C9F82F
:10C9D0000EB0C9F80AA0B8F80880A9F81280103182
:10C9E000294403F102084245C1F804C0C1F808C057
:10C9F0004FEACE0140F2C881A64608EBC8015EF8B6
:10CA000020AF07EB410105EB0109DEF804B0C9F8DE
:10CA10000EB0C9F80AA0BEF808E0A9F812E010317B
:10CA2000294403F1030E7245C1F804C0C1F808C0DF
:10CA30004FEAC80140F2AA81A0460EEBCE0158F899
:10CA40002AAF07EB410105EB0109D8F804B0C9F89A
:10CA50000EB0C9F80AA0B8F80880A9F81280103101
:10CA6000294403F104084245C1F804C0C1F808C0D4
:10CA70004FEACE0140F28881A14608EBC80159F87F
:10CA800034EF07EB410105EB010AD9F804B0CAF80D
:10CA90000EB01031CAF80AE0053305EB010E9A42D8
:10CAA000B9F80810AAF812104FEAC801CEF804C06D
:10CAB000CEF808C040F26A81214603EBC30E51F85C
:10CAC0003E8F07EB4E0705EB070ED1F80490CEF82A
:10CAD0000E901037CEF80A802F440989AEF8121054
